:10031F000A2DC0CFA4B0999282F880900A37404F2F
:10032F002430191202780010022B000005263443E6
:0A033F0010100105213443101001D5
:10039E00E4FDFCC3ED9FEC9E50070DBD00010C80EB
:1003AE00F2E4FCFDC3ED9FEC9E50070DBD00010C69
:0203BE0080F2CB
:0103C000221A
:0B041200EFD394004004001F80F6228E
:10015C007F64120412C291D2B2C2927B007A0079EF
:10016C00267510057F301202607A0079211202592F
:10017C007D017F211203F47D017F221203F4E4FD43
:10018C007F251203F47D147F311203F47D077F2643
:03019C000203F467
:1003DB00E4FEEF339294EF25E0FFD292A293E43345
:0803EB004207C2920EBE08EAAF
:0103F30022E7
:0C040500C2B21203DBE4FF1203DBD2B230
:0104110022C8
:1003F400C2B21203DBAC07AF051203DBD2B2AF0407
:0104040022D5
:060292008B128A1389148F
:10029800C2B21203DBAD07E4FCECC395155017E4BA
:1002A800FF1203DBAB12AA13A9148C82758300EF2B
:0A02B8001202370C80E3D2B2AF054A
:0102C2002219
:070259007B007510057F2AF0
:060260008B0D8A0E890FD0
:10026600C2B21203DBAD07E4FCECC395105018AB29
:100276000D050FE50FAA0E7002050E14F912021EE7
:0B028600FF1203DB0C80E2D2B2AF05D8
:01029100224A
:1002F4008B098A0A890BC2917A007926120259ABBA
:1003040009AA0AA90B7510147FA01202607D0E7F42
:0B031400201203F4D2917F0A020412B1
:0A041D00EFD3940040031F80F72284
:1002C3007F01EF6029EF6019D2B50000C2B57F50FE
:1002D30012041DD2B57F0912041DA2B5E433FF80B9
:1002E300E47F4012041DA2B5B3E433FF80D4D2B53A
:0102F30022E8
:05034A001202C37FCC8C
:02034F00AE07F7
:100351007D08D2B50000C2B50000000000EE139286
:10036100B57F0912041DEEC313FEDDE6D2B57F0190
:0303710002041D66
:10037400E4FE7D08D2B50000EEC313FEC2B5000052
:100384000000D2B50000000030B5034306807F09A9
:0903940012041DDDDFD2B5AF0635
:01039D00223D
:1003C10012034A7FBE12034F1203748F2B12037460
:0A03D1008F2C12034A7F4402034FF1
:10000300E4FFE52CD3947F400DE52CF404F52CE5B7
:100013002BF404F52B0FE52C540FC454F0FEE52B01
:1000230054F0FDC4540F4EF54775F06484F546E56E
:100033004775F0648485F045E54575F00A84F5431A
:10004300E54575F00A8485F042E52B540FB41000A2
:10005300507090005CF82828730200C20200C002AE
:1000630000BE0200B90200B40200B20200AD0200F9
:10007300AB0200A60200A102009F02009A020095B3
:1000830002009302008E02008E80007541098032C7
:100093008000754108802B754107802680007541DB
:1000A30006801F754105801A800075410480138006
:1000B30000754103800C7541028007800280007542
:0C00C3004101EF600475441122754422D5
:0100CF00220E
:10019F007580C6C2A37F2812041DD2A3742D2541DA
:1001AF00F8E6F580C2A27F2812041DD2A27437256B
:1001BF0042F8E6F580C2A17F2812041DD2A1742D4A
:1001CF002543F8E6F580C2A07F2812041DD2A02295
:1001DF00E4F50812015C12034A7F4412034F7F704B
:1001EF007E1712039EE508B4030EE4F5081203C14F
:1001FF001200037FF412041D050812019F7B007A81
:0F020F000079411202F47DFF7F271203F480D69D
:030000000200D02B
:0C00D000787FE4F6D8FD75814702011727
:10021E00BB010689828A83E0225002E722BBFE02DE
:09022E00E32289828A83E4932211
:10023700F8BB010DE58229F582E5833AF583E8F0FD
:10024700225006E92582C8F622BBFE05E92582C8A9
:02025700F22291
:1000DC000201DFE493A3F8E493A34003F68001F25A
:1000EC0008DFF48029E493A3F85407240CC8C33325
:1000FC00C4540F4420C8834004F456800146F6DFF4
:10010C00E4800B010204081020408090031FE47E61
:10011C00019360BCA3FF543F30E509541FFEE493E8
:10012C00A360010ECF54C025E060A840B8E493A3AF
:10013C00FAE493A3F8E493A3C8C582C8CAC583CADA
:10014C00F0A3C8C582C8CAC583CADFE9DEE780BE92
:0103490000B3
:00000001FF
