:04150400C104C10558
:03000300020006F2
:03000600D20532EE
:0C159A00C2AC8F993099FDC299D2AC22EE
:10137E00E4F594F593F592F591F596F595F5B2F5AC
:10138E00B1F5B4F5B3F5CAF5C9F5CCF5CBF5E2F583
:10139E00E17D557F5512142A754C557B557D557F31
:1013AE0055121224538E7F5389F0758A12758CFF55
:1013BE00C28DD2A9759850538EBF538EFE53890F8E
:1013CE00758BD8758DFFC2ABD28ED288D2A8D28A39
:0513DE00D2AAD2AF22EB
:1012A70012137E7B007A0079171214A27F5512154C
:1012B7009A3005FDC205D204300149C201E5452433
:1012C700EB601924FC600C24D2601F240770327D68
:1012D700018002E4FDAF3512106180250535E53543
:1012E700D39405401CE4F53580177B007A00791705
:1012F7001214D8E4FD7F8E1215387DA57F90121544
:0C13070038E4F54512119F120A8A80A5F7
:091508000717001022200504154C
:021061008D49B7
:10106300BF0109754A84754C17E4F54DBF02097534
:101073004A82754C3BE4F54DBF0309754A80754CB4
:101083003BE4F54DBF0409754A88754C0C754D0159
:10109300BF0509754A86754C1F754D01BF06097555
:1010A3004A8A754C07754D01E54A04FF1215A6EFF0
:1010B300C4540F75F00AA4FFC007E54A04FF1215D4
:1010C300A6EF540FFED0E02EF54BE549B40104051D
:1010D3004B8002154BE54BD3954C4003854D4BE5B7
:1010E3004BC3954D5003854C4BE4FD7F8E12153851
:1010F300E54B75F00A84C454F0FFE54B75F00A84A0
:10110300EF25F0FDAF4A1215387D807F8E0215382A
:06156000C286C2CBD28658
:0F156600EF7F08A2E09285D2CBC2CBC313DFF494
:011575002253
:0F158A007F08C313A28592E7D2CBC2CBDFF4FF59
:01159900222F
:10152800E4FD7FC61215387FC81215387D9B7FC42D
:0F153800AE05121560AF06121566D2CBC2862221
:0A15A60012156012158AD2CBC2861E
:0115B0002218
:1014D800754980E4FD7F8E1215387C0712146BFD68
:1014E800AF49121538740129F9E43AFA0549054952
:0C14F800DCEA1215287D807F8E0215387A
:1014A2007549807F811215A6EF30E729E4FD7F8E12
:1014B2001215387C0712146BFDAF491215387401EE
:1014C20029F9E43AFA05490549DCEA1215287D8032
:0514D2007F8E121538A9
:0114D70022F2
:10119F007F851215A68F16E516C4540FF530E51688
:1011AF00540FF52F752E0A7F831215A68F11E51197
:1011BF00C4540FF52DE511540FF52C752B0A7F81B3
:1011CF001215A68F14E514C4540FF52AE514540F05
:1011DF00F5297F891215A68F10E510C4540FF52835
:1011EF00E510540FF52775250B75260C7F87121503
:1011FF00A68F15E515C4540FF524E515540FF523E7
:10120F0075210D75220E7F8B1215A68F127F8D12F1
:05121F0015A68F13224B
:10001600FFFF1FF0EFEFF7DFF7DFEFEF1FF0FFFF58
:1000260000000000000000000000000000000000CA
:1000360000000000FFFFFFFFFFDFFFDF07C0EFDF6D
:10004600EFDFFFFF000000000000000000000000DE
:100056000000000000000000FFFF8FCF77DEF7DD15
:10006600F7DBF7D78FCFFFFF00000000000000008E
:10007600000000000000000000000000FFFFCFF1BC
:10008600B7EE77DF77DFF7DFCFE7FFFF000000008F
:10009600000000000000000000000000000000005A
:1000A600FFFFFFDB07C0EFDBDFDB3FFBFFF8FFFFF8
:1000B600000000000000000000000000000000003A
:1000C60000000000FFFFF7F1F7EE77DF77DFF7DEDE
:1000D60007E6FFFF0000000000000000000000002F
:1000E6000000000000000000FFFFFFF1E7EE77DFF1
:1000F60077DFEFEE1FF0FFFF0000000000000000BA
:10010600000000000000000000000000FFFFF7FFF5
:10011600C7FF37FFF7C0F7FFC7FFFFFF000000006C
:1001260000000000000000000000000000000000C9
:10013600FFFF8FE377DDF7DEF7DE77DD8FE3FFFF87
:1001460000000000000000000000000000000000A9
:1001560000000000FFFF1FF0EFEEF7DDF7DDEFCE4A
:100166001FFFFFFF0000000000000000000000006D
:100176000000000000000000FFFFFFFFFFFF3FCF71
:100186003FCFFFFFFFFFFFFF000000000000000061
:10019600000000000000000000000000FFFFFFFF5D
:1001A600FFFF0180DD7DDDBDDDFDDDFD0000000022
:1001B6000000000000000000000000000000000039
:1001C600DDFDDDFDDDFDDDFD01F0FFCFFFBFFF7FC6
:1001D6000000000000000000000000000000000019
:1001E60000000000FFFFFFFFFFFFFFFF01007DBFD4
:1001F6007DBF7DBF00000000000000000000000081
:1002060000000000000000007DBF7DBF7DBF7DBFF8
:100216000100FFFFFFFFFFFF0000000000000000DD
:10022600000000000000000000000000FFFFEFFFDC
:10023600EFFF0080EF7FEFBFEFF9EFFE0000000059
:1002460000000000000000000000000000000000A8
:10025600EFFFFFFF03C07BEF7BEF7BEF03C0FFFFEA
:100266000000000000000000000000000000000088
:1002760000000000FFFF7FFFBFFFDFFFEFFF73C03F
:100286007CBF7F7F0000000000000000000000002F
:1002960000000000000000007FBF7FFF79F877E7CD
:1002A6006FDFDFBFBF7F7FFF0000000000000000A0
:1002B600000000000000000000000000FFFF9FFF9C
:1002C600EFFCF7F3FFEF00D8FFBFC7BF0000000049
:1002D6000000000000000000000000000000000018
:1002E6003F7FFF7EDDF9DCFE01005BFEDBF9DBF71D
:1002F60000000000000000000000000000000000F8
:1003060000000000FFFFFFFFFFFFFFFFFFFFFFFFF3
:10031600FFFFFFFFFFFFFFFFFFFFFFFFFFFFFFFFE7
:10032600FFFFFFFFFFFFFFFFFFFFFFFFFFFFFFFFD7
:10033600FFFFFFFFFFFFFFFFFFFFFFFFFFFFFFFFC7
:10034600FFFFFFFFFFFFFFFFFFFFFFFFFFFFFFFFB7
:10035600FFFFFFFFFFFFFFFFFFFFFFFFFFFFFFFFA7
:10036600FFFFFFFFFFFFFFFFFFFFFFFFFFFFFFFF97
:10037600FFFFFFFFFFFFFFFFFFFFFFFFFFFFFFFF87
:10038600FFFFFFFFF7DF07C0F7DFF7DFF7DFEFEF6E
:100396001FF0FFFFFFFFF7DFF7DF07C0F7DFF7DF2D
:1003A600FFFFFFFFF7FFC7FF37DFFFC037DFC7FFDE
:1003B600F7FFFFFFF7FDF7FE76FF110067FFFF7CF3
:1003C600FFBF01DCFDE7FDF90DFEFD81FD7F017C30
:1003D600FF1FFFFFFFF7FFF7FFFB017B6D9D6DE141
:1003E6006DFE01FF6DFE6D016DFD01FBFFFBFFF76D
:1003F600FFF7FFFFFFFFFF8383BFBFBFBFBFBFBFC7
:10040600BFBF0080BFBFBFBFBFBFBFBF03BFFF032C
:10041600FFFFFFFFFFFFFF01FFBD81BDBDBDBD01AA
:10042600BDFFBDFFBDFFBD01BDBD81BDFFBDFF0160
:10043600FFFFFFFFFFFFFFFFFFFFFFFFFFFFFFFFC6
:10044600FFFFFFFFF7FDF7FE76FF1100677FFFBC9A
:1004560081DFBDE73DF8BDFFBDFF3DC0BDBF81BF2C
:10046600FF87FFFFFFFE7FFF9FFF0700F8FFBFEF3D
:10047600DFF3E7FCF0BFF77F3780F7FFF7FED7F92A
:10048600E7E7FFFF7FFF7FFF7FFF7FFF7FFF7FFFA6
:100496007FFF7FFF7FFF7FFF7FFF7FFF7FFF7FFF66
:1004A6007FFFFFFFFFFF07F0F7FF0000F7F707707A
:1004B600FF9F01E0BDFF7DFEFDFF01C0FFBFFFBF47
:1004C600FF87FFFFFF7FFF9F01E0FDFFEDDFDDEF11
:1004D6003DF3FDFC3DF3CDCFFDFF01F0FFCFFFBFA8
:1004E600FF07FFFFFFBF01C0FFFF03C0FFFF0000C4
:1004F600FF7F0DB0EDDFE5E729F8EDEFEDDF0DB09D
:10050600FD7FFFFFFFEFFFEFF7EFF7EFF7EFF7EFF7
:10051600F7EFF7EFF7EFF7EFF7EFF7EFF7EFFFEF9D
:10052600FFEFFFFFDFFFDFFFDFFF0180DFBFDFBF82
:1005360000B8DFBBDFBBDFBB00B8DFBFDFBFDFBF9D
:10054600DFFFFFFFEF7FEFBFEFDFEFE7EFF900BE63
:10055600EFDFEFEF0FC0EFBBEEBDE9BE2FBFEFBF82
:10056600EF87FFFFFF7F0180DDFDDD7D0100D7FE08
:1005760056DF91D2D7D6C0D6D7D693B05477D78682
:10058600DFFEFFFFFFDFFBDF7BDF7BDF7BDF7BDF6A
:100596007BDF7BDF7BDF7BDF7BDF7BDF7BDFFBDF05
:1005A600FFDFFFFFFFF7F7F777F777F776F771F7D4
:1005B60077F7070077F773F774F777F777F7F7F7B3
:1005C600FFF7FFFF7FFF7D7F7DBF7DCF01F07DFFC2
:1005D6007DFF7DFF7DFF7DFF01007DFF7DFF7DFFB0
:1005E6007FFFFFFFBFFBBBDBABDDABEDABEA2BB7A2
:1005F6008B7BA080ABF72BF7ABEAABEDABDDBBFBA0
:10060600BFFBFFFFFFFF0380FBD7FBDBFBDC03DF4A
:10061600FBDFFBDFFBDF03DEFBDDFBDDFBDD03805A
:10062600FFFFFFFFFFF6EFF66FF76DF7ADF6CDB6FE
:10063600ED760186EDF2CEF4AEF66EF76FF7EFF6D5
:10064600FFF6FFFFFFFEFDFEFDFEEDFE9DFEFDFE3D
:10065600FDFE0100FDFEFDFEBDFECDFEFDFEFDFE26
:10066600FFFEFFFF7FFF6F7F737F7B7B7BB97BB6D0
:100676000AD779EF7BEF7BD37BDC7BBF6B7F73FF86
:100686007FFFFFFFFFBFFDBFBDBFBDBFBD873DB83D
:1006960081BFBDBFBDBFBDBFBDBF3D80FDBFFDBFEF
:1006A600FFBFFFFFF7FDF6FE310047FFF7FCFFFF38
:1006B600FD0085B6B5B6B5B6B580B5B6B5B685B6E0
:1006C600FD00FFFFFFFF07E0FFFFFFFF0000BFFF8A
:1006D600DFFFE780F0DEE7DE97C0F7DEF7DEF780C4
:1006E600F7FFFFFFFFFF0700FEFFF9FFFFFFFFFF1A
:1006F600FDFFFDFFFDFFFDFFFDFFFDBFFD7F01804F
:10070600FFFFFFFFDFFFDFBFDFDFDFEFDFF3DFFC32
:10071600DEFFDDFFD3FFDFFEDFFDDFFBDFE7DF9F71
:10072600DFFFFFFFDFFFDFBFDFDFDFEFDFF3DFFC32
:10073600DEFFDDFFD3FFDFFEDFFDDFFBDFE7DF9F51
:10074600DFFFFFFFDF7FDF7FDFBFDFDFDFEFDFF30F
:10075600DFFC00FFDFFCDFF3DFEFDFDFDFBFDF7F84
:10076600DF7FFFFFFFBF01C0FFFF03C0FFFF0000E9
:10077600FF7F0DB0EDDFE5E729F8EDEFEDDF0DB01A
:10078600FD7FFFFF7FFF7FFF7FFF7FFF7FFFBFFFB5
:1007960000C0BFBFBFBFBFBFDFBFDFBFDFBFDF87D9
:1007A600FFFFFFFFFFFFFFBBFFBD41B6D5B6D5B6C6
:1007B600D5B61580D5B6D5B6D5B6C1B6FFBEFFBF80
:1007C600FFFFFFFFFBFFFB01FBFDFBFD0B856BB591
:1007D6006AB569B56BB56BB50B85FBFDFB7DFB019A
:1007E600FBFFFFFFFF7F0190BDF7BDF7BDD70130CF
:1007F600FFFFBDFF5DD061377DF75DF73DD7413027
:10080600FFFFFFFFFFFFFF7FFF9FFFE7FFF803FFED
:10081600FFFFFFFFFFFF81FF7FFCFFF3FFCFFFBF5F
:10082600FF7FFFFFF7FFF77FF7BFF7DFF7E707F871
:1008360076FF71FF77BF777F77BF77C0F7FFF7FF48
:10084600F7FFFFFFBFFFBFBFBDDF33E0FFDF7FBFA7
:1008560077AF77B300BC77BF77BF00A077BF77BF0E
:100866007FBFFFFFEFBFB3BFBBBBBBBBBBBBBBBB4E
:10087600BABB3980BBBBBBBBBBABBB9BBBBBABBFBC
:10088600F3BFFFFFFF7FEFBFEFDFEFE7EFF800FFFC
:10089600EFFFEFFFEFFFEFFF0FC0FFBFFFBFFFBF91
:1008A600FF87FFFF7FFF7DFF7DFF7DFF7DFF7DBF14
:1008B6007D7F1D805DFF6DFF75FF79FF7DFF7FFFEB
:1008C6007FFFFFFFFFFEFFBE75BFADB0DDA6A5969D
:1008D600B9B6BFB6B8B6A796DBA6ADB077BFFBBEB6
:1008E600FFFEFFFFDBF7DBF95BFE01005CFFDDFED1
:1008F600FFFBDDFB33FBFFFBFFFB0000FFFDFFFD06
:10090600FFFDFFFFBFFFBFFFBFFFBFFFBFFFBFFF73
:10091600BFFF0000BFFFBFFFBFFFBFFFBFFFBFFF9F
:10092600BFFFFFFF7FFF7FBFBFBFDFBBAFBBB7BB55
:10093600BBBB3C80BBBBB7BBAFBBDFBBBFBF7FBFD7
:100946007FFFFFFFBFFFBFFFBFFFBFFFBFFFBFFFB1
:10095600BFFF0000BFFFBFFFBFFFBFFFBFFFBFFF5F
:10096600BFFFFFFFFF7EFB76DB76DBB6DAB6D9D6B6
:10097600DBE603F0DBE6D9D6DAB6DBB6DB76FB766A
:10098600FF7EFFFFFDFFFDFF1D00DDBDDDBDCDBD13
:10099600D5BDD9BDDDBDDDBDDDBDDDBD1D00FDFFA8
:1009A600FDFFFFFFFBFBFBFB8BEAABEAABEAABAA67
:1009B600AB6A0080ABEAABEAABEAABEA8BE0FBFBE7
:1009C600FBFBFFFFFBFFFBFFFBFD0BFD6BFD6BBDA9
:1009D6006A7D69856BF56BF96BF90BFDFBFFFBFF18
:1009E600FBFFFFFFBF7FBDBF33C0FFBFFF7F1D0003
:1009F600DD76D576D5760D40D576D956DD361F40CF
:100A0600FF7FFFFFFB7FFBBFFBDFFBE7FBF903FE7F
:100A1600BBFFBBFFBBBFBB7FBBBF3BC0FBFFFBFF3F
:100A2600FBFFFFFFFBFBFBFB8BEAABEAABEAABAAE8
:100A3600AB6A0080ABEAABEAABEAABEA8BE0FBFB66
:100A4600FBFBFFFFEF7FEFBE0FDDE0EBEFF7EFE91C
:100A56000F9EFFFFFFFF0780F7DFF7DFF7DF078057
:100A6600FFFFFFFFEFBFEFCFEDFF2D88A97AA57A35
:100A7600AD72AC4AAD7AA57AA97A2D18EDFFEFEFE3
:040A8600EF9FFFFFE0
:101511000236000002380000013A00013C00C10619
:03152100013B0883
:10142A00EF139284EFA2E19283A2E29282A2E39264
:10143A0081A2E49280A2E592C6A2E692C53392FF07
:10144A00ED1392FEEDA2E192FDA2E292FCA2E392DA
:10145A00A7A2E492A6A2E592A5A2E692A43392A339
:01146A00225F
:10122400EF1392A1EFA2E192A0A2E292C4A2E392F0
:10123400C3A2E492C2A2E592EBA2E6929033929109
:10124400ED1392C7EDA2E19292A2E29293A2E392ED
:1012540094A2E49295A2E59296A2E692973392CC58
:10126400EB1392CDEBA2E192C0A2E292EDA2E39243
:10127400EEA2E492EFA2E592B4A2E692C83392B64B
:10128400E54C1392B5E54CA2E192C9A2E292B7A251
:10129400E392F8A2E492F9A2E592FAA2E692FB3371
:0312A40092C122D2
:101547007580FF7590FF75A0FF75B0FF75C0FF75BB
:09155700C8FF75E8FF75F8FF22DA
:1013E300C4540FFE75F024A42416F582E5F03400EE
:1013F300F583E5822DF582E5833CF583E493FF7560
:10140300F024EEA42417F582E5F03400F583E58299
:0E1413002DF582E5833CF583E493FD12142A47
:081421007F997E03DEFEDFFA75
:0114290022A0
:100A8A00E5356003020BA50539E53970020538D34F
:100A9A009400E53894034005E4F538F5398538368D
:100AAA00853937E53924BEFFE43538FEC3E5379F7B
:100ABA00E5369E4003020B98E53CC39410503C7403
:100ACA0021253CF8E6FE75F024A42416F582E5F00B
:100ADA003400F58375F002E53A121496E493FF7533
:100AEA00F024EEA42417F582E5F03400F58375F0BE
:100AFA0002E53A121496E493FD80047DFF7FFF120B
:100B0A00142AE53725E0FDE53633FC740A2DF58213
:100B1A0074033CF583E493FF740B2DF58274033C54
:100B2A00F583E493FD754CFF7BFF12122412142106
:100B3A00300503020F90053AE53AD394074041E4A1
:100B4A00F53AE53C94085005200602053CE53CD3FD
:100B5A0094074018200615753C14E53BD3940040D1
:100B6A0002153BE53B7005753C07D206E53CC3948C
:100B7A00105005300602053CE53CB41003753C14E0
:100B8A001215470537E53770020536020AADC20667
:100B9A00753B06E4F53AF53C020F8D121547E5352B
:100BAA0064016003020C70F536F537E53725E0FD80
:100BBA00E53633FCE5161213E40537E5377002050E
:100BCA0036C39408E536940040E1121547E4F53639
:100BDA00F537E53725E0FDE53633FCE5161213E374
:100BEA000537E53770020536C39408E536940040A8
:100BFA00E1121547E4F536F537E53725E0FDE53628
:100C0A0033FC74322DF58274023CF583E493FF744D
:100C1A00332DF58274021214180537E53770020570
:100C2A0036C39408E536940040CF121547E4F536EA
:100C3A00F537E53725E0FDE53633FC74562DF582A8
:100C4A0074023CF583E493FF74572DF58274021203
:100C5A0014180537E53770020536C39408E536944B
:100C6A000040CF121547E53564026003020D38F5DE
:100C7A0036F537E53725E0FDE53633FCE511121385
:100C8A00E40537E53770020536C39408E536940063
:100C9A0040E1121547E4F536F537E53725E0FDE57D
:100CAA003633FCE5111213E30537E53770020536D2
:100CBA00C39408E536940040E1121547E4F536F589
:100CCA0037E53725E0FDE53633FC747A2DF5827475
:100CDA00023CF583E493FF747B2DF58274021214AF
:100CEA00180537E53770020536C39408E5369400CF
:100CFA0040CF121547E4F536F537E53725E0FDE52F
:100D0A003633FC749E2DF58274023CF583E493FF1E
:100D1A00749F2DF58274021214180537E537700294
:100D2A000536C39408E536940040CF121547E535D9
:100D3A0064036003020E00F536F537E53725E0FD5A
:100D4A00E53633FCE5141213E40537E5377002057E
:100D5A0036C39408E536940040E1121547E4F536A7
:100D6A00F537E53725E0FDE53633FCE5141213E3E4
:100D7A000537E53770020536C39408E53694004016
:100D8A00E1121547E4F536F537E53725E0FDE53696
:100D9A0033FC74C22DF58274023CF583E493FF742C
:100DAA00C32DF58274021214180537E5377002054F
:100DBA0036C39408E536940040CF121547E4F53659
:100DCA00F537E53725E0FDE53633FC74E62DF58287
:100DDA0074023CF583E493FF74E72DF582740212E2
:100DEA0014180537E53770020536C39408E53694BA
:100DFA000040CF121547E53564046003020EC8F5BA
:100E0A0036F537E53725E0FDE53633FCE5101213F4
:100E1A00E40537E53770020536C39408E5369400D1
:100E2A0040E1121547E4F536F537E53725E0FDE5EB
:100E3A003633FCE5101213E30537E5377002053641
:100E4A00C39408E536940040E1121547E4F536F5F7
:100E5A0037E53725E0FDE53633FC74A22DF58274BB
:100E6A00013CF583E493FF74A32DF58274011214F7
:100E7A00180537E53770020536C39408E53694003D
:100E8A0040CF121547E4F536F537E53725E0FDE59D
:100E9A003633FC74C62DF58274013CF583E493FF66
:100EAA0074C72DF58274011214180537E5377002DC
:100EBA000536C39408E536940040CF121547E53548
:100ECA0064056003020F90F536F537E53725E0FD36
:100EDA00E53633FCE5151213E40537E537700205EC
:100EEA0036C39408E536940040E1121547E4F53616
:100EFA00F537E53725E0FDE53633FCE5151213E352
:100F0A000537E53770020536C39408E53694004084
:100F1A00E1121547E4F536F537E53725E0FDE53604
:100F2A0033FC74EA2DF58274013CF583E493FF7473
:100F3A00EB2DF58274011214180537E53770020596
:100F4A0036C39408E536940040CF121547E4F536C7
:100F5A00F537E53725E0FDE53633FC740E2DF582CD
:100F6A0074023CF583E493FF740F2DF58274021228
:100F7A0014180537E53770020536C39408E5369428
:070F8A000040CF12154722C1
:0315240001400083
:03000B0002157665
:10157600C0E0C0D00546E546D394FA4002D202D078
:04158600D0D0E032AF
:100F9100E4F548C2AAF53D753E00753F41FFE4FE08
:100FA10074002548F582E43400F583E0FDD3940410
:100FB10040047C0180027C00EDC3940950047D0152
:100FC10080027D00ED5C601BAB3DAA3EA93F12147F
:100FD1006BC313121484AB3DAA3EA93F12146B5488
:100FE1007F804174002548F582E43400F583E0FDFB
:100FF100D3940B40047C0180027C00EDC39410501B
:10100100047D0180027D00ED5C601CAB3DAA3EA920
:101011003F12146BC313121484AB3DAA3EA93F12B5
:10102100146B448012148405480EEE6408600302B8
:101031000FA17401253FF53FE4353EF53E0FEF6406
:10104100046003020F9FE5442543FFE433FEEFF400
:0F1051004E7007854345D20180037545FFD2AA33
:01106000226D
:03001300021313C2
:0B131300C0E0C083C082C0D075D008CD
:10131E00D28C85464775460030020EC202754000DB
:10132E00754600C203C200803EA20072035020AF79
:10133E0040054074002FF582E43400F583E547F054
:10134E00E540B4200A754000C203C28C120F91E52D
:10135E0047D394354005D203754000E547D39472C8
:07136E004005D200754000AC
:09137500D0D0D082D083D0E03248
:03000000021113D7
:0C111300787FE4F6D8FD75814D02115A7A
:10146B00BB010689828A83E0225002E722BBFE027F
:09147B00E32289828A83E49322B2
:10148400BB010689828A83F0225002F722BBFE0147
:02149400F32241
:0C149600A42582F582E5F03583F5832261
:10111F000212A7E493A3F8E493A34003F68001F22D
:10112F0008DFF48029E493A3F85407240CC8C333D1
:10113F00C4540F4420C8834004F456800146F6DFA0
:10114F00E4800B0102040810204080901504E47E17
:10115F00019360BCA3FF543F30E509541FFEE49395
:10116F00A360010ECF54C025E060A840B8E493A35C
:10117F00FAE493A3F8E493A3C8C582C8CAC583CA87
:10118F00F0A3C8C582C8CAC583CADFE9DEE780BE3F
:0115270000C3
:00000001FF
