:03000000020DC12D
:0C0DC100787FE4F6D8FD758144020E082E
:100D1900BBF9D3DAB5A5C6ACBBFAB5C4CEDECFDF15
:100D290000BAECCDE2B7C0B5C1B1A8BEAFCFB5CD61
:100D3900B300D0D5C3FBA3BAB9DCC8D9C1FA202006
:100D4900202000D1A7BAC5A3BA31353034303132A9
:100D590031312000C8D5C6DAA3BA253032642D2531
:100D69003032642D25303264202000CAB1BCE4A39E
:100D7900BA253032642D253032642D253032642075
:100D89002000CEC2B6C8A3BA253032642E2564200D
:100D9900202020B6C800C4A3CABDA3BAB2BCB7C03C
:100DA90020202020202000C4A3CABDA3BAB3B7B70E
:080DB900C020202020202000B2
:10119500040F00000000C111500000000000000015
:0B11A50000000000000000000000003F
:0C141E007F2B7E067DCBDDFEDEFCDFFABE
:01142A00229F
:100A8F00E4F523F524F52575B208C2B31213EE125F
:100A9F00141E1210FA12141E1210FA12141E121033
:100AAF00FA7BFF7A0D79197F801212E17BFF7A0DA5
:100ABF00792A7F901212E17BFF7A0D793B7F8812A2
:100ACF0012E17BFF7A0D794C7F981212E112141EFE
:100ADF0012141E12141E12144312124512144C1229
:100AEF00137A121465E5125401FFE4FEFDFCEF606A
:100AFF00F412108AE51254FEF512E511F511E51006
:100B0F00F510E50FF50F7529FF752A0D752B5D751E
:100B1F002C00850E2D752E00850C2F753000850B42
:100B2F00317B017A00790012067C7B017A00790013
:100B3F007F801212E17529FF752A0D752B74752CA4
:100B4F0000850A2D752E0085092F75300085083117
:100B5F007B017A00790012067C7B017A0079007F95
:100B6F00901212E1120FD8120EFD12024A8E248F2C
:100B7F00257529FF752A0D752B8B7C007D0A1205B3
:100B8F00878E2C8F2DAE24AF257C007D0A12058712
:100B9F008C2E8D2F7B017A00790012067C7B017AD7
:100BAF000079007F881212E190001EE0643470100B
:100BBF0090001DE064367008A3F090001DF0B21194
:100BCF007BFF2011067A0D799F80047A0D79B07F13
:100BDF00981212E1201111900012E0640170097F48
:100BEF0088121455B2B38002C2B3120EA9020AF4CE
:0E14100081838587898B8D80828486888A8C73
:0911B00007085009120504051995
:100F9100C2A000C2A200D2A000E4FEEEC394087475
:100FA1008094805011EF1392A1EFC313FFD2A200DE
:100FB100C2A2000E80E5E4FEEEC394087480948022
:100FC1005011ED1392A1EDC313FDD2A200C2A200F4
:060FD1000E80E5C2A00045
:010FD70022F7
:100E4D00C2A000C2A200D2A000E4FDEDC3940874BC
:100E5D008094805011EF1392A1EFC313FFD2A20023
:100E6D00C2A2000D80E500E4FDEDC39408748094EA
:100E7D0080501AA2A1E433FFC43333335480FCEE07
:100E8D00C3134CFED2A200C2A2000D80DCC2A00092
:0B0E9D00D2A200C2A100D2A100AF064B
:010EA8002227
:1011C500E4FD7F8E120F91E4FCECC39407748094C8
:1011D500805012EC90141793FF74082CF8E6FD125A
:0C11E5000F910C80E47D807F8E020F9142
:10108A00E4FBEBC3940774809480502BEB9014100C
:10109A0093FF120E4D74082BF8A60774082BF8E676
:1010AA00FFC4540F75F00AA4FEEF540F2EFF740804
:0710BA002BF8A6070B80CB09
:0110C100220C
:0811B900011800C1120117002A
:1013EE00439850438920758BFD758DFDD28ED2AFFB
:0113FE0022CC
:081455008F993099FDC2992224
:1013910012050DFF600C121455740129F9E43AFA93
:0313A10080EE22B9
:081131008B138A1489158D1639
:10113900E4FDFCC3ED95167480F86C98501CAB1354
:101149000515E515AA147002051414F912050DFF09
:0A1159001214550DBD00010C80D9E1
:011163002269
:0311C10001190011
:10137A00538E7F5389F0438901E4F58A758C4CC2F8
:07138A008DD28C43A88222E2
:03000B000210518F
:09105100C0E0C0D075D000C0075A
:10105A00758A00758C4CAF190519D3EF9409748001
:10106A0094804015751900E5124401F512E511F551
:09107A0011E510F510E50FF50F6A
:07108300D007D0D0D0E0320D
:0500060034431010015D
:100EA9001210C27F0712142B8F203006117B017A92
:100EB900007910752A047F61121164751A017F6423
:100EC9001213A4AD207F27121350E51A6401702371
:100ED900900010E0FF121455900011E0FF12145514
:100EE900900012E0FF121455900013E0FF12145500
:040EF900E4F51A22E0
:09144300C293D290C294D292220D
:1013A400E4FEEEC39F500B7DFADDFE7DFADDFE0EFA
:0213B40080F0C7
:0113B6002214
:10132900D3EF9400EE940040147D6E7C00ED1D70A7
:0D133900011CED4C70F7EF1F70E61E80E305
:011346002284
:10130700E4FEEEC39408748094805015EF339291F5
:10131700EF25E0FFD294A295E4334207C2940E80F2
:01132700E1E4
:0113280022A2
:091347007D017F211213507F2269
:10135000C290121307AC07AF05121307D290AF0467
:01136000226A
:0C142B00C290121307E4FF121307D290C6
:011437002292
:061164008B278A2889296F
:10116A00C290121307AD07E4FCECC3952A5017E4AA
:10117A00FF121307AB27AA28A9298C82758300EFCF
:0A118A001205650C80E3D290AF055A
:011194002238
:0B1017007BFF7A007906752D057F2A0B
:061022008B2A8A2B892CA9
:10102800C290121307AD07E4FCECC3952D5015AB25
:101038002AAA2BA92C8C82758300120526FF12136D
:08104800070C80E5D290AF0512
:01105000227D
:10124500C2931210171213477D287F251213507D64
:10125500047F311213507D077F261213507D0F7FB7
:0712650020121350D2932266
:100F48008B268A278928C2937BFF7A007906752D1C
:100F5800057F30121022121017AB26AA27A9287570
:100F68002D047FA01210221213477D0A7F2412132A
:100F7800507D287F251213507D077F261213507D40
:090F88000E7F20121350D29322B7
:10126C002092FD7FFF1213078F20300408300805F1
:10127C007FE1121307AD207F27121350D292300555
:07128C00037F00227FFF2217
:1010C2007F647E0012132990001474AAF0A374BBEB
:1010D200F0A374CCF0A374DDF07B017A00791412D2
:1010E2000F48D20812126C1212457FFA7E001213B8
:0810F200297FFA7E0002132998
:0A14380000007F367EC6DEFEDFFCFA
:011442002287
:07145D000000007F18DFFE14
:011464002265
:1013FF008F291213CAD2A4C2A5D2A6852980C2A64C
:01140F0022BA
:1012E1008B268A278928121361AB26AA27A92812DF
:1012F100050DFF60101213FF74012528F528E43550
:0613010027F52780E4221D
:041361007D017C008E
:101365008F29ED4C60031213CAC2A4C2A5D2A6856B
:051375002980C2A62240
:09144C007D017C007F01021365A3
:1013CA00C2A4D2A5C2A67580FFD2A6E580548070B9
:0213DA00EF2200
:1010FA00D2A7E4FDFC7F30121365121438E4FDFC1C
:10110A007F301213651214387F0C121361121438CF
:10111A007F011213611214381214387D017C007F8A
:07112A0006121365021438E0
:100EFD00C3EE64809480500DEF1F70011E6307FFD9
:100F0D006306FF8000AD07AC06EC1202118F298E2F
:100F1D00288D278C26E4FFFE7D207C3FAB29AA2857
:100F2D00A927A826120106E4FBFAF9783F1200154D
:0B0F3D0012024AAD07AC06EC020211E4
:100FD800E4F526F5271212937FCC1211F17F441203
:100FE80011F13096FD1212937FCC1211F17FBE12CF
:100FF80011F112121C8F2812121C7526008F27E57A
:0E10080027752700F526E5284227AE26AF27DC
:0110160022B7
:0713DC001213E3D2967F011A
:0B13E300AE071FEE6004000080F62241
:10129300D2D730D721C2967FF01213E37FF0121317
:1012A300E3D2967F3C1213E3A2967FF01213E37FFF
:0712B300B41213E380DC22FA
:10121C00E4FDFCECC39408748094805019EDC31366
:10122C00FDC2967F011213DC3096034305807F3C90
:08123C001213E30C80DDAF0585
:011244002287
:0211F100AD0748
:1011F300E4FCECFF3395E0FEC3EF9408EE648094C7
:10120300805015C2967F011213E3EDC313FD92962E
:081213007F3C1213DC0C80DAB1
:01121B0022B0
:0714650043A8814388012226
:03000300020BFFEE
:0D0BFF00C0E0C0F0C083C082C0D075D0003F
:100C0C00754400C2AFC2A87F0F1213B730B20302F3
:100C1C000D0A20B2077F011213B780F6754200C38C
:100C2C00E542940474809480506E754300C3E54390
:100C3C00940874809480505C30B2077F011213B713
:100C4C0080F620B2077F011213B780F630B2157F01
:100C5C00011213B70544C3E544941E74809480407C
:100C6C00EB020D0A74182542F582E43400F583E09A
:100C7C00C313F0C3E544940874809480400F741837
:100C8C002542F582E43400F583E04480F07544009D
:100C9C00054380990542808790001BE0F4FF90008B
:100CAC001AE0FE6F60028056EE540F90001DF0901B
:100CBC00001AE0C4540F90001EF090001DE0D39475
:100CCC0009748094804006E02437F0800790001D62
:100CDC00E02430F090001EE0D3940974809480409E
:100CEC0006E02437F0800790001EE02430F09000DE
:100CFC001EE0FF12145590001DE0FF121455D2A8EF
:020D0C00D2AF64
:0B0D0E00D0D0D082D083D0F0D0E032F3
:1013B700AE071FEE600C00007E027D7DDDFEDEFCC9
:0213C70080EEB6
:0113C9002201
:10000E000202B6E86480F8E933E83360110460F068
:10001E00ED33EC337009E8FCE9FDEAFEEBFF220458
:10002E0060DED3EB9FEA9EE99DE8C2E78CF0C2F753
:10003E0095F0400CE8CCF8E9CDF9EACEFAEBCFFB1F
:10004E0012028185D0F05804700320D5B3E80470F5
:10005E00075002B2D50202C092D5EC0460F7E4CC90
:10006E00C0E0C398F8603B94186008400DD0E0FBE8
:10007E00020298E4FBFAC9FC8028E830E406E4C9E1
:10008E00FBE4CAFCE830E305E4C9CACBFCE854073C
:10009E006010F8C3E913F9EA13FAEB13FBEC13FC47
:1000AE00D8F130F52FC3E49CFCEF9BFFEE9AFEEDEA
:1000BE0099FDD0E0FBEF4E4D4C701222DB03020295
:1000CE00BDEC2CFCEF33FFEE33FEED33FDED30E7F0
:1000DE00EB020298EF2BFFEE3AFEED39FDD0E0FB7E
:1000EE0050130BBB00030202C0ED13FDEE13FEEF27
:0800FE0013FFEC13FC02029851
:10010600EC4D6011E8497017ED33EC3304600DE4F3
:10011600FCFFFEFD22E933E8330470F80202B61252
:10012600028158046009E4CC248150062850090253
:1001360002C02840030202BDC0E0EB4A7044B98009
:1001460006D0E0FB0202ACEF4E701CBD8008EBFF50
:10015600EAFEE9FD80EBE98DF0A4FEE5F00201EF91
:10016600E9CDF9EAFEEBFFEF89F0A4FCE5F0CE89D4
:10017600F0A42EFFE435F0CD89F0A42DFEE435F091
:100186008067EF4E7005BD80D780C3EF8BF0A4ACBF
:10019600F0EE8BF0A42CFCE435F0F8EF8AF0A42CFA
:1001A600E5F038FCE433CB8DF0A42CFCE5F03BF80D
:1001B600EE8AF0A42CFCE5F038F8E433CF89F0A4FD
:1001C6002CFCE5F038CF3400CE89F0A42FFFE5F003
:1001D6003EFEE433C98DF0A42EFEE5F039CD8AF05B
:1001E600A42FFFE5F03EFEE43DFD33D0E0FB5007D3
:1001F6000BBB000F0202C0EC2CFCEF33FFEE33FE0C
:06020600ED33FD02029839
:10020C0075F020800E75F010800575F0087D007E6D
:10021C00007F003392D530D5031205DCEC3340104F
:10022C00EF33FFEE33FEED33FDEC33FCD5F0ED2276
:0E023C00E5F0247EA2D513CC92E7CDCEFF22B2
:10024A00EDD2E7CD33EC3392D524814006E4FFFEAC
:10025A00FDFC22FCE4CFCECDCC24E0501174FF800B
:10026A00EDC3CC13CCCD13CDCE13CECF13CF0470A8
:07027A00F030D5DE0205DCC7
:10062000E53D2429F8E6053D227826300F02782999
:10063000E475F0011205EA02050D2008EB7F2ED2C9
:10064000088018EF540F2490D43440D4FF300C0BA2
:10065000EF24BFB41A0050032461FFE53E60021589
:100660003E0541E54170020540300F0D7826E475E6
:10067000F0011205EAEF0205530212BA7403D20F19
:100680008003E4C20FF53D8B268A278928E4F53ED6
:10069000F540F541E53E60077F2012065B80F57569
:1006A0003FFFC209C208C20AC20BC20DC20EC2106D
:1006B000120629FF700D300F057F0012066CAF4146
:1006C000AE4022B4255FC2D5C20C120629FF24D049
:1006D000B40A00501A75F00A783E30D50508B6FF06
:1006E0000106C6A426F620D5047002D20B80D924B8
:1006F000CFB41A00EF5004C2E5D20C020959D20956
:1007000080C6D20880C0D20A80BCD2D580BAD20DB1
:1007100080B47F2012065B200A077401B53E0040BA
:10072000F1120620FF12065B020694D210D20E8050
:1007300095120620FB120620FA120620F94A4B7089
:100740000679507A0A7BFF200A2EE53E602A7E0059
:100750008E8275830012052660060EEE653F70F0EE
:10076000C2D5EBC0E0EAC0E0E9C0E0EE1209B9D0C2
:10077000E0F9D0E0FAD0E0FB12050DFF60AAEBC073
:10078000E0EAC0E0E9C0E012065BD0E02401F9D065
:10079000E03400FAD0E0FBE53F0460DCD53FD980CF
:1007A00087D20A80A212099C60F7E53F700104120B
:1007B00002CBA93F600DE53F600914F53F120A43E3
:1007C000EF60F3EA30E702F404C3995077EAF425C6
:1007D0003F0430E701E404F53F800D12099C60C13D
:1007E000EA053F253F1202CBEA783CF630E701E408
:1007F000253F04D53F04200D01141209B9E4C0E0DF
:10080000120A43783CE6601320E70714F612064309
:10081000802204F6D0E014C0E07F00120643E53FDA
:10082000600712063A153F800B300D0312063AD0CE
:10083000E0020694D0E00480C512099C60A0E53F68
:10084000041202CB783CEAF6E53F200D0260010479
:0508500024041209B9A7
:1008550074FF04C0E0120A43120643E53F200D026F
:10086500600312063AD0E0B53FE87F4512064D78A1
:100875003CE67F2B30E7047F2DF404C0E012065BD5
:10088500D0E075F00A84C0F0120644D0E0120644A8
:10089500020694791080027908C20EC2108008D22F
:1008A500D5790A8004790AC2D5E53F047002F53F7F
:1008B500E4FAFDFEFF120620FC7B08200913120650
:1008C50020FD7B1030080A120620FE120620FF7B51
:1008D50020EC3382D592D55013C3E43008069FFF30
:1008E500E49EFEE42009039DFDE49CFCE4CBF8C2F4
:1008F50009EC700CCFCECDCCE824F8F870F3801756
:10090500C3EF33FFEE33FEED33FDEC33FCEB33FB8E
:10091500994002FB0FD8E9EB300905F8D0E0C4484F
:10092500B209C0E00AEC4D4E4F78207B0070C2EA58
:10093500B53F0040BCC0E01209BBD0F0D0E02009B3
:1009450004C4C0E0C4B209C0F0120644D0F0D5F02A
:10095500EB0206941205FA07315308985807024C22
:1009650006FE42089C4F08A44408A44907174308FB
:10097500AA5507DB4608394507A5470A70500706FB
:100985002D070A2E072D2B070E23072B200A592A80
:1009950006C64800000725E53FB4FF03753F06126C
:1009A5000620FC120620FD120620FE120620FF7806
:1009B500350202FA790AA2D5200B14300D09B910B7
:1009C500020404B9080104A2D5200E025001042036
:1009D5000A68920AB53E005034C0E07F20300B19FA
:1009E5007F30A20A720E720D500F120A12C20AC28D
:1009F5000EC20DC2107F30800F300D03E9C0E0122A
:100A0500065B300D03D0E0F9D0E0B53ECC300D17D4
:100A15007F30B9100C12065B7F58300C077F788049
:100A250003B9080312065B300A057F2D02065B7FBA
:100A3500202010F87F2B200EF322920A80CF7F0012
:100A4500B4070050052435F8E6FF22286E756C6C56
:100A55002900D2091206203009F8C209783E30D59E
:100A65000108F60206C62D504349581206202403F4
:100A7500B405004001E4900A6B9312064C743A12D7
:0A0A8500064CD20B753E04020898DF
:10028100E9D2E7C933E833F892D5EDD2E7CD33ECC3
:0702910033FC5002B2D5223C
:10029800EC30E7100FBF000C0EBE00080DBD0004C7
:1002A8000BEB6014A2D5EB13FCED92E7FD2274FF73
:1002B800FCFDFEFF22E480F8A2D574FF13FC7D80CC
:0302C800E480EFE0
:1002CB00F920E72824F950037907E4F42402FB18FA
:1002DB00DBFDE624FB5014E9600DE4F618E604F6AA
:0F02EB00B40A08E4F6D9F57401F60A22C2D52246
:1002FA00ED33EC3392D5FA602AB4FF33EDC2E77BD3
:10030A00FF60067A03791FE4227A03792820D5044C
:10031A007A037923224E614E002B494E46002D491D
:10032A004E4600E47A08F608DAFC7B00740722E8F5
:10033A00C0E0ECC0E0EDC0E0EEC0E0EFC0E0EA757E
:10034A00F010A4CAABF075F04DA42BFBE435F0FC19
:10035A00EA2410FAEB34C5FBEC34D9FCEDC2E7FF12
:10036A0075F056A4F42411C5F0F434C58FF0A42A0C
:10037A00E5F03BE43CF620E7141204CDD0E0FFD0D0
:10038A00E0FED0E0FDD0E0FC1204008014F4041278
:10039A0004CDD0E0FFD0E0FED0E0FDD0E0FC1201B9
:1003AA0006D0E0F8E6FAEDD2E7CD33EC332482FB4F
:1003BA00E4C3CF33CFCE33CECD33CD33DBF37B079C
:1003CA0075F00A846004F6081B0AE5F0F6088FF057
:1003DA00740AA4FFACF08EF0740AA42CFEACF050A0
:1003EA00010C8DF0740AA42CFDE435F0F608DBDE6E
:0303FA0074072263
:1003FD000202C0EC5D046005E8590470030202B608
:10040D00120281580460F6EC4860F2EC7004FDFEB7
:10041D00FF22C860DB2481C85009C39860025006D2
:10042D000202BD9850CAF582E9294B4A7005AB828C
:10043D000202AC75F0007C1A7880C3EF9BEE9AED4A
:10044D0099400DC3EF9BFFEE9AFEED99FDE842F04A
:10045D00DC23ACF0D0E0FFD0E0FED0E0FDAB82209D
:10046D00E7101BEB60BAEC2CFCEF33FFEE33FEED27
:10047D0033FD020298E803F830E705C0F075F0008F
:10048D00EF2FFFEE33FEED33FD40B830E7C280AA0B
:10049D003F8000004120000042C80000447A000067
:1004AD00461C400047C35000497424004B189680E9
:1004BD004CBEBC205A0E1BCA6753C21C749DC5AEE0
:1004CD00FB60065407601C23231204FBEB543860B9
:1004DD00091204E71204F6120106ECF8EDF9EEFA32
:1004ED00EFCB22EB1204F680F1543803241C900458
:1004FD009DFE93FC0EEE93FD0EEE930ECE93FF221A
:100DCD00020A8FE493A3F8E493A34003F68001F2A3
:100DDD0008DFF48029E493A3F85407240CC8C33327
:100DED00C4540F4420C8834004F456800146F6DFF6
:100DFD00E4800B0102040810204080901195E47EE0
:100E0D00019360BCA3FF543F30E509541FFEE493EA
:100E1D00A360010ECF54C025E060A840B8E493A3B1
:100E2D00FAE493A3F8E493A3C8C582C8CAC583CADC
:100E3D00F0A3C8C582C8CAC583CADFE9DEE780BE94
:0111C400002A
:10050D00BB010689828A83E0225002E722BBFE02EC
:09051D00E32289828A83E493221F
:10052600BB010CE58229F582E5833AF583E022508A
:1005360006E92582F8E622BBFE06E92582F8E222D4
:0D054600E58229F582E5833AF583E49322EE
:10055300BB010689828A83F0225002F722BBFE0187
:02056300F32281
:10056500F8BB010DE58229F582E5833AF583E8F0CC
:10057500225006E92582C8F622BBFE05E92582C878
:02058500F22260
:10058700BC000BBE0029EF8DF084FFADF022E4CC58
:10059700F875F008EF2FFFEE33FEEC33FCEE9DEC21
:1005A700984005FCEE9DFE0FD5F0E9E4CEFD22ED67
:1005B700F8F5F0EE8420D21CFEADF075F008EF2FB1
:1005C700FFED33FD4007985006D5F0F222C398FDA2
:0505D7000FD5F0EA223F
:0E05DC00C3E49FFFE49EFEE49DFDE49CFC2230
:1005EA00FAE6FB0808E6F925F0F618E6CA3AF62212
:1005FA00D083D082F8E4937012740193700DA3A390
:10060A0093F8740193F5828883E4737402936860A3
:06061A00EFA3A3A380DFA3
:1012BA00EFB40A07740D1212C5740A309811A8996E
:1012CA00B8130CC2983098FDA899C298B811F63094
:0712DA0099FDC299F599226C
:00000001FF
