:10037300000000000000000000000000000000007A
:10038300000000000000000000000000000000006A
:08039300000000000000000062
:1003BD000A12C0CFA4B0999282F88090050D3443F3
:0A03CD001010010508344310100160
:0B0317007FE87E031203227F707E1738
:10032200E4FDFCC3ED9FEC9E50070DBD00010C8067
:10033200F2E4FCFDC3ED9FEC9E50070DBD00010CE5
:0203420080F247
:010344002296
:0F03F900EFD39400748094804004001F80F222A0
:100239007F641203F9C292D295C2917B007A007948
:100249000D7551057F301202837A00790812027CFC
:100259007D017F211203D87D017F221203D8E4FD9D
:100269007F251203D87D147F311203D87D077F269D
:030279000203D8A5
:10039B00E4FEEEC39408748094805015EF3392946E
:1003AB00EF25E0FFD291A290E4334207C2910E8079
:0103BB00E160
:0103BC00221E
:0C040800C29512039BE4FF12039BD295E7
:0104140022C5
:1003D800C29512039BAC07AF0512039BD295AF04DD
:0103E80022F2
:0602B5008B4E8A4F8950B8
:1002BB00C29512039BAD07E4FCECC395515017E4B8
:1002CB00FF12039BAB4EAA4FA9508C82758300EF94
:0A02DB001201120C80E3D295AF056A
:0102E50022F6
:07027C007B007551057F2A8C
:060283008B4E8A4F8950EA
:10028900C29512039BAD07E4FCECC395515018AB22
:100299004E0550E550AA4F7002054F14F91200F9A6
:0B02A900FF12039B0C80E2D295AF0512
:0102B4002227
:1003E900C2927D0F7F201203D8D2927F820203F935
:060345008B4A8A4B894C33
:10034B00E4FB7F071204088F20300612C292AB4ADF
:10035B00AA4BA94C7551147F611202B57B01AD20DC
:07036B007F271203D8AF0346
:010372002268
:0602E6007B007A00792282
:1002EC008B4A8A4B894CC2927A00790D12027CABF4
:1002FC004AAA4BA94C7551147FA01202837D0E7F24
:0B030C00201203D8D2927F0A0203F9EE
:1001C000E4F52178227C00FD7BFF7A037973FE7FC2
:1001D000141200D378367C007D007BFF7A03798788
:1001E0007E007F141200D312023975230175240199
:1001F0001202E612031E7523011202E6E4F523F54E
:1002000024F5211203171203E97B007A00793612D4
:100210000345E53745386017E53764017002C2963B
:10022000E53864017002C2967FE87E03120322E47F
:09023000F537F53812031780BD03
:03000000020134C6
:0C013400787FE4F6D8FD75815102017B54
:10000300E709F608DFFA8046E709F208DFFA803EDF
:1000130088828C83E709F0A3DFFA8032E309F608CC
:10002300DFFA8078E309F208DFFA807088828C8334
:10003300E309F0A3DFFA806489828A83E0A3F608E8
:10004300DFFA805889828A83E0A3F208DFFA804CC2
:1000530080D280FA80C680D4806980F28033801099
:1000630080A680EA809A80A880DA80E280CA803302
:1000730089828A83ECFAE493A3C8C582C8CCC5837A
:10008300CCF0A3C8C582C8CCC583CCDFE9DEE7804A
:100093000D89828A83E493A3F608DFF9ECFAA9F0C9
:1000A300EDFB2289828A83ECFAE0A3C8C582C8CC1F
:1000B300C583CCF0A3C8C582C8CCC583CCDFEADE38
:1000C300E880DB89828A83E493A3F208DFF980CC9A
:1000D30088F0EF60010E4E60C388F0ED2402B40493
:1000E3000050B9F582EB2402B4040050AF2323453A
:0600F3008223900053730C
:1000F900BB010689828A83E0225002E722BBFE0205
:09010900E32289828A83E4932237
:10011200F8BB010DE58229F582E5833AF583E8F023
:10012200225006E92582C8F622BBFE05E92582C8CF
:02013200F222B7
:100140000201C0E493A3F8E493A34003F68001F214
:1001500008DFF48029E493A3F85407240CC8C333C0
:10016000C4540F4420C8834004F456800146F6DF8F
:10017000E4800B01020408102040809003BDE47E5F
:10018000019360BCA3FF543F30E509541FFEE49384
:10019000A360010ECF54C025E060A840B8E493A34B
:1001A000FAE493A3F8E493A3C8C582C8CAC583CA76
:1001B000F0A3C8C582C8CAC583CADFE9DEE780BE2E
:0103D7000025
:00000001FF
