:0702F400054934431010011D
:0702FC00C296D297C29422C2
:1002CD00C29FD29ED29C758920758DFD758BFDD2F6
:0202DD008E226F
:05030300D2AFD2A822D8
:10024200E4FDFCC3ED9FEC9E50167B6C7A00EB1B29
:100252008A8370011A458370F50DBD00010C80E39D
:010262002279
:1002B400E4FEEF339295EF25E0FFD294A293E4336A
:0802C4004207C2940EBE08EAD5
:0102CC00220F
:09029A007D017F211202A37F22E5
:1002A300C2971202B4AC07AF051202B4D297AF04DF
:0102B3002228
:0C02DF00C2971202B4E4FF1202B4D297DE
:0102EB0022F0
:0601EA008B0A8A0B890C50
:1001F000C2971202B4AD07E4FCECC3950D5017E4AE
:10020000FF1202B4AB0AAA0BA90C8C82758300EF13
:0A0210001201C80C80E3D297AF057D
:01021A0022C1
:0B0172007B007A007949750D057F2A9B
:06017D008B0A8A0B890CBD
:10018300C2971202B4AD07E4FCECC3950D5018AB53
:100193000A050CE50CAA0B7002050B14F91201AF4A
:0B01A300FF1202B40C80E2D297AF05FF
:0101AE00222E
:10021B00C29612017212029A7D287F251202A37DCB
:10022B00147F311202A37D077F261202A37D0F7F5D
:07023B00201202A3D296225B
:10012F00C2967B007A007949750D057F3012017DEB
:10013F001201727B007A007935750D147FA01201C0
:10014F007D12029A7D1A7F241202A37D287F251229
:10015F0002A37D077F261202A37D0E7F201202A32A
:03016F00D2962203
:10027F00E4F54F745A254FF8E6F5993099FDC29978
:0B028F00054FE54FB40AECE4F56422D3
:0802EC008F993099FDC299229F
:10026300309818C2987450254FF8A699054FE54F5A
:0C027300D3940A4006756401E4F54F22A4
:100003001202FCD2B71202CD12021B120263E56484
:1000130064017036C2B7F564F508745A2508F8E62A
:10002300FF74352508F8A6070508E508B405EB12A3
:10003300012F7F071202DFAD077F271202A37F6420
:100043007E00120242D2B712021B2092BE7F071219
:1000530002DF8F203006307B007A007921750D1482
:100063007F611201EAE4F50874212508F8E6FF74BC
:100073005A2508F8A6070508E508B405EBC2B7E456
:10008300F54E12027FD2B7300407E4FD7FE112027E
:10009300A37DFF7F271202A3D29212021B02000E3E
:030000000200A358
:0C00A300787FE4F6D8FD7581640200EA65
:1001AF00BB010689828A83E0225002E722BBFE024E
:0901BF00E32289828A83E4932281
:1001C800F8BB010DE58229F582E5833AF583E8F06D
:1001D800225006E92582C8F622BBFE05E92582C819
:0201E800F22201
:1000AF00020003E493A3F8E493A34003F68001F264
:1000BF0008DFF48029E493A3F85407240CC8C33352
:1000CF00C4540F4420C8834004F456800146F6DF21
:1000DF00E4800B01020408102040809002F4E47EBB
:1000EF00019360BCA3FF543F30E509541FFEE49316
:1000FF00A360010ECF54C025E060A840B8E493A3DD
:10010F00FAE493A3F8E493A3C8C582C8CAC583CA07
:10011F00F0A3C8C582C8CAC583CADFE9DEE780BEBF
:0102FB000002
:00000001FF
