:020000040800F2
:10000000903D00203D680008610800086308000872
:10001000650800086708000869080008000000007B
:100020000000000000000000000000006B08000855
:100030006D080008000000006F0800087108000843
:100040005768000857680008576800085768000894
:100050005768000857680008576800085768000884
:100060005768000857680008576800085768000874
:100070005768000857680008576800085768000864
:100080005768000857680008576800085768000854
:100090005768000857680008576800085768000844
:1000A0005768000857680008576800085768000834
:1000B00057680008BB0A000857680008576800081E
:1000C0005768000857680008576800085768000814
:1000D00057680008414C00083D1B0008C50E000889
:1000E00057680008576800085768000857680008F4
:1000F00057680008576800085768000857680008E4
:1001000057680008576800085768000857680008D3
:1001100057680008576800085768000857680008C3
:1001200057680008576800085768000857680008B3
:10013000DFF80CD006F032FD0048004793020008BB
:10014000903D002010B541F61F41092000F088FCC9
:100150004FF4165000F0C8FE1821FE4806F09FFB31
:10016000BDE8104003F088BC08B504F0C7FC4FF4AC
:10017000A06004F0A5FD00F068FC00F00FFEF64959
:10018000012008604FF4E13004F00EFD4FF41650EA
:1001900001F0E3FCFFF7D6FF01F04EFA01F077FB28
:1001A00000F008FD01F032F801F096FB142001F098
:1001B000ABFC0A2004F0D0FC072001F088FCE748E3
:1001C0000021009001238022084601F014FA002249
:1001D0000221122001F0E4F901220221242001F081
:1001E000DFF902221146362001F0DAF910234E22FF
:1001F0000221482001F08DF81023492202215220CB
:1002000001F087F81023492202215A2001F081F8D9
:10021000102354220221642001F07BF803220421E0
:10022000122001F0BDF904221146242001F0B8F992
:1002300005220421362001F0B3F9062204214820CA
:1002400001F0AEF9072204215A2001F0A9F9082291
:1002500004216C2001F0A4F910232D220621362060
:1002600001F057F809220621482001F099F90A22E5
:1002700006215A2001F094F90B2206216C2001F08E
:100280008FF9BDE80840012241F28831B44800F0FE
:1002900037BD86B0B3A003C8CDE904010024002611
:1002A000FFF762FFAE4F00254FF00A0B4FF0010A37
:1002B0007F1E387800284ED07879002847D07D718D
:1002C000A748012241F28831001D00F019FD0722E4
:1002D0000221042000F0B7FF11220221002001F0CA
:1002E0005FF912220221104601F05AF9132202216D
:1002F000242001F055F914220221362001F050F992
:1003000015220221482001F04BF916220421242055
:1003100001F046F917220421362001F041F9182294
:100320000421482001F03CF9192204215A2001F04F
:1003300037F91A2204216C2001F032F910238BA224
:100340000621002001F012F9012001F0C0FB3879EC
:1003500001287DD026E2DFF8288298F800000528E1
:10036000F5D2DFE800F0039DF5F4F300787801287A
:100370006FD104A801F06DFB7D70072202210120DE
:1003800000F061FF012242F21071754800F0B8FCE4
:100390009DF812000221B0FBFBF03030C2B21820F1
:1003A00001F004F89DF81200B0FBFBF10BFB110209
:1003B00030320221282000F0F9FF3A2202213820B1
:1003C00000F0F4FF9DF811000221B0FBFBF030308B
:1003D000C2B2482000F0EAFF9DF81100B0FBFBF12B
:1003E0000BFB110230320221582000F0DFFF9DF894
:1003F00016001023B0FBFBF03030C2B206212020E3
:1004000000F087FF9DF816001023B0FBFBF10BFBFB
:10041000110230320621282000F07BFF10232D220C
:100420000621302000F075FF9DF814001023B0FB6A
:10043000FBF03030C2B20621382000F06AFF9DF890
:100440001400B0FBFBF10BFB11023032102301E072
:1004500077E120E00621402000F05BFF10232D22F1
:100460000621482000F055FF9DF813001023B0FB33
:10047000FBF03030C2B20621502000F04AFF9DF858
:1004800013001023B0FBFBF10BFB110230320621ED
:10049000582000F03EFF87F803A087F802A056E737
:1004A000B878012855D1BD7002210722084600F016
:1004B000CAFE2B480122C821401C00F021FC0C225E
:1004C0000221002001F06CF80D220221102001F021
:1004D00067F810233A220221202000F01AFF102290
:1004E0000221602001F05CF84FF010080323CDF8E2
:1004F00000809DF80C200221302000F0FFFF0E222A
:100500000421002001F04CF80F220421102001F0FA
:1005100047F810233A220421202000F0FAFE10238D
:1005200025220421602000F0F4FE0323CDF8008092
:100530009DF808200421302000F0E0FF10234D2218
:100540000621002000F0E5FE10231BE0C0E09EE045
:100550003DE037E0840B002084012142FE7000085A
:100560000100002050342019040519002020416E9C
:1005700079204B657920457869742E2E00000000A3
:100580002500002051220621082000F0C2FE102381
:100590005F220621184600F0BCFE102331220621FE
:1005A000182000F0B6FE10233A220621202000F089
:1005B000B0FE9F48CDF80080042302880621302039
:1005C00000F09CFF87F801A087F803A0BFE6F87849
:1005D0000128FBD1FD70012241F28831954800F0DD
:1005E0008FFB07220221032000F02DFE1E22022194
:1005F000002000F0D5FF1F220221102000F0D0FFC4
:1006000020220221104600F0CBFF212202213020BF
:1006100000F0C6FF22220221402000F0C1FF232269
:100620000221502000F0BCFF24220221602000F0B3
:10063000B7FF25220421002000F0B2FF262204216A
:10064000102000F0ADFF27220421202000F0A8FF99
:1006500028220421302000F0A3FF29220421402079
:1006600000F09EFF2A220421502000F099FF2B2247
:100670000421602000F094FF1023AFF21012062135
:10068000002000F073FF062001F021FA5FE6072248
:100690000221052000F0D7FD1B220221002000F0DE
:1006A0007FFF1C220221102000F07AFF1D22022170
:1006B000202000F075FF10233A220221302000F0A4
:1006C00028FE01F09EFE0446042088F800003EE665
:1006D000642C08D36420B4FBF0F03030C2B20321A4
:1006E000382000F063FE6420B4FBF0F100FB114001
:1006F000B0FBFBF230320321482000F057FEB4FB80
:10070000FBF00BFB104230320321582000F04EFE6C
:10071000102349A20621182000F028FF052088F8A0
:1007200000003C2C03D8042001F0D1F90FE66E2C18
:1007300003D2032001F0CBF909E6022001F0C7F94A
:1007400005E63D713B4801224FF4FA71401C00F070
:10075000D7FADFF8F4809DF80800C8F8080034489C
:10076000B0F80090C8F81090204606F072F9C8F86A
:100770001400B9F57A7F05D9344805603448022160
:10078000017002E03348C0F884A19DF80C00C8F85D
:10079000040002A903A801F052F82F4890F8F000D5
:1007A000C8F80C00B879864200D00646264803F007
:1007B00015FC7EE5244801681E48C01EC27991429E
:1007C00033D00C2931D2DFE801F006090C0F1316E3
:1007D0001A1E22262A2E0022826026E00A22826029
:1007E00023E06422826020E04FF47A7282601CE091
:1007F0003C22826019E04FF41672826015E041F2EB
:100800007072826011E04FF4616282600DE04FF41B
:10081000E152826009E04FF46152826005E04AF6DD
:10082000C002826001E00D4A8260C1717047000021
:100830003000002003000020202020202020202045
:10084000202062706D000000840B00208401214292
:1008500025000020000021423C370020805101008B
:100860007047FEE7FEE7FEE7FEE770477047704718
:10087000704700000CB500220192009252480168B6
:1008800041F4803101604FF4A063016801F400314C
:1008900000910199491C0191009911B9019999425E
:1008A000F3D10168890302D50121009100E0009293
:1008B0000099012930D145490A6842F010020A60C6
:1008C0000A6822F003020A600A6842F002020A6023
:1008D0004168416041684160416841F48061416024
:1008E000416821F47C114160416841F4E8114160A4
:1008F000016841F08071016001688901FCD541689F
:1009000021F003014160416841F00201416041680A
:10091000C1F381010229FAD10CBDABE710B52A4819
:10092000016841F0010101604168294A11404160BC
:100930000168284A11400160016821F480210160AA
:10094000416821F4FE0141604FF41F018160FFF70F
:10095000E4FF21494FF00060086010BD10B51A4A4D
:10096000506800F00C011D4B1D4800290ED00429D1
:100970000ED008290ED003605168194AC1F3031143
:10098000121D515C0268CA40026010BD0360F3E7AB
:100990000360F1E7516801F47011536803F4803388
:1009A000022404EB914133B153689B0307D50D4BEF
:1009B00059430160E0E70B4B59430160DCE7074B0B
:1009C00059430160D8E700000010024000200240B7
:1009D0000000FFF8FFFFF6FE08ED00E000127A00CD
:1009E0001000002000093D0038B50121102004F05E
:1009F000EAFE4FF40054ADF8004010208DF80300DB
:100A000003208DF80200144D6946284604F0D5FCF9
:100A10002146284604F040FD38BD38B501210420A8
:100A200004F0D1FE0220ADF8000010208DF8030084
:100A300003208DF80200094C6946204604F0BDFCF5
:100A40000221204604F028FD38BD10B5FFF7CCFF89
:100A5000BDE81040E1E7000000100140000801403F
:100A60007FB504460D460121022004F0B7FEADF823
:100A70000840ADF804500024ADF80A40ADF8064037
:100A8000444D01A9284604F0DDFF01221146284605
:100A900005F0C3FA1D218DF800108DF801400321E7
:100AA0008DF8021001218DF80310684604F00DF94D
:100AB0000121284605F097FA7FBD70B5354C01211C
:100AC000204605F0DDFC002856D00121204605F027
:100AD000E3FC01F086FF00F03CF92F4CA068401CBD
:100AE000A060002802DA4FF47A70A06060680025E8
:100AF000401C6060B0F5FA7F04DB65602748016840
:100B0000C94301602078264E401CC0B220700A28DC
:100B100023D3257000F0A7F9022801D1317811B153
:100B2000022808D00AE06078401CC0B2607001283A
:100B300013D9657011E03178012904D0042804D05C
:100B4000082805D009E0357007E00320607004E054
:100B5000002002F0ABFF13480570FFF72BFE124A8E
:100B6000116851B16088431C638040F2E7339842BA
:100B700002D36580491E116070BD0C4801680029D0
:100B8000FAD00560307840F001003070084901204B
:100B9000087070BD0004004024000020B40122420F
:100BA000000000200600002008000020840B002028
:100BB0000500002070B592B00121084604F0F8FD50
:100BC00001214FF4017004F0FEFD4FF4004004F0E9
:100BD0007DFD0125ADF8305000248DF833400CA97F
:100BE000434804F0EAFB049503940B9441480290B7
:100BF000A802089080200690202009903E4801908D
:100C000080150790059440010A903C4E01A930469A
:100C100004F0EDFA0121304604F013FB364E4C3E51
:100C2000304604F0A9F80D948DF838508DF83950FD
:100C30004FF460200F9010948DF844500DA9304669
:100C400004F0C6F80121304604F0EAF801213046EC
:100C500004F0F2F8072301220021304604F042F9A3
:100C6000304604F000F9304604F002F90028FAD1C9
:100C7000304604F004F9304604F006F90028FAD1B1
:100C80000121304604F007F912B070BD10B51A4CBE
:100C90000A4601464C3C0723204604F023F9012173
:100CA000204604F0F8F80221204604F001FA00285A
:100CB000F9D02046BDE8104004F05AB92DE9F041C2
:100CC0000746884616460025002409E04146384676
:100CD000FFF7DCFF0544052003F03EFF641CE4B28F
:100CE000B442F3D3B5FBF6F080B2BDE8F08100006A
:100CF00000080140300000204C2401400800024060
:100D0000F0B500260023244D05EB031467688742E5
:100D100002D12778012F11D05B1C0A2BF4DB0023B2
:100D200005EB03142478012C0ED005EB03130124EA
:100D30001C7099601A735860012608E005EB0310D7
:100D4000816022730120F0BD5B1C0A2BE8DB30467A
:100D5000F0BD0021104B03EB01100278012A08D1ED
:100D60008268521E826022B900220270027B4068B3
:100D70000270491C0A29EEDB704770B50022064D4F
:100D8000002605EB02146368834201D126701970B6
:100D9000521C0A2AF5DB70BD9C0B002038B50121DE
:100DA0000C2004F010FD8020ADF8000028248DF800
:100DB000034069463E4804F000FB4FF40070ADF874
:100DC00000008DF8034069463A4804F0F6FA38BD51
:100DD00001884A1C0280B1F5C87F03D90021018037
:100DE00001207047FF2070472DE9F0470546DDE9F7
:100DF00008948846164618460027012E09D199F80E
:100E00000010012905D1217819B900B1078001210D
:100E1000217023784FF0020A012B00D115B1012B6C
:100E200005D009E084F800A04046BDE8F0871DB178
:100E3000FFF7CEFF012803D089F800603EB10DE036
:100E400084F800A008F1010808F0FF00EDE7207821
:100E500020B1012D01D1012802D027700020E4E744
:100E600027704046E1E73CB51348411ECDE900102C
:100E7000124800680B1DC2B201210846FFF7B4FFFB
:100E8000012404FA00F040F001050B48801C411ECB
:100E9000CDE900100A48D0F824010023C2B2032192
:100EA0001846FFF7A1FF84402C43641EE0B23CBD0E
:100EB00000080140000C0140370000201C012142C5
:100EC0000080214238B5314C40F22551204605F0D2
:100ED00083FC002807D0204605F00AFC0090012181
:100EE000684601F049FE38BDF0B587B005460121DE
:100EF000082004F068FC0121880404F06FFC234EF4
:100F0000304605F0CDFA3015ADF8140003248DF805
:100F1000164018208DF817001D4F05A9384604F01B
:100F20004CFAF014ADF8140004208DF8170005A950
:100F3000384604F042FA01950020ADF80800ADF8FB
:100F40000A00ADF80C00ADF810000C20ADF80E0052
:100F500001A9304605F0ECFA0121304605F063FBAB
:100F6000012240F22551304605F069FB27208DF81B
:100F7000180001208DF819008DF81A408DF81B001B
:100F800006A803F0A2FE07B0F0BD00000048004034
:100F9000000C014010B5FF4C2021204604F07CFAE3
:100FA0004021204604F07AFA012003F0BEFD2046DD
:100FB000BDE81040402104F06FBA10B5F54C202177
:100FC000204604F069FA012003F0AFFD2046BDE899
:100FD0001040202104F062BA70B50446ED4E202185
:100FE000304604F05BFA002504F08000802818D019
:100FF0004021304604F052FA6006040E20213046AB
:1010000004F04AFA012003F090FD2021304604F05C
:1010100045FA012003F089FD6D1CEDB2082DE3D3E4
:1010200070BD4021304604F037FAE5E710B5D94CE1
:101030002021204604F030FA4021204604F02CFA0A
:10104000012003F072FD4021204604F027FA012020
:1010500003F06BFD2046BDE81040202104F01EBACD
:1010600010B50446FFF7E2FF7820FFF7B5FFFFF762
:10107000A4FF0020FFF7B0FFFFF79FFF2046FFF718
:10108000ABFFFFF79AFFBDE8104083E710B50446B9
:10109000FFF7CCFF7820FFF79FFFFFF78EFF402080
:1010A000FFF79AFFFFF789FF2046FFF795FFFFF74D
:1010B00084FFBDE810406DE7002901D0C0B2E5E72C
:1010C000C0B2CDE770B50025B34E002105F1B000E8
:1010D000FFF7F2FF00210846FFF7EEFF0021102086
:1010E000FFF7EAFF002406EBC4000121405DFFF793
:1010F000E3FF641CE4B2802CF5D36D1CEDB2082D27
:10110000E3D370BD10B57F2813D83F2911D807232A
:10111000A3EBD103DBB201F00701C1F10704012108
:10112000A140C9B29C4C04EBC0001AB1C25C0A4396
:10113000C25410BDC25C8A43C25410BD2DE9F047B1
:1011400005460F4690461E46DDF820900CE03C46D2
:1011500006E04A4621462846FFF7D4FF641CE4B265
:10116000B442F6D96D1CEDB24545F0D9BDE8F04763
:10117000A8E770B506460025002105F1B000FFF78D
:101180009BFF00210846FFF797FF00211020FFF783
:1011900093FF002401213046FFF78EFF641CE4B268
:1011A000802CF7D36D1CEDB2082DE5D370BD10B5C2
:1011B000044608460021B030FFF77EFF102040EAC9
:1011C00014100021FFF778FF04F00F00BDE8104075
:1011D000002171E710B500218D20FFF76DFF002180
:1011E0001420FFF769FF0021BDE81040AF2063E73E
:1011F00010B500218D20FFF75FFF00211020FFF7C1
:101200005BFF0021BDE81040AE2055E770B500251A
:10121000002105F1B000FFF74FFF00210846FFF75E
:101220004BFF00211020FFF747FF00240121002081
:10123000FFF742FF641CE4B2802CF7D36D1CEDB2C3
:10124000082DE5D370BD2DE9F04106460D46174641
:10125000DFF8488198F80000B04218D119E0002169
:1012600005F1B000FFF728FF00210846FFF724FF33
:1012700000211020FFF720FF002401210020FFF7AC
:101280001BFF641CE4B2802CF7D36D1CEDB2BD4291
:10129000E5D988F80060BDE8F08170B505460E46D6
:1012A00017E0002105F1B000FFF706FF0021084616
:1012B000FFF702FF00211020FFF7FEFE00240121AE
:1012C0000020FFF7F9FE641CE4B2802CF7D36D1CFC
:1012D000EDB2B542E5D970BD70B50025002105F12C
:1012E000B000FFF7E9FE00210846FFF7E5FE002108
:1012F0001020FFF7E1FE002401210846FFF7DCFE85
:10130000641CE4B2802CF7D36D1CEDB2082DE5D33C
:1013100070BD2DE9F04180460F460024203AD5B239
:10132000B8F17F0F02D9A046BF1CFFB2102B11D01D
:1013300039464046FFF73BFF194905EB450001EBF5
:1013400040050121285DFFF7B7FE641CE4B2062CBE
:10135000F7D3A0E739464046FFF729FF114E04EBCB
:1013600005100121305CFFF7A7FE641CE4B2082CD5
:10137000F5D37F1CF9B24046FFF719FF002404EBB8
:10138000051030440121007AFFF796FE641CE4B298
:10139000082C09E0000801403C0C00203C00002023
:1013A0000072000828740008E9D374E72DE9F047BB
:1013B00080460E460024A2F13000C0B20A2804D9AB
:1013C0003A2A02D0601EBDE8F0878006050E3A2A50
:1013D00000D1282531464046FFF7E9FEDA4F07EBFA
:1013E0008519012159F82400FFF766FE641CE4B258
:1013F000102CF6D3701CC1B24046FFF7D8FE002473
:10140000681C07EB8019012159F82400FFF754FEEE
:10141000641CE4B2102CF6D3B01CC1B24046FFF7F6
:10142000C6FE0024A81C07EB8019012159F82400EE
:10143000FFF742FE641CE4B2102CF6D3F61CF1B2A6
:101440004046FFF7B4FE0024ED1C07EB8515012193
:1014500055F82400FFF730FE641CE4B2102CF6D3DC
:101460000120B0E72DE9F04107460E46154600245D
:1014700031463846FFF79BFE285D0121FFF71CFE31
:10148000641CE4B2202CF7D3701CC1B23846FFF7BD
:101490008EFE00242819012190F82000FFF70CFE91
:1014A000641CE4B2202CF5D3B01CC1B23846FFF75F
:1014B0007EFE00242819012190F84000FFF7FCFD72
:1014C000641CE4B2202CF5D3F61CF1B23846FFF7C9
:1014D0006EFE00242819012190F86000FFF7ECFD52
:1014E000641CE4B2202CF5D30120D4E6034601208D
:1014F00000E05843491EC9B2FBD270472DE9F05FA6
:101500008046DDF828A08B4691461D460026002423
:101510004FEA5A071DE0281B401EC1B20A20FFF700
:10152000E5FFB9FBF0F00A21B0FBF1F201FB12007C
:1015300026B9691E8C4201DA78B101263030C2B278
:1015400007FB0480C0B253465946FFF7E2FE641C15
:10155000E4B2AC42DFD3BDE8F09F07FB0480C0B229
:10156000534620225946FFF7D4FEF0E72DE9F0411B
:1015700004460E461746984600250DE04346314680
:101580002046FFF7C6FE0834E4B2782C02D90024C6
:10159000B61CF6B26D1CEDB27A5D002AEED17AE689
:1015A0002DE9F04781468846174641464846FFF7F1
:1015B000FEFD0024654E06EB87150121285DFFF72F
:1015C0007BFD641CE4B2102CF7D308F1010808F08D
:1015D000FF014846FFF7EBFD0024012000EB470028
:1015E00006EB40150121285DFFF766FD641CE4B29F
:1015F000102CF7D3E7E62DE9F0478246DDF820907E
:101600000E4690461F460025780712E031465046A8
:10161000FFF7CDFD544608E028466D1C19F8000080
:101620000121FFF749FD641CE4B24445F4D3761C64
:10163000F6B2BE42EAD3C6E638B50121042004F072
:10164000C2F86020ADF8000010208DF803000320E0
:101650008DF802003E4C6946204603F0AEFE602144
:10166000204603F019FF4FF47A7003F075FA002159
:10167000AE20FFF721FD00210846FFF71DFD0021E8
:101680001020FFF719FD00214020FFF715FD002174
:10169000B020FFF711FD00218120FFF70DFD002193
:1016A000FF20FFF709FD0021A120FFF705FD002124
:1016B000A620FFF701FD0021A820FFF7FDFC002177
:1016C0003F20FFF7F9FC0021C820FFF7F5FC0021BF
:1016D000D320FFF7F1FC00210846FFF7EDFC0021C5
:1016E000D520FFF7E9FC00218020FFF7E5FC002171
:1016F000D820FFF7E1FC00210520FFF7DDFC0021E9
:10170000D920FFF7D9FC0021F120FFF7D5FC0021FB
:10171000DA20FFF7D1FC00211220FFF7CDFC0021D9
:10172000DB20FFF7C9FC00213020FFF7C5FC0021BA
:101730008D20FFF7C1FC00211420FFF7BDFC002124
:10174000AF20FFF7B9FC38BD187A00083D00002033
:101750000008014010B55D48016821F47021016066
:10176000016841F440310160594C00202060142090
:1017700003F0F2F901202060BDE810401E2003F0C4
:10178000D4B970B500245148016821F4702101607A
:10179000016841F4002101604E4D04E0641CE4B294
:1017A000012003F0C2F9D5F8300108B1642CF5D35B
:1017B000642C01D3012070BD002404E0641CE4B259
:1017C000012003F0B2F9D5F8300108B9642CF5D343
:1017D000642C01D3012070BD002070BD70B50024C1
:1017E0003C4D04E0641CE4B2012003F09EF9D5F8FE
:1017F000300108B1642CF5D3002404E0641CE4B289
:10180000012003F092F9D5F8300108B9642CF5D322
:10181000282003F08AF9D5F8300108B1012070BD05
:10182000002070BD70B5002000244006050EFFF7B3
:10183000D5FF2843641CE4B2082CF6D370BD2DE913
:10184000FC4106460F46FFF785FFFFF79AFF10B1F0
:101850000120BDE8FC8100246D46FFF7E3FF285519
:10186000641CE4B2052CF8D39DF800109DF801002B
:101870009DF803300A189DF8020003441A449DF8AD
:1018800004309A4201D1397030700020E1E738B558
:101890000121082003F097FF4FF48054ADF8004079
:1018A00010208DF8030003208DF80200074D6946D3
:1018B0002D1F284603F081FD2146284603F0ECFD4C
:1018C000FFF748FFFFF75DFF38BD0000040C014043
:1018D000B08121420080214238B50121082003F067
:1018E00072FF10208DF803004FF42040ADF8000087
:1018F00003208DF802006D4C6946204603F05DFD23
:1019000048218DF803104FF48041ADF8001069466E
:10191000204603F052FD38BD2DE9F0410024634814
:10192000001D016821F070610160016841F00061F3
:10193000016000255E4E00274FF00108C6F8B47123
:10194000022003F0F2F86408D6F8380108B144F038
:101950008004C6F8B481022003F0E7F86D1CEDB2F4
:10196000082DEBD32046BDE8F0812DE9F041054676
:101970004E48001D016821F070610160016841F06E
:101980004071016000244A4E00274FF00108C6F85C
:10199000B471022003F0C9F805F00100C6F8B801DF
:1019A0006D08C6F8B481022003F0BFF8641CE4B2ED
:1019B000082CECD3D7E72DE9F04107463D4C002534
:1019C000A560022003F0B1F82560022003F0ADF815
:1019D0000126A660022003F0A8F83846FFF7C5FFED
:1019E000FFF79AFF2660A560BDE72DE9F04180462C
:1019F0000F46304C0025A560022003F096F82560C4
:101A0000022003F092F80126A660022003F08DF870
:101A10004046FFF7AAFF3846FFF7A7FF2660A560FC
:101A2000A1E770B505468026072400218E20FFF728
:101A3000DCFF06E015F8011B3046FFF7D6FFB61CA9
:101A4000F6B2641EE4B2F5D2BDE8704080218E206B
:101A5000CBE770B50546812607240DE03046FFF739
:101A6000AAFF00F00F01000900EB800001EB40002D
:101A700005F8010BB61CF6B2641EE4B2EED270BDDE
:101A800010B50C480021816001608E20FFF7ADFF8A
:101A900000218020FFF7A9FFA6219020FFF7A5FFD6
:101AA0008021BDE810408E209FE70000000C01401F
:101AB00000802142B4812142002203E010F8013B62
:101AC0001A44D2B2491EC9B2F8D2104670471CB5AA
:101AD000002100910191AA218DF800100722022116
:101AE0008DF801208DF80210010A8DF803100521F0
:101AF0008DF804006846FFF7DFFF06218DF805002A
:101B0000684600F083F81CBD1CB5002100910191CE
:101B1000AA2201218DF8002013228DF801208DF8D2
:101B2000021004218DF803006846FFF7C5FF052168
:101B30008DF80400684600F069F81CBD10B5394CFA
:101B400040F22551204604F047FE002804D02046EC
:101B5000BDE8104004F0CCBD10BD70B586B00446A1
:101B60000121042003F02FFE0121480403F036FE7A
:101B70002D4804F095FC0425ADF8105003208DF895
:101B8000120018208DF81300284E04A9304603F0E7
:101B900014FC0820ADF810008DF8135004A930464D
:101BA00003F00BFC00940024ADF80440ADF80640AF
:101BB000ADF80840ADF80C400C20ADF80A00194D06
:101BC0006946284604F0B4FC0121284604F02BFDA8
:101BD000012240F22551284604F031FD26208DF8DF
:101BE000140002208DF815008DF8164001208DF8A4
:101BF000170005A803F069F806B070BD09490A8806
:101C00005206FCD50749091D0880704710B50446E7
:101C10000B4603E014F8010BFFF7F0FF5B1EDBB28D
:101C2000F8D210BD004400400048004000080140C8
:101C300030B5012310E050F823501A4602E040F876
:101C40002240521E002A04DD541E50F82440AC42AB
:101C5000F5DC40F822505B1C8B42ECDB30BDF0B56C
:101C6000012414E051F82460234602E041F8235097
:101C70005B1E002B08DD5D1E50F8267051F82550C4
:101C800050F825C06745F1DC41F82360641C94429C
:101C9000E8DBF0BD2DE9F04305460C4610461E4634
:101CA00029462268FFF7DBFF4FF0FF3840461BE074
:101CB0000F46411C2160C6F1000C12E055F821309E
:101CC000421C18D055F820209A1AB24201DC624515
:101CD00006DA226802F10109C4F8009045F82230C2
:101CE000491CB942EADB401C21688142E0DC2846FD
:101CF000BDE8F0439CE74246E6E72DE9F043DDF816
:101D00001C80012400250D60A3F1010C23E052F892
:101D1000247047451EDD651E52F82550AF4219DD7F
:101D2000012500E06D1C66199E4203DA52F82690E8
:101D30004F45F7D0254452F82550AF4208DD0D68D5
:101D40000F2D05DA6F1C0F6040F82540741C02E06F
:101D5000344600E0641C6445D9DBBDE8F0832DE91E
:101D6000F8410C46DDE908850799064617460091BB
:101D70003A4621463046FFF7C0FF43463A462146E1
:101D80003046FFF787FF2068A84200DB2846206026
:101D9000BDE8F8812DE9FF4FB7B08346DDF8148127
:101DA000469E0D4617460021002003E05BF82020E8
:101DB0001144401CA842F9DBB1FBF5F20020DC49DC
:101DC00005E05BF820309B1A41F82030401CA84207
:101DD000F7DB0020421C51F8204051F8222000F18E
:101DE000030C2244841C51F82CC051F82440644454
:101DF0002244D41702EB9472921041F82020401C28
:101E0000B0F5F87FE6DB0020DFF828934FF4F77495
:101E1000C749421C51F8222051F82030D21A49F803
:101E20002020401CA042F3DD0020421C59F8201065
:101E300059F82220114401EBD171491049F82010C2
:101E4000401CA042F1DB0021DFF8ECA20022084692
:101E500001F1050C08E0A0EB010E59F820303AF82A
:101E60001EE003FB1E22401C6045F4DB40F27A407A
:101E700092FBF0F049F82100491CB1F5F47FE5DD53
:101E80000022002059F82010002900DC49420A44B1
:101E9000401CA042F6DD40F2EF1392FBF3F0052167
:101EA0000822CDE901210090A24A35A908A8FFF730
:101EB00056FF0021359A08AB022A19DB012009E000
:101EC000A0F1010C53F8209053F82CC0A9EB0C0C96
:101ED0006144401C9042F3DB521E91FBF2F041F250
:101EE000707191FBF0F0C8F800000120307004E040
:101EF0009248C8F80000002030700020DDF8D4A01F
:101F000006E053F8201026AA891C42F82010401C35
:101F10005045F6DB0020DFF82882DFF8149208E055
:101F20005BF8201049F8201057F8201048F82010CE
:101F3000401CA842F4DB002300210DF15C0E1DE0E3
:101F4000012226A850F821004FF0807C00F1050BFB
:101F5000A34512DC451F002D0FDD401F09E059F895
:101F60002050654504DA02B10022AC464EF821004B
:101F7000401C5845F3DB02B95B1C491C5145DFDBB3
:101F8000022B08DA3A996D480860449900200870DD
:101F90003BB0BDE8F08F00204FF4F87A421C59F8AE
:101FA000201059F822400D19841CC11C59F824C076
:101FB00059F821B0DC4465444FEAE57C05EB9C759B
:101FC000AD1049F8205058F8205058F8222058F801
:101FD000244058F821102A4421441144CA1701EB27
:101FE0009271891048F82010401C5045D6DB00251E
:101FF000002003AA002142F82010401C0528F8DB2D
:1020000000204FF4FA720CE017A951F82010914209
:1020100006DD3A9949480860449900200870B7E7FE
:10202000401C9842F0DB00205B1E369353E04FF0DB
:102030007F410A4617AC431C54F8233054F8204023
:10204000A3EB040CBCF10A0F44DDA2460DE059F8E5
:102050002AB0934501DD5A46574658F82AB08B45B9
:1020600001DD594656460AF1010A5345EFDC58F89E
:1020700023B058F824A0A6EB040EABEB0A0B0BFB25
:102080000EFB9BFBFCFBDA4458F826B0ABEB0A0ACC
:1020900059F823B059F824303C1BABEB030B0BFB76
:1020A00004FB9BFBFCF4234459F82640E31A0AFB8B
:1020B00002FA4FEAEA124B43D91100290ADD052D35
:1020C00008DA3AB164235A4392FBF1F203A941F8CA
:1020D00025206D1C401C36998842A8DB294603A8A0
:1020E000FFF7A6FD05EBD570401001280ADD03A916
:1020F000421E51F8200051F82220104400EBD0700D
:10210000401002E003A951F82000C11EB52908D2F1
:1021100009493E31085C3A990860449901200870E9
:1021200036E73A99054808604499002008702FE77F
:10213000FC1700203C100020188F000819FCFFFF3E
:10214000CC1F002070B505460C4600F079FAAE2091
:1021500000F0FEFA00F0A5FA58B9284600F0F8FAA7
:1021600000F09FFA28B9204600F0F2FA00F099FA40
:1021700018B100F07DFA002070BD00F079FA01205E
:1021800070BD10B5044600F05BFAAE2000F0E0FA36
:1021900000F087FA68B9204600F0DAFA00F081FA18
:1021A00038B900F04DFAAF2000F0D2FA00F079FA19
:1021B00018B100F05DFA002010BD002000F0F3FA25
:1021C000044600F0ADFA00F053FA204610BD2DE9A8
:1021D000F04107460E461446002500F031FAAE20C5
:1021E00000F0B6FA00F05DFAC8BB384600F0B0FA6D
:1021F00000F057FA98BB00F023FAAF2000F0A8FADD
:1022000000F04FFA58BB26E0002000F0CCFA074659
:1022100000F06EFA002000F0C6FA804600F068FA7E
:1022200048EA072026F82500002000F0BCFA804686
:1022300000F05EFA002000F0B6FA0746012C12D03A
:1022400000F056FA06EB850147EA08204880641E34
:10225000E4B26D1CEDB2002CD6D100F009FABDE855
:10226000F04100F005BA00F05BFAEBE770B5054607
:102270000C460020FFF785FF0120FFF782FF00F0EA
:10228000DFF9AE2000F064FA00F00BFA38BB284604
:1022900000F05EFA00F005FA08BB00F0D1F9AF20BB
:1022A00000F056FA00F0FDF9C8B9012000F07BFA01
:1022B0002070012000F077FA6070012000F073FABE
:1022C000A070012000F06FFAE070012000F06BFABE
:1022D0002071002000F067FA607100F0C9F9BDE8D4
:1022E000704000F0C5B910B540210920FFF72AFF62
:1022F0004021BDE81040092024E708B50121042051
:1023000003F061FA1020ADF8000048208DF80300BA
:102310006946B74803F051F800F07CF9FFF7E3FF96
:10232000C0210220FFF70EFF00210320FFF70AFF64
:1023300000210420FFF706FF00210520FFF702FF20
:1023400000210620FFF7FEFE0F210820FFF7FAFE0E
:1023500003210920FFF7F6FE27210A20FFF7F2FEEE
:1023600024210C20FFF7EEFE24210D20FFF7EAFECA
:102370007F211020FFF7E6FE08BD0A460146AE2089
:1023800000F0AFBA0A460146AE2000F08BBA3EB567
:1023900004460D4600202060286002A9FFF7F2FFE6
:1023A00002A90120FFF7EEFF06236A460721AE20AF
:1023B00000F048FA9DF800000004216808442060FD
:1023C0009DF801100902084420609DF8021008449D
:1023D00020609DF8030000042968084428609DF8E7
:1023E00004100902084428609DF80510084428607C
:1023F0002068C0F3110020602868C0F31100286035
:102400003EBD2DE9F04F87B000200690794E824600
:10241000794F4FF4FA707860002242F210717748D9
:10242000FEF76EFC0025DFF8D89109F5FA6B29E07C
:102430007448D0F810110129FBD004A90720FFF738
:1024400015FF9DF810009DF811108007800B40EAE1
:1024500001209DF8121008434BF825009DF8131039
:102460009DF814208907890B41EA02219DF8152067
:10247000114349F82510B04200D20646504500D914
:1024800082466D1C78688542D2DB5B48401C00F1B7
:102490000B01421ECDE90021C31D0290401E5A4A85
:1024A00041685748FFF776FC4FF4FA7A514E0027FF
:1024B0006420A0F164015BF820204BF8212059F83A
:1024C000202049F821205BF82010B14200D20E46AE
:1024D000B94200D90F46401C5045EADB4FF4C8759D
:1024E000681E5BF820804748D0F810110129FBD006
:1024F00004A90720FFF7BAFE9DF810009DF81110FF
:102500008007800B40EA01209DF8121008434BF829
:1025100025009DF813109DF814208907890B41EAC6
:1025200002219DF81520114349F82510404515D981
:10253000A0EB080004F08DFA8046B81B04F089FA7D
:102540000146404604F047FA304904F012FA04F01C
:1025500085FA241A002C16DA002414E0A8EB0000F7
:1025600004F077FA8046B81B04F073FA014640463F
:1025700004F031FA254904F0FCF904F06FFA044440
:10258000FF2C00DDFF246D1C5545A9DB1A49491CB1
:1025900001F10B02CDE90121481E00900546CB1D3B
:1025A000194A17486968FFF7F5FB6878012806D1D2
:1025B000E868A0F13D013B2901D2C0B206900F4866
:1025C000007800287FF472AF069848B91048462179
:1025D000006890FBF1F201FB12003230C0B20690AD
:1025E000064801210170069807B0BDE8F08F000091
:1025F00000080140FFFF0300400B00200C000020FA
:102600009C270020000021426C2F002000007F4307
:102610002C00002008B50121082003F0D4F8032085
:10262000ADF8000010218DF803108DF80200694606
:10263000BA4802F0C2FEBA4801210160416008BDFB
:1026400070B5B648016821F0F0010160016841F001
:1026500070010160B24C012060602060042002F033
:1026600064FA00256560042002F05FFA256070BD01
:1026700010B5AA48016821F0F0010160016841F03D
:1026800070010160A64C002020606060042002F010
:102690004CFA012020606060BDE81040042002F088
:1026A00044BA70B500249D48016821F0F001016032
:1026B000016841F0400101609A4D0126C5F884612E
:1026C000012002F032FAC5F88061012002F02DFAF3
:1026D00007E0641CE4B2FA2C03D9FFF7C9FF01201C
:1026E00070BDD5F804010028F3D1C5F8800170BD94
:1026F00070B58B4C002525608848016821F0F001F9
:102700000160016841F0700101606560022002F023
:102710000CFA01202060022002F007FA256070BD4B
:1027200070B57F4C002525607C48016821F0F001E0
:102730000160016841F070010160012666600220BD
:1027400002F0F3F92660022002F0EFF9256070BD77
:102750002DE9F04105467148016821F0F001016062
:10276000016841F0700101606E4E4FF00008C6F83C
:10277000808100240127E809C6F884016806050E57
:10278000022002F0D2F9C6F88071022002F0CDF9E1
:10279000C6F88081022002F0C8F9641CE4B2082C5B
:1027A000E9D3BDE8F0812DE9F047814600245B487C
:1027B000016821F0F0010160016841F04001016011
:1027C0000025584E00274FF00108C6F880710220FE
:1027D00002F0ABF9C6F880816006040ED6F8040159
:1027E00008B1641CE4B2012002F09FF96D1CEDB247
:1027F000082DEAD3B9F1000F04D0FFF779FF204686
:10280000BDE8F087FFF78CFFF9E770B504460D4689
:102810001646FFF715FF2046FFF79AFFFFF741FF27
:10282000002406E0285DFFF793FFFFF73AFF641CE2
:10283000E4B2B442F6D3FFF71BFFBDE870400A20B4
:1028400002F08AB92DE9F04104460E4615461F46AE
:10285000FFF7F6FE2046FFF77BFFFFF722FF30462B
:10286000FFF776FFFFF71DFF44F00100FFF770FF51
:10287000FFF717FF00247E1E05E00120FFF793FFFE
:102880002855641CE4B2B442F7DB0020FFF78BFF4D
:10289000E91901F8010CFFF7EBFEBDE8F0410A2051
:1028A00002F05AB970B504460E461546FFF7C8FE49
:1028B0002046FFF74DFFFFF7F4FE3046FFF748FFD5
:1028C000FFF7EFFEFFF7BCFE44F00100FFF740FF0B
:1028D000FFF7E7FE0020FFF766FF2870BDE87040B5
:1028E000C6E670B506460C461546FFF7A9FE30460B
:1028F000FFF72EFFFFF7D5FE2046FFF729FFFFF772
:10290000D0FE2846FFF724FFFFF7CBFEFFF7B0FE0F
:10291000BDE870400A2002F01FB90000000C014021
:1029200080812142008021422DE9FF410646002599
:102930000C46002E03D011B1DFF86C8147E04FF058
:10294000FF3004B0BDE8F0817019407812283CD205
:10295000DFE800F03B3B3B3B3B3B3B11153B3B3B4C
:102960003B1922311E09514F2168396050A004F0F3
:1029700075F9386829E0012088F8000025E000207A
:1029800088F8000021E021784EA004F067F91CE0EF
:102990004FA004F063F918E0A17962792379A06867
:1029A000CDE90032CDE90210E378A27821884DA06C
:1029B00004F054F909E056A004F050F959A004F0CD
:1029C0004DF921785BA004F049F96D1CEDB2307827
:1029D000A842B9D80020B4E770471821334803F063
:1029E0005EBF59480168491C01607047564800683D
:1029F0007047012080F3138854480168544A01F459
:102A0000E06111430160BFF34F8FFEE708B500207E
:102A100000900121684600F0AFF808BD2DE9F041B3
:102A200005460E460024002D07D0FFF7DFFF0146C4
:102A3000324648A004F012F910E04FF0FF3081E771
:102A4000295D49A004F00AF9022C06D3285DFF286D
:102A500003D1552144A004F001F9641CB442EFD322
:102A600043A004F0FBF80024424F19E0295D3846EA
:102A700003F03AFE4021384603F0A3FE0028F9D0C7
:102A8000022C0CD3285DFF2809D15521384603F0CC
:102A90002BFE4021384603F094FE0028F9D0641C38
:102AA000B442E3D330464DE706000020840B0020FB
:102AB0004576743A204556454E545F54696D6520FD
:102AC00025640A00525353492025640A000000007F
:102AD0005452414E53504152454E545F444154412B
:102AE000200A0000574946495F4E5450203A205B67
:102AF00025642D25642D256420253032643A253047
:102B000032643A253032645D5B25645D200A000042
:102B10004D4F44554C4520494E464F202E2E2E0AEF
:102B200000000000574946204D4F44554C45202E8B
:102B30002E2E0A006D6F64756C6554797065203AAD
:102B4000205B25645D200A00500B00200CED00E0A6
:102B50000400FA054D435532576946695B253464D4
:102B60003A2534645D3A2000253032782000000098
:102B70000A0000000048004070B50C464FF0FF35D9
:102B800000280BD001462246FA4801F06DFFA04212
:102B900003D0F9A004F062F8284670BDFDA004F04F
:102BA0005DF8284670BD10B5002807D000210160EF
:102BB0004160FF2101704170002010BDFDA004F0B4
:102BC0004DF84FF0FF3010BD70B504460D46002C97
:102BD00014D0E8482521F73803F061FEE5482A467D
:102BE0002146F53803F042FEE24CF63CE583012035
:102BF0002070FFF7FBFE2062002070BDF8A004F0FB
:102C00002DF84FF0FF3070BD38B51446002816D0AF
:102C1000A9B1A4B10278D2070FD011230D784A1CB4
:102C2000AB540A78521C0A7001210091431C002108
:102C30000422084601F01DFE2060002038BDEEA0F1
:102C400004F00CF84FF0FF3038BD2DE9F047054691
:102C50000E460024002D55D0002E53D0FFF7C6FE9F
:102C6000074630682968884203D0EEA003F0F6FFDB
:102C7000012470686968DFF8C0834FF47A7988426C
:102C800008D0D8F80800381A484503D3EBA003F061
:102C9000E5FF0124B068A968884208D0D8F8080088
:102CA000381A484503D3EAA003F0D8FF0124F0689E
:102CB000E968884208D0D8F80800381A484503D394
:102CC000E8A003F0CBFF012430692969884208D0CD
:102CD000D8F80800381A484503D3E7A003F0BEFF30
:102CE00001246969706903F0E7FE08D0D8F808008C
:102CF000381A484503D3E5A003F0B0FF0124012CA6
:102D000007D00AE0E8A003F0A9FF4FF0FF30BDE8CC
:102D1000F087FFF76BFEC8F808002046F7E7F8B524
:102D200005460C464FF0FF36002D0AD04CB100206E
:102D3000207028680C2809D3E5A003F08FFF3046E7
:102D4000F8BDEEA003F08AFF3046F8BD00210090E8
:102D500023460422084601F0CDFD0121204601F062
:102D6000D5FC6A680021012001F0E3FC6070AA68CC
:102D70000021012001F0DDFCA070EA6800210120A3
:102D800001F0D7FCE0702A690021012001F0D1FC9C
:102D900080B201F04DFBA0806A690021E34801F098
:102DA000CFFC80B201F044FBE0800020F8BD2DE9AB
:102DB000F05F0C460A9D17461E4694F800804FF0BF
:102DC000FF3B002C03D016B10DB130B152E0D8A0BA
:102DD00003F044FF5846BDE8F09F66481321D238FF
:102DE000824603F05CFD4046DFF874834FF0000933
:102DF000012806D04FF0030A02280ED0052839D149
:102E000020E05C4A51467E3A601CFFF7FDFE01203F
:102E100088F80000C5F800902CE05649863901F189
:102E20002000FFF77CFF08B15846D4E7CC4880303B
:102E3000816B46F8011FC06B706006F801AC092079
:102E4000286017E0C6487A1E611C1E3003F00EFD94
:102E50007F1EC8F83B70C248102198F86C206D3076
:102E6000115498F86C00401C88F86C0088F800A099
:102E7000C5F800900020AEE72DE9F0438FB006467C
:102E80008946174698460025B9F1000F25D0B8F1BC
:102E9000010F2AD0781D84B223462A463946B1A0B4
:102EA00003F0DCFEFF208DF800008DF80100200A01
:102EB0008DF802008DF803403079401C8DF8040035
:102EC00070798DF8050000208DF806008DF80780D8
:102ED0000820B8F1010F0DD017E0ACA003F0BEFE42
:102EE0004FF0FF300FB0BDE8F083357AE819801D50
:102EF00084B2D1E78DF808500DF109002A4606F199
:102F0000090103F0B3FC05F109006D4627B128441F
:102F10003A46494603F0AAFC211D684601F076FABC
:102F20002919C870211D6846FFF778FD0146002960
:102F300005DA9CA003F092FE6FF00100D2E70020BA
:102F4000D0E770B586B005460C461646002C10D06A
:102F500001A8FFF728FE05208DF8080080493F31C1
:102F60000B68581C08608DF809308DF80C500E2045
:102F700024E142E17A3800204552523A2046616904
:102F80006C656420746F2072625772697465200AE0
:102F9000000000004552523A2067697A5075744427
:102FA0006174612062756620697320656D70747943
:102FB000200A00004552523A2067697A50726F74B5
:102FC0006F636F6C48656164496E69742068656100
:102FD0006420697320656D707479200A0000000018
:102FE0004552523A206461746120697320656D70A6
:102FF0007479200A0000000067697A4461746150A6
:103000006F696E74324576656E74204572726F72A8
:10301000202C20496C6C6567616C20506172616D79
:103020000A00000076616C756554696D652043681F
:10303000616E6765640A0000540B002076616C7550
:103040006554656D70204368616E6765640A0000B1
:1030500076616C756548756D204368616E6765645F
:103060000A00000076616C756572737369204368AD
:10307000616E6765640A000076616C75654761730F
:10308000204368616E6765640A00000076616C75B4
:103090006548656172745F52617465204368616E52
:1030A0006765640A0000000067697A436865636BBE
:1030B0005265706F7274204572726F72202C2049B5
:1030C0006C6C6567616C20506172616D0A00000074
:1030D0005B4552524F525D2076616C756554696D47
:1030E00065204572726F72202C20496C6C65676197
:1030F0006C204F766572737465700A0067697A4454
:10310000617461506F696E7473325265706F72745E
:1031100044617461204572726F72202C20496C6C7E
:103120006567616C20506172616D0A00CDCCCC3D49
:1031300067697A50726F746F636F6C4973737565EA
:103140006450726F63657373204572726F72202CC6
:1031500020496C6C6567616C20506172616D0A007A
:103160003C3700206C656E203D202564202C2073A8
:103170004469644C656E203D202564202C64617494
:10318000615F6C656E203D2025640A005B455252EC
:103190005D202064617461204973204E756C6C2041
:1031A0000A00000075617274207772697465206589
:1031B00072726F72202564200A00000001F038F955
:1031C000ADF80600324621460DF10D0003F04EFB2E
:1031D000122101A801F01AF98DF81500122101A899
:1031E000FFF71CFC0446002C0DDA2146F5A003F085
:1031F00035FD6FF0010006B070BDF9A003F02EFDA3
:103200004FF0FF30F7E7122101A8FFF7DDFC204661
:10321000F1E72DE9F0410746FFF7E8FB0446FA49DC
:1032200038468846FFF711FDF74D203D012811D1A2
:10323000F6A003F013FD29463846FFF770FD20B9CC
:10324000082229460420FFF77CFE18223946404612
:1032500003F00CFBF348B4FBF0F100FB1140002835
:1032600016D1F14EF068A04212D0F0A003F0F6FCA7
:1032700029463846FFF753FD20B908222946042085
:10328000FFF75FFE18223946404603F0EFFAF4607C
:10329000BDE8F0812DE9F74F82B00C469346002639
:1032A000002502986F1E002812D0200010D0BBF11C
:1032B000000F0DD0029801F064FB00F0FF08B8F198
:1032C000000F0CD04FF0FF094FF0020AD64F51E02B
:1032D000DCA003F0C3FC384605B0BDE8F08F3846EB
:1032E000FAE7012201A9029801F075FBF0B37878A2
:1032F000FF2803D19DF80410FF2902D0FF2817D022
:103300001AE0387858B1B88804282AD9A84228D0B9
:1033100084F8009084F80190A7F804A021E084F8D4
:10332000009084F80190A7F804A00120387018E0FC
:103330009DF80400552814D03878012811D1B88898
:103340009DF804102154401C80B2B880042808D98C
:103350002046408801F06CF8001D85B2B888A8426C
:103360000AD09DF804007870B87800E001E0401CB5
:10337000B870761C4645B4DBB98804291AD9A9422D
:1033800018D1204601F042F8BA88A11811F8011CA2
:1033900081420CD12A462146204603F067FAABF859
:1033A000005000203870B880B870787094E76FF0E3
:1033B000010091E701208FE710B5934CD83C94F8B9
:1033C0004800002812D0ABA003F048FCB4F8661007
:1033D00004F14900FFF722FBB4F86610814202D0E5
:1033E000ACA003F03BFCFFF701FBA06610BD10B5DD
:1033F00085498F3900280BD009790079491C814211
:1034000004D181482521913803F049FA002010BDEC
:10341000AFF2344003F022FC4FF0FF3010BD3EB558
:10342000002820D001680091406801909DF80400B8
:10343000401C8DF80400052000F0FAFFADF80200F2
:103440000921684600F0E2FF8DF80800092168466E
:10345000FFF7E4FA0446002C03DA214659A003F0F2
:10346000FDFB20463EBD91A003F0F8FB4FF0FF307E
:103470003EBD10B5644CD83C94F84800012818D1E2
:1034800094F84700022815D2FFF7B0FAA16E401A4F
:10349000C8280ED9FFF7AAFA14F8473F0146D4F816
:1034A00021208DA003F0DAFBFFF786FF2078401C77
:1034B000207010BD54482521BDE81040913803F01C
:1034C000EEB910B59EB00446002C4CD001A8FFF711
:1034D0006AFB02208DF8080060798DF8090088A049
:1034E00003C8CDE9030189A003C8CDE905018AA07D
:1034F00003C8CDE909018BA003C8CDE9070120224B
:103500008BA10BA803F0B2F9202292A10DF1560075
:1035100003F0ACF90020CDF84E00CDF852009DF834
:10352000550040F002008DF85500002000F080FFAB
:10353000ADF84C006F2000F07BFFADF80600732162
:1035400001A800F063FF8DF87600732101A8FFF752
:1035500065FA0446002C03DA21461AA003F07EFB2C
:1035600020461EB010BD84A003F078FB4FF0FF3062
:10357000F7E73EB504460D46002C22D06846FFF71B
:1035800012FB12208DF8040060798DF805000620EA
:1035900000F04EFFADF802008DF808500A21684691
:1035A00000F034FF8DF809000A216846FFF736FA6B
:1035B0000446002C03DA214602A003F04FFB20460C
:1035C0003EBDF1E04552523A207561727420777227
:1035D000697465206572726F72202564200A00008C
:1035E00067697A5265706F727444617461204572C4
:1035F000726F72202C20496C6C6567616C20506181
:1036000072616D0A00000000143800206368616E6A
:103610006765642C207265706F72742064617461D8
:103620000A000000C0270900540B0020496E666F95
:103630003A2036303053207265706F7274206461A6
:1036400074610A0067697A50726F746F636F6C47B8
:1036500065744F6E655061636B6574204572726F5F
:1036600072202C20496C6C6567616C20506172611E
:103670006D0A00005761726E696E673A2074696D59
:10368000656F75742C20726573656E642064617457
:1036900061200A004552523A20726573656E6420BB
:1036A00064617461206572726F720A004552523A09
:1036B0002067697A50726F746F636F6C436F6D6DC2
:1036C0006F6E41636B206461746120697320656D66
:1036D000707479200A0000005761726E696E673A53
:1036E00067697A50726F746F636F6C526573656E41
:1036F00064446174612025642025642025640A00E7
:103700003030303030303034000000003030303075
:103710003030303200000000303330333030303061
:103720000000000030333031303130300000000014
:1037300062626461623733633635316434373261D3
:103740003962353039633233383666653664393933
:1037500000000000623063613332353064616662BC
:10376000343630326135623330326434643835395E
:10377000373262330000000067697A50726F746FED
:10378000636F6C476574446576696365496E666FFF
:10379000204572726F72202C20496C6C6567616CD9
:1037A00020506172616D0A00F2A003F057FA4FF0E9
:1037B000FF3005E710B5002821D0F94982680A607A
:1037C000C2684A60028A0A81807C8872A1F174040E
:1037D000B4F8740000F02CFEA4F87400E06F00F060
:1037E00036FEE067627D04F116000E211154607D03
:1037F000401C6075042004F87D0C002010BDE9A079
:1038000003F02CFA4FF0FF3010BD70B5FFF7EEF863
:1038100004464FF41675FFF7E9F8001BA842FAD9E1
:10382000BDE87040FFF7E5B82DE9F0410546002DF1
:1038300032D0288900F0FCFD2881DFF87C83D84E47
:10384000022798F80000F13EC0F38001287A06F1C3
:103850008004C0F3800291423DD042074FF0000146
:1038600020D5C00709D016F87F0F01553078401CCD
:1038700006F87F09D1A003F0F1F9287A80072AD54C
:1038800016F87F1F012008553078401C06F87F0984
:10389000D2A003F0E3F91EE0D7A003F0DFF94FF068
:1038A000FF30F5E4C00709D016F87F0F01553078D6
:1038B000401C06F87F09C1A003F0D0F9287A8007E0
:1038C00009D516F87F0F07553078401C06F87F0998
:1038D000D5A003F0C3F998F80000297AC0F3C0031B
:1038E000C1F3C00293421CD062F3C30088F8000009
:1038F00008070BD516F87F1F032008553078401CA9
:1039000006F87F09CFA003F0A9F90AE016F87F1F97
:10391000042008553078401C06F87F09D1A003F038
:103920009DF998F80000297AC0F30013C1F3001242
:1039300093421CD062F3041088F80000C8060BD52F
:1039400016F87F1F052008553078401C06F87F09BF
:10395000CCA003F083F90AE016F87F1F0620085573
:103960003078401C06F87F09CEA003F077F998F86C
:103970000000297AC0F34013C1F3401293421CD0D7
:1039800062F3451088F8000088060BD516F87F1FF3
:10399000072008553078401C06F87F09CAA003F0BC
:1039A0005DF90AE016F87F1F082008553078401CA2
:1039B00006F87F09CBA003F051F998F80100697A65
:1039C000C0F3C003C1F3C00293421CD062F3C30032
:1039D00088F8010008070BD516F87F1F0B20085543
:1039E0003078401C06F87F09C6A003F037F90AE0DA
:1039F00016F87F1F0C2008553078401C06F87F0908
:103A0000C7A003F02BF998F80100697AC0F30013FE
:103A1000C1F3001293421CD062F3041088F8010035
:103A2000C8060BD516F87F1F092008553078401CB2
:103A300006F87F09C2A003F011F90AE016F87F1F0B
:103A40000A2008553078401C06F87F09C3A003F00F
:103A500005F916F87F1F0D2008553078401C30708E
:103A6000687A00F0070186F87110C3A003F0F6F839
:103A700006F87F7C00200BE410B549483A214D3010
:103A8000016000F11001C16000F05EFF50B1BEA006
:103A900003F0E4F84248BDE810404FF49F71F1385C
:103AA00002F0FDBEBDA003F0D9F8F3E7F0B587B092
:103AB000064600243A4D0927F13D062E55D2DFE88F
:103AC00006F0032B5857565501A8FFF76CF80B204A
:103AD0008DF8080055F83F0F411C29608DF809004A
:103AE000052000F0A5FCADF80600092101A800F0B2
:103AF0008DFC8DF80C00092101A8FEF78FFF04460C
:103B0000002C04DA2146AFF2445003F0A7F8092153
:103B100001A8FFF759F8EFE104A8FFF744F88DF882
:103B2000147055F83F0F411C29608DF815008DF871
:103B30001860062000F07CFCADF812000A2104A8F1
:103B400000F064FC8DF819000A2104A8FEF766FF56
:103B50000446002C04DA2146AFF2985003F07EF8B8
:103B60000A2104A8FFF730F8C6E1C2E199E170E14B
:103B700047E11DE167697A50726F746F636F6C453E
:103B800072726F72436D64204572726F72202C20C6
:103B9000496C6C6567616C20506172616D0A000050
:103BA0002D3800204552523A204E5450206973203F
:103BB000656D707479200A005A0B00204F6E426FB9
:103BC000617264696E673A20536F66744150206F6A
:103BD0007220576562206D6F64650A004F6E426FF8
:103BE000617264696E673A204169724C696E6B203C
:103BF0006D6F64650A00000067697A50726F746FB8
:103C0000636F6C4D6F64756C65537461747573206C
:103C10004572726F72202C20496C6C6567616C2054
:103C2000506172616D0A00004F6E426F617264698B
:103C30006E673A2053746174696F6E206D6F6465AE
:103C40000A00000057694669207374617475733AFD
:103C500020696E2062696E64696E67206D6F6465AD
:103C60000A00000057694669207374617475733ADD
:103C7000206F75742062696E64696E67206D6F6471
:103C8000650A000057694669207374617475733A58
:103C900020636F6E6E656374656420726F75746502
:103CA000720A000057694669207374617475733A2B
:103CB00020646973636F6E6E656374656420726FF0
:103CC000757465720A000000576946692073746153
:103CD0007475733A20636F6E6E6563746564206DEE
:103CE000326D0A0057694669207374617475733ABE
:103CF00020646973636F6E6E6563746564206D32F2
:103D00006D0A000057694669207374617475733ACF
:103D10002061707020636F6E6E6563740A0000002E
:103D200057694669207374617475733A206E6F2009
:103D300061707020636F6E6E6563740A000000002E
:103D400057694669207374617475733A20696E20EF
:103D500074657374206D6F64650A00005769466965
:103D6000207374617475733A206F75742074657371
:103D700074206D6F64650A005253534920697320A3
:103D80002564200A00000000726243726561746558
:103D9000204661696C64200A000000007262437270
:103DA000656174652053756363657373200A000051
:103DB00004A8FEF7F8FE8DF8147055F83F0F411C6B
:103DC00029608DF815008DF81860062000F030FB92
:103DD000ADF812000A2104A800F018FB8DF81900B4
:103DE0000A2104A8FEF71AFE0446002C04DA214634
:103DF000AFF6300002F032FF0A2104A8FEF7E4FE1D
:103E00007AE001A8FEF7CFFE13208DF8080055F8E0
:103E10003F0F411C29608DF80900052000F008FBC8
:103E2000ADF80600092101A800F0F0FA8DF80C00A9
:103E3000092101A8FEF7F2FD0446002C04DA214610
:103E4000AFF6800002F00AFF092101A8FEF7BCFED0
:103E500052E001A8FEF7A7FE15208DF8080055F8DE
:103E60003F0F411C29608DF80900052000F0E0FAA1
:103E7000ADF80600092101A800F0C8FA8DF80C0081
:103E8000092101A8FEF7CAFD0446002C04DA2146E8
:103E9000AFF6D00002F0E2FE092101A8FEF794FE81
:103EA0002AE001A8FEF77FFE29208DF8080055F8CA
:103EB0003F0F411C29608DF80900052000F0B8FA79
:103EC000ADF80600092101A800F0A0FA8DF80C0059
:103ED000092101A8FEF7A2FD0446002C04DA2146C0
:103EE000AFF6201002F0BAFE092101A8FEF76CFE21
:103EF00002E0E6A002F0B2FE07B02046F0BD0EB52B
:103F00006846FEF750FE17208DF80400E549086862
:103F1000421C0A608DF80500052000F089FAADF812
:103F200002000921684600F071FA8DF808000921A5
:103F30006846FEF773FD0146002902DADAA002F0B6
:103F40008DFE09216846FEF73FFE0EBD0EB56846A0
:103F5000FEF729FE21208DF80400D2490868421C92
:103F60000A608DF8050000208DF80800062000F09A
:103F70005FFAADF802000A21684600F047FA8DF8B2
:103F800009000A216846FEF749FD0146002902DAC8
:103F9000C5A002F063FE0A216846FEF715FE0EBDBD
:103FA00010B5002814D000F10801BE484122BE30EF
:103FB00002F05CFCBB480F226630411C03785A5467
:103FC0000178491C0170052100F8A51C002010BDD6
:103FD000BDA002F043FE4FF0FF3010BD2DE9F047C9
:103FE00092B080460024002502950195A146002646
:103FF000B8F1000F0DD0FFF73CFAAA4F02AA3F3FDD
:10400000791C07F59F70FFF745F950B1801C70D0FF
:104010009EE0B1A002F022FE4FF0FF3012B0BDE8EA
:10402000F087B7A002F01AFEFEF7E0FC0146BDF8EB
:104030000820B8A002F012FE06E038194178BAA0B4
:1040400002F00CFE641CA4B2BDF808008442F4D354
:10405000AFF2604002F002FEBA467C1C20790F28C5
:1040600053D00ADC0E2816D2DFE800F0151D15210A
:1040700015154B3F15154B154B44182855D006DC2C
:10408000112865D0142849D0162804D139E02228F7
:1040900055D02A2835D002212046FFF76AFAA4A07D
:1040A00002F0DCFD54E02046FFF70BFA50E0E27925
:1040B000A179A5A002F0D2FD01A80090BDF80800EA
:1040C0000AEB0601821B093A093103AB4846FEF7A9
:1040D0006EFE00283CD1E37903A92046019AFEF741
:1040E000CBFE9DA002F0BAFD32E02046FFF797F923
:1040F0002EE037E02046FFF792F92046FFF794FBC9
:1041000026E02046FFF773F922E02046FFF787F903
:1041100094A002F0A3FDFFF778FB19E02046FFF71B
:1041200066F995A002F09AFD12E02046FFF75FF9CC
:104130002046FFF73FFB98A002F090FD08E02046E4
:10414000FFF755F92046FFF72BFF99A002F086FDF7
:10415000544C38782D3406284CD2DFE800F04B0D53
:104160001927303E781C0121FFF703FA97A002F0CF
:1041700075FD6FF0010051E73D704A491822813109
:104180002046FEF7D1FB1321204602F088FB31E0E8
:104190003D7044490122B131A1F171000446FEF79E
:1041A000C3FB1321204602F07AFB23E03D703D491A
:1041B000D7F83B2021392046FEF7B6FB1AE03D70C8
:1041C00038490C22B231A1F15F000446FEF7ACFB86
:1041D0001321204602F063FB0CE03D70314941227F
:1041E000BE31A1F158000446FEF79EFB4121204656
:1041F00002F055FB4046FFF70CF800200EE730B503
:1042000089B00A46911D8CB2002838D0FF218DF864
:1042100004108DF80510210A8DF806108DF807405E
:1042200005218DF808101F4D29684B1C2B608DF857
:10423000091000218DF80A108DF80B1006218DF859
:104240000C1001460DF10D0002F010FB211D01A81C
:1042500000F0DCF801A92144C870211D01A8FEF777
:10426000DDFB0146002903DAAFF6A84002F0F6FCB8
:10427000211D01A8FEF7A8FC002009B030BD59A0FF
:1042800002F0ECFC4FF0FF30F7E700004552523AE5
:10429000204366674D6F6465206572726F72210AF4
:1042A000000000007B3700204552525B4E54505DA9
:1042B0003A20756172742077726974652065727234
:1042C0006F72202564200A004E54502069732065C7
:1042D0006D707479200A000047697A7769747348B1
:1042E000616E646C65204572726F72202C20496C7F
:1042F0006C6567616C20506172616D0A000000009E
:10430000476574204F6E65205061636B6574210AA8
:104310000000000057694669324D43555B253464FF
:104320003A2534645D3A20002530327820000000C0
:104330004552523A20636D6420636F646520657254
:10434000726F72210A000000666C61672025782078
:104350002578200A0000000041636B4461746120ED
:104360003A200A007265706F72743A4D435520729C
:1043700065626F6F74210A0041636B2050524F4495
:10438000554354494F4E5F4D4F4445207375636309
:10439000657373200A00000041636B204745545F3A
:1043A0005554542073756363657373200A000000CD
:1043B00041636B204745545F4D6F64756C65207396
:1043C000756363657373200A000000004552523A1A
:1043D00020636865636B2073756D206572726F7200
:1043E000210A00005B4552525D2067697A77697443
:1043F00073506173737468726F7567684461746138
:10440000204572726F72200A0000000010B503464A
:104410000020002B03D011B10222491E05E000202C
:1044200010BD9C5C2044C0B2521C8A42F9D310BD1E
:1044300001B581B0002000909DF805008DF80000C6
:104440009DF804008DF80100BDF800000CBD0106C8
:1044500000F47F4241EA022100F47F0241EA122186
:1044600041EA1060704710B500220023A0F130042B
:10447000092C01D8E2B20CE0A0F14104052C02D8CD
:104480003738C2B205E0A0F16104052C01D85738D5
:10449000C2B2A1F13000092801D8C3B20CE0A1F1E9
:1044A0004100052802D83739CBB205E0A1F16100FF
:1044B000052801D85739CBB203EB0210C0B210BDAA
:1044C00070B505460024284602F0F4F93DB9601E97
:1044D00070BD295D302901D0002070BD641C84426C
:1044E000F7D3012070BD30B5642401291FD0022903
:1044F0001DD0B0FBF4F3B0FBF4F504FB1500491C30
:104500001A2461430A24B1FBF4F100EB900000EBA4
:1045100093005B4200EB430008441044401E072117
:1045200000280DDB90FBF1F201FB120030BD401EB4
:10453000B0FBF4F3B0FBF4F504FB15000C31DEE73F
:1045400090FBF1F201FB1200C01D30BD81070CD1C0
:10455000642190FBF1F201FB120141B94FF4C871E3
:1045600090FBF1F201FB120008B10020704701201E
:10457000704710B5FFF7EAFF10B14FF4B77010BDE8
:1045800040F26D1010BD2DE9F04790B007460E4681
:1045900040F2B27530225B4901A802F067F9344657
:1045A00004F5E14411E02846FFF7E3FF40F2A321C0
:1045B0004143B4EBC11F0AD3A0EB001000EB400055
:1045C000C0EB001004EBC0146D1C002CEBD11FFAE3
:1045D00085FAADF834A000254FF01D090DF104084F
:1045E00016E05046FFF7B2FF08B1CDF8089058F832
:1045F000250040F2A3214143B4EBC11F0AD3A0EB35
:10460000001000EB4000C0EB001004EBC0146D1C68
:10461000002CE6D11C2002906D1C8DF83650012034
:1046200039494A4203E08C4203D31444401C002C15
:10463000F9D18DF837004FF46160B4FBF0F18DF8DB
:104640003810B4FBF0F100FB11413C20B1FBF0F15C
:104650008DF83910B4FBF0F100FB11408DF83A00F1
:10466000CDF83B600D9838600E987860BDF83C003E
:1046700038819DF83E00B87210B0BDE8F0872DE992
:10468000F04707460E46904600241AE016F814003C
:1046900006EB440191F8019002F0E2F83038C5B21F
:1046A000092D01D9ED1FEDB2484602F0D9F8303896
:1046B000C0B2092801D9C01FC0B200EB051038559F
:1046C000641C4445E2DBD8E730B5002314E0CC5C41
:1046D000302505EB141504F00F043034392D01D9C1
:1046E000ED1DEDB2392C01D9E41DE4B200F81350F0
:1046F00000EB43056C705B1C9342E8DB002100F883
:10470000121030BD109000088051010030B5002219
:10471000002809D1401E30BD845C8B1A034413F875
:10472000015D85541C70521CB2EB510FF4D3002074
:1047300030BD511AB1FBF0F0704702FB001070471A
:1047400010B50446104602F00EF9214602F043F976
:10475000BDE8104002F09BB970B505460C46104606
:1047600002F077F9294602F004F92146BDE87040CD
:1047700002F0A7B8002809D0420707D000F00700D0
:10478000C0F10800884207D300207047082901D8EB
:1047900000207047012070470120704770B5064621
:1047A0001446002C09D0F5083046FFF7E3FF06F069
:1047B000070128B1012808D016E04FF0FF3070BD86
:1047C000605D8B40184360550EE0DEB2C1F1080019
:1047D000C640FF22C2401A406019437833434370F9
:1047E000605D8A4010436055002070BD2DE9F043A4
:1047F0000F468DB0804611461E4600254FF0FF390A
:1048000000291AD0CEB14FEAD8043246684602F0E9
:104810002DF8012E05D931466846FFF777FF401C79
:104820000FD039464046FFF7A5FF6A46FF2308F040
:10483000070140B101280DD019E048460DB0BDE890
:10484000F0834846FAE7155DC7F10800CD40C34044
:104850001D400CE010194578C1F108003E1AC6F160
:104860000806F3401D40125DCA40854015432846A6
:10487000E4E72DE9F0438DB08846149F05461646BF
:10488000194600244FF0FF39002919D0C7B13A4624
:10489000684601F0EBFF012F05D939466846FFF75E
:1048A00035FF401C0ED031464046FFF763FF0146FE
:1048B0006B46FF2208F0070031B101290BD017E049
:1048C0004846BBE74846B9E75C5DC440C6F108000E
:1048D000C24014400CE059194C78C0F10801761A16
:1048E000C6F10806F24014405A5DC2408C401443A1
:1048F0002046A3E770B50E46049D04461146002BE2
:1049000009D03046FFF736FF014606F0070029B10F
:10491000012908D016E04FF0FF3070BD195D8540C9
:10492000294319550EE0EEB2C0F10801CE40FF2236
:10493000CA402A4019194D7835434D70195D82409F
:1049400011431955002070BD002804D0C168416092
:104950008160002070474FF0FF307047002806D07C
:104960000021C160416081600160002070474FF00C
:10497000FF307047002801D0006870474FF0FF30CB
:10498000704700B50146002906D04A68886882420F
:1049900005D14FF0000000BD4FF0FF3000BD02D246
:1049A000A0EB020000BD0846FFF7E4FF4A688968F3
:1049B000511A401A00BD00B50146002908D008462A
:1049C000FFF7D8FF03460846FFF7DBFF181A00BDC4
:1049D0004FF0FF3000BD2DE9F04104460F4615466B
:1049E0004FF0FF30002C17D0002F15D06068A16861
:1049F000884213D22046FFF7C4FFA84203D82046BE
:104A0000FFF7BFFF054661682A46384601F02EFFD2
:104A10006068284460602846BDE8F0812046FFF7C2
:104A2000A9FF6168E2688A1A801AA84208D92A4652
:104A3000384601F01BFF6068284460602846EBE7B9
:104A40002046FFF797FF6168E2688A1A861A3246A5
:104A5000384601F00BFFE0686060AA1BB9192046D8
:104A6000FFF7B9FF3044D7E72DE9F04104460F4680
:104A70001546002C08D03FB12046FFF79CFFA84206
:104A800005D86FF00100C7E74FF0FF30C4E7616859
:104A9000A068814229D82046FFF76CFF0146A06834
:104AA000E268821A8E1AB54212D82A46394601F0B7
:104AB000DDFEA0682844A0602046FFF75BFF0146AA
:104AC000E068A2680144914200D1A0602846A3E7B3
:104AD0003246394601F0CAFEE068A060AA1BB91947
:104AE0002046FFF7C1FF304496E72A46394601F0D9
:104AF000BDFEA0682844A06028468DE710B56FF081
:104B0000040000F025F9204820490068B0FBF1F0CE
:104B10001F49C0B2087000EB4002C2EBC0104FF654
:104B2000FF7202EAC000488010BD19490978484365
:104B30004FF0E021486100238B61086940F00100DB
:104B400008610869C20701D0C003FAD5086920F0DE
:104B5000010008618B6170470D49498848434FF057
:104B6000E021486100238B61086940F00100086181
:104B70000869C20701D0C003FAD5086920F0010016
:104B800008618B61704700001000002000127A005D
:104B9000640B0020704746490A885206FCD5444AF7
:104BA000C1B2121D1180704770B586B00546012153
:104BB00044F2040000F007FE4FF40070ADF814005A
:104BC00003248DF8164018218DF81710394E05A9C9
:104BD000304600F0F2FB3115ADF8141004218DF8C9
:104BE000171005A9304600F0E8FB25208DF80000DD
:104BF0008DF801408DF8024001208DF803006846D1
:104C000000F063F801950020ADF80800ADF80A0047
:104C1000ADF80C00ADF810000C20ADF80E00244CDF
:104C200001A9204601F084FC012240F225512046D2
:104C300001F005FD0121204601F0F5FC06B070BD34
:104C400070B51B4C40F22551204601F0C5FD0028EF
:104C50000ED0204601F04CFDC1B2174A1088030463
:104C600006D444044FF0000307D50A2901D013806D
:104C700070BD40F40040108070BD0D290AD00F4D6A
:104C8000C0F30D042955401C80B21080C728F3D909
:104C9000138070BD40F48040108070BD10B5044C8E
:104CA0000146204601F020FD20884006FCD510BDBD
:104CB0000038014000080140680B0020C438002083
:104CC0002A4908432A490860704770B50F23C27803
:104CD00001260178002A1ED0254A126802F4E062FB
:104CE000C2F5E062120AC2F10404D3404578A5403F
:104CF00082781A402A43120101F1E02181F8002450
:104D0000007800F01F018E404009800000F1E02093
:104D1000C0F8006170BD01F01F00864048098000A6
:104D200000F1E020C0F8806170BD124A11400143DB
:104D30000F48001F016070470D4A121D002903D063
:104D40001168014311607047116881431160704719
:104D50004FF0E021042804D0086920F00400086125
:104D60007047086940F00400086170470000FA05C8
:104D70000CED00E080FFFF1F10B5DB4988420AD12F
:104D800044150121204600F034FD2046BDE81040C6
:104D9000002100F02EBDD54988420AD10415012119
:104DA000204600F026FD2046BDE81040002100F01E
:104DB00020BDCF4988420AD10121CC03204600F012
:104DC00018FD2046BDE81040002100F012BD10BDC6
:104DD00010B54268C74B1A400C790B6842EA0422AE
:104DE000134343608268C44B1A40D1E90243234312
:104DF0004C7942EA440213438360C26A22F470028F
:104E0000097C491EC9B242EA0151C16210BD0021AC
:104E10000160017141718160C160012101747047BD
:104E2000002904D0816841F00101816070478168E8
:104E300021F0010181607047002904D0816841F4AC
:104E4000807181607047816821F480718160704752
:104E5000C9B2002A03D042680A43426070474268E0
:104E60008A4342607047816841F008018160704761
:104E7000014600208968090700D501207047816834
:104E800041F00401816070470146002089684907AC
:104E900000D501207047002904D0816841F4A001A9
:104EA00081607047816821F4A001816070470146EC
:104EB00000208968490200D501207047426822F429
:104EC0006042491E42EA413141607047002904D0E6
:104ED000416841F4006141607047416821F400611C
:104EE0004160704770B5072609290AD9C568A1F144
:104EF0000A0404EB4404A640B543A3401D43C56027
:104F000007E0056901EB4104A640B543A3401D43FA
:104F100005611F23072A09D2446B521E02EB82024D
:104F200093409C4391400C43446370BD0D2A09D2C9
:104F3000046BD21F02EB820293409C4391400C43CE
:104F4000046370BDC46A0D3A02EB820293409C4335
:104F500091400C43C46270BD002904D0816841F4C3
:104F6000801181607047816821F4801181607047F1
:104F7000C06C80B270475C484C30006870470029B4
:104F800004D0416841F4806141607047416821F478
:104F9000806141607047002904D0416841F480512C
:104FA00041607047416821F48051416070478268D8
:104FB00022F4E0420A4382607047002904D08168ED
:104FC00041F4004181607047816821F400418160B3
:104FD0007047002904D0816841F402118160704754
:104FE000816821F4021181607047014600208968C0
:104FF000890200D50120704770B5072609290AD912
:10500000C568A1F10A0404EB4404A640B543A340DB
:105010001D43C56007E0056901EB4104A640B543A7
:10502000A3401D430561836BC3F30154121B921C03
:1050300002EB82021F249440A34391400B438363FD
:1050400070BD826B22F44012491E42EA0151816315
:10505000704708B5009000980844009000980260DE
:1050600008BD08B5009000980844283000900098CA
:10507000006880B208BD4268204B1A400A43426073
:105080007047416282627047426822F01F020A4301
:105090004260704714490831002804D0086840F481
:1050A000000008607047086820F40000086070473E
:1050B0000246002012680A4200D001207047C9430E
:1050C0000160704710B5024600200B0A5468C9B24F
:1050D0000C401168194202D0002C00D0012010BDF4
:1050E000090AC943016070470024014000280140BB
:1050F000003C0140FFFEF0FFFDF7F1FFFFFD3FFF29
:1051000001684FF6FE7211400160002101604160AC
:105110008160C1607249724A0839904204D148687E
:1051200040F00F00486070476D4A1432904204D13D
:10513000486840F0F00048607047694A2832904261
:1051400004D1486840F4706048607047644A3C325B
:10515000904204D1486840F4704048607047604A0B
:105160005032904204D1486840F470204860704743
:105170005B4A6432904204D1486840F47000486051
:105180007047574A7832904204D1486840F07060C6
:1051900048607047534A111F904204D1086840F09C
:1051A0000F00086070474F4A1432904204D10868DB
:1051B00040F0F000086070474A4A2832904204D11B
:1051C000086840F4706008607047464A3C3290427C
:1051D00004D1086840F4704008607047414A50327A
:1051E0009042FAD1086840F470200860704730B5EA
:1051F000026847F6F0739A430C6A8B682343D1E93F
:1052000004452C4323438C692343CC6923434C6AD4
:1052100023438C6A234313430360CA6842600A68CD
:1052200082604968C16030BD0021016041608160D9
:10523000C160016141618161C1610162416281625C
:105240007047002904D0016841F0010101607047F6
:1052500001684FF6FE72114001607047002A03D0CA
:1052600002680A430260704702688A43026070471E
:1052700041607047406880B2704702460020D1000C
:1052800003D518490839096802E015490839096841
:10529000114200D001207047C10003D51149091FF8
:1052A000086070470E490839486070470246002080
:1052B000D10003D50B490839096802E008490839CB
:1052C0000968114200D001207047C10003D505498B
:1052D000091F08607047024908394860704700009C
:1052E000080002400804024010B59C49884209D1D8
:1052F0000121042000F07DFA0021BDE810400420C7
:1053000000F077BA9649884209D10121082000F0BF
:1053100070FA0021BDE81040082000F06ABA9149F7
:10532000884209D10121102000F063FA0021BDE874
:105330001040102000F05DBA8B49884209D101214C
:10534000202000F056FA0021BDE81040202000F097
:1053500050BA8649884209D10121402000F049FA1B
:105360000021BDE81040402000F043BA8049884247
:1053700009D10121802000F03CFA0021BDE8104055
:10538000802000F036BA7B4988420AD18415012179
:10539000204600F02EFA2046BDE81040002100F023
:1053A00028BA10BD10B50121084600F022FA0021EC
:1053B000BDE81040012000F01CBA2DE9F0410022A8
:1053C000CC7804F00F03E40601D58C7823430C78E5
:1053D0004FF00F0714F0FF0F4FF0010C1CD00568C1
:1053E0000CFA02F40E882640A64211D1960007FA64
:1053F00006F825EA080503FA06F848EA0505CE7816
:10540000282E02D0482E02D002E0446100E0046160
:10541000521C082AE4D305600A88FF2A1ED9456871
:10542000002202F108060CFA06F40E882640A64275
:1054300010D1960007FA06F825EA080503FA06F8DF
:1054400048EA0505CE78282E00D14461CE78482E52
:1054500000D10461521C082AE3D34560BDE8F08105
:105460004FF6FF710180022181700421C1707047E5
:105470000246002092680A4200D0012070478068EE
:1054800080B2704702460020D2680A4200D0012054
:105490007047C06880B270470161704741617047D2
:1054A000002A01D00161704741617047C1607047B7
:1054B00041F48032826181618261816980697047D3
:1054C00010B52D4B1A684FF68074224042EA001046
:1054D0000843186010BD2949C8617047F0B5264CD3
:1054E000002801DAE36900E06368C0F30346420D77
:1054F000120185B2C0F301579540032F07D0C202B5
:105500000CD50322B240934343F0706209E023F0CC
:105510007062636823F07063636002E0AB4343F042
:10552000706201B12A43002801DAE261F0BD6260D5
:10553000F0BD10B58A07120F0F23934021F003042A
:105540000D4921448C689C438C608B6890400343D8
:105550008B6010BD0949DC310860704700080140CC
:10556000000C0140001001400014014000180140EF
:10557000001C0140002001400000014000002042CA
:10558000B448016841F0010101604168B24A11402C
:1055900041600168B14A11400160016821F4802135
:1055A0000160416821F4FE0141604FF41F018160F8
:1055B0007047A8490A6822F480320A600A6822F417
:1055C00080220A60B0F5803F07D0B0F5802F03D16C
:1055D000086840F4A02008607047086840F48030F4
:1055E000086070470346002059099A4A01290AD0E9
:1055F00002290AD0516A03F01F02012393400B4293
:1056000000D0012070471168F5E7116AF3E718B57B
:10561000002000904FF4A0643120FFF7E3FF0099D1
:10562000491C00910099A14201D00028F4D03120FA
:10563000FFF7D8FF08B1012018BD002018BD854A2A
:10564000116821F0F80141EAC000106070478449F8
:10565000086070477F4B5A6822F47C12084310435D
:10566000586070477E49086670477A4A516821F051
:1056700003010143516070477648406800F00C0018
:105680007047744A516821F0F0010143516070473E
:10569000704A516821F4E0610143516070476D4ADE
:1056A000516821F4605141EAC00050607047694A76
:1056B000002903D0517A014351727047517A8143D6
:1056C000517270476649D83108607047614A516825
:1056D00021F440410143516070475E49002220316E
:1056E0000A7001F82029012805D0042802D10520DC
:1056F00081F820007047012081F820007047594947
:105700000860704753490A6A02430A627047554964
:1057100044390860704710B54E4A516801F00C01D9
:10572000514B002927D0042927D0082927D003600E
:10573000516801F0F00109094C4B5C5C0168E140E3
:105740004160546804F4E064240A1C5D21FA04F406
:105750008460546804F46054E40A1B5DD940C1605D
:10576000526802F44042920B404B1B1F9A5CB1FB03
:10577000F2F1016110BD0360DAE70360D8E7516818
:1057800001F47011536803F48033022404EB914157
:1057900033B153689B0307D5354B59430160C7E7C5
:1057A000334B59430160C3E72F4B59430160BFE7B7
:1057B000284A002903D0516901435161704751695A
:1057C000814351617047234A002903D09169014305
:1057D0009161704791698143916170471D4A002929
:1057E00003D0D1690143D1617047D1698143D1614F
:1057F0007047184A002903D0D1680143D16070472F
:10580000D1688143D1607047124A002903D01169E1
:10581000014311617047116981431161704711495A
:105820004039086070470E49C86470470949C8711B
:1058300070470848416A41F08071416270470146F3
:105840000020044A92680A4200D0012070470149B2
:1058500088727047001002400000FFF8FFFFF6FE5C
:10586000000042428004424200127A00740B002081
:1058700000093D0010B5FE4988420AD1C414012137
:105880002046FFF7B6FF2046BDE810400021FFF795
:10589000B0BFB0F1804F0CD0F649884213D101213E
:1058A0000220FFF7B1FF0021BDE810400220FFF702
:1058B000ABBF01210846FFF7A7FF0021BDE810405C
:1058C0000120FFF7A1BFEC49884209D10121042042
:1058D000FFF79AFF0021BDE810400420FFF794BFB6
:1058E000E649884209D101210820FFF78DFF0021F8
:1058F000BDE810400820FFF787BFE149884209D181
:1059000001211020FFF780FF0021BDE8104010208A
:10591000FFF77ABFDB49884209D101212020FFF738
:1059200073FF0021BDE810402020FFF76DBFD6496E
:1059300088420AD1441401212046FFF75AFF20462D
:10594000BDE810400021FFF754BFD04988420AD17A
:105950000121CC042046FFF74CFF2046BDE8104053
:105960000021FFF746BFCA4988420AD101210C0530
:105970002046FFF73EFF2046BDE810400021FFF71C
:1059800038BFC44988420AD101214C052046FFF79F
:1059900030FF2046BDE810400021FFF72ABFBE4976
:1059A000884209D101214020FFF72EFF0021BDE8E8
:1059B00010404020FFF728BFB849884209D1012193
:1059C0008020FFF721FF0021BDE810408020FFF775
:1059D0001BBFB34988420AD1841501212046FFF735
:1059E00013FF2046BDE810400021FFF70DBFAD4971
:1059F00088420AD101210C042046FFF7FAFE204616
:105A0000BDE810400021FFF7F4BEA74988420AD143
:105A100001214C042046FFF7ECFE2046BDE8104073
:105A20000021FFF7E6BEA14988420AD101218C047A
:105A30002046FFF7DEFE2046BDE810400021FFF7BC
:105A4000D8BE10BD30B50288894C8F4DA0420DD014
:105A5000A8420BD0B0F1804F08D0864B984205D0B9
:105A6000854B984202D0854B984203D122F07003B7
:105A70004A881A43824B984206D0824B984203D000
:105A800022F44073CA881A4302808A8882850A8871
:105A90000285A0420AD0A84208D0824A904205D08E
:105AA000814A904202D0814A904201D1097A01860E
:105AB0000121818230BD30B5028C22F001020284C6
:105AC000028C8388048B24F0700424F003050C8876
:105AD0002C4322F002020D8915434A882A43644D63
