:10206600FF03FFB36B6B9BFF8F777F8F7F778FFFAE
:10207600FFFF9F6D6D6B87FF9FEFF78777778FFF6A
:101F6200C104021B0000C106011A01C105011200D1
:071F7200021600320113000A
:0300030002186977
:10186900C0E0C0F0C083C082C0D075D000C000C045
:1018790001C002C003C004C005C006C007D206E506
:101889001A64017003021991E512244CFFE434FF34
:10189900FEEF25E0FFEE33FEEF2515F515EE3514C5
:1018A900F514E51524CDF517E43514F516C3E495BB
:1018B90017FDE49516F58CAF058F8A751200E51AA8
:1018C90024FD7003021950046003021991121BD6FA
:1018D900E537C4540F75F00AA4FFE537540F2FF507
:1018E90037E534C4540F75F00AA4FFE534540F2FBB
:1018F900F534E539C4540F75F00AA4FFE539540FDE
:101909002FF539D3940B400674F42539F539E537A9
:1019190075F003A4F537E5341313543FFFE5397522
:10192900F00FA42FF539E53475F003A4F534051C3F
:10193900E51C7002051BD394E0E51B940140497531
:101949001B00751C008041121BD6E537C4540F7566
:10195900F00AA4FFE537540F2FF537E534C4540FC7
:1019690075F00AA4FFE534540F2FF534E539C45452
:101979000F75F00AA4FFE539540F2FF539D3940CEC
:10198900400674F42539F539D007D006D005D004BE
:10199900D003D002D001D000D0D0D082D083D0F0F3
:0319A900D0E03259
:0C20F800C2AC8F993099FDC299D2AC2285
:10161300E512C394B4400302186820050302186856
:10162300C2051220A5E51A64026003021868E512D8
:10163300C394AF5006E51294035013E5122404F546
:1016430013C394B44074744C2513F513806CE512E2
:10165300C39429400FE512D394305008E51224DFD8
:10166300F5138056E512C39456400FE512D3945DEB
:101673005008E51224BAF5138040E512C394834061
:101683000FE512D3948A5008E5122495F513802AA6
:101693007513FAE51224E2601C24E2601824F16059
:1016A3001424E2601024F1600C24E2600824F16049
:1016B30004249670057F0F121FE2E513C394205094
:1016C3000AE51390206693FF121FE2E53924FED347
:1016D3009512505CAF397E00EF2402FDEE33FCAB74
:1016E300127A00C3ED9B7480F86C984043E539147B
:1016F3006512600FEF2401FFEE33FEEFB5030DEA31
:10170300B506097FFF1220457FBF8021E53924FEFE
:1017130065126012E5392402FFE433FE7C00EFB565
:10172300120EECB5060A7FFF1220457FDF1220243C
:10173300E539B5120A7F80122045E4FF122024E523
:101743003424FED395125061AF347E00EF2402FDA2
:10175300EE33FCAB127A00C3ED9B7480F86C9840B7
:1017630048E534146512600FEF2401FFEE33FEEFFA
:10177300B5030DEAB506097FFF1220247FFB802104
:10178300E53424FE65126012E5342402FFE433FEDF
:101793007C00EFB51213ECB5060F7FFF1220247FF8
:1017A300FD1220037FFF122045E534B5120FE4FF3D
:1017B3001220247FF01220037F80122045E5372476
:1017C300FED39512505CAF377E00EF2402FDEE335B
:1017D300FCAB127A00C3ED9B7480F86C984043E530
:1017E30037146512600FEF2401FFEE33FEEFB503EC
:1017F30008EAB506047FBF801CE53724FE65126046
:1018030012E5372402FFE433FE7C00EFB51213EC3C
:10181300B5060F7FDF1220037FFF1220247FFF1204
:101823002045E537B5120FE4FF122003E4FF122031
:10183300247F801220457E00E51C2512FFEE351B18
:10184300FEEF25E0FDEE33FC74462DF58274093C72
:10185300F583E493FF74472DF58274093CF583E423
:0618630093FD121EB422E9
:101D8A00E4F594F593F592F591F596F595F5B2F596
:101D9A00B1F5B4F5B3F5CAF5C9F5CCF5CBF5E2F56D
:101DAA00E17D557F55121EB4753E557B557D557F95
:101DBA0055121D07538E7F5389F0438901758ACDC9
:101DCA00758CFEC28DD28CD2A9538EBF53890F4314
:101DDA008920758B12758D12C28FD2ABC28E7598FF
:101DEA005075D7D875D6FF758E14438E01D288D216
:081DFA00A8D28AD2AAD2AF22BE
:03000B00021FBC15
:101FBC00C0E0C0D075D000C005C007D205C3E49501
:101FCC0017FDE49516F58CAF058F8A0512D007D056
:061FDC0005D0D0D0E03278
:101B3100121D8A7BFF7A21790F121F2C7F551220EB
:101B4100F8E51A64026005E51AB4030312161330AE
:101B510006EFC206D20430016AC201900021E024DE
:101B6100EB603624FD601A14602624D9601E24F926
:101B7100603524E9601224527044751A01C28C80C8
:101B81003D751A02D28C8036D28C80327D01800262
:101B9100E4FDAF2B121A7F8025052BE52BD394058D
:101BA100401CE4F52B80177BFF7A21790F121F90DF
:101BB100E4FD7F8E1220967DA57F90122096E49001
:101BC1000021F0E51A64016003021B42121BD612C8
:051BD1001106021B4299
:07210F000010222005041559
:021A7F008D3B9D
:101A8100BF0109753C84753E17E4F53FBF02097536
:101A91003C82753E3BE4F53FBF0309753C80753ED2
:101AA1003BE4F53FBF0409753C88753E0C753F0169
:101AB100BF0509753C86753E1F753F01BF06097557
:101AC1003C8A753E07753F01E53C04FF122104EF96
:101AD100C4540F75F00AA4FFC007E53C04FF1221AE
:101AE10004EF540FFED0E02EF53DE53BB4010405B3
:101AF1003D8002153DE53DD3953E4003853F3DE5E3
:101B01003DC3953F5003853E3DE4FD7F8E122096F7
:101B1100E53D75F00A84C454F0FFE53D75F00A8493
:101B2100EF25F0FDAF3C1220967D807F8E0220963E
:0620BE00C286C2CBD286EF
:0F20C400EF7F08A2E09285D2CBC2CBC313DFF42B
:0120D30022EA
:0F20E8007F08C313A28592E7D2CBC2CBDFF4FFF0
:0120F70022C6
:10208600E4FD7FC61220967FC81220967D9B7FC4F2
:0F209600AE051220BEAF061220C4D2CBC28622E6
:0A2104001220BE1220E8D2CBC286E2
:01210E0022AE
:101F9000753B80E4FD7F8E1220967C07121EF5FDB6
:101FA000AF3B122096740129F9E43AFA053B053B50
:0C1FB000DCEA1220867D807F8E022096E5
:101F2C00753B807F81122104EF30E729E4FD7F8E21
:101F3C001220967C07121EF5FDAF3B122096740101
:101F4C0029F9E43AFA053B053BDCEA1220867D8050
:051F5C007F8E122096AB
:011F6100225D
:101BD6007F851221048F39E539C4540F900031F006
:101BE600E539540F900030F090002F740AF07F838F
:101BF6001221048F34E534C4540F90002EF0E534DE
:101C0600540F90002DF090002C740AF07F81122161
:101C1600048F37E537C4540F90002BF0E537540F87
:101C260090002AF07F891221048F33E533C4540FC4
:101C3600900029F0E533540F900028F090002674A8
:101C46000BF0A304F07F871221048F38E538C454C3
:101C56000F900025F0E538540F900024F0900022F4
:101C6600740DF0A304F07F8B1221048F357F8D1243
:051C760021048F36225D
:10001E00FFFF1FF0EFEFF7DFF7DFEFEF1FF0FFFF50
:10002E00FFFFFFFFFFDFFFDF07C0EFDFEFDFFFFFA9
:10003E00FFFF8FCF77DEF7DDF7DBF7D78FCFFFFF31
:10004E00FFFFCFF1B7EE77DF77DFF7DFCFE7FFFF09
:10005E00FFFFFFDB07C0EFDBDFDB3FFBFFF8FFFF40
:10006E00FFFFF7F1F7EE77DF77DFF7DE07E6FFFF4B
:10007E00FFFFFFF1E7EE77DF77DFEFEE1FF0FFFF19
:10008E00FFFFF7FFC7FF37FFF7C0F7FFC7FFFFFF01
:10009E00FFFF8FE377DDF7DEF7DE77DD8FE3FFFF20
:1000AE00FFFF1FF0EFEEF7DDF7DDEFCE1FFFFFFFD7
:1000BE00FFFFFFFFFFFF3FCF3FCFFFFFFFFFFFFF22
:1000CE00FFFFFFFFFFFF0180DD7DDDBDDDFDDDFDFF
:1000DE00DDFDDDFDDDFDDDFD01F0FFCFFFBFFF7FAF
:1000EE00FFFFFFFFFFFFFFFF01007DBF7DBF7DBF55
:1000FE007DBF7DBF7DBF7DBF0100FFFFFFFFFFFF07
:10010E00FFFFEFFFEFFF0080EF7FEFBFEFF9EFFE96
:10011E00EFFFFFFF03C07BEF7BEF7BEF03C0FFFF23
:10012E00FFFF7FFFBFFFDFFFEFFF73C07CBF7F7F4F
:10013E007FBF7FFF79F877E76FDFDFBFBF7F7FFF7E
:10014E00FFFF9FFFEFFCF7F3FFEF00D8FFBFC7BF26
:10015E003F7FFF7EDDF9DCFE01005BFEDBF9DBF7A6
:10016E00FFFFFFFFFFFFFFFFFFFFFFFFFFFFFFFF91
:10017E00FFFFFFFFFFFFFFFFFFFFFFFFFFFFFFFF81
:10018E00FFFFFFFFFFFFFFFFFFFFFFFFFFFFFFFF71
:10019E00FFFFFFFFFFFFFFFFFFFFFFFFFFFFFFFF61
:1001AE00FFFFFFFFFFFFFFFFFFFFFFFFFFFFFFFF51
:1001BE00FFFFFFFFFFFFFFFFFFFFFFFFFFFFFFFF41
:1001CE00FFFFFFFFFFFFFFFFFFFFFFFFFFFFFFFF31
:1001DE00FFFFFFFFFFFFFFFFFFFFFFFFFFFFFFFF21
:1001EE00F7DF07C0F7DFF7DFF7DFEFEF1FF0FFFFF7
:1001FE00FFFFF7DFF7DF07C0F7DFF7DFFFFFFFFFD8
:10020E00F7FFC7FF37DFFFC037DFC7FFF7FFFFFF7F
:10021E00F7FDF7FE76FF110067FFFF7CFFBF01DCE5
:10022E00FDE7FDF90DFEFD81FD7F017CFF1FFFFF48
:10023E00FFF7FFF7FFFB017B6D9D6DE16DFE01FF8B
:10024E006DFE6D016DFD01FBFFFBFFF7FFF7FFFF7D
:10025E00FFFFFF8383BFBFBFBFBFBFBFBFBF008056
:10026E00BFBFBFBFBFBFBFBF03BFFF03FFFFFFFFC8
:10027E00FFFFFF01FFBD81BDBDBDBD01BDFFBDFFC8
:10028E00BDFFBD01BDBD81BDFFBDFF01FFFFFFFF76
:10029E00FFFFFFFFFFFFFFFFFFFFFFFFFFFFFFFF60
:1002AE00F7FDF7FE76FF1100677FFFBC81DFBDE72C
:1002BE003DF8BDFFBDFF3DC0BDBF81BFFF87FFFF46
:1002CE00FFFE7FFF9FFF0700F8FFBFEFDFF3E7FCA6
:1002DE00F0BFF77F3780F7FFF7FED7F9E7E7FFFFAD
:1002EE007FFF7FFF7FFF7FFF7FFF7FFF7FFF7FFF10
:1002FE007FFF7FFF7FFF7FFF7FFF7FFF7FFFFFFF80
:10030E00FFFF07F0F7FF0000F7F70770FF9F01E010
:10031E00BDFF7DFEFDFF01C0FFBFFFBFFF87FFFFDB
:10032E00FF7FFF9F01E0FDFFEDDFDDEF3DF3FDFC05
:10033E003DF3CDCFFDFF01F0FFCFFFBFFF07FFFF66
:10034E00FFBF01C0FFFF03C0FFFF0000FF7F0DB026
:10035E00EDDFE5E729F8EDEFEDDF0DB0FD7FFFFFF7
:10036E00FFEFFFEFF7EFF7EFF7EFF7EFF7EFF7EF3F
:10037E00F7EFF7EFF7EFF7EFF7EFFFEFFFEFFFFF17
:10038E00DFFFDFFFDFFF0180DFBFDFBF00B8DFBBB6
:10039E00DFBBDFBB00B8DFBFDFBFDFBFDFFFFFFFAD
:1003AE00EF7FEFBFEFDFEFE7EFF900BEEFDFEFEF2D
:1003BE000FC0EFBBEEBDE9BE2FBFEFBFEF87FFFF54
:1003CE00FF7F0180DDFDDD7D0100D7FE56DF91D27E
:1003DE00D7D6C0D6D7D693B05477D786DFFEFFFFD9
:1003EE00FFDFFBDF7BDF7BDF7BDF7BDF7BDF7BDF2B
:1003FE007BDF7BDF7BDF7BDF7BDFFBDFFFDFFFFF77
:10040E00FFF7F7F777F777F776F771F777F70700D4
:10041E0077F773F774F777F777F7F7F7FFF7FFFFCD
:10042E007FFF7D7F7DBF7DCF01F07DFF7DFF7DFF57
:10043E007DFF7DFF01007DFF7DFF7DFF7FFFFFFFC5
:10044E00BFFBBBDBABDDABEDABEA2BB78B7BA08091
:10045E00ABF72BF7ABEAABEDABDDBBFBBFFBFFFFA7
:10046E00FFFF0380FBD7FBDBFBDC03DFFBDFFBDFE8
:10047E00FBDF03DEFBDDFBDDFBDD0380FFFFFFFFAC
:10048E00FFF6EFF66FF76DF7ADF6CDB6ED760186AA
:10049E00EDF2CEF4AEF66EF76FF7EFF6FFF6FFFF66
:1004AE00FFFEFDFEFDFEEDFE9DFEFDFEFDFE0100CE
:1004BE00FDFEFDFEBDFECDFEFDFEFDFEFFFEFFFFC1
:1004CE007FFF6F7F737F7B7B7BB97BB60AD779EF1C
:1004DE007BEF7BD37BDC7BBF6B7F73FF7FFFFFFFED
:1004EE00FFBFFDBFBDBFBDBFBD873DB881BFBDBF97
:1004FE00BDBFBDBFBDBF3D80FDBFFDBFFFBFFFFF89
:10050E00F7FDF6FE310047FFF7FCFFFFFD0085B655
:10051E00B5B6B5B6B580B5B6B5B685B6FD00FFFFB6
:10052E00FFFF07E0FFFFFFFF0000BFFFDFFFE780D9
:10053E00F0DEE7DE97C0F7DEF7DEF780F7FFFFFFAE
:10054E00FFFF0700FEFFF9FFFFFFFFFFFDFFFDFFAF
:10055E00FDFFFDFFFDFFFDBFFD7F0180FFFFFFFFE4
:10056E00DFFFDFBFDFDFDFEFDFF3DFFCDEFFDDFF0F
:10057E00D3FFDFFEDFFDDFFBDFE7DF9FDFFFFFFFE8
:10058E00DFFFDFBFDFDFDFEFDFF3DFFCDEFFDDFFEF
:10059E00D3FFDFFEDFFDDFFBDFE7DF9FDFFFFFFFC8
:1005AE00DF7FDF7FDFBFDFDFDFEFDFF3DFFC00FFAB
:1005BE00DFFCDFF3DFEFDFDFDFBFDF7FDF7FFFFF9C
:1005CE00FFBF01C0FFFF03C0FFFF0000FF7F0DB0A4
:1005DE00EDDFE5E729F8EDEFEDDF0DB0FD7FFFFF75
:1005EE007FFF7FFF7FFF7FFF7FFFBFFF00C0BFBF8B
:1005FE00BFBFBFBFDFBFDFBFDFBFDF87FFFFFFFFB5
:10060E00FFFFFFBBFFBD41B6D5B6D5B6D5B615803B
:10061E00D5B6D5B6D5B6C1B6FFBEFFBFFFFFFFFF3D
:10062E00FBFFFB01FBFDFBFD0B856BB56AB569B5E9
:10063E006BB56BB50B85FBFDFB7DFB01FBFFFFFF78
:10064E00FF7F0190BDF7BDF7BDD70130FFFFBDFFA6
:10065E005DD061377DF75DF73DD74130FFFFFFFF7E
:10066E00FFFFFF7FFF9FFFE7FFF803FFFFFFFFFF87
:10067E00FFFF81FF7FFCFFF3FFCFFFBFFF7FFFFF79
:10068E00F7FFF77FF7BFF7DFF7E707F876FF71FFA2
:10069E0077BF777F77BF77C0F7FFF7FFF7FFFFFFD3
:1006AE00BFFFBFBFBDDF33E0FFDF7FBF77AF77B3E5
:1006BE0000BC77BF77BF00A077BF77BF7FBFFFFFBC
:1006CE00EFBFB3BFBBBBBBBBBBBBBBBBBABB3980F6
:1006DE00BBBBBBBBBBABBB9BBBBBABBFF3BFFFFFD4
:1006EE00FF7FEFBFEFDFEFE7EFF800FFEFFFEFFF6A
:1006FE00EFFFEFFF0FC0FFBFFFBFFFBFFF87FFFF83
:10070E007FFF7DFF7DFF7DFF7DFF7DBF7D7F1D8098
:10071E005DFF6DFF75FF79FF7DFF7FFF7FFFFFFFA1
:10072E00FFFEFFBE75BFADB0DDA6A596B9B6BFB6CE
:10073E00B8B6A796DBA6ADB077BFFBBEFFFEFFFF38
:10074E00DBF7DBF95BFE01005CFFDDFEFFFBDDFB93
:10075E0033FBFFFBFFFB0000FFFDFFFDFFFDFFFF77
:10076E00BFFFBFFFBFFFBFFFBFFFBFFFBFFF000049
:10077E00BFFFBFFFBFFFBFFFBFFFBFFFBFFFFFFF3B
:10078E007FFF7FBFBFBFDFBBAFBBB7BBBBBB3C8079
:10079E00BBBBB7BBAFBBDFBBBFBF7FBF7FFFFFFF27
:1007AE00BFFFBFFFBFFFBFFFBFFFBFFFBFFF000009
:1007BE00BFFFBFFFBFFFBFFFBFFFBFFFBFFFFFFFFB
:1007CE00FF7EFB76DB76DBB6DAB6D9D6DBE603F058
:1007DE00DBE6D9D6DAB6DBB6DB76FB76FF7EFFFF3D
:1007EE00FDFFFDFF1D00DDBDDDBDCDBDD5BDD9BD00
:1007FE00DDBDDDBDDDBDDDBD1D00FDFFFDFFFFFF70
:10080E00FBFBFBFB8BEAABEAABEAABAAAB6A008065
:10081E00ABEAABEAABEAABEA8BE0FBFBFBFBFFFF21
:10082E00FBFFFBFFFBFD0BFD6BFD6BBD6A7D698561
:10083E006BF56BF96BF90BFDFBFFFBFFFBFFFFFF8E
:10084E00BF7FBDBF33C0FFBFFF7F1D00DD76D576F6
:10085E00D5760D40D576D956DD361F40FF7FFFFF8A
:10086E00FB7FFBBFFBDFFBE7FBF903FEBBFFBBFF21
:10087E00BBBFBB7FBBBF3BC0FBFFFBFFFBFFFFFF55
:10088E00FBFBFBFB8BEAABEAABEAABAAAB6A0080E5
:10089E00ABEAABEAABEAABEA8BE0FBFBFBFBFFFFA1
:1008AE00EF7FEFBE0FDDE0EBEFF7EFE90F9EFFFFFF
:1008BE00FFFF0780F7DFF7DFF7DF0780FFFFFFFFA0
:1008CE00EFBFEFCFEDFF2D88A97AA57AAD72AC4AB6
:1008DE00AD7AA57AA97A2D18EDFFEFEFEF9FFFFF06
:1008EE00FF837D7D83FFFFFFFFBD01FDFFFFFFFF48
:1008FE00FFB9756D9DFFFFFFFFBB6D6D93FFFFFF92
:10090E00FFE39B01FBFFFFFFFF0D6D6D73FFFFFF0D
:10091E00FF836D6DB3FFFFFFFF3F716F1FFFFFFF83
:10092E00FF936D6D93FFFFFFFF9B6D6D83FFFFFFC9
:10093E00FFFFBBBBFFFFFFFFFFFFFFFFFFFFFFFF41
:10094E00FFFFFFFFFFFFFFFFFFFFFFFFFFFFFFFFA9
:10095E00FFFFFFFFFFFFFFFFFFFFFFFFFFFFFFFF99
:10096E00FFFFFFFFFFFFFFFFFFFFFFFFFFFFFFFF89
:10097E00FFFFFFFFFFFFFFFFFFFFFFFFFFFFFFFF79
:10098E00FFFFFFFFFFFFFFFFFFFFFFFFFFFFFFFF69
:10099E00FFFFFFFFFFFFFFFFFFFFFFFFFFFFFFFF59
:1009AE00FFFFFFFFFFFFFFFFFFFFFFFFFFFFFFFF49
:1009BE00FFFFFFFFFFFFFFFFFFFFFFFFFFFFFFFF39
:1009CE00FFFFFFFFFFFFFFFFFFFFFFFFFFFFFFFF29
:1009DE00FFFFFFFFFFFFFFFFFFFFFFFFFFFFFFFF19
:1009EE00FFFFFFFFFFFFFFFFFFFFFFFFFFFFFFFF09
:1009FE00FFFFFFFFFFFFFFFFFFFFFFFFFFFFFFFFF9
:100A0E00FFFFFFFFFFFFFFFFFFFFFFFFFFFFFFFFE8
:100A1E00FFFFFFFFFFFFFFFFFFFFFFFFFFFFFFFFD8
:100A2E00FFFFFFFFFFFFFFFFFFFF1FF0EFEFF7DFFF
:100A3E00F7DFF7DF07C0F7DFFFFFFFFFF7DFF7DFB7
:100A4E0007C0F7DFF7DFFFFFFFFFF7FFC7FF37DF57
:100A5E00FFC037DFC7FFF7FFFFFFFF1F017CFD7FE2
:100A6E00FD810DFEFDF9FDE701DCFFBFFF7C67FF99
:100A7E00110076FFF7FEF7FDFFFFFFF7FFF7FFFB15
:100A8E0001FB6DFD6D016DFE01FF6DFE6DE16D9D56
:100A9E00017BFFFBFFF7FFF7FFFFFF8781BFBDBFA6
:100AAE003DC0BDFFBDFF3DF8BDE781DFFFBC677FE9
:100ABE00110076FFF7FEF7FDFFFFDF7FDF7FDFBF61
:100ACE00DFDFDFEFDFF3DFFC00FFDFFCDFF3DFEF65
:100ADE00DFDFDFBFDF7FDF7FFFFFF3DFCBDF5BEF2C
:100AEE00DBEEDBF5DBFBDB8059769AAD5BEB5BDB9C
:100AFE00DBD6DBB6D3B6EFBFFFFF7FFF7FFF7FFFF7
:100B0E007FFF7FFF7FFF7FFF7FFF7FFF7FFF7FFFE7
:100B1E007FFF7FFF7FFF7FFFFFFFFF87FFBFFFBFCF
:100B2E0001C0FDFF7DFEBDFF01E0FF9F0770F7F7DF
:100B3E000000F7FF07F0FFFFFFFFFF07FFBFFFCF2C
:100B4E0001F0FDFFCDCF3DF3FDFC3DF3DDEFEDDF1D
:100B5E00FDFF01E0FF9FFF7FFFFFFD7F0DB0EDDF8B
:100B6E00EDEF29F8E5E7EDDF0DB0FF7F0000FFFFA9
:100B7E0003C0FFFF01C0FFBFFFFFFFEFFFEFF7EF67
:100B8E00F7EFF7EFF7EFF7EFF7EFF7EFF7EFF7EF27
:100B9E00F7EFF7EFFFEFFFEFFFFFDFFFDFBFDFBF87
:100BAE00DFBF00B8DFBBDFBBDFBB00B8DFBFDFBF1F
:100BBE000180DFFFDFFFDFFFFFFFEF87EFBF2FBFFC
:100BCE00E9BEEEBDEFBB0FC0EFEFEFDF00BEEFF9FA
:100BDE00EFE7EFDFEFBFEF7FFFFFDFFED786547744
:100BEE0093B0D7D6C0D6D7D691D256DFD7FE010056
:100BFE00DD7DDDFD0180FF7FFFFFFFDFFBDF7BDFA4
:100C0E007BDF7BDF7BDF7BDF7BDF7BDF7BDF7BDF06
:100C1E007BDF7BDFFBDFFFDFFFFFFFF7F7F777F70A
:100C2E0077F774F773F777F7070077F771F776F7BB
:100C3E0077F777F7F7F7FFF7FFFF7FFF7DFF7DFF72
:100C4E007DFF01007DFF7DFF7DFF7DFF7DFF01F0BC
:100C5E007DCF7DBF7D7F7FFFFFFFBFFBBBFBABDD8E
:100C6E00ABEDABEA2BF7ABF7A0808B7B2BB7ABEAE8
:100C7E00ABEDABDDBBDBBFFBFFFFFFFF0380FBDD9F
:100C8E00FBDDFBDD03DEFBDFFBDFFBDF03DFFBDC7E
:100C9E00FBDBFBD70380FFFFFFFFFFF6EFF66FF7DF
:100CAE006EF7AEF6CEF4EDF20186ED76CDB6ADF67C
:100CBE006DF76FF7EFF6FFF6FFFFFFFEFDFEFDFE91
:100CCE00CDFEBDFEFDFEFDFE0100FDFEFDFE9DFE08
:100CDE00EDFEFDFEFDFEFFFEFFFF7FFF73FF6B7F50
:100CEE007BBF7BDC7BD37BEF79EF0AD77BB67BB9FF
:100CFE007B7B737F6F7F7FFFFFFFFFBFFDBFFDBF5E
:100D0E003D80BDBFBDBFBDBFBDBF81BF3DB8BD87AF
:100D1E00BDBFBDBFFDBFFFBFFFFFFD0085B6B5B6B2
:100D2E00B5B6B580B5B6B5B685B6FD00FFFFF7FC16
:100D3E0047FF3100F6FEF7FDFFFFF7FFF780F7DE06
:100D4E00F7DE97C0E7DEF0DEE780DFFFBFFF0000D3
:100D5E00FFFFFFFF07E0FFFFFFFFFFFF0180FD7FAB
:100D6E00FDBFFDFFFDFFFDFFFDFFFDFFFFFFFFFFD1
:100D7E00F9FFFEFF0700FFFFFFFFDFFFDF9FDFE74B
:100D8E00DFFBDFFDDFFED3FFDDFFDEFFDFFCDFF38A
:100D9E00DFEFDFDFDFBFDFFFFFFFDFFFDF9FDFE71D
:100DAE00DFFBDFFDDFFED3FFDDFFDEFFDFFCDFF36A
:100DBE00DFEFDFDFDFBFDFFFFFFFDF7FDF7FDFBFC5
:100DCE00DFDFDFEFDFF3DFFC00FFDFFCDFF3DFEF62
:100DDE00DFDFDFBFDF7FDF7FFFFFFD7F0DB0EDDFEA
:100DEE00EDEF29F8E5E7EDDF0DB0FF7F0000FFFF27
:100DFE0003C0FFFF01C0FFBFFFFFFFFFDF87DFBFA5
:100E0E00DFBFDFBFBFBFBFBFBFBF00C0BFFF7FFF22
:100E1E007FFF7FFF7FFF7FFFFFFFFFFFFFBFFFBE55
:100E2E00C1B6D5B6D5B6D5B61580D5B6D5B6D5B666
:100E3E0041B6FFBDFFBBFFFFFFFFFBFFFB01FB7DCD
:100E4E00FBFD0B856BB56BB569B56AB56BB50B85DF
:100E5E00FBFDFBFDFB01FBFFFFFFFFFF41303DD71D
:100E6E005DF77DF761375DD0BDFFFFFF0130BDD768
:100E7E00BDF7BDF70190FF7FFFFFFF7FFFBFFFCFE5
:100E8E00FFF37FFC81FFFFFFFFFFFFFF03FFFFF874
:100E9E00FFE7FF9FFF7FFFFFFFFFF7FFF7FFF7FF64
:100EAE0077C077BF777F77BF71FF76FF07F8F7E7D9
:100EBE00F7DFF7BFF77FF7FFFFFF7FBF77BF77BF84
:100ECE0000A077BF77BF00BC77B377AF7FBFFFDFE0
:100EDE0033E0BDDFBFBFBFFFFFFFF3BFABBFBBBB89
:100EEE00BB9BBBABBBBBBBBB3980BABBBBBBBBBB32
:100EFE00BBBBBBBBB3BFEFBFFFFFFF87FFBFFFBFD8
:100F0E00FFBF0FC0EFFFEFFFEFFFEFFF00FFEFF8A8
:100F1E00EFE7EFDFEFBFFF7FFFFF7FFF7FFF7DFF7D
:100F2E0079FF75FF6DFF5DFF1D807D7F7DBF7DFFAE
:100F3E007DFF7DFF7DFF7FFFFFFFFFFEFBBE77BFC7
:100F4E00ADB0DBA6A796B8B6BFB6B9B6A596DDA668
:100F5E00ADB075BFFFBEFFFEFFFFFFFDFFFDFFFD46
:100F6E000000FFFBFFFB33FBDDFBFFFBDDFE5CFF49
:100F7E0001005BFEDBF9DBF7FFFFBFFFBFFFBFFF2B
:100F8E00BFFFBFFFBFFFBFFF0000BFFFBFFFBFFF21
:100F9E00BFFFBFFFBFFFBFFFFFFF7FFF7FBFBFBF13
:100FAE00DFBBAFBBB7BBBBBB3C80BBBBB7BBAFBB39
:100FBE00DFBBBFBF7FBF7FFFFFFFBFFFBFFFBFFF17
:100FCE00BFFFBFFFBFFFBFFF0000BFFFBFFFBFFFE1
:100FDE00BFFFBFFFBFFFBFFFFFFFFF7EFB76DB76CE
:100FEE00DBB6DAB6D9D6DBE603F0DBE6D9D6DAB66F
:100FFE00DBB6DB76FB76FF7EFFFFFDFFFDFF1D0000
:10100E00DDBDDDBDDDBDDDBDD9BDD5BDCDBDDDBD1E
:10101E00DDBD1D00FDFFFDFFFFFFFBFBFBFB8BE0BE
:10102E00ABEAABEAABEAABEA0080AB6AABAAABEADF
:10103E00ABEA8BEAFBFBFBFBFFFFFBFFFBFFFBFFC0
:10104E000BFD6BF96BF96BF569856A7D6BBD6BFDFD
:10105E000BFDFBFDFBFFFBFFFFFFFF7F1F40DD36A0
:10106E00D956D5760D40D576D576DD761D00FF7F27
:10107E00FFBF33C0BDBFBF7FFFFFFBFFFBFFFBFF0B
:10108E003BC0BBBFBB7FBBBFBBFFBBFF03FEFBF9C0
:10109E00FBE7FBDFFBBFFB7FFFFFFBFBFBFB8BE0FD
:1010AE00ABEAABEAABEAABEA0080AB6AABAAABEA5F
:1010BE00ABEA8BEAFBFBFBFBFFFFFFFF0780F7DFD3
:1010CE00F7DFF7DF0780FFFFFFFF0F9EEFE9EFF778
:1010DE00E0EB0FDDEFBEEF7FFFFFEF9FEFEFEDFFDA
:1010EE002D18A97AA57AAD7AAC4AAD72A57AA97AED
:0810FE002D88EDFFEFCFEFBFDD
:101F7900022C0000022E0000013000013200C107CE
:031F89000131081B
:101FE200EF139291EFA2E19290A2E292EBA2E3921E
:101FF200C2A2E492C3A2E592C4A2E692A03392A145
:0120020022BB
:10200300EF1392CCEFA2E19297A2E29296A2E3920F
:1020130095A2E49294A2E59293A2E692923392C798
:01202300229A
:10202400EF1392B6EFA2E192C8A2E292B4A2E392B5
:10203400EFA2E492EEA2E592EDA2E692C03392CD35
:012044002279
:10204500EF1392B5EFA2E192C9A2E292B7A2E39291
:10205500F8A2E492F9A2E592FAA2E692FB3392C1C4
:012065002258
:101EB400EF139284EFA2E19283A2E29282A2E392D0
:101EC40081A2E49280A2E592C6A2E692C53392FF73
:101ED400ED1392FEEDA2E192FDA2E292FCA2E39246
:101EE400A7A2E492A6A2E592A5A2E692A43392A3A5
:011EF40022CB
:101D0700EF1392A1EFA2E192A0A2E292C4A2E39202
:101D1700C3A2E492C2A2E592EBA2E692903392911B
:101D2700ED1392C7EDA2E19292A2E29293A2E392FF
:101D370094A2E49295A2E59296A2E692973392CC6A
:101D4700EB1392CDEBA2E192C0A2E292EDA2E39255
:101D5700EEA2E492EFA2E592B4A2E692C83392B65D
:101D6700E53E1392B5E53EA2E192C9A2E292B7A27F
:101D7700E392F8A2E492F9A2E592FAA2E692FB3383
:031D870092C122E4
:1020A5007580FF7590FF75A0FF75B0FF75C0FF7552
:0920B500C8FF75E8FF75F8FF2271
:101E6D00C4540FFE75F010A4241EF582E5F0340065
:101E7D00F583E5822DF582E5833CF583E493FF75CB
:101E8D00F010EEA4241FF582E5F03400F583E58211
:0E1E9D002DF582E5833CF583E493FD121EB41F
:081EAB007F997E03DEFEDFFAE1
:011EB300220C
:10110600E52B6003021227052FE52F7002052ED36B
:101116009400E52E94034005E4F52EF52F852E2C3C
:10112600852F2DE52F24BEFFE4352EFEC3E52D9F2A
:10113600E52C9E400302121AE532C3941050427405
:10114600222532F582E43400F583E0FE75F010A422
:10115600241EF582E5F03400F58375F002E53012C1
:101166001F20E493FF75F010EEA4241FF582E5F02E
:101176003400F58375F002E530121F20E493FD80FC
:10118600047DFF7FFF121EB4E52D25E0FDE52C331F
:10119600FC746E2DF58274013CF583E493FF746F45
:1011A6002DF58274013CF583E493FD753EFF7BFFCC
:1011B600121D07121EAB3006030216120530E5306B
:1011C600D394074041E4F530E532940850052007F2
:1011D600020532E532D394074018200715753214FC
:1011E600E531D3940040021531E5317005753207BB
:1011F600D207E532C3941050053007020532E532B6
:10120600B410037532141220A5052DE52D700205C4
:101216002C021129C207753106E4F530F5320216A3
:101226000F1220A5E52B640160030212F2F52CF5DE
:101236002DE52D25E0FDE52C33FCE539121E6E0566
:101246002DE52D7002052CC39408E52C940040E191
:101256001220A5E4F52CF52DE52D25E0FDE52C3332
:10126600FCE539121E6D052DE52D7002052CC39483
:1012760008E52C940040E11220A5E4F52CF52DE5B7
:101286002D25E0FDE52C33FC740E2DF58274013C12
:10129600F583E493FF740F2DF5827401121EA205E7
:1012A6002DE52D7002052CC39408E52C940040CF43
:1012B6001220A5E4F52CF52DE52D25E0FDE52C33D2
:1012C600FC741E2DF58274013CF583E493FF741FB4
:1012D6002DF5827401121EA2052DE52D7002052C36
:1012E600C39408E52C940040CF1220A5E52B640298
:1012F60060030213BAF52CF52DE52D25E0FDE52C4E
:1013060033FCE534121E6E052DE52D7002052CC347
:101316009408E52C940040E11220A5E4F52CF52D67
:10132600E52D25E0FDE52C33FCE534121E6D052D7B
:10133600E52D7002052CC39408E52C940040E112BB
:1013460020A5E4F52CF52DE52D25E0FDE52C33FC57
:10135600742E2DF58274013CF583E493FF742F2DD2
:10136600F5827401121EA2052DE52D7002052CC30F
:101376009408E52C940040CF1220A5E4F52CF52D19
:10138600E52D25E0FDE52C33FC743E2DF582740138
:101396003CF583E493FF743F2DF5827401121EA27F
:1013A600052DE52D7002052CC39408E52C9400400C
:1013B600CF1220A5E52B64036003021482F52CF5F9
:1013C6002DE52D25E0FDE52C33FCE537121E6E05D7
:1013D6002DE52D7002052CC39408E52C940040E100
:1013E6001220A5E4F52CF52DE52D25E0FDE52C33A1
:1013F600FCE537121E6D052DE52D7002052CC394F4
:1014060008E52C940040E11220A5E4F52CF52DE525
:101416002D25E0FDE52C33FC744E2DF58274013C40
:10142600F583E493FF744F2DF5827401121EA20515
:101436002DE52D7002052CC39408E52C940040CFB1
:101446001220A5E4F52CF52DE52D25E0FDE52C3340
:10145600FC745E2DF58274013CF583E493FF745FA2
:101466002DF5827401121EA2052DE52D7002052CA4
:10147600C39408E52C940040CF1220A5E52B640404
:10148600600302154AF52CF52DE52D25E0FDE52C2A
:1014960033FCE533121E6E052DE52D7002052CC3B7
:1014A6009408E52C940040E11220A5E4F52CF52DD6
:1014B600E52D25E0FDE52C33FCE533121E6D052DEB
:1014C600E52D7002052CC39408E52C940040E1122A
:1014D60020A5E4F52CF52DE52D25E0FDE52C33FCC6
:1014E60074CE2DF58274003CF583E493FF74CF2D02
:1014F600F5827400121EA2052DE52D7002052CC37F
:101506009408E52C940040CF1220A5E4F52CF52D87
:10151600E52D25E0FDE52C33FC74DE2DF582740007
:101526003CF583E493FF74DF2DF5827400121EA24E
:10153600052DE52D7002052CC39408E52C9400407A
:10154600CF1220A5E52B64056003021612F52CF5D3
:101556002DE52D25E0FDE52C33FCE538121E6E0544
:101566002DE52D7002052CC39408E52C940040E16E
:101576001220A5E4F52CF52DE52D25E0FDE52C330F
:10158600FCE538121E6D052DE52D7002052CC39461
:1015960008E52C940040E11220A5E4F52CF52DE594
:1015A6002D25E0FDE52C33FC74EE2DF58274003C10
:1015B600F583E493FF74EF2DF5827400121EA205E5
:1015C6002DE52D7002052CC39408E52C940040CF20
:1015D6001220A5E4F52CF52DE52D25E0FDE52C33AF
:1015E600FC74FE2DF58274003CF583E493FF74FFD2
:1015F6002DF5827400121EA2052DE52D7002052C14
:0D160600C39408E52C940040CF1220A522CB
:031F8C000124002D
:03001B000220D4EC
:1020D400C0E0C0D00529E529D394FA4002D202D049
:0420E400D0D0E03246
:1019AC00E4F53AC2AAF521752200752325FFE4FE61
:1019BC007400253AF582E43400F583E0FDD39404F9
:1019CC0040047C0180027C00EDC3940950047D012D
:1019DC0080027D00ED5C601BAB21AA22A923121EA4
:1019EC00F5C313121F0EAB21AA22A923121EF55404
:1019FC007F80417400253AF582E43400F583E0FDE4
:101A0C00D3940B40047C0180027C00EDC3941050F5
:101A1C00047D0180027D00ED5C601CAB21AA22A933
:101A2C0023121EF5C313121F0EAB21AA22A92312D7
:101A3C001EF54480121F0E053A0EEE640860030278
:101A4C0019BC74012523F523E43522F5220FEF642C
:101A5C000460030219BAE5282527FFE433FEEFF4EE
:101A6C004E9000217007E527F0D201800374FFF03F
:021A7C00D2AAEC
:011A7E002245
:03001300021E02C8
:0B1E0200C0E0C083C082C0D075D008D3
:101E0D00D28E85292A75290030020EC20275240052
:101E1D00752900C203C200803EA20072035020AF9C
:101E2D0024052474002FF582E43400F583E52AF0AF
:101E3D00E524B4200A752400C203C28E1219ACE544
:101E4D002AD394354005D203752400E52AD3947224
:071E5D004005D200752400CE
:091E6400D0D0D082D083D0E0324E
:03000000021C7B64
:0C1C7B00787FE4F6D8FD75813F021CC2A2
:101EF500BB010689828A83E0225002E722BBFE02EB
:091F0500E32289828A83E493221D
:101F0E00BB010689828A83F0225002F722BBFE01B2
:021F1E00F322AC
:0C1F2000A42582F582E5F03583F58322CC
:101C8700021B31E493A3F8E493A34003F68001F227
:101C970008DFF48029E493A3F85407240CC8C3335E
:101CA700C4540F4420C8834004F456800146F6DF2D
:101CB700E4800B0102040810204080901F62E47E3C
:101CC700019360BCA3FF543F30E509541FFEE49322
:101CD700A360010ECF54C025E060A840B8E493A3E9
:101CE700FAE493A3F8E493A3C8C582C8CAC583CA14
:101CF700F0A3C8C582C8CAC583CADFE9DEE780BECC
:011F8F000051
:00000001FF
