:0300000002013FBB
:0C013F00787FE4F6D8FD7581420201864D
:08036700021003E8021200007D
:0803DA007F027E0FDEFEDFFC56
:0103E20022F8
:0C03C0007F2B7E067DCBDDFEDEFCDFFA2D
:0103CC00220E
:1000660075080075095512033B120390E4FFFE1252
:100076000324EF64016023E4FFFE12037C7D01E4A8
:10008600FFFE120351E510FD7F087E00120351ADFD
:10009600117F167E0012035180237F087E00120313
:1000A60024EF7F00FEC006C0077F167E00120324E1
:1000B600EFFDD0E02DF511D0E03400F5101202FA74
:1000C600E528B4FFF8E4F528E525FE7C00E42526BE
:1000D600F511EC3EF5107DFF7F087E0012035112EC
:1000E60003DA7DFF7F167E001203511203DAAD2577
:1000F6007F087E001203511203DAAD267F167E00BA
:100106001203511203DAE4FFFE1203241203A812AB
:1001160003DA7F087E001203241203A81203DA7F93
:10012600167E001203241203A81203DA7B007A005B
:0901360079237D0512000E80847E
:08036F00021400000216000058
:10039000438E0475D7D775D6FD438E1043AF04D274
:0203A000AF228A
:030063000202A0F6
:1002A000C0E0C0F0C0D075D000C000C004C005C020
:0302B00006C0077E
:1002B30075D7D775D6FDAC10AD117E4E7F201201D8
:1002C300E48E168F170515E51570020514C39517EF
:1002D300E5166480F8E514648098400A7514007587
:0602E3001500B2B2B2B436
:1002E900D007D006D005D004D000D0D0D0F0D0E0CF
:0102F90032D2
:04037700022100005F
:10033B00E4F589758E80F58A758CFDD28CD2A9D2A5
:06034B00B9D2AF0203B2BB
:08000E008B0A8A0B890C8D0D91
:10001600E4F50EF50FE50D650F7002E50E6019AB00
:100026000A050CE50CAA0B7002050B1203A2050FBC
:08003600E50F70E1050E80DD0D
:01003E00229F
:0603A20014F91201CBFF6B
:0A03A8003001FDC2018F2DD20322A7
:10003F008B188A19891AAB18AA19A91A1201CB6041
:0F004F000D051AE51A700205191203A280E822A6
:03000B00020239B5
:10023900C0E0C0D0300223152FE52F7028752F0399
:10024900D52C0985292BC202D2008019E529C313AF
:10025900F52930B010432980800B20B008D20275EF
:100269002F04752C091530E53070277530033003DC
:1002790021E52E700AC2B1852D2A752E098013E554
:100289002AC313F52AD52E08D2B1C203D20180029E
:0702990092B1D0D0D0E03299
:0E03B200C203C202D201C200E4F530F52F22D0
:1002FA00300022C20074232522F8A62B0522E5220B
:10030A007002052164054521700B7528FFF521F55A
:09031A0022FE7F01227EFF7FFF1D
:0103230022B7
:0D03CD00E4F5C7F5C5F5C675C380F5C4227B
:1003240075C78175C5018FC48EC375C65A75C6A5B8
:0603340000AFC21203CD70
:01033A0022A0
:1003510075C78175C5028FC48EC38DC275C65A75A6
:06036100C6A5000203CD59
:10037C0075C78175C5038FC48EC375C65A75C6A55E
:04038C00000203CD9B
:10014B00020066E493A3F8E493A34003F68001F264
:10015B0008DFF48029E493A3F85407240CC8C333B5
:10016B00C4540F4420C8834004F456800146F6DF84
:10017B00E4800B0102040810204080900367E47EAA
:10018B00019360BCA3FF543F30E509541FFEE49379
:10019B00A360010ECF54C025E060A840B8E493A340
:1001AB00FAE493A3F8E493A3C8C582C8CAC583CA6B
:1001BB00F0A3C8C582C8CAC583CADFE9DEE780BE23
:01037B000081
:1001CB00BB010689828A83E0225002E722BBFE0232
:0901DB00E32289828A83E4932265
:1001E400BC000BBE0029EF8DF084FFADF022E4CCFF
:1001F400F875F008EF2FFFEE33FEEC33FCEE9DECC8
:10020400984005FCEE9DFE0FD5F0E9E4CEFD22ED0D
:10021400F8F5F0EE8420D21CFEADF075F008EF2F57
:10022400FFED33FD4007985006D5F0F222C398FD48
:050234000FD5F0EA22E5
:00000001FF
