:1032BE00FF03FFB36B6B9BFF8F777F8F7F778FFF44
:1032CE00FFFF9F6D6D6B87FF9FEFF78777778FFF00
:1031B300C104021E0000C106021900000112000131
:0E31C3001D01C10501130002170032011400A6
:03000300022A418D
:102A4100C0E0C0F0C083C082C0D075D000C000C05B
:102A510001C002C003C004C005C006C007D206E51C
:102A610013244CFFE434FFFEEF25E0FFEE33FEEFCD
:102A71002516F516EE3515F515E51624CDF518E4F0
:102A81003515F517C3E49518FDE49517F58CAF05D9
:102A91008F8A751300E51D64027074122DAEE5373F
:102AA100C4540F75F00AA4FFE537540F2FF537E52D
:102AB10034C4540F75F00AA4FFE534540F2FF534D4
:102AC100E539C4540F75F00AA4FFE539540F2FF509
:102AD10039D3940B400674F42539F539E53775F08F
:102AE10003A4F537E5341313543FFFE53975F00FAF
:102AF100A42FF539E53475F003A4F534051FE51F5E
:102B01007002051ED394E0E51E94014047803FE525
:102B11001DB404400512E512C3942840207512002B
:102B210074D0251AF51A74023519F519D3E51A94DA
:102B310040E519940B4006751900751A00051FE54B
:102B41001F7002051ED394E0E51E94014006751E18
:102B510000751F00D007D006D005D004D003D002E5
:0F2B6100D001D000D0D0D082D083D0F0D0E032DD
:0C336A00C2AC8F993099FDC299D2AC2200
:10260300E513C394B440030228E92005030228E933
:10261300C205E51D6402600302282C123317E5137B
:10262300C394AF5006E51394035013E5132404F544
:1026330014C394B44074744C2514F514806CE513DE
:10264300C39429400FE513D394305008E51324DFD6
:10265300F5148056E513C39456400FE513D3945DE8
:102663005008E51324BAF5148040E513C39483405E
:102673000FE513D3948A5008E5132495F514802AA3
:102683007514FAE51324E2601C24E2601824F16057
:102693001424E2601024F1600C24E2600824F16049
:1026A30004249670057F0F12323AE514C394205028
:1026B3000AE5149032BE93FF12323AE53924FED371
:1026C3009513505CAF397E00EF2402FDEE33FCAB73
:1026D300137A00C3ED9B7480F86C984043E539147A
:1026E3006513600FEF2401FFEE33FEEFB5030DEA30
:1026F300B506097FFF12329D7FBF8021E53924FE95
:1027030065136012E5392402FFE433FE7C00EFB564
:10271300130EECB5060A7FFF12329D7FDF12327C67
:10272300E539B5130A7F8012329DE4FF12327CE54E
:102733003424FED395135061AF347E00EF2402FDA1
:10274300EE33FCAB137A00C3ED9B7480F86C9840B6
:1027530048E534146513600FEF2401FFEE33FEEFF9
:10276300B5030DEAB506097FFF12327C7FFB80219A
:10277300E53424FE65136012E5342402FFE433FEDE
:102783007C00EFB51313ECB5060F7FFF12327C7F8D
:10279300FD12325B7FFF12329DE534B5130FE4FF68
:1027A30012327C7FF012325B7F8012329DE5372438
:1027B300FED39513505CAF377E00EF2402FDEE335A
:1027C300FCAB137A00C3ED9B7480F86C984043E52F
:1027D30037146513600FEF2401FFEE33FEEFB503EB
:1027E30008EAB506047FBF801CE53724FE65136045
:1027F30012E5372402FFE433FE7C00EFB51313EC3C
:10280300B5060F7FDF12325B7FFF12327C7FFF1230
:10281300329DE537B5130FE4FF12325BE4FF12324A
:102823007C7F8012329D0228BAE51D640460030296
:1028330028E912331775F004E513A4251AF582E588
:10284300F03519F583E582241EF582E5833400F51E
:1028530083E493F975F004E513A4251AF582E5F0F2
:102863003519F583E582241FF582E5833400F5836A
:10287300E493FD75F004E513A4251AF582E5F0351C
:1028830019F583E5822420F582E5833400F583E49A
:1028930093FB75F004E513A4251AF582E5F03519C9
:1028A300F583E5822421F582E5833400F583E493FF
:1028B300AF01F53E122F587E00E51F2513FFEE35BD
:1028C3001EFEEF25E0FDEE33FC742E2DF582740E13
:1028D3003CF583E493FF742F2DF582740E3CF5834E
:0628E300E493FD12310533
:0128E90022CC
:102FDB00E4F594F593F592F591F596F595F5B2F533
:102FEB00B1F5B4F5B3F5CAF5C9F5CCF5CBF5E2F50A
:102FFB00E17D557F55123105753E557B557D557FCE
:10300B0055122F58538E7F5389F0438901758ACD02
:10301B00758CFEC28DD28CD2A9538EBF53890F43B0
:10302B008920758B12758D12C28FD2ABC28E75989B
:10303B005075D7D875D6FF758E14438E01D288D2B2
:08304B00A8D28AD2AAD2AF225A
:03000B00023214AA
:10321400C0E0C0D075D000C005C007D205C3E49596
:1032240018FDE49517F58CAF058F8A0513D007D0E8
:0632340005D0D0D0E0320D
:102C4300122FDB7BFF7A33797F12317D7F5512336D
:102C53006AE51D64026005E51DB404031226033012
:102C630006EFC206D204300170C201900021E024B5
:102C7300F8602A24F3603824FD601814602824D9EE
:102C8300602024F9603724E9600E24527046751DD4
:102C9300018041751D02803C751D038037751D043D
:102CA30080327D018002E4FDAF2B122CFC802505D0
:102CB3002BE52BD39405401CE4F52B80177BFF7A7F
:102CC30033797F1231E8E4FD7F8E1232EE7DA57FEA
:102CD300901232EEE4900021F0E51DB40109122DAB
:102CE300AE121D6E022C54E51D64036003022C54C6
:092CF300122ED01228EA022C5422
:07337F0000102220050415D7
:022CFC008D3B0E
:102CFE00BF0109753C84753E17E4F53FBF020975A7
:102D0E003C82753E3BE4F53FBF0309753C80753E42
:102D1E003BE4F53FBF0409753C88753E0C753F01D9
:102D2E00BF0509753C86753E1F753F01BF060975C7
:102D3E003C8A753E07753F01E53C04FF12330CEFEC
:102D4E00C4540F75F00AA4FFC007E53C04FF12330C
:102D5E000CEF540FFED0E02EF53DE53BB40104051B
:102D6E003D8002153DE53DD3953E4003853F3DE553
:102D7E003DC3953F5003853E3DE4FD7F8E1232EEFE
:102D8E00E53D75F00A84C454F0FFE53D75F00A8404
:102D9E00EF25F0FDAF3C1232EE7D807F8E0232EEDB
:06333000C286C2CBD2866A
:0F333600EF7F08A2E09285D2CBC2CBC313DFF4A6
:013345002265
:0F335A007F08C313A28592E7D2CBC2CBDFF4FF6B
:013369002241
:1032DE00E4FD7FC61232EE7FC81232EE7D9B7FC4B4
:0F32EE00AE05123330AF06123336D2CBC2862272
:0F32FD00740DF0A304F07F8B12330C8F357F8D8F
:0A330C0012333012335AD2CBC286BE
:013316002294
:1031E800753B80E4FD7F8E1232EE7C07123146FD7E
:1031F800AF3B1232EE740129F9E43AFA053B053B7C
:0C320800DCEA1232DE7D807F8E0232EEA6
:10317D00753B807F8112330CEF30E729E4FD7F8EA4
:10318D001232EE7C07123146FDAF3B1232EE740166
:10319D0029F9E43AFA053B053BDCEA1232DE7D8083
:0531AD007F8E1232EEDE
:0131B20022FA
:102DAE007F8512330C8F39E539C4540F900031F002
:102DBE00E539540F900030F090002F740AF07F83A5
:102DCE0012330C8F34E534C4540F90002EF0E534DA
:102DDE00540F90002DF090002C740AF07F81123366
:102DEE000C8F37E537C4540F90002BF0E537540F96
:102DFE0090002AF07F8912330C8F33E533C4540FC1
:102E0E00900029F0E533540F900028F090002674BE
:102E1E000BF0A304F07F8712330C8F38E538C454BF
:102E2E000F900025F0E538540F900024F09000220A
:062E3E001232FD8F362266
:102ED0007F8512330C8F39E539C4540F900022F0EE
:102EE000E539540FA3F0A3740AF07F8312330C8FDB
:102EF00034E534C4540FA3F0E534540FA3F0A374A5
:102F00000AF07F8112330C8F37E537C4540FA3F0DA
:102F1000E537540FA3F07F8912330C8F33E533C4A8
:102F2000540F900031F0E533540F900030F09000D2
:102F30002E740BF0A304F07F8712330C8F38E53822
:102F4000C4540F90002DF0E538540F90002CF090F1
:082F5000002A1232FD8F362227
:10227B00FFFF0FF8F7F7FBEFFBEFF7F70FF8FFFF99
:10228B00FFFFFFFFFBFFFBFF03E0FBF7FBF7FFFF8E
:10229B00FFFFF3F17BEEBBEFDBEFEBEFF3F1FFFFB8
:1022AB00FFFF8FF377EDFBEEFBEEFBEFE7F3FFFFAB
:1022BB00FFFFDBFF03E0DBF7DBFBDFFC1FFFFFFFB9
:1022CB00FFFF8FEF77EFFBEEFBEE7BEF67E0FFFFA0
:1022DB00FFFF8FFF77E7FBEEFBEE77F70FF8FFFFC4
:1022EB00FFFFFFEFFFE3FFEC03EFFFEFFFE3FFFF6A
:1022FB00FFFFC7F1BBEE7BEF7BEFBBEEC7F1FFFF41
:10230B00FFFF0FF877F7BBEFBBEF73F7FFF8FFFF9C
:10231B00FFFFFFFFFFFFF3FCF3FCFFFFFFFFFFFFE0
:10232B00FFFFFFFFFFFF0180BEBBBDBBBFBBBFBB42
:10233B00BFBBBFBBBFBBBFBB0F80F3FFFDFFFEFF30
:10234B00FFFFFFFFFFFFFFFF0080FDBEFDBEFDBED9
:10235B00FDBEFDBEFDBEFDBE0080FFFFFFFFFFFF0C
:10236B00FFFF1FF0EFEFF7DFF7DFEFEF1FF0FFFFE0
:10237B00FFFFEFDFEFDF07C0FFDFFFDFFFFFFFFF39
:10238B00FFFF8FCFF7D7F7DBF7DD77DE8FCFFFFFC1
:10239B00FFFFCFE7F7DF77DF77DFB7EECFF1FFFF99
:1023AB00FFFFFFF83FFBDFDBEFDB07C0FFDBFFFFD0
:1023BB00FFFF07E6F7DE77DF77DFF7EEF7F1FFFFDB
:1023CB00FFFF1FF0EFEE77DF77DFE7EEFFF1FFFFA9
:1023DB00FFFFC7FFF7FFF7C037FFC7FFF7FFFFFF91
:1023EB00FFFF8FE377DDF7DEF7DE77DD8FE3FFFFB0
:1023FB00FFFF1FFFEFCEF7DDF7DDEFEE1FF0FFFF67
:10240B00FFFFFFFFFFFF3FCF3FCFFFFFFFFFFFFFB1
:10241B00FF7FFFBFFFCF01F0DDFDDDFDDDFDDDFD4E
:10242B00DDFDDDFDDDBDDD7D0180FFFFFFFFFFFF7E
:10243B00FFFFFFFFFFFF01007DBF7DBF7DBF7DBFA6
:10244B007DBF7DBF7DBF0100FFFFFFFFFFFFFFFFD4
:10245B00FFFF1FF0EFEFF7DFF7DFEFEF1FF0FFFFEF
:10246B00FFFFFFFFFFDFFFDF07C0EFDFEFDFFFFF48
:10247B00FFFF8FCF77DEF7DDF7DBF7D78FCFFFFFD0
:10248B00FFFFCFF1B7EE77DF77DFF7DFCFE7FFFFA8
:10249B00FFFFFFDB07C0EFDBDFDB3FFBFFF8FFFFDF
:1024AB00FFFFF7F1F7EE77DF77DFF7DE07E6FFFFEA
:1024BB00FFFFFFF1E7EE77DF77DFEFEE1FF0FFFFB8
:1024CB00FFFFF7FFC7FF37FFF7C0F7FFC7FFFFFFA0
:1024DB00FFFF8FE377DDF7DEF7DE77DD8FE3FFFFBF
:1024EB00FFFF1FF0EFEEF7DDF7DDEFCE1FFFFFFF76
:1024FB00FFFFFFFFFFFF3FCF3FCFFFFFFFFFFFFFC1
:10250B00FFFFFFFFFFFF0180DD7DDDBDDDFDDDFD9D
:10251B00DDFDDDFDDDFDDDFD01F0FFCFFFBFFF7F4D
:10252B00FFFFFFFFFFFFFFFF01007DBF7DBF7DBFF3
:10253B007DBF7DBF7DBF7DBF0100FFFFFFFFFFFFA5
:10254B00FFFFEFFFEFFF0080EF7FEFBFEFF9EFFE35
:10255B00EFFFFFFF03C07BEF7BEF7BEF03C0FFFFC2
:10256B00FFFF7FFFBFFFDFFFEFFF73C07CBF7F7FEE
:10257B007FBF7FFF79F877E76FDFDFBFBF7F7FFF1D
:10258B00FFFF9FFFEFFCF7F3FFEF00D8FFBFC7BFC5
:10259B003F7FFF7EDDF9DCFE01005BFEDBF9DBF745
:1025AB00FF837D7D83FFFFFFFFBD01FDFFFFFFFF6E
:1025BB00FFB9756D9DFFFFFFFFBB6D6D93FFFFFFB8
:1025CB00FFE39B01FBFFFFFFFF0D6D6D73FFFFFF34
:1025DB00FF836D6DB3FFFFFFFF3F716F1FFFFFFFAA
:1025EB00FF936D6D93FFFFFFFF9B6D6D83FFFFFFF0
:0825FB00FFFFBBBBFFFFFFFF68
:1031D100022C0000022E0000013000013200C10764
:0331E100013108B1
:10323A00EF139291EFA2E19290A2E292EBA2E392B3
:10324A00C2A2E492C3A2E592C4A2E692A03392A1DA
:01325A002251
:10325B00EF1392CCEFA2E19297A2E29296A2E392A5
:10326B0095A2E49294A2E59293A2E692923392C72E
:01327B002230
:10327C00EF1392B6EFA2E192C8A2E292B4A2E3924B
:10328C00EFA2E492EEA2E592EDA2E692C03392CDCB
:01329C00220F
:10329D00EF1392B5EFA2E192C9A2E292B7A2E39227
:1032AD00F8A2E492F9A2E592FAA2E692FB3392C15A
:0132BD0022EE
:10310500EF139284EFA2E19283A2E29282A2E3926C
:1031150081A2E49280A2E592C6A2E692C53392FF0F
:10312500ED1392FEEDA2E192FDA2E292FCA2E392E2
:10313500A7A2E492A6A2E592A5A2E692A43392A341
:013145002267
:102F5800EF1392A1EFA2E192A0A2E292C4A2E3929F
:102F6800C3A2E492C2A2E592EBA2E69290339291B8
:102F7800ED1392C7EDA2E19292A2E29293A2E3929C
:102F880094A2E49295A2E59296A2E692973392CC07
:102F9800EB1392CDEBA2E192C0A2E292EDA2E392F2
:102FA800EEA2E492EFA2E592B4A2E692C83392B6FA
:102FB800E53E1392B5E53EA2E192C9A2E292B7A21C
:102FC800E392F8A2E492F9A2E592FAA2E692FB3320
:032FD80092C12281
:103317007580FF7590FF75A0FF75B0FF75C0FF75CD
:09332700C8FF75E8FF75F8FF22EC
:1030BE00C4540FFE75F010A4245BF582E5F03424A1
:1030CE00F583E5822DF582E5833CF583E493FF7568
:1030DE00F010EEA4245CF582E5F03424F583E5824D
:0E30EE002DF582E5833CF583E493FD12310558
:0830FC007F997E03DEFEDFFA7E
:0131040022A8
:083376007FAA7E03DEFEDFFAF0
:01337E00222C
:1028EA00052FE52F7002052ED39400E52E940340A0
:1028FA0005E4F52EF52F852E2C852F2DE52F24BEE8
:10290A00FFE4352EFEC3E52D9FE52C9E4003022AE7
:10291A0033E532C39408503174222532F582E43407
:10292A0000F583E0FEC454F0246BF582E43423F509
:10293A008375F002E530123171E493FFEEC454F06E
:10294A00246CF582E43423803CE532D39407404971
:10295A00E5329410504374222532F582E43400F5AE
:10296A0083E0FEC454F0247BF582E43422F58375B7
:10297A00F002E530123171E493FFEEC454F0247C86
:10298A00F582E43422F58375F002E530123171E400
:10299A0093FD753EFF7BFF8009753EFF7BFF7DFF40
:1029AA007FFF122F58E52D25E0FDE52C33FC742E10
:1029BA002DF582740E3CF583E493FF742F2DF58276
:1029CA00740E3CF583E493FD12310512337620062A
:1029DA00650530E530D394074041E4F530E532949B
:1029EA000850052007020532E532D3940740182023
:1029FA000715753214E531D3940040021531E531DB
:102A0A007005753207D207E532C3941050053007B6
:102A1A00020532E532B41003753214123317052D4C
:102A2A00E52D7002052C022906C207753106E4F568
:072A3A0030F53212331722C0
:101D6E00E52B6003021E8F052FE52F7002052ED383
:101D7E009400E52E94034005E4F52EF52F852E2CC8
:101D8E00852F2DE52F24BEFFE4352EFEC3E52D9FB6
:101D9E00E52C9E4003021E82E532C394105042741D
:101DAE00222532F582E43400F583E0FE75F010A4AE
:101DBE00245BF582E5F03424F58375F002E53012EC
:101DCE003171E493FF75F010EEA4245CF582E5F01A
:101DDE003424F58375F002E530123171E493FD8001
:101DEE00047DFF7FFF123105E52D25E0FDE52C3347
:101DFE00FC74EE2DF58274153CF583E493FF74EFBD
:101E0E002DF58274153CF583E493FD753EFF7BFF43
:101E1E00122F581230FC30060302227A0530E530BC
:101E2E00D394074041E4F530E5329408500520077D
:101E3E00020532E532D39407401820071575321487
:101E4E00E531D3940040021531E531700575320746
:101E5E00D207E532C3941050053007020532E53241
:101E6E00B41003753214123317052DE52D700205CB
:101E7E002C021D91C207753106E4F530F5320222AF
:101E8E0077123317E52B64016003021F5AF52CF508
:101E9E002DE52D25E0FDE52C33FCE5391230BF058F
:101EAE002DE52D7002052CC39408E52C940040E11D
:101EBE00123317E4F52CF52DE52D25E0FDE52C3339
:101ECE00FCE5391230BE052DE52D7002052CC394AC
:101EDE0008E52C940040E1123317E4F52CF52DE5BE
:101EEE002D25E0FDE52C33FC744B2DF58274253C3D
:101EFE00F583E493FF744C2DF58274251230F305AF
:101F0E002DE52D7002052CC39408E52C940040CFCE
:101F1E00123317E4F52CF52DE52D25E0FDE52C33D8
:101F2E00FC745B2DF58274253CF583E493FF745CA1
:101F3E002DF58274251230F3052DE52D7002052C3A
:101F4E00C39408E52C940040CF123317E52B64029E
:101F5E006003022022F52CF52DE52D25E0FDE52C64
:101F6E0033FCE5341230BF052DE52D7002052CC370
:101F7E009408E52C940040E1123317E4F52CF52D6E
:101F8E00E52D25E0FDE52C33FCE5341230BE052DA4
:101F9E00E52D7002052CC39408E52C940040E11247
:101FAE003317E4F52CF52DE52D25E0FDE52C33FC5E
:101FBE00746B2DF58274253CF583E493FF746C2DC0
:101FCE00F58274251230F3052DE52D7002052CC314
:101FDE009408E52C940040CF123317E4F52CF52D20
:101FEE00E52D25E0FDE52C33FC747B2DF582742563
:101FFE003CF583E493FF747C2DF58274251230F347
:10200E00052DE52D7002052CC39408E52C94004097
:10201E00CF123317E52B640360030220EAF52CF58B
:10202E002DE52D25E0FDE52C33FCE5371230BF05FF
:10203E002DE52D7002052CC39408E52C940040E18B
:10204E00123317E4F52CF52DE52D25E0FDE52C33A7
:10205E00FCE5371230BE052DE52D7002052CC3941C
:10206E0008E52C940040E1123317E4F52CF52DE52C
:10207E002D25E0FDE52C33FC748B2DF58274253C6B
:10208E00F583E493FF748C2DF58274251230F305DD
:10209E002DE52D7002052CC39408E52C940040CF3D
:1020AE00123317E4F52CF52DE52D25E0FDE52C3347
:1020BE00FC749B2DF58274253CF583E493FF749C90
:1020CE002DF58274251230F3052DE52D7002052CA9
:1020DE00C39408E52C940040CF123317E52B64040B
:1020EE0060030221B2F52CF52DE52D25E0FDE52C42
:1020FE0033FCE5331230BF052DE52D7002052CC3E0
:10210E009408E52C940040E1123317E4F52CF52DDC
:10211E00E52D25E0FDE52C33FCE5331230BE052D13
:10212E00E52D7002052CC39408E52C940040E112B5
:10213E003317E4F52CF52DE52D25E0FDE52C33FCCC
:10214E00740B2DF58274253CF583E493FF740C2DEE
:10215E00F58274251230F3052DE52D7002052CC382
:10216E009408E52C940040CF123317E4F52CF52D8E
:10217E00E52D25E0FDE52C33FC741B2DF582742531
:10218E003CF583E493FF741C2DF58274251230F315
:10219E00052DE52D7002052CC39408E52C94004006
:1021AE00CF123317E52B6405600302227AF52CF566
:1021BE002DE52D25E0FDE52C33FCE5381230BF056D
:1021CE002DE52D7002052CC39408E52C940040E1FA
:1021DE00123317E4F52CF52DE52D25E0FDE52C3316
:1021EE00FCE5381230BE052DE52D7002052CC3948A
:1021FE0008E52C940040E1123317E4F52CF52DE59B
:10220E002D25E0FDE52C33FC742B2DF58274253C39
:10221E00F583E493FF742C2DF58274251230F305AB
:10222E002DE52D7002052CC39408E52C940040CFAB
:10223E00123317E4F52CF52DE52D25E0FDE52C33B5
:10224E00FC743B2DF58274253CF583E493FF743CBE
:10225E002DF58274251230F3052DE52D7002052C17
:0D226E00C39408E52C940040CF12331722D2
:0331E400012400C3
:03001B0002334667
:10334600C0E0C0D00529E529D394FA4002D202D0C4
:04335600D0D0E032C1
:102B7000E4F53AC2AAF521752200752325FFE4FE8B
:102B80007400253AF582E43400F583E0FDD3940423
:102B900040047C0180027C00EDC3940950047D0157
:102BA00080027D00ED5C601BAB21AA22A9231231BB
:102BB00046C31312315FAB21AA22A9231231465416
:102BC0007F80417400253AF582E43400F583E0FD0E
:102BD000D3940B40047C0180027C00EDC394105020
:102BE000047D0180027D00ED5C601CAB21AA22A95E
:102BF00023123146C31312315FAB21AA22A923123B
:102C00003146448012315F053A0EEE6408600302DB
:102C10002B8074012523F523E43522F5220FEF6480
:102C2000046003022B7EE5282527FFE433FEEFF442
:102C30004E9000217007E527F0D201800374FFF069
:022C4000D2AA16
:012C4200226F
:0300130002305365
:0B305300C0E0C083C082C0D075D00870
:10305E00D28E85292A75290030020EC202752400EF
:10306E00752900C203C200803EA20072035020AF39
:10307E0024052474002FF582E43400F583E52AF04C
:10308E00E524B4200A752400C203C28E122B70E50B
:10309E002AD394354005D203752400E52AD39472C1
:0730AE004005D2007524006B
:0930B500D0D0D082D083D0E032EB
:10001E00FFFF1B00FFFF1B00FFFF1F00FFFF1F0066
:10002E00FFFF1F00FFFF3F00FFFF3F00FFFF3F00EE
:10003E00FFFF3F00FFFF3F00FFFF1F00FFFF1F00FE
:10004E00FFFF1F00FFFF1F00FFFF3D00FFFF3C00F3
:10005E00FFFF1800FF7F1800FF7F1800FFFF18003A
:10006E00FF7F0000FFFF0000FFFF0000FF7F00008A
:10007E00FF7F0000FF7F0000FF3F0000FF7F0000BA
:10008E00FF7F0000FF7F0000FF7F0000FF7F00006A
:10009E00FFFF0000FFFF0100FFFF0100FFFF010057
:1000AE00FFFF0300FFFF1300FFFF1700FFFF1F00FE
:1000BE00FFFF1F00FFFF7F00FFFF7F00FFFF7F0599
:1000CE00FFFFFF05FFFFFF05FFFFFF05FFFFFF051A
:1000DE00FFFFFF07FFFFFF0FFFFFFF0FFFFFFF0FEA
:1000EE00FFFFFF0FFFFFFF0FFFFFFF0FFFFFFF0FD2
:1000FE00FFFFFF0FFFFFFF0FFFFFFF0FFFFFFF0FC2
:10010E00FFFFFF07FFFFFF03FFFFFF03FFFFFF03DD
:10011E00FFFFFF03FFFFFF03FFFFFF01FFFFFF01D5
:10012E00FFFFFF01FFFFFF01FFFFFF00FFFFFF00CB
:10013E00FFFFEF00FFFF6F00FFFF6700FFFF4700AD
:10014E00FFFF0300FFFF0100FFFF0100FFFF0100A3
:10015E00FFFF0000FFFF0000FFFF0000FFFF010098
:10016E00FFFF0000FFFF0000FFFF0000FFFF000089
:10017E00FFFF0000FFFF0000FFFF0000FF7F0000F9
:10018E00FF7F1000FF3F1000FF3F1C00FF3F1C00D1
:10019E00FF1F1E00FF0F0700FFCF0300FFCF03005E
:1001AE00FFCF0300FFFF0300FFFF0300FFFF12005E
:1001BE00FFFF3C00FFFF3C00FFFF7C00FF7F3C0089
:1001CE00FF7F3E00FF3F3E00FF3F3F00FF3F3F00EF
:1001DE00FF3F3F00FF3F3F00FF7F7F00FF7F7F001D
:1001EE00FFFF7F00FFFF7F00FFFF7F00FFFF7F000D
:1001FE00FFFF7F04FFFF7F0DFFFF7F0DFFFF7F0FD0
:10020E00FFFF3F0FFFFF3F0EFFFF7F0EFFFF7F0E33
:10021E00FFFF7F0EFFFF7F0FFFFF7F0FFFFF1F0F01
:10022E00FFFF1F0FFFFF1F0FFFFF1F0FFFFF1F0F10
:10023E00FFFF1F0FFFFFFF0FFFFFFF0FFFFFFF0F60
:10024E00FFFFFF0FFFFFFF0FFFFFFF0FFFFFFF0F70
:10025E00FFFFFF0FFFFFFF0FFFFFFF0FFFFFFF0F60
:10026E00FFFFFF0FFFFFFF0FFFFFFF07FFFFFF0760
:10027E00FFFFFF07FFFFFF07FFFFFF07FFFFFF0760
:10028E00FFFFFF07FFFFFF07FFFFFF03FFFFFF0358
:10029E00FFFFFF03FFFFE702FFFBEF02FFC16B0053
:1002AE00FF030000FF670000FF7F0000FFFF00005C
:1002BE00FFFF0100FFFF0300FFFF0300FFFF03002E
:1002CE00FFFF1300FFFF1300FFFF0300FFFF0100FE
:1002DE00FFFF0100FFFF0100FFFF0100FFFF1B00FA
:1002EE00FFFFF58FFFFFF58FFFFFF38FFF7FF28F7D
:1002FE00FF7FF08FFFFFF19FFFFF759FFFFF7C9F3A
:10030E00FF3F7CBFFF3F3CBFFF7F1EBFFF7F3EBF57
:10031E00FFFF3EBFFFFF3EBFFFFF3EBFFFFF3EBFE3
:10032E00FFFF7EFFFFFF7FFFFFFFFEFFFFFFFEFFD2
:10033E00FFFFFEFFFFFFFEFFFFFFFEFFFFFFFFFFC2
:10034E00FFFFFFFFFF7FFFFFFFFFFFFFFFFFFFFF2F
:10035E00FFE7FFFFFFF3FFFFFFF9FFFFFFF9FFFFCF
:10036E00FFFBFFFFFFF3FFFFFFEBFFFFFFDFFFFFD3
:10037E00FFDFFFFFFFDFFFFFFF3FFFFFFF7FFFFFFF
:10038E00FF7FFFFFFF7FFFFFFF7FFFFFFF7FFFFF6F
:10039E00FF7FFFFFFF7FFFFFFF7FFFFFFF7F01FF5D
:1003AE00FF7F01FFFF7F01FFFF7F01FFFF7F01FF47
:1003BE00FF3F00FFFF3F00FFFF3F00FFFF3F00FF3B
:1003CE00FF3F80FFFF1F80FFFF3F80FFFF3F80FF4B
:1003DE00FF3F80FFFF3F80FFFF7FE0FFFF7FE0FFDB
:1003EE00FFFFE0FFFFFFF0FFFFEFF0FFFFE7E0FF93
:1003FE00FFF7E0FFFFF7F0FFFF67F0FFFF2FE0FFD3
:10040E00FF0FE0FFFF1FE0FFFF1FE0FFFF3FC0FFFA
:10041E00FF3FC0FFFF3FC0FFFF7FC0F9FF7FC0FB64
:10042E00FF7FC0FBFF7F80FBFFFFC0FBFFFFE3F9F9
:10043E00FFFFFBF9FFFFF9F9FFFFF9F9FFFFF1F9F4
:10044E00FFFFF1F9FFFFC1F9FFFFC1F9FFFFC0F98F
:10045E00FFFFD0F9FFFFD1FFFFFFC3FFFFFFC3FF79
:10046E00FFFFC3FFFFFFC3FFFFFFC7FFFFFF8FFFAE
:10047E00FFFFCFFFFFFFCFFFFFFF8FFFFFFF0FFF3E
:10048E00FFFF2FFFFFFF2FFFFFDF7FFFFF9F3FFFCE
:10049E00FF8F3FFFFFEF7FFFFFA77FFFFF375FFE5F
:1004AE00FF3709FEFF3708FEFF375EFEFF337EFC87
:1004BE00FF177FFDFF877FFDFF8FFFFDFFCFFFFD46
:1004CE00FFCFFFFDFFEFFFFDFFEFFFFDFFEFFFF99A
:1004DE00FFDFFFFBFFDFFFFBFF9FCFFBFF9FC7FB96
:1004EE00FF1FE3F9FFBFFAF9FFFFF8F9FFFFF8F975
:1004FE00FFDFFEF9FF3FFEF9FF3FFEF9FFBFFFF9F9
:10050E00FFDFFFF9FFDFFFF9FFDFFFF9FFDFFFF985
:10051E00FFDFDFF9FFDFDFF9FFFFD7F9FF9FF1F90B
:10052E00FFBFB1F9FFBF13F9FFBF37F8FFFF37F871
:10053E00FFFF37FCFFFF33FCFFFF33FCFFFF67FCC1
:10054E00FFFF4FFCFFFFCFFCFFFFDFFCFFFFCFFCE9
:10055E00FFFFCFFCFFFFDFFCFFFFDFFCFFFF1FFCF9
:10056E00FFFF3FDCFFFF3FDCFFFF7FDCFFFFFFDE17
:10057E00FFFFFFDEFFFFFF9EFFFFFF8FFFFFFF8FDF
:10058E00FFFF7F8FFFFF3F8FFFFF3F8FFFFFFF8F2D
:10059E00FFFFBF8FFFFF9F8FFFFF9F8FFFFF9F8F7D
:1005AE00FFFFFF8FFFFFEF8FFFFFEF8FFFFFF58F37
:1005BE00FFFFFFFFFFFFFFFFFFFFFFFFFFFFFFFB41
:1005CE00FFFFFFF3FFFFFFF3FFFFFFF3FFFFFFF35D
:1005DE00FFFFFFF1FFFFFFF1FFF7FFF1FFC3FFF09A
:1005EE00FF07FFF0FF077EF0FFC77EF0FFC37FF827
:1005FE00FFC37BF8FF8313F8FF8317F8FF0307F899
:10060E00FF830FF8FF030FF8FF031FF8FF031FFC14
:10061E00FF075FFCFF037FDCFF077EDCFF077EDC4E
:10062E00FF077CDCFF077CDCFF077C98FF0F7C80DC
:10063E00FF0F7880FF0FF880FF1FF880FF1FFC80F0
:10064E00FF1FFC80FF1FFC80FF1FF880FF3FF8811B
:10065E00FF7FF881FF7FF881FF7FF081FF7FF081C0
:10066E00FF7FF081FFFFF081FFFFF081FFFFA08190
:10067E00FFFFA083FFFFA083FFFFE083FFFF6083E8
:10068E00FFFF6083FF7F4083FF7F4087FF7F2087D0
:10069E00FF7F8087FF7F8087FF3F0083FF3F0083C0
:1006AE00FF3F0083FF1F0087FF9F0387FFBF018768
:1006BE00FFFF0387FFFF038FFFFF078FFFFF038FF0
:1006CE00FFFF038FFFFF078FFFFF038FFFFF0387E0
:1006DE00FFFF0787FFFF0787FFFF0787FFFF0787DC
:1006EE00FFFF0F83FFFF0783FFFF8781FFFF878BCE
:1006FE00FFFF078BFFFF878BFFFF878FFFFF878D26
:10070E00FFFF878DFFFF878DFFFFC78DFFFFC78D13
:10071E00FFFFC78EFFFFC78EFFFFC78EFFFFC78E7F
:10072E00FFFF838EFFFF838FFFFF838FFFFFC39F2C
:10073E00FFFFC39FFFFFC39FFFFFC19FFFFFC19F2F
:10074E00FFFFF19FFFFFF19FFFFFF99FFF7FF89FD4
:10075E00FF7FFC9FFF7FFC9FFF1FFCDFFF0BFCDF7B
:10076E00FF03FEDFFF00FEDF7F00FFDF7F02FFFFE4
:10077E00FF0FFFFFFF1FFEFFFF1FFEFFFF3FFEFFEE
:10078E00FF3FFEFFFF7FFEFFFF7FFFFFFF3FFEFFEE
:10079E00FF7FFEFFFF7FFFFFFFFFFFFFFFFFFFFF5C
:1007AE00FFFFFFFFFFFFFFFFFFFFFFFFFFFFFFFF4B
:1007BE00FFFFFFFFFFFFFFFFFFFFFFFFFFFFFFFF3B
:1007CE00FFFFFFFFFFFFFFFFFFFFFFFFFFFFFFFF2B
:1007DE00FFFFFFFFFFFFFFFFFFFFFFFFFFFFFFFF1B
:1007EE00FFFFFFFFFFFFFFFFFFFFFFFFFFFFFFFF0B
:1007FE00FFFFFFFFFFFFFFFFFFFFFFFFFFFFFFFFFB
:10080E00FFFFFFFFFFFFFFFFFFFFFFFFFFFFFFFFEA
:10081E00FFFFFFFFFFFFFFFFFFFFFFFFFFFFFFFFDA
:10082E00FFFFFFFFFFFFFFFFFFFFFFFFFFFFFFFFCA
:10083E00FFFFFFFFFFFFFFFFFFFFFFFFFFFFFFFFBA
:10084E00FFFFFFFFFFFFFFFFFFFFFFFFFFFFFFFFAA
:10085E00FFFFFFFFFFFFFFFFFFFFFFFFFFFFFFFF9A
:10086E00FFFFFFFFFFFFFFFFFFFFFFFFFFFFFFFF8A
:10087E00FFFFFFFFFFFFFFFFFFFFFFFFFFFFFFFF7A
:10088E00FFFF976FFFFF976FFFFF9F6FFFFF9F6F3A
:10089E00FFFF936FFFFFF37FFFFFF77FFFFFEF7FFA
:1008AE00FFFFCF7FFFFFCF7FFFFFFF7FFFFFDB7FCE
:1008BE00FFFF9B7FFFFF9F7FFFFFB37FFFFFA37FA6
:1008CE00FFBF877FFF7FC77FFF7FC77FFF3FC77F4A
:1008DE00FF7FCF7FFF7FEF7FFF7FEF7FFFFFEE7FFB
:1008EE00FFFFEE7FFF7FEE5FFFFFE65FFF7FF65FAE
:1008FE00FF7FF35FFF7FFA5FFF7FFA1BFF7FFE1321
:10090E00FF3FF813FF7FFC11FF3FFE1BFF3FFF1B56
:10091E00FF3FFF1BFFBFFF1FFFDFFF1FFFBFFF1FBD
:10092E00FFFFFF1FFFFFFF1FFFFFFF1FFFFFFF1F49
:10093E00FFFFFF1FFFFFFF1FFFFFFF1FFFFFFF1F39
:10094E00FFFFFF1BFFFFFF1BFFFFFF0BFFFFFF0B59
:10095E00FFFFFF0BFFFFFF09FFFFBF0DFFFF1F0D87
:10096E00FFFF1F0DFFFF5F0FFFFFDF0FFFFFFF0FEB
:10097E00FFFFFF07FFFFFF43FFFFFF53FFFFFF5385
:10098E00FFFFFF53FFFFFF53FFFFFF70FFFFFF70DF
:10099E00FFFFFF74FFFF7F74FFFF7F74FFFF7F7405
:1009AE00FFFF3F74FFFF3F76FFFF7F66FFFF7F660F
:1009BE00FFFF7F6EFFFF7F6EFFFF7F6EFFFF7F6487
:1009CE00FFFFFB65FFFFFB65FFFFE361FFFFE341F9
:1009DE00FFFFE341FFFFE141FFFFC041FFFFC041C9
:1009EE00FFFFC141FFFFCF41FFFFCF41FFFFCF41CF
:1009FE00FFFFFF41FFFFFF43FFFFFF43FFFFFF43EB
:100A0E00FFFFFF43FFFFFF43FFFFFF43FFFFFF47D4
:100A1E00FFFFFF47FFFFFF47FFFFFF47FFFF7F433C
:100A2E00FFFF7F43FFFF7F43FFFF7F07FFBF1F07D0
:100A3E00FF8F9F07FFCF8307FFCF8B07FFDF8F0748
:100A4E00FFBF1F07FF2F1F03FF6F9F03FF6F9F0344
:100A5E00FFEF9E03FFCFDE03FFEFDC01FFEF9D01F3
:100A6E00FFCFF901FFDFF100FFDFF300FF9F63000F
:100A7E00FFBF2300FFBF0700FFBF8700FF3FDF0060
:100A8E00FF3FFE22FFFFFE23FFFFFE23FFFFFE338D
:100A9E00FFFFFC3BFFFFFC3CFFFF7C3CFFFF7D3C70
:100AAE00FFFF7D3CFFFF3B3CFFFF3B3FFFFF333F24
:100ABE00FFFF133FFFFF973FFFFF873FFFFF833F80
:100ACE00FFFFC33FFFFFF13FFFFFF43FFFFFF63F86
:100ADE00FF7FE73DFFFFEF3DFFFFE73DFFFFE77CB9
:100AEE00FFFFEF7CFFFF6F7CFFFF277CFFFF2F7C5C
:100AFE00FFFF2F7CFFFF2F7CFFFF2F78FFFFEF788C
:100B0E00FFFFEF78FFFFE771FFFFEF71FFFFEF7160
:100B1E00FFFFE761FFFFE761FFFFEF60FF7FE76029
:100B2E00FFFF7660FFFF7460FFFFF161FFFFF16171
:100B3E00FFFFF165FFFFF367FFFFF367FFFFF1674D
:100B4E00FFFFD067FFFFD66FFFFFD76FFFFF976FD7
:100B5E00FFFFF8C7FFFFF8C7FFFF1CC7FFFF1CC74B
:100B6E00FFFF1ECFFFFF1ECFFFFF1ECFFF3F1ECE8C
:100B7E00FF3F3FCEFF3F77CEFF3FF7CEFF3FF7CF92
:100B8E00FF7FF7CFFF3F77CFFF3F73CFFF2F7ADF88
:100B9E00FF0F7E9FFF0F3F8FFF0FBE8FFF1FBC8F7C
:100BAE00FF3FBC8FFF1FB88FFF3FFC8FFF3FFC8FB7
:100BBE00FF3FF88FFF3FF88FFF3FE087FF7FE08713
:100BCE00FF7FE087FFFFE087FFFFC0C3FFFF80C30B
:100BDE00FFFF80C3FFFF01C1FFFF03C1FFFF03C083
:100BEE00FFFF03C0FFFF0BC0FFFF0FE0FFFF0FE093
:100BFE00FFFF0FE0FFFF0FF0FFFF0FF8FFFF0FFFEC
:100C0E00FFFF3FFFFFFF3FFFFFFF3FFFFFFFFFFF26
:100C1E00FFFFFFFFFFFFFFFFFFFFFFFFFFFFFFFFD6
:100C2E00FFFFFFFFFFFFFFFFFFFFFFFFFFFFFFFFC6
:100C3E00FFFFFFFEFFFFFFFEFFFF7FFCFFFF7FFCBE
:100C4E00FFFF7FE4FFFF1FE0FFFF1FE0FFFF1FE03E
:100C5E00FFFF07E0FFFF07E0FFFF27E1FFFFE3E1F4
:100C6E00FFFFE3E1FFFFF1E1FFFFF1C3FFFFE1C390
:100C7E00FFFFF1C3FFFFF0C3FFFFF0C3FFFFE0C3B1
:100C8E00FFFFF0CEFF7FF0CEFFFF70CEFF7F78CC60
:100C9E00FF7FF8CCFF7FF8CCFF7FF0CCFF3FD0CEAC
:100CAE00FF7FD8CFFF7FD8CFFF7FD8CFFF7FD8C7AA
:100CBE00FF7FD8C7FF7FF8C7FF7FF8C7FF7FF8C752
:100CCE00FF7F38C7FF7F38C6FF7F38C6FF7F38C625
:100CDE00FF7F38C6FF3F20C6FF3F00C4FF3F00C066
:100CEE00FF3F00C0FFBF00C0FFFF00C0FFFF00C0FE
:100CFE00FFFF20C0FFFF20C0FFFF70C0FF3F30D0BE
:100D0E00FF3F37D0FF1F3BD0FF3F3AD0FF3F1EF0D3
:100D1E00FF3F1CF0FF3F1CF0FF1F48F0FF1F68F065
:100D2E00FFDF60F8FF7F70F8FF7FF0F8FF3FF2F80B
:100D3E00FF7FE6F8FF7FFFF0FFFFFFF0FFFF7FF082
:100D4E00FFFF7FFAFFFFFFFAFFFFFFFAFFFFFFFE35
:100D5E00FFFFFFFEFFFFFFFEFFFFFFFEFFFFFFFE99
:100D6E00FFFFFFFEFFFFFFFCFFFFFFFCFFFFFFFC8F
:100D7E00FFFFFFFCFFFFFFFCFFFFFFF9FFFFFFF987
:100D8E00FFFFFFF9FFFFFFF9FFFFFFF9FFFFFFF97D
:100D9E00FFFFF6F9FFFFE4F9FF7FC0F9FFFFC0F98F
:100DAE00FFFFC1FDFFFFC1FDFFFFC9FDFF9F99F9C9
:100DBE00FF1FB8F9FF3F38F9FF3F7CF9FF7F7CF842
:100DCE00FFFF7EF8FFFFFEF8FFFFFEFCFFFFFEFCBD
:100DDE00FFFFFCFCFFFFFDFDFFFFF9FDFFFFF8FD30
:100DEE00FF7FF9FDFF7FF9FDFF7FF0ECFF7FF0EC59
:100DFE00FFFFF0E8FFFFF0E0FFFFF1E0FFFF71E023
:100E0E00FFFF21E0FFFF03C0FFFF03C0FFFF03C092
:100E1E00FFFF03C0FFFF01C0FFFF01C7FFFFF9C7C0
:100E2E00FFFFFFFFFFFFFFFFFFFFFFFFFFFFFFFFC4
:100E3E00FFFFFFFFFFFFFFFFFFFFFFFFFFFFFFFFB4
:100E4E00FFFFFFFFFFFFFFFFFFFFFFFFFFFFFFFFA4
:100E5E00FFFFFFFFFFFFFFFFFFFFFFFFFFFFFFFF94
:100E6E00FFFFFFFFFFFFFFFFFFFFFFFFFFFFFFFF84
:100E7E00FFFFFFFFFFFFFFFFFFFFFFFFFFFFFFFF74
:100E8E00FFFFFFFFFFFFFFFFFFFFFFFFFFFFFFFF64
:100E9E00FFFFFFFFFFFFFFFFFFFFFFFFFFFFFFFF54
:100EAE00FFFFFFFFFFFFFFFFFFFFFFFFFFFFFFFF44
:100EBE00FFFFFFFFFFFFFFFFFFFFFFFFFFFFFFFF34
:100ECE00FFFFFFFFFFFFFFFFFFFFFFFFFFFFFFFF24
:100EDE00FFFFFFFFFFFFFFFFFFFFFFFFFFFFFFFF14
:100EEE00FFFFFFFFFFFFFFFFFFFFFFFFFFFFFFFF04
:100EFE00FFFFFFFFFFFFFFFFFFFFFFFFFFFFFFFFF4
:100F0E00FFFFFFFFFFFFFFFFFFFFFFFFFFFFFFFFE3
:100F1E00FFFF1FF0EFEFF7DFF7DFF7DF07C0F7DFB9
:100F2E00FFFFFFFFF7DFF7DF07C0F7DFF7DFFFFF9A
:100F3E00FFFFF7FFC7FF37DFFFC037DFC7FFF7FF42
:100F4E00FFFFFF1F017CFD7FFD810DFEFDF9FDE71B
:100F5E0001DCFFBFFF7C67FF110076FFF7FEF7FD98
:100F6E00FFFFFFF7FFF7FFFB01FB6DFD6D016DFE50
:100F7E0001FF6DFE6DE16D9D017BFFFBFFF7FFF73E
:100F8E00FFFFFF8781BFBDBF3DC0BDFFBDFF3DF869
:100F9E00BDE781DFFFBC677F110076FFF7FEF7FD2F
:100FAE00FFFFDF7FDF7FDFBFDFDFDFEFDFF3DFFCA2
:100FBE0000FFDFFCDFF3DFEFDFDFDFBFDF7FDF7F91
:100FCE00FFFFF3DFCBDF5BEFDBEEDBF5DBFBDB8085
:100FDE0059769AAD5BEB5BDBDBD6DBB6D3B6EFBFF8
:100FEE00FFFF7FFF7FFF7FFF7FFF7FFF7FFF7FFF83
:100FFE007FFF7FFF7FFF7FFF7FFF7FFF7FFF7FFFF3
:10100E00FFFFFF87FFBFFFBF01C0FDFF7DFEBDFFDE
:10101E0001E0FF9F0770F7F70000F7FF07F0FFFFF3
:10102E00FFFFFF07FFBFFFCF01F0FDFFCDCF3DF369
:10103E00FDFC3DF3DDEFEDDFFDFF01E0FF9FFF7FE8
:10104E00FFFFFD7F0DB0EDDFEDEF29F8E5E7EDDFFA
:10105E000DB0FF7F0000FFFF03C0FFFF01C0FFBF09
:10106E00FFFFFFEFFFEFF7EFF7EFF7EFF7EFF7EF1A
:10107E00F7EFF7EFF7EFF7EFF7EFF7EFFFEFFFEF22
:10108E00FFFFDFFFDFBFDFBFDFBF00B8DFBBDFBBB0
:10109E00DFBB00B8DFBFDFBF0180DFFFDFFFDFFF99
:1010AE00FFFFEF87EFBF2FBFE9BEEEBDEFBB0FC057
:1010BE00EFEFEFDF00BEEFF9EFE7EFDFEFBFEF7F10
:1010CE00FFFFDFFED786547793B0D7D6C0D6D7D6DC
:1010DE0091D256DFD7FE0100DD7DDDFD0180FF7F61
:1010EE00FFFFFFDFFBDF7BDF7BDF7BDF7BDF7BDF7A
:1010FE007BDF7BDF7BDF7BDF7BDF7BDFFBDFFFDF0E
:10110E00FFFFFFF7F7F777F777F774F773F777F7D0
:10111E00070077F771F776F777F777F7F7F7FFF7B7
:10112E00FFFF7FFF7DFF7DFF7DFF01007DFF7DFFC8
:10113E007DFF7DFF7DFF01F07DCF7DBF7D7F7FFF3A
:10114E00FFFFBFFBBBFBABDDABEDABEA2BF7ABF7AA
:10115E00A0808B7B2BB7ABEAABEDABDDBBDBBFFB74
:10116E00FFFFFFFF0380FBDDFBDDFBDD03DEFBDFAF
:10117E00FBDFFBDF03DFFBDCFBDBFBD70380FFFFCB
:10118E00FFFFFFF6EFF66FF76EF7AEF6CEF4EDF269
:10119E000186ED76CDB6ADF66DF76FF7EFF6FFF68D
:1011AE00FFFFFFFEFDFEFDFECDFEBDFEFDFEFDFEC4
:1011BE000100FDFEFDFE9DFEEDFEFDFEFDFEFFFEB1
:1011CE00FFFF7FFF73FF6B7F7BBF7BDC7BD37BEFF0
:1011DE0079EF0AD77BB67BB97B7B737F6F7F7FFFFF
:1011EE00FFFFFFBFFDBFFDBF3D80BDBFBDBFBDBF8C
:1011FE00BDBF81BF3DB8BD87BDBFBDBFFDBFFFBF7A
:10120E00FFFFFD0085B6B5B6B5B6B580B5B6B5B6B9
:10121E0085B6FD00FFFFF7FC47FF3100F6FEF7FD38
:10122E00FFFFF7FFF780F7DEF7DE97C0E7DEF0DEB1
:10123E00E780DFFFBFFF0000FFFFFFFF07E0FFFFBC
:10124E00FFFFFFFF0180FD7FFDBFFDFFFDFFFDFFE7
:10125E00FDFFFDFFFFFFFFFFF9FFFEFF0700FFFF92
:10126E00FFFFDFFFDF9FDFE7DFFBDFFDDFFED3FFEB
:10127E00DDFFDEFFDFFCDFF3DFEFDFDFDFBFDFFFF2
:10128E00FFFFDFFFDF9FDFE7DFFBDFFDDFFED3FFCB
:10129E00DDFFDEFFDFFCDFF3DFEFDFDFDFBFDFFFD2
:1012AE00FFFFDF7FDF7FDFBFDFDFDFEFDFF3DFFC9F
:1012BE0000FFDFFCDFF3DFEFDFDFDFBFDF7FDF7F8E
:1012CE00FFFFFD7F0DB0EDDFEDEF29F8E5E7EDDF78
:1012DE000DB0FF7F0000FFFF03C0FFFF01C0FFBF87
:1012EE00FFFFFFFFDF87DFBFDFBFDFBFBFBFBFBFB8
:1012FE00BFBF00C0BFFF7FFF7FFF7FFF7FFF7FFF6E
:10130E00FFFFFFFFFFBFFFBEC1B6D5B6D5B6D5B640
:10131E001580D5B6D5B6D5B641B6FFBDFFBBFFFF1E
:10132E00FFFFFBFFFB01FB7DFBFD0B856BB56BB57B
:10133E0069B56AB56BB50B85FBFDFBFDFB01FBFFCC
:10134E00FFFFFFFF41303DD75DF77DF761375DD081
:10135E00BDFFFFFF0130BDD7BDF7BDF70190FF7F89
:10136E00FFFFFF7FFFBFFFCFFFF37FFC81FFFFFF7C
:10137E00FFFFFFFF03FFFFF8FFE7FF9FFF7FFFFF6A
:10138E00FFFFF7FFF7FFF7FF77C077BF777F77BFD6
:10139E0071FF76FF07F8F7E7F7DFF7BFF77FF7FF85
:1013AE00FFFF7FBF77BF77BF00A077BF77BF00BCBF
:1013BE0077B377AF7FBFFFDF33E0BDDFBFBFBFFFC8
:1013CE00FFFFF3BFABBFBBBBBB9BBBABBBBBBBBBD7
:1013DE003980BABBBBBBBBBBBBBBBBBBB3BFEFBFD9
:1013EE00FFFFFF87FFBFFFBFFFBF0FC0EFFFEFFF86
:1013FE00EFFFEFFF00FFEFF8EFE7EFDFEFBFFF7F4D
:10140E00FFFF7FFF7FFF7DFF79FF75FF6DFF5DFFA4
:10141E001D807D7F7DBF7DFF7DFF7DFF7DFF7FFF7B
:10142E00FFFFFFFEFBBE77BFADB0DBA6A796B8B63B
:10143E00BFB6B9B6A596DDA6ADB075BFFFBEFFFEB1
:10144E00FFFFFFFDFFFDFFFD0000FFFBFFFB33FB7A
:10145E00DDFBFFFBDDFE5CFF01005BFEDBF9DBF776
:10146E00FFFFBFFFBFFFBFFFBFFFBFFFBFFFBFFF3E
:10147E000000BFFFBFFFBFFFBFFFBFFFBFFFBFFF2C
:10148E00FFFF7FFF7FBFBFBFDFBBAFBBB7BBBBBB2A
:10149E003C80BBBBB7BBAFBBDFBBBFBF7FBF7FFF5C
:1014AE00FFFFBFFFBFFFBFFFBFFFBFFFBFFFBFFFFE
:1014BE000000BFFFBFFFBFFFBFFFBFFFBFFFBFFFEC
:1014CE00FFFFFF7EFB76DB76DBB6DAB6D9D6DBE640
:1014DE0003F0DBE6D9D6DAB6DBB6DB76FB76FF7E3B
:1014EE00FFFFFDFFFDFF1D00DDBDDDBDDDBDDDBD73
:1014FE00D9BDD5BDCDBDDDBDDDBD1D00FDFFFDFFE3
:10150E00FFFFFBFBFBFB8BE0ABEAABEAABEAABEA24
:10151E000080AB6AABAAABEAABEA8BEAFBFBFBFB48
:10152E00FFFFFBFFFBFFFBFF0BFD6BF96BF96BF591
:10153E0069856A7D6BBD6BFD0BFDFBFDFBFFFBFF44
:10154E00FFFFFF7F1F40DD36D956D5760D40D5768D
:10155E00D576DD761D00FF7FFFBF33C0BDBFBF7FD9
:10156E00FFFFFBFFFBFFFBFF3BC0BBBFBB7FBBBF58
:10157E00BBFFBBFF03FEFBF9FBE7FBDFFBBFFB7F04
:10158E00FFFFFBFBFBFB8BE0ABEAABEAABEAABEAA4
:10159E000080AB6AABAAABEAABEA8BEAFBFBFBFBC8
:1015AE00FFFFFFFF0780F7DFF7DFF7DF0780FFFFA3
:1015BE00FFFF0F9EEFE9EFF7E0EB0FDDEFBEEF7FE2
:1015CE00FFFFEF9FEFEFEDFF2D18A97AA57AAD7A09
:1015DE00AC4AAD72A57AA97A2D88EDFFEFCFEFBF99
:1015EE00FFFFFFFFFFFFFFFFFFFFFFFFFFFFFFFFFD
:1015FE00FFFFFFFFFFFFFFFFFFFFFFFFFFFFFFFFED
:10160E00FFFFFFFFFFFFFFFFFFFFFFFFFFFFFFFFDC
:10161E00FFFFFFFFFFFFFFFFFFFFFFFFFFFFFFFFCC
:10162E00FFFFFFFFFFFFFFFFFFFFFFFFFFFFFFFFBC
:10163E00FFFFFFFFFFFFFFFFFFFFFFFFFFFFFFFFAC
:10164E00FFFFFFFFFFFFFFFFFFFFFFFFFFFFFFFF9C
:10165E00FFFFFFFFFFFFFFFFFFFFFFFFFFFFFFFF8C
:10166E00F7DF07C0F7DFF7DFF7DFEFEF1FF0FFFF62
:10167E00FFFFF7DFF7DF07C0F7DFF7DFFFFFFFFF43
:10168E00F7FFC7FF37DFFFC037DFC7FFF7FFFFFFEB
:10169E00F7FDF7FE76FF110067FFFF7CFFBF01DC51
:1016AE00FDE7FDF90DFEFD81FD7F017CFF1FFFFFB4
:1016BE00FFF7FFF7FFFB017B6D9D6DE16DFE01FFF7
:1016CE006DFE6D016DFD01FBFFFBFFF7FFF7FFFFE9
:1016DE00FFFFFF8383BFBFBFBFBFBFBFBFBF0080C2
:1016EE00BFBFBFBFBFBFBFBF03BFFF03FFFFFFFF34
:1016FE00FFFFFF01FFBD81BDBDBDBD01BDFFBDFF34
:10170E00BDFFBD01BDBD81BDFFBDFF01FFFFFFFFE1
:10171E00FFFFFFFFFFFFFFFFFFFFFFFFFFFFFFFFCB
:10172E00F7FDF7FE76FF1100677FFFBC81DFBDE797
:10173E003DF8BDFFBDFF3DC0BDBF81BFFF87FFFFB1
:10174E00FFFE7FFF9FFF0700F8FFBFEFDFF3E7FC11
:10175E00F0BFF77F3780F7FFF7FED7F9E7E7FFFF18
:10176E007FFF7FFF7FFF7FFF7FFF7FFF7FFF7FFF7B
:10177E007FFF7FFF7FFF7FFF7FFF7FFF7FFFFFFFEB
:10178E00FFFF07F0F7FF0000F7F70770FF9F01E07C
:10179E00BDFF7DFEFDFF01C0FFBFFFBFFF87FFFF47
:1017AE00FF7FFF9F01E0FDFFEDDFDDEF3DF3FDFC71
:1017BE003DF3CDCFFDFF01F0FFCFFFBFFF07FFFFD2
:1017CE00FFBF01C0FFFF03C0FFFF0000FF7F0DB092
:1017DE00EDDFE5E729F8EDEFEDDF0DB0FD7FFFFF63
:1017EE00FFEFFFEFF7EFF7EFF7EFF7EFF7EFF7EFAB
:1017FE00F7EFF7EFF7EFF7EFF7EFFFEFFFEFFFFF83
:10180E00DFFFDFFFDFFF0180DFBFDFBF00B8DFBB21
:10181E00DFBBDFBB00B8DFBFDFBFDFBFDFFFFFFF18
:10182E00EF7FEFBFEFDFEFE7EFF900BEEFDFEFEF98
:10183E000FC0EFBBEEBDE9BE2FBFEFBFEF87FFFFBF
:10184E00FF7F0180DDFDDD7D0100D7FE56DF91D2E9
:10185E00D7D6C0D6D7D693B05477D786DFFEFFFF44
:10186E00FFDFFBDF7BDF7BDF7BDF7BDF7BDF7BDF96
:10187E007BDF7BDF7BDF7BDF7BDFFBDFFFDFFFFFE2
:10188E00FFF7F7F777F777F776F771F777F7070040
:10189E0077F773F774F777F777F7F7F7FFF7FFFF39
:1018AE007FFF7D7F7DBF7DCF01F07DFF7DFF7DFFC3
:1018BE007DFF7DFF01007DFF7DFF7DFF7FFFFFFF31
:1018CE00BFFBBBDBABDDABEDABEA2BB78B7BA080FD
:1018DE00ABF72BF7ABEAABEDABDDBBFBBFFBFFFF13
:1018EE00FFFF0380FBD7FBDBFBDC03DFFBDFFBDF54
:1018FE00FBDF03DEFBDDFBDDFBDD0380FFFFFFFF18
:10190E00FFF6EFF66FF76DF7ADF6CDB6ED76018615
:10191E00EDF2CEF4AEF66EF76FF7EFF6FFF6FFFFD1
:10192E00FFFEFDFEFDFEEDFE9DFEFDFEFDFE010039
:10193E00FDFEFDFEBDFECDFEFDFEFDFEFFFEFFFF2C
:10194E007FFF6F7F737F7B7B7BB97BB60AD779EF87
:10195E007BEF7BD37BDC7BBF6B7F73FF7FFFFFFF58
:10196E00FFBFFDBFBDBFBDBFBD873DB881BFBDBF02
:10197E00BDBFBDBFBDBF3D80FDBFFDBFFFBFFFFFF4
:10198E00F7FDF6FE310047FFF7FCFFFFFD0085B6C1
:10199E00B5B6B5B6B580B5B6B5B685B6FD00FFFF22
:1019AE00FFFF07E0FFFFFFFF0000BFFFDFFFE78045
:1019BE00F0DEE7DE97C0F7DEF7DEF780F7FFFFFF1A
:1019CE00FFFF0700FEFFF9FFFFFFFFFFFDFFFDFF1B
:1019DE00FDFFFDFFFDFFFDBFFD7F0180FFFFFFFF50
:1019EE00DFFFDFBFDFDFDFEFDFF3DFFCDEFFDDFF7B
:1019FE00D3FFDFFEDFFDDFFBDFE7DF9FDFFFFFFF54
:101A0E00DFFFDFBFDFDFDFEFDFF3DFFCDEFFDDFF5A
:101A1E00D3FFDFFEDFFDDFFBDFE7DF9FDFFFFFFF33
:101A2E00DF7FDF7FDFBFDFDFDFEFDFF3DFFC00FF16
:101A3E00DFFCDFF3DFEFDFDFDFBFDF7FDF7FFFFF07
:101A4E00FFBF01C0FFFF03C0FFFF0000FF7F0DB00F
:101A5E00EDDFE5E729F8EDEFEDDF0DB0FD7FFFFFE0
:101A6E007FFF7FFF7FFF7FFF7FFFBFFF00C0BFBFF6
:101A7E00BFBFBFBFDFBFDFBFDFBFDF87FFFFFFFF20
:101A8E00FFFFFFBBFFBD41B6D5B6D5B6D5B61580A7
:101A9E00D5B6D5B6D5B6C1B6FFBEFFBFFFFFFFFFA9
:101AAE00FBFFFB01FBFDFBFD0B856BB56AB569B555
:101ABE006BB56BB50B85FBFDFB7DFB01FBFFFFFFE4
:101ACE00FF7F0190BDF7BDF7BDD70130FFFFBDFF12
:101ADE005DD061377DF75DF73DD74130FFFFFFFFEA
:101AEE00FFFFFF7FFF9FFFE7FFF803FFFFFFFFFFF3
:101AFE00FFFF81FF7FFCFFF3FFCFFFBFFF7FFFFFE5
:101B0E00F7FFF77FF7BFF7DFF7E707F876FF71FF0D
:101B1E0077BF777F77BF77C0F7FFF7FFF7FFFFFF3E
:101B2E00BFFFBFBFBDDF33E0FFDF7FBF77AF77B350
:101B3E0000BC77BF77BF00A077BF77BF7FBFFFFF27
:101B4E00EFBFB3BFBBBBBBBBBBBBBBBBBABB398061
:101B5E00BBBBBBBBBBABBB9BBBBBABBFF3BFFFFF3F
:101B6E00FF7FEFBFEFDFEFE7EFF800FFEFFFEFFFD5
:101B7E00EFFFEFFF0FC0FFBFFFBFFFBFFF87FFFFEE
:101B8E007FFF7DFF7DFF7DFF7DFF7DBF7D7F1D8004
:101B9E005DFF6DFF75FF79FF7DFF7FFF7FFFFFFF0D
:101BAE00FFFEFFBE75BFADB0DDA6A596B9B6BFB63A
:101BBE00B8B6A796DBA6ADB077BFFBBEFFFEFFFFA4
:101BCE00DBF7DBF95BFE01005CFFDDFEFFFBDDFBFF
:101BDE0033FBFFFBFFFB0000FFFDFFFDFFFDFFFFE3
:101BEE00BFFFBFFFBFFFBFFFBFFFBFFFBFFF0000B5
:101BFE00BFFFBFFFBFFFBFFFBFFFBFFFBFFFFFFFA7
:101C0E007FFF7FBFBFBFDFBBAFBBB7BBBBBB3C80E4
:101C1E00BBBBB7BBAFBBDFBBBFBF7FBF7FFFFFFF92
:101C2E00BFFFBFFFBFFFBFFFBFFFBFFFBFFF000074
:101C3E00BFFFBFFFBFFFBFFFBFFFBFFFBFFFFFFF66
:101C4E00FF7EFB76DB76DBB6DAB6D9D6DBE603F0C3
:101C5E00DBE6D9D6DAB6DBB6DB76FB76FF7EFFFFA8
:101C6E00FDFFFDFF1D00DDBDDDBDCDBDD5BDD9BD6B
:101C7E00DDBDDDBDDDBDDDBD1D00FDFFFDFFFFFFDB
:101C8E00FBFBFBFB8BEAABEAABEAABAAAB6A0080D1
:101C9E00ABEAABEAABEAABEA8BE0FBFBFBFBFFFF8D
:101CAE00FBFFFBFFFBFD0BFD6BFD6BBD6A7D6985CD
:101CBE006BF56BF96BF90BFDFBFFFBFFFBFFFFFFFA
:101CCE00BF7FBDBF33C0FFBFFF7F1D00DD76D57662
:101CDE00D5760D40D576D956DD361F40FF7FFFFFF6
:101CEE00FB7FFBBFFBDFFBE7FBF903FEBBFFBBFF8D
:101CFE00BBBFBB7FBBBF3BC0FBFFFBFFFBFFFFFFC1
:101D0E00FBFBFBFB8BEAABEAABEAABAAAB6A008050
:101D1E00ABEAABEAABEAABEA8BE0FBFBFBFBFFFF0C
:101D2E00EF7FEFBE0FDDE0EBEFF7EFE90F9EFFFF6A
:101D3E00FFFF0780F7DFF7DFF7DF0780FFFFFFFF0B
:101D4E00EFBFEFCFEDFF2D88A97AA57AAD72AC4A21
:101D5E00AD7AA57AA97A2D18EDFFEFEFEF9FFFFF71
:03000000022E4489
:0C2E4400787FE4F6D8FD75813F022E8BEC
:10314600BB010689828A83E0225002E722BBFE0287
:09315600E32289828A83E49322BA
:10315F00BB010689828A83F0225002F722BBFE014F
:02316F00F32249
:0C317100A42582F582E5F03583F5832269
:102E5000022C43E493A3F8E493A34003F68001F229
:102E600008DFF48029E493A3F85407240CC8C33383
:102E7000C4540F4420C8834004F456800146F6DF52
:102E8000E4800B01020408102040809031B3E47EFE
:102E9000019360BCA3FF543F30E509541FFEE49347
:102EA000A360010ECF54C025E060A840B8E493A30E
:102EB000FAE493A3F8E493A3C8C582C8CAC583CA39
:102EC000F0A3C8C582C8CAC583CADFE9DEE780BEF1
:0131E70000E7
:00000001FF
