:101F1300FF03FFB36B6B9BFF8F777F8F7F778FFF02
:101F2300FFFF9F6D6D6B87FF9FEFF78777778FFFBE
:101B7E00C102023D0000C104C100C10542010500C1
:101B8E0000013A0002350000022C0000022A00007B
:101B9E00013C00012300013700012E00013B01C171
:101BAE0003012F0001220002330032013000C10177
:091F8500121F8E121F8E121F8E16
:0C1F8E007F537E447DCBDDFEDEFADFF6E3
:011F9A002224
:03000300020EECFE
:100EEC00C0E0C0F0C083C082C0D075D000C000C0CC
:100EFC0001C002C003C004C005C006C007D204E58F
:100F0C002F244CFFE434FFFEEF2532F532EE353161
:100F1C00F531E53224CDF534E43531F533C3E495C0
:100F2C0034FDE49533F58CAF058F8A752F0075224F
:100F3C0084E53B24FC7003020FF514700302103F90
:100F4C0014700302107F24FE600724066003021055
:100F5C00DA121948E563C4540F75F00AA4FFE5636F
:100F6C00540F2FF563E560C4540F75F00AA4FFE528
:100F7C0060540F2FF560E565C4540F75F00AA4FF9B
:100F8C00E565540F2FF565D3940B400674F4256575
:100F9C00F565E56375F003A4F563E5601313543F41
:100FAC00FFE56575F00FA42FF565E56075F003A4FA
:100FBC00F560E53BB4021D3005030210DA053EE591
:100FCC003E7002053DD3952BE53D952A500302104A
:100FDC00DA0210D4E53B640860030210DAC20A7529
:100FEC004906F548F54A0210DA052EE52EC3942D74
:100FFC004024752E0020011E74D02536F53674025F
:10100C003535F5350537E537D3953C40097537004F
:10101C007535007536003005030210DA053EE53EE5
:10102C007002053DD3952BE53D952A50030210DA4D
:10103C000210D4052EE52EC394034021752E0074A6
:10104C00D02536F53674023535F5350537E537D309
:10105C009523400975370075350075360020056EEF
:10106C00053EE53E7002053DD3952BE53D952A40A6
:10107C005D8055121948E563C4540F75F00AA4FF3E
:10108C00E563540F2FF563E560C4540F75F00AA4A3
:10109C00FFE560540F2FF560E565C4540F75F00A39
:1010AC00A4FFE565540F2FF565D3940C400674F43A
:1010BC002565F565200517053EE53E7002053DD317
:1010CC00952BE53D952A4006753D00753E00D007F1
:1010DC00D006D005D004D003D002D001D000D0D09F
:0910EC00D082D083D0F0D0E032B4
:1000260020030302065CC203E53B64026009E53B6C
:1000360064086003020376121F6CE522B4B403E47D
:10004600F522E522C394AF5006E52294035013E54A
:10005600222404F530C394B44074744C2530F53032
:10006600806CE522C39429400FE522D394305008D2
:10007600E52224DFF5308056E522C39456400FE58D
:1000860022D3945D5008E52224BAF5308040E5225B
:10009600C39483400FE522D3948A5008E522249521
:1000A600F530802A7530FAE52224E2601C24E260ED
:1000B6001824F1601424E2601024F1600C24E2603C
:1000C6000824F16004249670057F0F121E6EE53039
:1000D600C39420500AE530901F1393FF121E6EE55D
:1000E60065B5220A7F80121ED1E4FF121EB0E565B7
:1000F60024FED395224013E5652402FFE433FEC3B4
:10010600EF95227480F86E98406CE5651465226060
:1001160025AF657E00EF2401FDEE33FCAB227A00AD
:10012600ED6B7001EC600FEF24B2FFEE33FEEFB51E
:10013600030DEAB506097FFF121ED17FBF8034E5A5
:100146006524FE65226025AF657E00EF2402FDEE84
:1001560033FCAB227A00ED6B7001EC600FEF24B13B
:10016600FFEE33FEEFB5030EEAB5060A7FFF121E59
:10017600D17FDF121EB0E560B5220FE4FF121EB07C
:100186007FF0121E8F7F80121ED1E56024FED3956C
:10019600224013E5602402FFE433FEC3EF95227488
:1001A60080F86E984071E5601465226025AF607E28
:1001B60000EF2401FDEE33FCAB227A00ED6B7001FB
:1001C600EC600FEF24B2FFEE33FEEFB5030DEAB598
:1001D60006097FFF121EB07FFB8034E56024FE65B2
:1001E600226025AF607E00EF2402FDEE33FCAB22D9
:1001F6007A00ED6B7001EC600FEF24B1FFEE33FE79
:10020600EFB50313EAB5060F7FFF121EB07FFD128E
:100216001E8F7FFF121ED1E563B5220FE4FF121E6B
:100226008FE4FF121EB07F80121ED1E56324FED339
:1002360095224013E5632402FFE433FEC3EF9522C3
:100246007480F86E98406CE5631465226025AF6390
:100256007E00EF2401FDEE33FCAB227A00ED6B70DD
:1002660001EC600FEF24B2FFEE33FEEFB50308EAB0
:10027600B506047FBF802FE56324FE65226025AFA7
:10028600637E00EF2402FDEE33FCAB227A00ED6BB9
:100296007001EC600FEF24B1FFEE33FEEFB50313F0
:1002A600EAB5060F7FDF121E8F7FFF121EB07FFF9B
:1002B600121ED1E53B6402700A30000302057DFE82
:1002C600020550E53B6408600302057DE54AC394D8
:1002D60010504274EA254AF582E43400F583E0FEC4
:1002E60075F010A42444F582E5F0340DF58375F01D
:1002F60002E548121C84E493FF75F010EEA4244531
:10030600F582E5F0340DF58375F002E548121C849C
:10031600E493FD80047DFF7FFF121CFD0548E54840
:10032600D39407500302057DE4F548E54A94085046
:1003360005200A02054AE54AD394074018200A1503
:10034600754A14E549D3940040021549E5497005FC
:10035600754A07D20AE54AC394105005300A0205C9
:100366004AE54A6410600302057D754A1402057D5C
:10037600E53B6406600302057DE522B4B403E4F5BB
:1003860022121F6CE522C39400401BE522940850FC
:1003960015E56075F00A84E5F075F008A42494F577
:1003A60082E4340E8033E522D39407400EE522948E
:1003B600105008E522900EDC0204D6E522D3940FF5
:1003C6004028E52294185022E56375F00A8475F0FA
:1003D60008A42484F582E4340EF583E5822522F50B
:1003E60082E43583F583E40204D6E522D3941740EC
:1003F6002AE52294205024E56375F00A84E5F07519
:10040600F008A4247CF582E4340EF583E5822522E7
:10041600F582E43583F583E40204D6E522D394938A
:10042600402EE522949C5028E522246CF530E565A3
:1004360075F00A8475F008A42494F582E4340EF568
:1004460083E5822530F582E43583F583E40204D61C
:10045600E522D3949B402FE52294A45029E522243B
:1004660064F530E56575F00A84E5F075F008A424B6
:1004760094F582E4340EF583E5822530F582E43581
:1004860083F583E4804AE522D394A34011E52294C0
:10049600AC500BE522245CF530900EE48032E52268
:1004A600D394AB4030E52294B4502AE5222454F587
:1004B60030E56075F00A8475F008A42494F582E4AA
:1004C600340EF583E5822530F582E43583F583E441
:1004D60093FF121E6EE52275F00384C395635005E3
:1004E6007F1F121E8FE52275F00384C395605005A9
:1004F6007FF1121E8FE52275F00384FFC3956350CA
:100506000BEFC3956050057F11121E8FE52275F023
:100516000F84C3956550057F8F121EB0E52275F0D6
:100526000F84E5F070057F7F121EB0E52275F00F8F
:1005360084C39565500FE52275F00F84E5F07005CC
:100546007F0F121EB020002F7E00E53E2522FFEE13
:10055600353DFEEF25E0FFEE33FEE42FFFEE344699
:10056600FE7B007A007926751E00751F02121D3E5D
:10057600AD27AF26121CFDE52FC394B44003020637
:100586005CE53B64047062E52F75F004A4FFE42586
:1005960036CDE5353464CD2FFFED35F0FE7B007AA0
:1005A600007926751E00751F04121D3E7E00E53E6D
:1005B600252FFFEE353DFEEF25E0FFEE33FEE42F5F
:1005C600FFEE3446FE7B007A00793F751E00751FEC
:1005D60002121D3EE52F600C85291CAB28AD27AF06
:1005E600261219E720006F8066E53B64057067E513
:1005F6002F75F004A4FFE42536CDE53534A0CD2FC4
:10060600FFED35F0FE7B007A007926751E00751F1A
:1006160004121D3E7E00E53E252FFFEE353DFEEF22
:1006260025E0FFEE33FEE42FFFEE3446FE7B007A34
:1006360000793F751E00751F02121D3EE52F600CE6
:1006460085291CAB28AD27AF261219E7200007AD78
:0706560040AF3F121CFD2222
:1015BE00E4F594F593F592F591F596F595F5B2F56A
:1015CE00B1F5B4F5B3F5CAF5C9F5CCF5CBF5E2F541
:1015DE00E1538E7F5389F0438901758ACD758CFE58
:1015EE00C28DD28CD2A9538EBF53890F43892075D9
:1015FE008B12758D12C28FD2ABC28E75985075D765
:10160E008875D6FF758E14438E01D2ACD288D2A8BF
:10161E00D28AD2AAC2AFFF7E28121EF2EF7F00FE40
:10162E00C006C0070F7E28121EF2EFFDD0E02DFF80
:10163E00D0E03400FEEFC4F8540FC868F52DEEC4A8
:10164E0054F048F52C7F007E46121EF2EF7F00FE0E
:10165E00C006C0070F7E46121EF2EFFDD0E02DFF32
:10166E00D0E03400FEEFC4F8540FC868F52BEEC47A
:10167E0054F048F52A7F017E64121EF2EF14F53CF9
:10168E007F017EA0121EF2EF14F5237F5612200B5F
:10169E00755EF1E4F53AAF5E055EA807E6FF74FEEF
:1016AE00253AF582E43400F583EFF074FE253AF521
:1016BE0082E43400F583E0FF12200B053AE53AC3CD
:1016CE00940740D29000FEE064F56010C291C2848F
:1016DE00121F85D291D284121F8580F0121F6C7F4B
:1016EE00C9121F618F3BE53BD394075004E53B7055
:0716FE0003753B01D2AF228E
:03000B00021E468C
:101E4600C0E0C0D075D000C005C007D203C3E4957A
:101E560034FDE49533F58CAF058F8A052F0522D026
:081E660007D005D0D0D0E03216
:1012CD001215BE7BFF7A207920121DB87F55122092
:1012DD000BE53B64026017E53B64046011E53B647C
:1012ED0005600BE53B64066005E53BB408031200A1
:1012FD0026200403021405C204D2022007030213A0
:10130D00E3C2079000E9E0121C9013540813420C3D
:10131D0013A91513661613481813A019135B1C1384
:10132D007740136B4213704513C04713615A134E28
:10133D005E000013D7753B010213D7753B030213F3
:10134D00D7753B020213D7753B04C2018003753B71
:10135D0005E48035753B068071753B07806C753BE8
:10136D00088067B200121F6C8060E53BB40420D288
:10137D000174D02536F53674023535F5350537E56A
:10138D0037D3953C4044E4F537F535F536803B7D54
:10139D00018002E4FDAF4112189A802EE53BB401A5
:1013AD000E0541E541D394054020E4F541801BB283
:1013BD000580177BFF7A207920121DEEE4FD7F8ECC
:1013CD00121FDE7DA57F90121FDEE49000E9F0ADC7
:1013DD003B7FC8121FB1E53BB40108121948120634
:1013ED005D8015E53BB40308121AF612145F8008F0
:1013FD00E53BB407031217D83002030212DE900149
:10140D0005E4F0A304F0E4F53AE53AC39410400383
:10141D000212DE900105E0FEA3E0F526EEF527E5CC
:10142D0026F4FBFFE527F4FDF51C1219E7E526F47C
:10143D00FFE527F4FD121CFD121F8E900106E0251D
:10144D00E0F0900105E033F03002030212DE053AC0
:02145D0080B756
:072020000010222005041549
:02189A008D19A6
:10189C00BF0109751A84751C17E4F51DBF02097583
:1018AC001A82751C3BE4F51DBF0309751A80751C63
:1018BC003BE4F51DBF0409751A88751C0C751D01D8
:1018CC00BF0509751A86751C1F751D01BF060975A4
:1018DC001A8A751C07751D01E51A04FF121F61EFAA
:1018EC00C4540F75F00AA4FFC007E51A04FF121FB9
:1018FC0061EF540FFED0E02EF51BE519B401040581
:10190C001B8002151BE51BD3951C4003851D1BE595
:10191C001BC3951D5003851C1B121FDAE51B75F0AC
:10192C000A84C454F0FFE51B75F00A84EF25F0FD22
:0C193C00AF1A121FDE7D807F8E021FDEBE
:061F9B00C286C2CBD28613
:0F1FA100EF7F08A2E09285D2CBC2CBC313DFF44F
:011FB000220E
:0F1FED007F08C313A28592E7D2CBC2CBDFF4FFEC
:011FFC0022C2
:041FDA00E4FD7F8E15
:0F1FDE00AE05121F9BAF06121FA1D2CBC28622E7
:0F1F5200740DF0A304F07F8B121F618F617F8DE0
:0A1F6100121F9B121FEDD2CBC286A7
:011F6B002253
:101DEE00751980121FDA7C07121C59FDAF19121FCC
:101DFE00DE740129F9E43AFA05190519DCEAE4FD65
:0C1E0E007FC8121FDE7D807F8E021FDE69
:101E1A00751280121FDA7C07121C59FDAF12121FAD
:101E2A00DE740129F9E43AFA05120512DCEAE4FD46
:0C1E3A007FC8121FDE7D807F8E021FDE3D
:101DB8007519807F81121F61EF30E729121FDA7CC5
:101DC80007121C59FDAF19121FDE740129F9E43AF4
:101DD800FA05190519DCEAE4FD7FC8121FDE7D80CB
:051DE8007F8E121FDEDA
:011DED0022D3
:101948007F85121F618F65E565C4540F9000F9F01B
:10195800E565540F9000F8F09000F7740AF07F8363
:10196800121F618F60E560C4540F9000F6F0E560C7
:10197800540F9000F5F09000F4740AF07F81121F64
:10198800618F63E563C4540F9000F3F0E563540F6F
:101998009000F2F07F89121F618F5FE55FC4540FDA
:1019A8009000F1F0E55F540F9000F0F09000EE74B5
:1019B8000BF0A304F07F87121F618F64E564C454A1
:1019C8000F9000EDF0E564540F9000ECF09000EA01
:0619D800121F528F622273
:101AF6007F85121F618F65E565C4540F9000EAF07B
:101B0600E565540FA3F0A3740AF07F83121F618F5B
:101B160060E560C4540FA3F0E560540FA3F0A3740E
:101B26000AF07F81121F618F63E563C4540FA3F02F
:101B3600E563540FA3F07F89121F618F5FE55FC4D1
:101B4600540F9000F9F0E55F540F9000F8F0900004
:101B5600F6740BF0A304F07F87121F618F64E564AF
:101B6600C4540F9000F5F0E564540F9000F4F09023
:081B760000F2121F528F6222DF
:101FB100AC05AB07121FDAAF03AD04121FDE7D8043
:051FC1007F8E021FDE0F
:100B6400FFFF0FF8F7F7FBEFFBEFF7F70FF8FFFFC7
:100B7400FFFFFFFFFBFFFBFF03E0FBF7FBF7FFFFBC
:100B8400FFFFF3F17BEEBBEFDBEFEBEFF3F1FFFFE6
:100B9400FFFF8FF377EDFBEEFBEEFBEFE7F3FFFFD9
:100BA400FFFFDBFF03E0DBF7DBFBDFFC1FFFFFFFE7
:100BB400FFFF8FEF77EFFBEEFBEE7BEF67E0FFFFCE
:100BC400FFFF8FFF77E7FBEEFBEE77F70FF8FFFFF2
:100BD400FFFFFFEFFFE3FFEC03EFFFEFFFE3FFFF98
:100BE400FFFFC7F1BBEE7BEF7BEFBBEEC7F1FFFF6F
:100BF400FFFF0FF877F7BBEFBBEF73F7FFF8FFFFCB
:100C0400FFFFFFFFFFFFF3FCF3FCFFFFFFFFFFFF0E
:100C1400FFFFFFFFFFFF0180BEBBBDBBBFBBBFBB70
:100C2400BFBBBFBBBFBBBFBB0F80F3FFFDFFFEFF5E
:100C3400FFFFFFFFFFFFFFFF0080FDBEFDBEFDBE07
:100C4400FDBEFDBEFDBEFDBE0080FFFFFFFFFFFF3A
:100C5400FFFF03FEFDFDFEFBFEFBFDFD03FEFFFFAC
:100C6400FFFFFDFBFDFB00F8FFFBFFFBFFFFFFFFAA
:100C7400FFFFF1F9FEFA7EFBBEFBCEFBF1F9FFFFAD
:100C8400FFFFF9FCFEFBEEFBEEFBD6FD39FEFFFF9A
:100C9400FFFF1FFF67FF7BFB7DFB00F87FFBFFFF70
:100CA400FFFFC0FCDEFBEEFBEEFBDEFD3EFEFFFFC6
:100CB400FFFF03FEDDFDEEFBEEFBDCFD3FFEFFFF71
:100CC400FFFFF8FFFEFF1EF8E6FFF8FFFEFFFFFF41
:100CD400FFFF71FCAEFBDEFBDEFBAEFB71FCFFFF36
:100CE400FFFFE3FFDDF9BEFBBEFBDDFD03FEFFFFFF
:100CF400FFFFFFFFFFFFE7F9E7F9FFFFFFFFFFFF3C
:100D0400FF7FFFBFFFCF01F0DDFDDDFDDDFDDDFD7C
:100D1400DDFDDDFDDDBDDD7D0180FFFFFFFFFFFFAC
:100D2400FFFFFFFFFFFF01007DBF7DBF7DBF7DBFD4
:100D34007DBF7DBF7DBF0100FFFFFFFFFFFFFFFF02
:100D4400FFFF1FF0EFEFF7DFF7DFEFEF1FF0FFFF1D
:100D5400FFFFFFFFFFDFFFDF07C0EFDFEFDFFFFF76
:100D6400FFFF8FCF77DEF7DDF7DBF7D78FCFFFFFFE
:100D7400FFFFCFF1B7EE77DF77DFF7DFCFE7FFFFD6
:100D8400FFFFFFDB07C0EFDBDFDB3FFBFFF8FFFF0D
:100D9400FFFFF7F1F7EE77DF77DFF7DE07E6FFFF18
:100DA400FFFFFFF1E7EE77DF77DFEFEE1FF0FFFFE6
:100DB400FFFFF7FFC7FF37FFF7C0F7FFC7FFFFFFCE
:100DC400FFFF8FE377DDF7DEF7DE77DD8FE3FFFFED
:100DD400FFFF1FF0EFEEF7DDF7DDEFCE1FFFFFFFA4
:100DE400FFFFFFFFFFFF3FCF3FCFFFFFFFFFFFFFEF
:100DF400FFFFFFFFFFFF0180DD7DDDBDDDFDDDFDCC
:100E0400DDFDDDFDDDFDDDFD01F0FFCFFFBFFF7F7B
:100E1400FFFFFFFFFFFFFFFF01007DBF7DBF7DBF21
:100E24007DBF7DBF7DBF7DBF0100FFFFFFFFFFFFD3
:100E3400FFFFEFFFEFFF0080EF7FEFBFEFF9EFFE63
:100E4400EFFFFFFF03C07BEF7BEF7BEF03C0FFFFF0
:100E5400FFFF7FFFBFFFDFFFEFFF73C07CBF7F7F1C
:100E64007FBF7FFF79F877E76FDFDFBFBF7F7FFF4B
:100E7400FFFF9FFFEFFCF7F3FFEF00D8FFBFC7BFF3
:100E84003F7FFF7EDDF9DCFE01005BFEDBF9DBF773
:100E9400FF837D7D83FFFFFFFFBD01FDFFFFFFFF9C
:100EA400FFB9756D9DFFFFFFFFBB6D6D93FFFFFFE6
:100EB400FFE39B01FBFFFFFFFF0D6D6D73FFFFFF62
:100EC400FF836D6DB3FFFFFFFF3F716F1FFFFFFFD8
:100ED400FF936D6D93FFFFFFFF9B6D6D83FFFFFF1E
:080EE400FFFFBBBBFFFFFFFF96
:101BBE0002440000024600000242000001480001FB
:071BCE004A00C10A014908A9
:101E6E00EF139291EFA2E19290A2E292EBA2E39293
:101E7E00C2A2E492C3A2E592C4A2E692A03392A1BA
:011E8E002231
:101E8F00EF1392CCEFA2E19297A2E29296A2E39285
:101E9F0095A2E49294A2E59293A2E692923392C70E
:011EAF002210
:101EB000EF1392B6EFA2E192C8A2E292B4A2E3922B
:101EC000EFA2E492EEA2E592EDA2E692C03392CDAB
:011ED00022EF
:101ED100EF1392B5EFA2E192C9A2E292B7A2E39207
:101EE100F8A2E492F9A2E592FAA2E692FB3392C13A
:011EF10022CE
:101CFD00EF139284EFA2E19283A2E29282A2E39289
:101D0D0081A2E49280A2E592C6A2E692C53392FF2B
:101D1D00ED1392FEEDA2E192FDA2E292FCA2E392FE
:101D2D00A7A2E492A6A2E592A5A2E692A43392A35D
:011D3D002283
:0919DE00751CFF7BFFAD27AF264D
:1019E700EF1392A1EFA2E192A0A2E292C4A2E39226
:1019F700C3A2E492C2A2E592EBA2E692903392913F
:101A0700ED1392C7EDA2E19292A2E29293A2E39222
:101A170094A2E49295A2E59296A2E692973392CC8D
:101A2700EB1392CDEBA2E192C0A2E292EDA2E39278
:101A3700EEA2E492EFA2E592B4A2E692C83392B680
:101A4700E51C1392B5E51CA2E192C9A2E292B7A2E6
:101A5700E392F8A2E492F9A2E592FAA2E692FB33A6
:031A670092C12207
:101F6C007580FF7590FF75A0FF75B0FF75C0FF758C
:091F7C00C8FF75E8FF75F8FF22AB
:101CB600C4540FFE75F010A42444F582E5F0340DEB
:101CC600F583E5822DF582E5833CF583E493FF7584
:101CD600F010EEA42445F582E5F0340DF583E58297
:0E1CE6002DF582E5833CF583E493FD121CFD91
:081CF4007F997E03DEFEDFFA9A
:011CFC0022C5
:082017007FAA7E03DEFEDFFA62
:01201F00229E
:1017D8002005100547E547700205460543E54370B7
:1017E800020542D3E547952BE546952A4005E4F5E1
:1017F80046F547D3E543952DE542952C4005E4F59C
:1018080042F543E4F544F54520002AE54325E0FF89
:10181800E54233FEE42FFFEE3428FE7B007A0079A0
:1018280026751E00751F02121D3E1219DE0543E5BE
:101838004370020542E54725E0FFE54633FEE42F05
:10184800FFEE3446FE7B007A007926751E00751F70
:1018580002121D3EAD27AF26121CFD0547E5477055
:101868000205461220170545E54570020544C39454
:10187800BEE5449400409174422547F54774FF350E
:1018880046F54674422543F54374FF3542F5420256
:021898001F6CC3
:10145F002005080547E54770020546D3E547952B5C
:10146F00E546952A4005E4F546F547854644854708
:10147F0045E54724BEFFE43546FEC3E5459FE544F9
:10148F009E40030215B0E54AC39408503174EA2513
:10149F004AF582E43400F583E0FEC454F02454F599
:1014AF0082E4340CF58375F002E548121C84E49352
:1014BF00FFEEC454F02455F582E4340C803CE54A29
:1014CF00D394074049E54A9410504374EA254AF5EE
:1014DF0082E43400F583E0FEC454F02464F582E422
:1014EF00340BF58375F002E548121C84E493FFEE8C
:1014FF00C454F02465F582E4340BF58375F002E5EE
:10150F0048121C84E493FD751CFF7BFF8009751C3A
:10151F00FF7BFF7DFF7FFF1219E7200026E54525A2
:10152F00E0FFE54433FEE42FFFEE3446FE7B007A06
:10153F00007926751E00751F02121D3EAD27AF26BE
:10154F00121CFD1220172004650548E548D39407A7
:10155F004041E4F548E54A94085005200A02054A3F
:10156F00E54AD394074018200A15754A14E549D364
:10157F00940040021549E5497005754A07D20AE5FE
:10158F004AC394105005300A02054AE54AB41003C5
:10159F00754A14121F6C0545E54570020544021487
:0F15AF0080C20A754906E4F548F54A121F6C22FE
:10065D00E54160030207780547E54770020546D37B
:10066D00952DE546952C4005E4F546F54785464420
:10067D00854745E54724BEFFE43546FEC3E5459F66
:10068D00E5449E400302076BE54AC3941050427443
:10069D00EA254AF582E43400F583E0FE75F010A4F6
:1006AD002444F582E5F0340DF58375F002E548122A
:1006BD001C84E493FF75F010EEA42445F582E5F05B
:1006CD00340DF58375F002E548121C84E493FD802A
:1006DD00047DFF7FFF121CFD200022E54525E0FF74
:1006ED00E54433FEE42FFFEE3428FE7B007A0079DB
:1006FD0026751E00751F02121D3E1219DE121CF406
:10070D00300403020B630548E548D394074041E4E8
:10071D00F548E54A94085005200A02054AE54AD3F2
:10072D0094074018200A15754A14E549D3940040E2
:10073D00021549E5497005754A07D20AE54AC39481
:10074D00105005300A02054AE54AB41003754A14E3
:10075D00121F6C0545E54570020544020680C20A6C
:10076D00754906E4F548F54A020B60121F6CE54128
:10077D0064016003020843F544F545E54525E0FDB8
:10078D00E54433FCE565121CB70545E545700205EA
:10079D0044C39408E544940040E1121F6CE4F54411
:1007AD00F545E54525E0FDE54433FCE565121CB650
:1007BD000545E54570020544C39408E544940040A1
:1007CD00E1121F6CE4F544F545E54525E0FDE544F2
:1007DD0033FC74342DF582740E3CF583E493FF7471
:1007ED00352DF582740E121CEB0545E5457002059D
:1007FD0044C39408E544940040CF121F6CE4F544C3
:10080D00F545E54525E0FDE54433FC74442DF582C1
:10081D00740E3CF583E493FF74452DF582740E122E
:10082D001CEB0545E54570020544C39408E5449469
:10083D000040CF121F6CE5416402600302090BF505
:10084D0044F545E54525E0FDE54433FCE560121C26
:10085D00B70545E54570020544C39408E544940089
:10086D0040E1121F6CE4F544F545E54525E0FDE555
:10087D004433FCE560121CB60545E54570020544A0
:10088D00C39408E544940040E1121F6CE4F544F56F
:10089D0045E54525E0FDE54433FC74542DF58274A2
:1008AD000E3CF583E493FF74552DF582740E121CE6
:1008BD00EB0545E54570020544C39408E5449400F5
:1008CD0040CF121F6CE4F544F545E54525E0FDE507
:1008DD004433FC74642DF582740E3CF583E493FF70
:1008ED0074652DF582740E121CEB0545E5457002FD
:1008FD000544C39408E544940040CF121F6CE541B4
:10090D00640360030209D3F544F545E54525E0FD93
:10091D00E54433FCE563121CB70545E5457002055A
:10092D0044C39408E544940040E1121F6CE4F5447F
:10093D00F545E54525E0FDE54433FCE563121CB6C0
:10094D000545E54570020544C39408E5449400400F
:10095D00E1121F6CE4F544F545E54525E0FDE54460
:10096D0033FC74742DF582740E3CF583E493FF749F
:10097D00752DF582740E121CEB0545E545700205CB
:10098D0044C39408E544940040CF121F6CE4F54431
:10099D00F545E54525E0FDE54433FC74842DF582F0
:1009AD00740E3CF583E493FF74852DF582740E125D
:1009BD001CEB0545E54570020544C39408E54494D8
:1009CD000040CF121F6CE54164046003020A9BF5E1
:1009DD0044F545E54525E0FDE54433FCE55F121C96
:1009ED00B70545E54570020544C39408E5449400F8
:1009FD0040E1121F6CE4F544F545E54525E0FDE5C4
:100A0D004433FCE55F121CB60545E545700205440F
:100A1D00C39408E544940040E1121F6CE4F544F5DD
:100A2D0045E54525E0FDE54433FC74F42DF5827470
:100A3D000D3CF583E493FF74F52DF582740D121CB6
:100A4D00EB0545E54570020544C39408E544940063
:100A5D0040CF121F6CE4F544F545E54525E0FDE575
:100A6D004433FC74042DF582740E3CF583E493FF3E
:100A7D0074052DF582740E121CEB0545E5457002CB
:100A8D000544C39408E544940040CF121F6CE54122
:100A9D0064056003020B63F544F545E54525E0FD6E
:100AAD00E54433FCE564121CB70545E545700205C8
:100ABD0044C39408E544940040E1121F6CE4F544EE
:100ACD00F545E54525E0FDE54433FCE564121CB62E
:100ADD000545E54570020544C39408E5449400407E
:100AED00E1121F6CE4F544F545E54525E0FDE544CF
:100AFD0033FC74142DF582740E3CF583E493FF746E
:100B0D00152DF582740E121CEB0545E54570020599
:100B1D0044C39408E544940040CF121F6CE4F5449F
:100B2D00F545E54525E0FDE54433FC74242DF582BE
:100B3D00740E3CF583E493FF74252DF582740E122B
:100B4D001CEB0545E54570020544C39408E5449446
:070B5D000040CF121F6C22C3
:031BD500014E00BE
:03001B00021FC6FB
:101FC600C0E0C0D00553E553D394FA4002D208D0FE
:041FD600D0D0E03255
:10170500E4F510C2AAF54B754C00754D4FFFE4FE8C
:1017150074C82510F582E43400F583E0FDD3940404
:1017250040047C0180027C00EDC3940950047D01D6
:1017350080027D00ED5C601BAB4BAA4CA94D121CD1
:1017450059C313121C72AB4BAA4CA94D121C595408
:101755007F804174C82510F582E43400F583E0FDEF
:10176500D3940B40047C0180027C00EDC39410509F
:10177500047D0180027D00ED5C601CAB4BAA4CA989
:101785004D121C59C313121C72AB4BAA4CA94D1216
:101795001C594480121C7205100EEE640860030289
:1017A50017157401254DF54DE4354CF54C0FEF64D7
:1017B500046003021713E5522551FFE433FEEFF4ED
:1017C5004E9000E97007E551F0D207800374FFF0F1
:0217D500D2AA96
:0117D70022EF
:03001300021BEEDF
:0B1BEE00C0E0C083C082C0D075D008EA
:101BF900D28E85535475530030080EC208754E00B5
:101C0900755300C209C206803EA20672095020AF70
:101C19004E054E74C82FF582E43400F583E554F07F
:101C2900E54EB4200A754E00C209C28E121705E5A9
:101C390054D394354005D209754E00E554D39472B6
:071C49004005D206754E00B4
:091C5000D0D0D082D083D0E03264
:0E1FFD00E4F5C7F5C5F5C675C3FF75C4FF2230
:101D3E00AD07AC06C2AF75C78275C5018CC3AF05C2
:101D4E008FC475C65A75C6A500E5C2121C720DBDAC
:101D5E0000010C740129F9E43AFAE51F151F70020F
:0D1D6E00151E14451E70D5121FFDD2AF22A8
:101EF200AD07AC06C2AF75C78275C5018CC3AF050D
:101F02008FC475C65A75C6A500121FFDD2AFAFC2E7
:011F120022AC
:101F3300AD07AC06C2AF8CC3AF058FC475C782753E
:0F1F4300C50375C65A75C6A500121FFDD2AF2281
:101D7B00AD07AC06C2AF75C78275C5028CC3AF0584
:101D8B008FC4121C59F5C275C65A75C6A5000DBD78
:101D9B0000010C740129F9E43AFAE51815187002E0
:0D1DAB00151714451770D5121FFDD2AF2279
:101BD800C10B015700015500015800025A000001CD
:051BE800590001560048
:0C200B00C2AF8F993099FDC299D2AF226C
:030023000210F5D3
:1010F500C0E0C0F0C083C082C0D075D000C000C0C1
:0D11050001C002C003C004C005C006C00741
:101112002098030212B2C298AF99E55514601A14CE
:10112200602414602E14603814606424057067EF24
:10113200645A706575550180608F5CE55C2557F5D2
:101142005775550280538F56E5562557F5577555F5
:101152000380468F5DE55D2557F557755504803947
:10116200E558C3955D5016EF2557F557740025587D
:10117200F582E43400F583EFF00558801CE557B59D
:10118200070B755700755800755505800C8007BF11
:10119200A507D20B8000755500200B030212B2C2C4
:1011A2000BE55C24E07003021286241FB4090040A0
:1011B200030212B29011C475F003A4C58325F0C5D1
:1011C20083730211DF0212210212660212660212F8
:1011D200420212660212A402120002126675110085
:1011E200E51125E0FEE42400FFEE3428FE121F3351
:1011F2000511E511C3940F40E7755A2880617511F6
:101202000FE51125E0FEE42400FFEE3428FE121F54
:10121200330511E511C3941E40E7755A46804075A7
:10122200111EE51125E0FEE42400FFEE3428FE1233
:101232001F330511E511C3943C40E7755A64801FC2
:1012420075113CE51125E0FEE42400FFEE3428FE92
:10125200121F330511E511C3946640E7755AA07554
:101262005B0080477B017A007900751700855D1865
:10127200AF5BAE5A121D7BE55D255BF55BE4355A2B
:10128200F55A8027755EF1751100AF5E055EA807FD
:10129200E6FF12200B0511E511C3940740EC7F56BF
:1012A200800B7B017A007900121E1A7F0612200B36
:1012B200D007D006D005D004D003D002D001D00090
:0B12C200D0D0D082D083D0F0D0E0323A
:03000000021A6A77
:0C1A6A00787FE4F6D8FD758165021AB1A2
:101C5900BB010689828A83E0225002E722BBFE0289
:091C6900E32289828A83E49322BC
:101C7200BB010689828A83F0225002F722BBFE0151
:021C8200F3224B
:0C1C8400A42582F582E5F03583F583226B
:101C9000D083D082F8E4937012740193700DA3A3E3
:101CA00093F8740193F5828883E4737402936860F7
:061CB000EFA3A3A380DFF7
:101A76000212CDE493A3F8E493A34003F68001F2A7
:101A860008DFF48029E493A3F85407240CC8C33371
:101A9600C4540F4420C8834004F456800146F6DF40
:101AA600E4800B0102040810204080901B7EE47E37
:101AB600019360BCA3FF543F30E509541FFEE49335
:101AC600A360010ECF54C025E060A840B8E493A3FC
:101AD600FAE493A3F8E493A3C8C582C8CAC583CA27
:101AE600F0A3C8C582C8CAC583CADFE9DEE780BEDF
:011BED0000F7
:00000001FF
