:10056800486F772061726520796F753F0D0A006EBC
:10057800524632344C3031502053656E64205374E7
:10058800617274A3A10D0A0053656E643A00536545
:100598006E64204F4B210D0A0052656365697665CC
:1005A80064207265706C793A0053656E6420466108
:0605B800696C210D0A0030
:0F089C00430037000000420035000041003A00E1
:1006E30043B283E5B920E52BE4F5B9F5B943B98005
:1006F300FFFE0FBF00010EEF64C84E70F543B9C093
:10070300E4FEFF0FBF00010EBE07F8BFD0F5E5B949
:0607130030E5FB75A903AF
:0107190022BD
:1007AA00E4F5F843A14075A20A75F80143E1024352
:0907BA00A40F43800F43D4012277
:1007F00053F87FE5F830E1FB8FA3E5F830E7FB53D2
:05080000F87FAFA32208
:10082F00758D30758B3053883F53890F4389204323
:03083F00884022CC
:0C08C80075981043A81043A41002082FDC
:030023000203BD18
:1003BD00C0E0C0F0C083C082C0D075D000C000C006
:1003CD0001C002C003E59830E1455398FD9000351A
:1003DD00E07002A3E06031900037E0FBA3E0FAA3E8
:1003ED00E0F94A6023A37401F012011CF599900005
:1003FD0036E024FFF0900035E034FFF0900038E453
:10040D0075F001120184800F90003AE4F08008E548
:10041D009830E0035398FED003D002D001D000D025
:0A042D00D0D082D083D0F0D0E032AE
:10078C00EF1FAA0670011E4A6013E4FCFDC3ED9432
:0D079C0088EC941350EA0DBD00010C80F0B4
:0107A900222D
:1000030090003AE070FA900037EBF0A3EAF0A3E92E
:0F001300F0AF05900035ECF0A3EFF04398022218
:10071A00900025EBF0A3EAF0A3E9F0900025E0FBB6
:10072A00A3E0FAA3E0F912081AAC06AD0790002577
:0B073A00E0FBA3E0FAA3E0F9020003DB
:1001B00090000274FFF0A37405F0A37468F043E2AA
:1001C0004043E1011206E31207AA1208C8D2AF1297
:1001D00003401208ACE4FF1208D47BFF7A0579775C
:1001E00012071AE4900000F07F0A7E0012078C903C
:1001F0000000E004F0E0C394C840ED120854120877
:10020000427BFF7A05799012071A900002E0FBA367
:10021000E0FAA3E0F912071A900002E0FBA3E0FA6B
:10022000A3E0F912081AAD07900002E0FBA3E0FA80
:10023000A3E0F91204A712088A900000EFF05470AE
:10024000F07F017E0012078CE0FF60EAEF30E54CA2
:100250007BFF7A05799612071AE4900000F090006F
:1002600000E0FFC39420501474052FF582E434009D
:10027000F583E4F0900000E004F080E27B017A0076
:100280007905120437900001EFF07BFF7A0579A120
:1002900012071A7B017A00790512071A900000E014
:1002A00030E4097BFF7A0579B112071A7F701206D4
:0402B000AA0201E3BA
:0508E5000102030405FF
:100805005390EF43A5101207F07FFF1207F04390B6
:040815001043A510D7
:0108190022BC
:0E05BE0090003BEDF0A3EBF0A3EAF0A3E9F010
:1005CC005390EF43A5101207F0E490003FF0900019
:1005DC003BE0FF90003FE0C39F50237FFF1207F0EA
:1005EC0090003CE0FBA3E0FAA3E0F9A3E0F58275F0
:1005FC008300EF12016290003FE004F080D0439042
:04060C001043A510E2
:0106100022C7
:10076B0090002AEDF05390EF43A510EF4420FF12B9
:10077B0007F090002AE0FF1207F043901043A510FA
:01078B00224B
:0B061100900030EBF0A3EAF0A3E9F04A
:10061C005390EF43A510EF4420FF1207F0E4900035
:10062C0034F0900033E0FFA3E0FEC39F501F900016
:10063C0030E0FBA3E0FAA3E0F98E8275830012018F
:10064C0035FF1207F0900034E004F080D543901091
:03065C0043A510A3
:01065F002278
:100842005390EF43A5107FE11207F043901043A5A8
:02085200102272
:100854005390EF43A5107FE21207F043901043A595
:02086400102260
:100866005390EF43A5107FE31207F043901043A582
:0208760010224E
:100878005390EF43A5107FFF1207F043901043A554
:0208880010223C
:10088A005390EF43A5107F071207F043901043A53A
:01089A00104D
:01089B00223A
:0506AA0090002AEFF0B2
:1006AF00E4A3F0EF547090002AF012088A90002B08
:1006BF00EFF05390EF43A5107F271207F090002B18
:1006CF00E0FF90002AE04FFF1207F043901043A580
:0406DF001002088A73
:0808DD0012088AEF5470FF229B
:1007C3005390EF43A5107F601207F07FFF1207F0ED
:0607D30043901043A51045
:0107D90022FD
:0B043700900025EBF0A3EAF0A3E9F031
:100442007F07120805EFC3135407900029F0120723
:10045200C3900028EFF05390EF43A5107F6112077D
:10046200F0E4900029F0900028E0FFA3E0C39F5041
:10047200257FFF1207F0900025E0FBA3E0FAA3E03E
:10048200F9900029E0F582758300EF120162900075
:1004920029E004F080D043901043A5101208549034
:0404A2000028E0FF4F
:0104A6002233
:0B04A700900025EBF0A3EAF0A3E9F0C1
:1004B200EDD3942040047F208002AF05900029EF05
:1004C200F01208425390EF43A5107FA01207F0E408
:1004D200900028F0900029E0FF900028E0FEC39FE2
:1004E200501F900025E0FBA3E0FAA3E0F98E82758D
:1004F2008300120135FF1207F0900028E004F0801B
:07050200D343901043A51044
:0105090022CF
:10066000900045EBF0A3EAF0A3E9F0A3EDF0D394FA
:10067000205036E060335390EF43A5107FB0801ECA
:10068000900048E0FF14F0EF6019900045E0FBA3F4
:10069000E475F00112019AA9F0FA12011CFF120789
:0A06A000F080DD43901043A5102206
:0B050A00900040EBF0A3EAF0A3E9F042
:10051500EDD3942040047F208002AF05900043EF87
:10052500F05390EF43A5107FA81207F0E490004424
:10053500F0900043E0FFA3E0FEC39F501F900040F2
:10054500E0FBA3E0FAA3E0F98E8275830012013582
:10055500FF1207F0900044E004F080D5439010436B
:02056500A510DF
:010567002271
:1007DA00EDD3940540047F058002AF05900033EF06
:0607EA00F07F1002061171
:1007450090002EE0FED3940540067D057E058000D1
:10075500EFD3940540047F058000EF240AFF900045
:0607650033EEF002061164
:0908D400EF547FFD7F0502076B64
:0E08AC00E4FF120805EF54FEFDE4FF02076BA7
:0E08BA00E4FF120805EF4401FDE4FF02076BA6
:1003400078257C007D017BFF7A0879E57E007F05BA
:100350001200F67F701206AA7D017F1C12076B7DCA
:10036000077F1D12076B7F1C1208057F1D120805F1
:100370007D0AE4FF12076B7D017F0112076B7D018F
:100380007F0212076B7D037F0312076B7DFF7F04E3
:1003900012076BE4FD7F0512076B7D267F061207AF
:1003A0006B7B017A0079257D051207DA7B017A00E3
:0D03B000792590002E7405F0E4FF0207454A
:030000000202B445
:0C02B400787FE4F6D8FD7581070202FB9C
:10002600E709F608DFFA8046E709F208DFFA803EBC
:1000360088828C83E709F0A3DFFA8032E309F608A9
:10004600DFFA8078E309F208DFFA807088828C8311
:10005600E309F0A3DFFA806489828A83E0A3F608C5
:10006600DFFA805889828A83E0A3F208DFFA804C9F
:1000760080D280FA80C680D4806980F28033801076
:1000860080A680EA809A80A880DA80E280CA8033DF
:1000960089828A83ECFAE493A3C8C582C8CCC58357
:1000A600CCF0A3C8C582C8CCC583CCDFE9DEE78027
:1000B6000D89828A83E493A3F608DFF9ECFAA9F0A6
:1000C600EDFB2289828A83ECFAE0A3C8C582C8CCFC
:1000D600C583CCF0A3C8C582C8CCC583CCDFEADE15
:1000E600E880DB89828A83E493A3F208DFF980CC77
:1000F60088F0EF60010E4E60C388F0ED2402B40470
:100106000050B9F582EB2402B4040050AF23234516
:06011600822390007673C5
:10011C00BB010689828A83E0225002E722BBFE02E1
:09012C00E32289828A83E4932214
:10013500BB010CE58229F582E5833AF583E022507F
:1001450006E92582F8E622BBFE06E92582F8E222C9
:0D015500E58229F582E5833AF583E49322E3
:10016200F8BB010DE58229F582E5833AF583E8F0D3
:10017200225006E92582C8F622BBFE05E92582C87F
:02018200F22267
:10018400C5F0F8A3E028F0C5F0F8E5821582700206
:060194001583E038F022A3
:10019A00A3F8E0C5F025F0F0E58215827002158318
:0601AA00E0C838F0E82275
:10081A00E4FFFE12011C600C0FEF70010E09E97073
:05082A00F20A80EF223C
:1002C0000201B0E493A3F8E493A34003F68001F2A3
:1002D00008DFF48029E493A3F85407240CC8C3333F
:1002E000C4540F4420C8834004F456800146F6DF0E
:1002F000E4800B010204081020408090089CE47EFA
:10030000019360BCA3FF543F30E509541FFEE49302
:10031000A360010ECF54C025E060A840B8E493A3C9
:10032000FAE493A3F8E493A3C8C582C8CAC583CAF4
:10033000F0A3C8C582C8CAC583CADFE9DEE780BEAC
:0108AB00004C
:00000001FF
