:10000000020C1578307403F2E408F20804F208F2E6
:10001000E408F208743CF20874B0F2087401F27B50
:10002000FE7A0079307F02020794220210DC7830D9
:10003000E2FC08E2FD08E2FE08E2FF227838E2FD79
:1000400054F0C4540F75F00AA4FFED540F7C002F38
:10005000FFEC35F0FE22120277AC00AD01AE02AF2C
:02006000032279
:10006300020EC9E709F608DFFA8046E709F208DF5E
:10007300FA803E88828C83E709F0A3DFFA8032E3BB
:1000830009F608DFFA8078E309F208DFFA8070885E
:10009300828C83E309F0A3DFFA806489828A83E098
:1000A300A3F608DFFA805889828A83E0A3F208DF87
:1000B300FA804C80D280FA80C680D4806980F28036
:1000C30033801080A680EA809A80A880DA80E2805C
:1000D300CA803389828A83ECFAE493A3C8C582C8B1
:1000E300CCC583CCF0A3C8C582C8CCC583CCDFE91B
:1000F300DEE7800D89828A83E493A3F608DFF9ECB7
:10010300FAA9F0EDFB2289828A83ECFAE0A3C8C541
:1001130082C8CCC583CCF0A3C8C582C8CCC583CC68
:10012300DFEADEE880DB89828A83E493A3F208DFD7
:10013300F980CC88F0EF60010E4E60C388F0ED24A7
:1001430002B4040050B9F582EB2402B4040050AFAA
:1001530023234582239000B673BB010689828A83D9
:10016300E0225002E722BBFE02E32289828A83E473
:100173009322BB010CE58229F582E5833AF583E0FE
:10018300225006E92582F8E622BBFE06E92582F81D
:10019300E222E58229F582E5833AF583E49322EFAF
:1001A3008DF0A4A8F0CF8CF0A428CE8DF0A42EFE61
:1001B30022BB0110E58229F582E5833AF583E0F558
:1001C300F0A3E0225009E92582F886F008E622BB75
:1001D300FE0AE92582F8E2F5F008E222E5832AF532
:1001E30083E993F5F0A3E99322E88FF0A4CC8BF095
:1001F300A42CFCE98EF0A42CFC8AF0EDA42CFCEAE0
:100203008EF0A4CDA8F08BF0A42DCC3825F0FDE919
:100213008FF0A42CCD35F0FCEB8EF0A4FEA9F0EB0F
:100223008FF0A4CFC5F02ECD39FEE43CFCEAA42D1B
:10023300CE35F0FDE43CFC2275F008758200EF2F0B
:10024300FFEE33FECD33CDCC33CCC58233C5829B99
:10025300ED9AEC99E58298400CF582EE9BFEED9ABF
:10026300FDEC99FC0FD5F0D6E4CEFBE4CDFAE4CC5B
:10027300F9A88222B800C1B90059BA002DEC8BF05D
:1002830084CFCECDFCE5F0CBF97818EF2FFFEE331A
:10029300FEED33FDEC33FCEB33FB10D70399400445
:1002A300EB99FB0FD8E5E4F9FA227818EF2FFFEE6C
:1002B30033FEED33FDEC33FCC933C910D7059BE99D
:1002C3009A4007EC9BFCE99AF90FD8E0E4C9FAE4F9
:1002D300CCFB2275F010EF2FFFEE33FEED33FDCC98
:1002E30033CCC833C810D7079BEC9AE899400AED82
:1002F3009BFDEC9AFCE899F80FD5F0DAE4CDFBE42A
:10030300CCFAE4C8F922EB9FF5F0EA9E42F0E99DAE
:1003130042F0E89C45F022E8600FEFC333FFEE3371
:10032300FEED33FDEC33FCD8F122ECF208EDF208DC
:10033300EEF208EFF222D083D082E493F208740144
:1003430093F208740293F208740393F2740473EC47
:100353008EF0A4CCC5F0CCCDF8EFA4CEC5F02DFD26
:10036300E43CFCE8A42EC8C5F03DFDE43CFCEFA44E
:10037300FFE5F028FEE43DFDE43CFC22120CA178ED
:1003830014E26406700218E270077813F208740529
:10039300F27814E26403700218E270077813F2082B
:1003A3007402F2780AE220E05F7813E2FE08E2FFCB
:1003B3007808E2FC08E2FD1206086408700218E2FD
:1003C30060031205B37814E26407700218E2600355
:1003D3001205C11205EB6405700218E260031205F1
:1003E300CF7814E26404700218E260031205DD1290
:1003F300061A700218E260031205FA7814E2640127
:10040300700218E26069805A7813E2FE08E2FF7D09
:100413000C7C001206086408700218E260031205DF
:10042300B37814E26407700218E260031205C11284
:1004330005EB6405700218E260031205CF7814E23D
:100443006404700218E260031205DD12061A7002DA
:1004530018E260031205FA7814E26401700218E2EC
:10046300600D7824E2FD7C007F017E0012062B786C
:100473000CE26401700218E2703B780BF208F27828
:1004830021E26405700218E270077820F208740410
:10049300F27821E26402700218E270067820F20812
:1004A30004F2780808E2FF782008E2FD120FF474E2
:1004B300242DF8EFF2C37813E264809480400302A2
:1004C300037F782BE2C3940340030205B27828E24A
:1004D300C3940640030205B27825E2C394064003A1
:1004E3000205B2782AE2FF7E007C277D10120352B8
:1004F300C004C005C006C007782BE2FFE4FCFDFE84
:100503007BA07A867901F81201ECD003D002D001E6
:10051300D000EF2BFFEE3A120FD5C0047828120F4C
:10052300EBFF7E007C037DE81201A2E4FCFDD0001A
:10053300EB2FFFEA3E120FD5C0047827120FEB759D
:10054300F064A4FFE4FCFDD000120FCFC004A905A2
:10055300AA06AB077825E275F00AA4FFE4FCFDD0F8
:1005630000120FCFC004A905AA06AB077824E2FF47
:10057300E4FCFDFED000EB2FFFEE3A120FD5780D11
:1005830012032D780D120FDF1208EAE47808F2083F
:10059300F2120A34782B740AF218F27828F218F25D
:1005A3007825F218120FFD7813E4F2087409F22289
:1005B300782BE2FD7C007F087E0012062B22782A2E
:1005C300E2FD7C007F077E0012062B227828E2FDE5
:1005D3007C007F057E0012062B227827E2FD7C003B
:1005E3007F047E0012062B227D0A7C007F067E009C
:1005F30012062B7814E2227825E2FD7C007F027E2E
:100603000012062B2212062B7D0B7C007F097E0035
:1006130012062B7814E2227D0A7C007F037E0012EF
:10062300062B7814E26402227830EEF208EFF20827
:10063300ECF208EDF2087C007DFE7BFF7A1079E096
:100643007E007F28120136D2A0C2A1783008E225AD
:10065300E02432F8E4F20804F27832E2FE08E2FF22
:10066300EE600302074CEFB41100400302074C9005
:100673000679F82828730206AC0206B70206BD0203
:1006830006CB0206D80206E20206EF0207020207C1
:100693000902071102071902071D02074C0207216D
:1006A30002072F02073B020742120E7E120EBC788E
:1006B3004A020747120EAA020747120EB4785212D3
:1006C3000E9D120EBC08807C120EB47852120E9D41
:1006D300120E87806F784A120E9D120EA580651246
:1006E3000EB4784A120E9D120E878058120EB478FB
:1006F3004AE4F20804F208120E9D120E8780457830
:1007030054120EA5803E120E77120E968036120EEC
:1007130077120E9D802E7848802A78468026784A64
:10072300E4F20804F27854120E968018120E8CE448
:10073300F20804F2784C800C7850120E96800578FB
:100743004E120E96E4F20804F2E4785CF208F2C268
:10075300A21210CF785C08E225E02435F9E36401A6
:10076300700219E37004D2A38002C2A31210CFD285
:10077300A21210CF785DE22401F218E23400F2C332
:1007830008E2941418E26480948040C3D2A1C2A00A
:1007930022AD07EDD3940240037F0122ED706EC2B8
:1007A3008C12103FB40104D2A98002C2A9900001A7
:1007B300120175B40104D2B98002C2B912015CFE00
:1007C300D3940340037F0222E58954FC121030FFC7
:1007D300B40103538E7FEF7003438E80EFB40205A1
:1007E30043890480035389FB121045B40105438FE9
:1007F300018003538FFE121039E5F0F58C12103986
:10080300F58A12104BB40102D28C7F0022ED6401F1
:10081300706EC28E12103FB40104D2AB8002C2AB21
:10082300900001120175B40104D2BB8002C2BB1255
:10083300015CFEC3940340037F0222E58954CF1277
:100843001030FFB40103538EBFEF7003438E40EFAC
:10085300B4020543894080035389BF121045B40194
:1008630005438F028003538FFD121039E5F0F58D98
:10087300121039F58B12104BB40102D28E7F002275
:10088300ED6402705F538EEF12103FB4010543AF66
:1008930004800353AFFB121033FED3940240037F53
:1008A3000222EEB40103538EFB1210337003438E06
:1008B30004121033B40205438E088003538EF712DB
:1008C3001045B40105438F048003538FFB12103985
:1008D300FDACF0ECF5D68DD712104BB40103438E6B
:1008E300107F00227F0222783012032D1210867FA0
:1008F30064120F577F10120F577F80120A167F0F53
:10090300120F577F84120A16E4FF120F57E47B6419
:10091300FAF9F8C00012002ED000120056E47B0A48
:10092300FAF9F8120277C004C005C006C007E47BD9
:100933000AFAF9F8C00012002ED00012005678040B
:1009430012031AD003D002D001D000EB4FFFE84CC2
:10095300120F57E47B107A27F9F8C00012002ED04B
:1009630000120056E47BE87A03F9F8120277780460
:1009730012031AC004C005C006C007E47BE87A036B
:10098300F9F8C00012002ED000120056E47B64FA7E
:10099300F9F8120277D003D002D001D000EF4BFF59
:1009A300EC48120F577BA07A8679017800C00012B9
:1009B300002ED000120056E47B107A27F9F81202B9
:1009C30077C004C005C006C0077BA07A867901788A
:1009D30000C00012002ED000120277780412031A0E
:1009E300D003D002D001D000EB4FFFEA4EFEE94D19
:1009F300FDE84CFCEF4480FFEC120A257F0F120F39
:100A030057E4FF120A257F10120F57E4FF120F5706
:100A130002109A120F5712109A1210867F64120F47
:100A23005722120F5712109A1210867F64120F5713
:100A330022783012033900000000120AE4783012E1
:100A4300032D7BA07A8679017800C000121007D0AD
:100A5300001210157B107A27F9F8120277C0077B72
:100A6300A07A8679017800C000121007D000121016
:100A730024D0E02F781FF2E47B107A27F9F8C00026
:100A8300121007D0001210157BE87A03121022C04F
:100A930007E47BE87A03F9F8C000121007D00012CC
:100AA30010157B64FAF9F8120277D0E02F7819F267
:100AB300E47B64FAF9F8C000121007D00012101595
:100AC3007B0AFA121022C007E47B0AFAF9F8C00085
:100AD300121007D000120277AF03D0E02F780AF28A
:100AE30022783412033900000000E47838F212103F
:100AF300867F65120F57120F967838EFF27834E23B
:100B0300FB08E2F908E2FA08E2CBF8C00012003C65
:100B1300E4FDD000120B5CC00012003C7D641201A6
:100B2300A2E4FDD000120B5CC0007838E2FD5470E3
:100B33001200427C277D10120352D000EB2FFFEAF4
:100B43003EFEE93DFDE83CFC783412032D1210D63D
:100B530012109A783412003022EB2FFFEA3EFEED9A
:100B630039FDEC38FC783412032D1210D6120F968F
:100B73007838EFF27834E2FB08E2F908E2FA08E2A7
:100B8300CBF822E4FFE5B05408131313541F780085
:100B9300F2E5B05440C41313540308F2E5B0548093
:100BA300C4131313540108F27800E2FE600808E24C
:100BB300600408E270387804E204F2E264047051DD
:100BC3000804F2EE700A780304F2E47800F280413C
:100BD3007801E2700B78037402F2E47801F2803159
:100BE3007802E2702C087403F2E418F28023E478AC
:100BF30004F208E2B4011AE4F27803E224FE600B83
:100C030014600C2402700A7F0180067F0280027F39
:100C13000322787FE4F6D8FD758107020C5C020D90
:100C2300A6E493A3F8E493A34003F68001F208DF5C
:100C3300F48029E493A3F85407240CC8C333C454A1
:100C43000F4420C8834004F456800146F6DFE48055
:100C53000B0102040810204080900E10E47E0193E3
:100C630060BCA3FF543F30E509541FFEE493A36027
:100C7300010ECF54C025E060A840B8E493A3FAE482
:100C830093A3F8E493A3C8C582C8CAC583CAF0A3D3
:100C9300C8C582C8CAC583CADFE9DEE780BE120BB6
:100CA300867E007806EEF208EFF264017017780989
:100CB300120FF308E2F4700318E2F4706A7808F292
:100CC300087409F2227806E2FE08E2FF64024E701D
:100CD30036782DE2700218E27012782CF20804F2D2
:100CE3007813E4F2087409120FFD8007780BE4F21D
:100CF3000804F27814E2700218E27005782CF20806
:100D0300F27814120FF322EF64034E701A7809E29B
:100D13002401F218E23400F208E2640A700218E2D5
:100D230070057808F208F222781F7F08120D8C787C
:100D33001F7F07120D7C78197F05120D8C78197FA0
:100D430004120D7C780AE275F00A84FD7C007F02B0
:100D53007E0012062B780AE275F00A84E5F0FD7F27
:100D630001120D9A7F097E0012062B7D0C7F06125D
:100D73000D9A7F037E0002062BE275F00A84E5F0EC
:100D8300FD7C007E0012062B22E275F00A84FD7CB6
:100D9300007E0012062B227C007E0012062B7D0CA7
:100DA3007C0022C2AF12002A120003120E05120E9B
:100DB30005120A34D2AF120FDDE4FAF9F8EF240179
:100DC300FFEA3EFEE93DFDE83CFC781512032D7871
:100DD3002DE26401700218E2700312037F120FDD2B
:100DE3007BA07A8679017800C3120309700C120A7A
:100DF30034781512033900000000120D2B120CA1D8
:100E030080B47FFA1210AC7FFA1210AC22811F0C4F
:100E130081193B810A3B811200811C0C81110181E4
:100E23002F01812E00811A01811B0088240A0A0ADE
:100E33000A0A0A0A0A8213000982080001822C00A6
:100E43000082200007840D00000000820B00008256
:100E53001D000082220000841500000000810000B4
:100E63008101008102008103008104008105008269
:100E730006000000784AE4F20804F27854E4F20829
:100E830004F27852E4F20804F27850E4F20804F22F
:100E9300784E22E4F20804F2784CE4F20804F27883
:100EA3004822E4F20804F27852E4F20804F278509B
:100EB300227854E4F20804F222E4F20804F2784CB3
:100EC300E4F20804F222C0E0C0D075D000C000787C
:100ED30012E204F2E2C394284007E4F2780AE2043F
:100EE300F2780AE2C3943C4007E4F27819E204F290
:100EF3007819E2C3943C4007E4F2781FE204F278E5
:100F03001FE2C394184002E4F2D000D0D0D0E03204
:100F1300C2D5E830E70FB2D5E4C39BFBE49AFAE409
:100F230099F9E498F8EC30E717B2D5120F49120299
:100F330077E4C39BFBE49AFAE499F9E498F8800315
:100F430012027730D50DE4C39FFFE49EFEE49DFDBE
:100F5300E49CFC227839EFF2E408F2F21210C7782D
:100F630039E25480FFC4131313540124FF9293D224
:100F73009412106D50037F01221210C7C294783966
:100F8300E2FF25E0F208E204F2E2C3940840CD1246
:100F9300105122E47839F208F2F2D293D29412106B
:100FA3006D50037F01221210C77839E2FF25E0F26A
:100FB300309304E24401F2C2941210C7783AE20477
:100FC300F2E2C3940840D37839E2FF22EB2FFFEA21
:100FD30035F0FEED39FDEC38FC227815E2FC08E231
:100FE300FD08E2FE08E2FF22A905AA06AB07E222FA
:100FF300E224FFF218E234FFF222F27820E4F2084E
:101003007407F2227830E2FC08E2FD08E2FE08E20F
:10101300FF22120277AC00AD01AE02AF03E422F966
:10102300F8120277E47B0AFAF9F80201EC4EF5892B
:101033009000030201759000050201B490000202C2
:101043000175900004020175900007020175D293A7
:10105300D29412106D50037F01221210C7309305F2
:10106300C2947F0122C2947F00227F367E072094A0
:101073000BEF4E6007EF1F70F51E80F2EF4EC3704B
:1010830001D3221210C7D294D2931210C7C2931263
:1010930010C7C2940210C71210C7C2931210C7D24E
:1010A300941210C7D2930210C77D367C07ED1D70D2
:1010B300011C144C70F7DFF122D29412106D121040
:1010C300C7C294220000007F32DFFE2200007F09A6
:1010D300DFFE22C2931210BC2253BCEF3200000089
:1010E30000000000000000000000000000000000FD
:1010F30000000000000000000000000000000000ED
:051103000000000000E7
:00000001FF
