:020000040800F2
:10000000C07A00203D030008BB180008D71700087D
:10001000B9180008C10800084923000800000000C2
:100020000000000000000000000000008502000841
:10003000C308000800000000D9020008711E000873
:10004000570300085703000857030008651E0008FF
:100050005703000857030008570300085703000818
:100060005703000857030008570300085703000808
:1000700057030008570300085703000857030008F8
:1000800057030008570300085703000857030008E8
:1000900057030008570300085703000857030008D8
:1000A00057030008570300085703000857030008C8
:1000B00057030008570300085703000857030008B8
:1000C00057030008570300085703000857030008A8
:1000D000570300081D2300085703000857030008B2
:1000E00057030008451D0008570300085703000880
:1000F0005703000857030008570300085703000878
:100100005703000857030008570300085703000867
:100110005703000857030008570300085703000857
:100120005703000857030008570300085703000847
:100130005703000857030008570300085703000837
:100140005703000857030008570300085703000827
:100150005703000857030008570300085703000817
:100160005703000857030008570300085703000807
:100170005703000857030008570300080000000059
:10018000570300085703000800F002F800F06AF86F
:100190000AA090E8000C82448344AAF10107DA45E2
:1001A00001D100F05FF8AFF2090EBAE80F0013F0CA
:1001B000010F18BFFB1A43F001031847E473000056
:1001C000047400000A444FF0000C10F8013B13F0D7
:1001D000070408BF10F8014B1D1108BF10F8015BA0
:1001E000641E05D010F8016B641E01F8016BF9D193
:1001F00013F0080F1EBF10F8014BAD1C0C1B09D1EA
:100200006D1E58BF01F801CBFAD505E014F8016B5B
:1002100001F8016B6D1EF9D59142D6D370470000ED
:100220000023002400250026103A28BF78C1FBD8FF
:10023000520728BF30C148BF0B607047642900F0E7
:100240001D81752900F01A81632900F068827329E5
:1002500000F06D82002070471FB505F04FF91FBDFB
:1002600010B510BD00F0F9FA1146FFF7F5FF02F0E6
:10027000A5F900F017FB03B4FFF7F2FF03BC02F08F
:10028000C1F800002A4B19680868B0E8F04F80F305
:100290000988BFF36F8F4FF0000080F3118870471B
:1002A0000000000006480068006880F3088862B615
:1002B00061B6BFF34F8FBFF36F8F00DF00BF00BF8A
:1002C00008ED00E0DFF80C00016841F47001016006
:1002D000704700BF88ED00E0EFF30980BFF36F8F38
:1002E000134B1A681EF0100F08BF20ED108A20E98A
:1002F000F04F106008B44FF0500080F31188BFF346
:100300004F8FBFF36F8F04F067FA4FF0000080F358
:10031000118808BC19680868B0E8F04F1EF0100F8B
:1003200008BFB0EC108A80F30988BFF36F8F704765
:1003300040010020EFF30580704700000948804726
:1003400009480047FEE7FEE7FEE7FEE7FEE7FEE7B7
:10035000FEE7FEE7FEE7FEE704480549054A064BCF
:1003600070470000851E000889010008C074002045
:10037000C07A0020C0760020C076002070470000C0
:100380000FB4044910B503AA029800F0D5F910BCC7
:100390005DF814FB780000200FB41CB5074B06AACB
:1003A0007B4469460090059800F097F90020694663
:1003B00000F0A6F91CBC5DF814FB00005D03000012
:1003C0002DE9F0410E460446002020622046E168F7
:1003D000884730B3252805D0D4E901219047206A09
:1003E000401CF2E7E168204600278847050018D046
:1003F000A5F14100192802D820354FF40067324694
:10040000294620462760FFF719FF40B1012804D094
:10041000F61D26F007060836D8E7361DD6E728462B
:10042000DAE7206ABDE8F08170B50C460546012A7E
:1004300005D02878800600D5EA69002302E0012370
:1004400005E05B1C934202D2E05C0028F9D1A86968
:10045000E618C01AA861286A184428622846AFF333
:10046000008004E0D5E9012114F8010B9047B44263
:10047000F8D32846AFF3008070BD00002DE9F041AD
:100480000646002410687529314616A510D0AFF332
:100490000080002802DA404213A507E031688A078D
:1004A00001D512A502E0490704D511A5012401E0F8
:1004B000AFF3008000210A2206F1240709E0B0FB17
:1004C000F2FCB0FBF2F302FB1C003030785418460B
:1004D000491C0028F3D123462A463046BDE8F041A6
:1004E00000F09CB8000000002D0000002B00000070
:1004F0002000000040EA0103024630B59B0710D1FE
:100500004FF0013400E008C208C91D1B9D4315EAE5
:10051000C41FF8D013F0FF0102F8011B0DD01B0A15
:10052000F8E711F8013B002B02F8013B05D011F868
:10053000013B002B02F8013BF3D130BD10B5431C49
:1005400002E010F8011B71B18107FAD14FF00132BE
:1005500002C88C1A8C4314EAC211F9D0C01A0A06D8
:1005600003D0C01E10BDC01A10BD0A0401D0801EE9
:1005700010BD0902FCD0401E10BD032A40F230809D
:1005800010F0030C00F0158011F8013BBCF1020FD4
:10059000624498BF11F801CB00F8013B38BF11F855
:1005A000013BA2F1040298BF00F801CB38BF00F86C
:1005B000013B11F0030300F0D180083AC0F008803D
:1005C00051F8043B083A51F804CBA0E80810F5E7CD
:1005D000121D5CBF51F8043B40F8043BAFF30080B0
:1005E000D20724BF11F8013B11F801CB48BF11F825
:1005F000012B24BF00F8013B00F801CB48BF00F8F5
:10060000012B704702F0FF0343EA032242EA024251
:1006100000F0D8B870477047704770472DE9F04731
:100620000D4699469246044600F124080168880662
:1006300004D5E06921F01001216000E00120A8420A
:1006400001DD471B00E00027A1697A1902EB0900D0
:10065000081AA0612078C00602D42046AFF30080BB
:10066000002608E0D4E901211AF806009047206A24
:10067000401C761C20624E45F4DB2078C0060AD56B
:100680002046AFF3008006E0D4E9012130209047F6
:10069000206A401C2062381EA7F10107F4DC07E045
:1006A000D4E9012118F805009047206A401C206217
:1006B000281EA5F10105F3DC2046AFF30080207869
:1006C000000602D50220BDE8F0870120FBE700000C
:1006D00001694A1C02610878704700B58FB0CDE906
:1006E00001310021059105497944CDE903101146F6
:1006F0006846FFF765FE0FB000BD0000E5FFFFFF95
:100700000A6802F8010B0A60704710B5436913B11B
:10071000AFF3008001E0FFF787FE012010BD1278E3
:1007200000F124010A7000224A700122EDE71168ED
:100730004FF0FF32E9E70000074B70B50D467B44F0
:10074000FFF7CBFF0446284600F05CF810B14FF0ED
:10075000FF3070BD204670BD2F1E000010B5203A3E
:10076000C0F00B80B1E81850203AA0E81850B1E86A
:100770001850A0E81850BFF4F5AF5FEA027C24BF20
:10078000B1E81850A0E8185044BF18C918C0BDE817
:1007900010405FEA827C24BF51F8043B40F8043BE0
:1007A00008BF7047D20728BF31F8023B48BF11F895
:1007B000012B28BF20F8023B48BF00F8012B7047EF
:1007C0004FF000020429C0F0128010F0030C00F07A
:1007D0001F80CCF1040CBCF1020F18BF00F8012BF4
:1007E000A8BF20F8022BA1EB0C0100F011B85FEAC2
:1007F000C17C24BF00F8012B00F8012B48BF00F892
:10080000012B7047007B00F0800070474FF0000222
:1008100000B5134694469646203922BFA0E80C50F6
:10082000A0E80C50B1F12001BFF4F7AF090728BFD1
:10083000A0E80C5048BF0CC05DF804EB890028BF4D
:1008400040F8042B08BF704748BF20F8022B11F076
:10085000804F18BF00F8012B7047754600F02CF848
:10086000AE4605006946534620F00700854618B09D
:1008700020B5FFF771FDBDE820404FF000064FF0B6
:1008800000074FF000084FF0000B21F00701AC46C5
:10089000ACE8C009ACE8C009ACE8C009ACE8C009E4
:1008A0008D46704710B50446AFF300802046BDE882
:1008B0001040FFF7E0BC0000004870475C74002067
:1008C000FEE7704730B51149D1F83C12104A11F0DB
:1008D000FF04117893780AD149B955783DB10128C0
:1008E00001D10020507043F0010090700AE023F025
:1008F0000100907034B10120507041F0010010707F
:10090000907830BD21F00100F9E70000000040427E
:100910007C00002090F83510022903D08021416529
:1009200001207047052180F835100068016821F02A
:1009300001010160002070472DE9F84FDFF88C912C
:10094000002209F1040A0AF1040B4FF00F080BF121
:10095000040E01260B6896403340B34271D14C68B7
:10096000022C01D0122C11D1D40800EB84073D6A6F
:100970005407E40E08FA04FC25EA0C05D1F810C06F
:100980000CFA04FC4CEA050CC7F820C007685400B8
:10099000032591F804C0A5400CF0030CAF430CFAFA
:1009A00004FC4CEA070CC0F800C04F68012F05D0CA
:1009B000022F03D0112F01D0122F11D18768D1F847
:1009C0000CC0AF430CFA04FC4CEA070CC0F808C09A
:1009D0004768B7430E79C6F3001696403E4346601B
:1009E000C668AE438D68A5403543C5604C68E400D9
:1009F00065D5374C256845F480452560246822F08C
:100A0000030504F480440094324C2E19D6F808787B
:100A10009407250F08FA05F4A7432F4CA04201D1F3
:100A2000002424E02D4CA04201D101241FE02C4CD5
:100A3000A04201D102241AE02A4CA04202D1032490
:100A400015E03CE0284CA04201D104240FE0274CE3
:100A5000A04201D105240AE0254CA04201D1062480
:100A600005E0244CA04201D1072400E00824AC405A
:100A70003C43C6F80848D9F800404D464E689C43B0
:100A8000F60300D51C432C60DAF8004055464E684A
:100A90009C43B60300D51C432C60DBF800405D4648
:100AA0004E689C43F60200D51C432C60DEF80040E3
:100AB00075464E689C43B60200D51C432C60521C00
:100AC000102AFFF446AFBDE8F88F0000003C01405B
:100AD000443802400030014000000240000402405F
:100AE00000080240000C02400010024000140240C6
:100AF00000180240001C02400AB1816170470904DD
:100B0000FBE7000001480068704700006C0000200F
:100B1000094810B5016841F400710160016841F4B1
:100B200080610160032000F049F80F2000F006F812
:100B300000F018F8002010BD003C024010B504463B
:100B400007484FF47A710068B0FBF1F000F0E0FC68
:100B500000222146501E00F011F8002010BD0000B8
:100B600068000020704700F01F02012191404009F9
:100B7000800000F1E020C0F800117047F0B40E4B87
:100B80001B68C3F30223C3F10704042C00D9042417
:100B90001D1D072D01D2002300E0DB1E012606FAF1
:100BA00004F56D1E0D409D409E40761E164045EAA0
:100BB0000601F0BC00F082BE0CED00E0064A00F039
:100BC000070110684FF6FF03184040EA012003496F
:100BD00008431060704700000CED00E00000FA05CB
:100BE0000120010291FAA1F1024AB1FA81F142F821
:100BF0002100704700000E422DE9F84304460068CA
:100C00004FF00109C1074FF0000501D1400732D56F
:100C1000DFF82481C8F86850FFF774FF0646474F95
:100C200004E0FFF76FFF801B022863D838680001DB
:100C3000F7D447F6C07191FAA1F16068B1FA81F179
:100C400088404FF0E04292FAA2F2A168B2FA82F232
:100C500091400843394984310860C8F86890FFF72B
:100C600051FF064604E0FFF74DFF801B022841D8E4
:100C700038680001F7D52078800752D52F484030DA
:100C8000016841F08051016000682D4F00F08050F4
:100C90000090386840F480703860FFF733FF0646F4
:100CA00004E0FFF72FFF801B022823D83868C00517
:100CB000F7D5224E7036306810F4407020D0A189EC
:100CC00001F4407181421BD030681E4920F440700D
:100CD000C1F800900D6030603068C00710D0FFF799
:100CE00011FF054641F2883707E0FFF70BFF401B75
:100CF000B84202D90320BDE8F88330688007F4D5F4
:100D0000E0680E49C0F301220831032A0BD00868BD
:100D100020F4F81008603068A189C1F30B01084382
:100D200030600020E7E70A68074B22F4F812184009
:100D300002430A60EFE7000000004742003802402B
:100D400000700040400E4742FFFCFF0F0848094971
:100D5000006809684FF4E05292FAA2F201F4E051FF
:100D6000B2FA82F2D140044A515CC8407047000098
:100D700068000020083802408657000808480949E2
:100D8000006809684FF4604292FAA2F201F46041EF
:100D9000B2FA82F2D140044A515CC8407047000068
:100DA0006800002008380240865700082DE9F84FF7
:100DB00004460078DFF8F4A2BD4DC00748D0DAF849
:100DC00000105046C1F38101012908D00068C0F32A
:100DD000810002280AD1281D0068400206D5286833
:100DE000800335D56068002870D031E06068B0F5C8
:100DF000803F10D0B0F5A02F286810D020F48030AC
:100E00002860286820F4802028606068A0B1FFF77F
:100E100079FE06460CE0286840F48030F4E740F4A0
:100E200080202860F7E7FFF76DFE801B642873D8E9
:100E300028688003F7D50BE0FFF764FE064604E060
:100E4000FFF760FE801B6428F1D828688003F7D480
:100E50002078DFF8608280074FF0010B4FF0000927
:100E600043D5DAF80010504611F00C0F4FF0F80798
:100E700009D00068C0F3810002280BD18B48001F05
:100E80000068400206D42868800713D5E06801286E
:100E90001CD10FE0E068D0B1C8F800B0FFF732FE17
:100EA000064604E0FFF72EFE801B0228BFD8286804
:100EB0008007F7D5286897FAA7F22169B2FA82F27B
:100EC00020F0F8009140084328600EE0EBE0C8F8FD
:100ED0000090FFF717FE064604E0FFF713FE801BA5
:100EE000022819D828688007F7D42078000722D56F
:100EF0006E4F714861696C3779B1C0F800B0FFF787
:100F000001FE064604E0FFF7FDFD801B022803D822
:100F100038688007F7D50EE079E0C0F80090FFF759
:100F2000F1FD064604E0FFF7EDFD801B02286ED8B8
:100F300038688007F7D42078400750D55B483830B0
:100F4000016841F08051016000685C4F00F0805002
:100F50000090386840F480703860FFF7D3FD064693
:100F600004E0FFF7CFFD801B022850D83868C00589
:100F7000F7D54E4FA068683701280FD0052838688C
:100F800010D020F001003860386820F0040038608C
:100F9000A068B0B1FFF7B6FD06460EE0386840F035
:100FA0000100F4E740F004003860F7E7FFF7AAFD1E
:100FB000811B41F2883081426DD838688007F5D5B1
:100FC0000DE0FFF79FFD064606E0FFF79BFD811B46
:100FD00041F2883081425ED838688007F5D4A06934
:100FE000F0B3DAF80010C1F3810102295BD00228C6
:100FF000484605D0C8F86000FFF784FD04464DE080
:101000004746C8F86000FFF77DFD064605E042E070
:10101000FFF778FD801B02283DD828688001F7D4AF
:10102000D4E90701084347F6C07292FAA2F2616A56
:10103000B2FA82F29140A26A4FF0FF3303EB520200
:101040004FF4403393FAA3F3B3FA83F39A40114376
:101050004FF0706292FAA2F20843B2FA82F200E014
:101060001FE0E16A914008431049091F0860C7F872
:1010700060B0FFF747FD044604E0FFF743FD001BA7
:10108000022808D828688001F7D50AE0FFF73AFD62
:10109000001B022802D90320BDE8F88F28688001D0
:1010A000F4D40020F8E70120F6E7000008380240F9
:1010B0000038024000004742800E47420070004066
:1010C00070470068503050F8210070470068503079
:1010D00040F821207047704710B504460068C16889
:1010E00049050CD58068400409D52046FFF7F3FF79
:1010F0002068C16801F0800161F49061C16003491A
:101100004FF4800008600120607710BD143C01405E
:1011100001A0FFF735B90000414C41524D2041215B
:101120000D0A000010B504460068C168C9050CD559
:101130008068C00409D52046FFF7EAFF2068C1682F
:1011400001F0800161F4C071C1602068C168890547
:101150000CD58068800409D52046FFF7B1FF2068D0
:10116000C16801F0800161F42071C16003494FF44E
:10117000003008600120607710BD0000143C014081
:1011800010B500680B4641680D480140080CD87046
:10119000C1F304245C7001F03F049C70C1F3423140
:1011A000197052B900F0D4FDD870587800F0D0FD15
:1011B0005870987800F0CCFD9870002010BD0000A9
:1011C0003FFFFF0010B50B460168896A596001684E
:1011D0000969C1F30E019960006801680E48014079
:1011E000C1F305401870C1F306245C7001F07F0460
:1011F0009C70402404EA1141D97052B900F0A8FD56
:101200001870587800F0A4FD5870987800F0A0FD90
:101210009870002010BD00007F7F7F0070B5040033
:1012200002D0607F10B106E0012070BD0020207761
:10123000204600F041F8022060772168CA20486209
:10124000216853204862204600F096FDFF210028C7
:10125000206803D0416204206077E5E78268154B7F
:101260001A4082602068826863681A43D4E90435B2
:101270002B431A4382602268E0681061206802698B
:10128000238942EA034202612068C26822F0800298
:10129000C2602068026C22F4802202642068026C22
:1012A000A3691A430264206841620120607700202C
:1012B00070BD0000BFFF8FFF10B5104892B0002432
:1012C000016841F080510160006800F0805010908A
:1012D000FFF786FC042006940090012468460294DF
:1012E000FFF764FD02200C90C0010F900CA8FFF7DF
:1012F00083FC0348046012B010BD00004038024077
:101300003C0E47422DE9F0470446007F0B4601287A
:1013100025D04FF0010984F81C900220607758789E
:1013200002B300F015FD987800F012FD9878D97896
:1013300040EA014558781978000240EA41300543F7
:101340002168CA204862216853204862204600F084
:1013500013FD0026FF274FF0040858BB19E00220B8
:10136000BDE8F087C10603D500F0EF000A305870E1
:10137000D87800F0F6FC0204587800F0F2FC42EA5B
:101380000022987800F0EDFC0243187842EA4035DC
:10139000D6E70F480540206845602068C16821F005
:1013A0008001C1602068806880060AD4204600F071
:1013B00089F830B12068476284F81D8026770120C3
:1013C000CEE72068476284F81D9026770020C7E7A3
:1013D0003FFFFF002DE9F0470446007F0D4601283E
:1013E00011D04FF0010A84F81CA002206077206819
:1013F000002680684FEA406042B100281ADA287857
:1014000000F0A6FC17E00220BDE8F087002800DB12
:10141000EE70287800F0A5FC0204687800F0A1FCCA
:1014200042EA0022A87800F09CFC0243E87842EAF5
:1014300000470AE0EE70A878297840EA014768780A
:10144000E978000240EA014007432168CA20486267
:10145000216853204862204600F08EFC4FF0FF08C0
:101460004FF00409E0B9164807402068076020687B
:10147000816821F480218160D5E90310014320684F
:101480008268114381602068C16821F08001C160D9
:101490002068806880060BD4204600F013F838B12D
:1014A0002168C1F8248084F81D9026770120ABE7DD
:1014B0002168C1F8248084F81DA026770020A3E7C6
:1014C0007F7F7F0070B505460068C16821F0A001EC
:1014D000C160FFF717FB04464FF47A7606E0FFF78A
:1014E00011FB001BB04201D9032070BD2868C06801
:1014F0008006F4D5002070BD4FF0E0210428086973
:1015000003D020F004000861704740F00400FAE7BF
:1015100010B5401EB0F1807F01D3012010BD4FF007
:10152000E02460610F21601700F0C8F90020A0617D
:1015300007202061002010BD704710F8391F407847
:101540000843704770B5026804461068D168536953
:1015500010F00F0F50D003F0010501F490763543E1
:101560005DD0C20705D0CA0503D5E26B42F0010287
:10157000E263420705D5DA0703D0E26B42F00202CC
:10158000E263820705D5DA0703D0E26B42F004027A
:10159000E263020705D5DA0703D0E26B42F00802E6
:1015A000E263E26B002A33D0800604D5880602D5B8
:1015B000204600F0E5FC20684069E16BC0F3801034
:1015C000090700D428B3204600F0CCFC206841690C
:1015D00049061AD5416921F040014161606BA0B113
:1015E0001B490165606BFFF795F9002810D0606B0F
:1015F000016DBDE870400847830610D58B060ED5F7
:101600002046BDE8704000F0BBBC2046FFF794FFC9
:1016100070BD2046FFF790FF0020E06370BD030619
:1016200006D50B0604D52046BDE8704000F044BE48
:101630004006F3D54806F1D5D168204621F0400197
:10164000D160202184F8391000F0C4F870BD00008A
:10165000551F000870B5040004D094F83900002527
:1016600010B106E0012070BD84F83850204600F02B
:1016700023F8242084F839002068C16821F400513F
:10168000C160204600F0C2FC2068016921F490414D
:1016900001612068416921F02A0141612068C16827
:1016A00041F40051C160E563202084F8390084F8DA
:1016B0003A00002070BD000010B500681A4986B0DD
:1016C00088422FD11948016841F00101016000688A
:1016D00000F00100059015481430016841F0100138
:1016E00001600068012100F0100005904FF40070C7
:1016F00000900220CDE90101039007200C4C0490DA
:1017000069462046FFF718F92115009169462046E1
:10171000FFF712F92520FFF726FA00220B212520DA
:10172000FFF72CFA06B010BD00100140303802401F
:101730000000024090F83A30202B1DD1D1B1CAB13F
:1017400090F83830012B17D081628285C285002144
:10175000C163222280F83A2080F8381001684A6973
:1017600042F001024A610068C16841F49071C160B1
:1017700000207047012070470220704730B5006894
:10178000114988420CD1114A5088010408D41146ED
:10179000440409784FF0000306D50A2901D053808C
:1017A00030BD40F400400DE00D2909D0C0F30D0418
:1017B000074D401C80B229555080C728EFD830BD56
:1017C00040F48040508030BD001001407400002083
:1017D000880800207047FEE710B50E4C012240211A
:1017E0002046FFF789F9012280212046FFF784F97E
:1017F000012000F061FE002280212046FFF77CF9E5
:10180000012000F059FE20460022BDE81040402192
:10181000FFF772B90008024010B50A4C01224021BE
:101820002046FFF769F9002280212046FFF764F97E
:10183000012000F041FE20460122BDE81040802139
:10184000FFF75AB90008024010B5084C01224021A8
:101850002046FFF751F9012000F02EFE204600221D
:10186000BDE810404021FFF747B9000000080240E2
:1018700030B50F4887B0016841F00401016000688D
:101880004FF4005400F0040005900120CDE9004021
:1018900002900320074D039069462846FFF74CF855
:1018A000012221462846FFF727F907B030BD000086
:1018B0003038024000080240FEE770470907090E71
:1018C000002806DA00F00F0000F1E02080F8141D77
:1018D000704700F1E02080F80014704770B50025D3
:1018E000002105F1B00000F026FA0021084600F0C2
:1018F00022FA0021102000F01EFA0024012100200D
:1019000000F019FA641CE4B2802CF7D36D1CEDB220
:10191000082DE5D370BD2DE9F0471F4690460E46D1
:1019200082460025DDF8209011E03146504600F057
:10193000C8F8544607E019F8050001216D1C00F0B5
:10194000FAF9641CE4B24445F5D3761CF6B2BE4203
:10195000EBD3BDE8F0870000484810B5016886B0B9
:1019600041F0040101600068454C00F0040005905E
:10197000C020009011200190012002900390694640
:101980002046FEF7D9FF012240212046FFF7B4F898
:10199000012280212046FFF7AFF8322000F0A6FD9B
:1019A0000021AE2000F0C7F90021084600F0C3F97D
:1019B0000021102000F0BFF90021402000F0BBF909
:1019C0000021B02000F0B7F90021812000F0B3F928
:1019D0000021FF2000F0AFF90021A12000F0ABF9B9
:1019E0000021A62000F0A7F90021A82000F0A3F90B
:1019F00000213F2000F09FF90021C82000F09BF952
:101A00000021D32000F097F90021084600F093F957
:101A10000021D52000F08FF90021802000F08BF903
:101A20000021D82000F087F90021052000F083F97B
:101A30000021D92000F07FF90021F12000F07BF98E
:101A40000021DA2000F077F90021122000F073F96C
:101A50000021DB2000F06FF90021302000F06BF94D
:101A600000218D2000F067F90021142000F063F9B7
:101A70000021AF2000F05FF906B010BD3038024001
:101A80000008024070B50E46054617E0002105F13A
:101A9000B00000F050F90021084600F04CF9002198
:101AA000102000F048F900240121002000F043F943
:101AB000641CE4B2802CF7D36D1CEDB2B542E5D9BD
:101AC00070BD10B50A460446002102F1B00000F0D6
:101AD00032F9102040EA1410002100F02CF904F033
:101AE0000F00BDE81040002100F025B92DE9F041BC
:101AF00015460E460746FFF7E4FF0F48002400EBAB
:101B000085150121285D00F016F9641CE4B2102C43
:101B1000F7D3761CF1B23846FFF7D3FF002428191B
:101B2000012190F8200000F006F9641CE4B2102CAA
:101B3000F5D3BDE8F08100007F0000202DE9F041E1
:101B4000203A00240F468046D5B27F2803D90020D2
:101B50008F1C8046FFB2102B394610D0FFF7B1FF23
:101B6000164905EB450001EB40050121285D00F019
:101B7000E2F8641CE4B2062CF7D3BDE8F081FFF76D
:101B8000A0FF0F4E04EB05100121305C00F0D3F8EC
:101B9000641CE4B2082CF5D37F1CF9B24046FFF771
:101BA00090FF002404EB051030440121007A00F07E
:101BB000C2F8641CE4B2082CF4D3DEE790570008A6
:101BC000B85900082DE9F041984617460E460446DC
:101BD00000250DE0434631462046FFF7AFFF0834AD
:101BE000E4B2782C02D90024B61CF6B26D1CEDB21A
:101BF0007A5D002AEED1BDE8F08100002DE9F041C8
:101C00000746A2F130000024C0B20E460A2804D9CB
:101C10003A2A02D0601EBDE8F0818006050E3A2AFD
:101C200000D128253846FFF74CFF204800EB8515EA
:101C3000012155F8240000F07EF8641CE4B2102C59
:101C4000F6D3701CC1B23846FFF73BFF002405EB0A
:101C500084000121006C00F06EF8641CE4B2102CCA
:101C6000F5D3B01CC1B23846FFF72BFF002405EBBB
:101C700084000121D0F8800000F05DF8641CE4B21B
:101C8000102CF4D3F61CF1B23846FFF71AFF0024EB
:101C900005EB84000121D0F8C00000F04CF8641C72
:101CA000E4B2102CF4D30120B5E70000A85F0008CF
:101CB0002DE9F04115460E4607460024FFF701FFC7
:101CC000285D012100F037F8641CE4B2202CF7D322
:101CD000701CC1B23846FFF7F4FE00242819012118
:101CE00090F8200000F027F8641CE4B2202CF5D313
:101CF000B01CC1B23846FFF7E4FE002428190121C8
:101D000090F8400000F017F8641CE4B2202CF5D3E2
:101D1000F61CF1B23846FFF7D4FE00242819012141
:101D200090F8600000F007F8641CE4B2202CF5D3B2
:101D30000120BDE8F081C0B209B100F04CBB00F059
:101D400033BB00000148FFF7EDB900009009002007
:101D5000010901EB810100F00F0000EB4100C0B26E
:101D60007047002102E00A38C0B2491C0A28FAD2A2
:101D7000090740EA1160704770B505460068C16800
:101D8000490613D44FF0FF31C160FEF7BBFE044695
:101D90004FF47A7606E0FEF7B5FE001BB04201D99B
:101DA000032070BD2868C0684006F4D5002070BDCF
:101DB000174810B51549016000217F22C0E90112C2
:101DC000FF22C0E9032141618161FFF727FA08B1D1
:101DD000022010BD00210E48FFF773F945F25004B0
:101DE000A04210D0402300222821142000F024F823
:101DF00003230D221946132000F00CF8224600217F
:101E00000348FFF763F9002010BD000000280040E0
:101E10009009002008B58DF802208DF801108DF88A
:101E200000308DF80300002269460248FFF76AFA85
:101E300008BD00009009002000B585B08DF80000B5
:101E40008DF8011000208DF80220039002460490C6
:101E50008DF8033069460248FFF7BCFA05B000BDB3
:101E6000900900200148FFF737B9000090090020D1
:101E700010B503F01BF9012803D0BDE8104002F0B3
:101E8000EFBD10BD1048016841F4700101600F48BA
:101E9000016841F0010101600C4A00210832116023
:101EA00002680B4B1A400260031D0A4A1A6002685E
:101EB00022F48022026005480C3001600249580675
:101EC000803908607047000088ED00E0003802406B
:101ED000FFFFF6FE1030002410B5114CE078022808
:101EE00005D1002301222021206903F079F8E07850
:101EF000042805D1002301224021206903F070F855
:101F0000E078062807D1002301228021206903F010
:101F100067F80020E070C0B2401CE07010BD000007
:101F20000000002010B50A4C207801280BD00721B2
:101F30000220FFF7A7FD002301220821E068BDE889
:101F4000104003F04DB8002301220421F6E7000001
:101F50000000002010B5806B0021C185C184FFF70F
:101F6000EBFA10BD0168CA6822F49072CA60016879
:101F70004A6922F001024A61202180F83A10704734
:101F800010B590F83A10222901D0022010BD8168C6
:101F9000B1F5805F11D00169002901681FD049683F
:101FA00001F07F03816A4A1C82620B70C18D491E59
:101FB0000904090CC18518D026E00269816A002A4B
:101FC0000268526805D0D2B20A80816A491C8162D7
:101FD000ECE7C2F308020A80816A891CF7E74A68C5
:101FE000816A4B1C83620A70E0E70168CA6822F4C8
:101FF0009072CA6001684A6922F001024A61202198
:1020000080F83A10FFF7BAFB002010BD2DE9F0412F
:1020100004460068016921F44052E16811430161FE
:102020002068C16849F20C6291432369A268E5699E
:102030001A4363692B431A430A43C260206841690B
:10204000A26921F440710A434261E0696425B0F558
:10205000004F974A974920684FF032083FD0884296
:1020600001D090427CD1FEF789FE00EBC00101EB6C
:10207000001061688900B0FBF1F6FEF77FFE00EB0F
:10208000C00101EB001061688900B0FBF1F0B0FB0A
:10209000F5F06FF01801484306EB800108EB0110E2
:1020A000B0FBF5F000F0F006FEF768FE00EBC001B3
:1020B00001EB001061688900B0FBF1F0B0FBF5F0B6
:1020C00006EB0016FEF75AFE00EBC00101EB001014
:1020D00061688900B0FBF1F7FEF750FED2E088425C
:1020E00001D090423DD1FEF749FE00EBC00101EB6B
:1020F000001061684900B0FBF1F0B0FBF5F006019B
:10210000FEF73CFE00EBC00101EB001061684900E6
:10211000B0FBF1F7FEF732FE00EBC00101EB00105F
:1021200061684900B0FBF1F0B0FBF5F06FF0180109
:10213000484307EB800108EBC100B0FBF5F000F06D
:10214000F80006EB4006FEF719FE00EBC00101EBBC
:10215000001061684900B0FBF1F7FEF70FFE3CE0AC
:1021600055E0FEF7F3FD00EBC00101EB00106168E4
:102170004900B0FBF1F0B0FBF5F00601FEF7E6FD1B
:1021800000EBC00101EB001061684900B0FBF1F702
:10219000FEF7DCFD00EBC00101EB001061684900B7
:1021A000B0FBF1F0B0FBF5F06FF01801484307EB1E
:1021B000800108EBC100B0FBF5F000F0F80006EB81
:1021C0004006FEF7C3FD00EBC00101EB00106168A3
:1021D0004900B0FBF1F7FEF7B9FD00EBC00101EBE0
:1021E000001061684900B0FBF1F0B0FBF5F06FF052
:1021F0001801484307EB800108EBC100B0FBF5F084
:1022000000F00700216830448860BDE8F081FEF7E7
:102210009DFD00EBC00101EB001061688900B0FB7F
:10222000F1F6FEF793FD00EBC00101EB00106168D1
:102230008900B0FBF1F0B0FBF5F06FF018014843F6
:1022400006EB800108EB0110B0FBF5F000F0F006A2
:10225000FEF77CFD00EBC00101EB00106168890016
:10226000B0FBF1F0B0FBF5F006EB0016FEF76EFDEB
:1022700000EBC00101EB001061688900B0FBF1F7D1
:10228000FEF764FD00EBC00101EB001061688900FE
:10229000B0FBF1F0B0FBF5F06FF01801484307EB2D
:1022A000800108EB0110B0FBF5F000F00F00A9E78A
:1022B000001401400010014090F83910212901D08C
:1022C000022070478168B1F5805F016A0BD04A1C1B
:1022D0000262026809785160C18C491E0904090C28
:1022E000C1840ED017E009880268C1F3080151606B
:1022F00001690029016A02D0491C0162ECE7891CCE
:10230000FBE70168CA6822F08002CA600068C16801
:1023100041F04001C16000207047000010B508483E
:10232000FFF710F90648FFF708F92028FAD1012233
:1023300004490348FFF7FEF90028F8D110BD00005A
:102340005009002074000020FEE7000070B5154E13
:102350000446002240213046FEF7CEFB002504F063
:10236000800080281BD0002280213046FEF7C4FB6D
:102370006006040E012240213046FEF7BDFB01201D
:1023800000F09AF8002240213046FEF7B5FB01200C
:1023900000F092F86D1CEDB2082DE0D370BD012263
:1023A000E2E700000008024010B50446FFF714FA07
:1023B0007820FFF7CBFFFFF747FA0020FFF7C6FFB3
:1023C000FFF742FA2046FFF7C1FFFFF73DFABDE8ED
:1023D0001040FFF721BA10B50446FFF7FDF9782049
:1023E000FFF7B4FFFFF730FA4020FFF7AFFFFFF72A
:1023F0002BFA2046FFF7AAFFFFF726FABDE81040A8
:10240000FFF70ABA704700000D4800B5016887B0B1
:1024100041F0020101600068694600F00200059089
:102420004FF4C0700090032003900120029011200F
:1024300001900448FEF780FA00F098F907B000BD5B
:10244000303802400004024010B504460420FFF773
:1024500053F80A484FF47A71047014FB01F1012219
:1024600042804FF0E020026942F0020202614161C5
:10247000016941F00101016110BD00007000002000
:1024800070B5044602F012FE01280CD0094D688890
:10249000844203D3B4FBF0F001F0FEFC6888B4FB87
:1024A000F0F100FB11444FF47A706043BDE87040D6
:1024B00000F002B87000002070B54FF0E025002158
:1024C0006C69094AAB6912785043AA699A42FCD0F8
:1024D00002D2A3EB020302E0A4EB02063344194448
:1024E00013468142F1D370BD7000002070B50546DF
:1024F00000244FF47A7603E03046FFF7DDFF641CDA
:10250000AC42F9D370BD000070B5050005D0164E81
:102510003068854209D1002070BD502080F31188B9
:10252000BFF34F8FBFF36F8FFEE701F0E5FB6C69E0
:1025300001F002FC706B844202D0B06B844201D186
:10254000022070BD0948844204D1A86A0028F7D14E
:10255000032070BD05481438844202D00CB101201C
:1025600070BD042070BD0000400100202024002028
:1025700003490A685206FCD5C2B24A60704700009F
:10258000001001400B4800B5026887B0002142F0FE
:1025900001020260006800F0010005904FF4004065
:1025A000CDE900010120029069460348FEF7C4F915
:1025B00007B000BD30380240000002401CB5FEF7F5
:1025C000A7FAFFF755F9FFF7DDFFA820FFF73CFF5B
:1025D0004FF4E13001F0E4FAFFF7BEF9FFF77EF9BE
:1025E000FFF7E6FBFFF710FF00F0ACFC0649012007
:1025F000CDE900010023402204A1074802F0C4FCF9
:1026000002F0AAF800201CBD040000205461736B86
:102610005F696E69740000003548000870B5084CA9
:102620000026C4F8A06204F5277400F00BF8012519
:10263000256000F007F8266000F004F8656070BDC2
:10264000008040420020401CC0B21E28FBD37047CF
:1026500070B5084C0125C4F8A05204F52774FFF7A3
:10266000F1FF2560FFF7EEFF00202060BDE870401D
:10267000FFF7E8BF008040422DE9F0470024DFF873
:1026800070801A4E25464FF00109A24608F1040752
:102690006006040EC6F89C92FFF7D4FFD8F800102D
:1026A000404621F44031C8F80010D8F80010C8F8AE
:1026B0000010D6F8201209B1641CE4B2016821F4BC
:1026C00040310160016841F480310160386840F4B4
:1026D00080703860C6F89CA2FFF7B4FF6D1CEDB2A5
:1026E000082DD5D32046BDE8F08700000080404289
:1026F000000402402DE9F0410024104E0546A0469A
:102700000127280602D5C6F8A07201E0C6F8A0820B
:10271000FFF798FFC6F89C72FFF794FFC6F89C82FB
:10272000072C01D1C6F8A0726806050EFFF78AFFD4
:10273000641CE4B2082CE4D3BDE8F0810080404280
:1027400070B5094C0120C4F8A002C4F89C0204F53D
:102750002774FFF777FF00256560FFF773FF25609B
:10276000BDE87040FFF76EBF0080404270B5084C76
:102770000020C4F8A0020125C4F89C5204F5277477
:10278000FFF760FF6560BDE87040FFF75BBF0000CA
:102790000080404270B5154D0124C5F8A042FFF7F6
:1027A00051FFC5F89C42FFF74DFF1148016821F425
:1027B0004031016001680160D5F8201201B100E0EC
:1027C0000024016821F440310160016841F4803146
:1027D00001600748001D016841F48071016000201C
:1027E000C5F89C02FFF72EFF204670BD00804042D6
:1027F000000402402DE9F04F4FF00009DD48DFF8FA
:1028000078A3DB4E96212DED028B83B04C464F46CC
:102810004D460AF516788346C161D848D0F824029F
:102820000128FAD00AEB850108EB850000F0EAFBED
:1028300058F82500B04200D20646B84200D90746F3
:10284000DBF81C006D1C8542E7DBCA4A521C02F112
:102850002301501E8DE807000B1FC169C84AC648F6
:1028600000F0B0F99FEDC78A4FF0000BC04D002675
:10287000C34F3220D44657F8201007EB8002E246BF
:1028800042F8C81C0CEB80025CF8203042F8C83CCF
:10289000A94200D20D46B14200D90E46401C9628EE
:1028A000E9DB4FF06408B64BB44903EB880050F8FD
:1028B000047CD1F82422012AFBD00AEB880100F025
:1028C000A1FBAF4850F82800B8421FD9C01B00EE4A
:1028D000100A701B00EE900AB8EE400AB8EE601ABB
:1028E000C0EE010A20EE880A00EE904AF8EE600A77
:1028F00030EEC00AB5EEC00AF1EE10FA01D20024A3
:102900001AE0BDEEC00A10EE104A15E0381A00EECB
:10291000100A701B00EE900AB8EE400AB8EE601A7A
:10292000C0EE010A20EE880ABDEEC00A10EE100AC1
:102930000444FF2C00D9FF2408F10108B8F1960FD8
:10294000B1DB8C4A521C02F12301501E8DE80700B6
:1029500005460B1F8A4A8848E96900F033F9687810
:10296000012869D1696ABE2966DA282964DDC5F8BB
:1029700018B068685E46042804D0401C6860E868A7
:1029800088B157E001206E60E8600C207E4A042781
:1029900052F820300A338B4201DD6F60EE60401C3C
:1029A0001028F5DBEBE7784A002002EB80035B6838
:1029B00042F82030401C0F28F7DBD163E86B102869
:1029C00001DA401CE863AE62022801DAEE6231E00F
:1029D00004280ADA0E20AB6A52F82010401C194471
:1029E000A9621028F7DB481023E008280ADA0C2037
:1029F000AB6A52F82010401C1944A9621028F7DB7A
:102A0000881016E010280ADA0820AB6A52F8201065
:102A1000401C1944A9621028F7DBC81009E0002007
:102A2000AB6A52F82010401C1944A9621028F7DB49
:102A30000811E862EE6007E0C5F804B0A8695946DD
:102A4000042805D0401CA8612878012803D06CE038
:102A5000E962E963F8E7296A3B2966DDC5F814B045
:102A6000A8685E46042804D0401CA860286990B17C
:102A700059E00120AE602861434A0C20042740320F
:102A800052F820300A3B8B4201DAAF602E61401CC5
:102A90001028F5DBEAE73C4A0020403202EB8003D5
:102AA0005B6842F82030401C0F28F7DBD163A86B2D
:102AB000102801DA401CA8632E63022801DA6E6335
:102AC00031E004280ADA0E202B6B52F82010401C4B
:102AD000194429631028F7DB481023E008280ADA94
:102AE0000C202B6B52F82010401C1944296310282D
:102AF000F7DB881016E010280ADA08202B6B52F852
:102B00002010401C194429631028F7DBC81009E085
:102B100000202B6B52F82010401C19442963102808
:102B2000F7DB081168632E6107E0C5F808B0686933
:102B30005946042810D0401C68614846411C01F0E9
:102B4000FF0906280BD011A0696BFDF719FC4FF4A3
:102B50007A70FFF795FC89E66963A963EDE705489C
:102B600090F8340003B0BDEC028BBDE8F08F00009C
:102B7000FFFF03002800002058030020008040428F
:102B8000B005002000007F430808002025640A00EB
:102B90002DE9F8418046DDE90706009017460C460E
:102BA000099D404600F0DAFA33463A46214640464F
:102BB00000F007FB2068A84200DB28462060BDE843
:102BC000F88100002DE9FF4FB6B00C46DDE94495D1
:102BD000064600219246084603E056F82020401C95
:102BE0001144A042F9DBB1FBF4F10020D04A05E02A
:102BF00056F820305B1A42F82030401CA042F7DB28
:102C0000002002EB800152F820304F683B44D1E9AC
:102C1000027139441944CB1701EB9371891042F8C2
:102C20002010401CB0F5F87FEBDBC24900204FF4C8
:102C3000F773BF4A02EB800752F820C07F68A7EB0A
:102C40000C0741F82070401C9842F2DD002001EB97
:102C5000800751F820207F689E463A4402EBD272EA
:102C6000521041F82020401C7045F0DBDFF8C8C24C
:102C700000208B4600210246471D08E0A2EB000819
:102C80005BF822303CF81880521C03FB1811BA4242
:102C9000F4DB40F27A4291FBF2F14BF82010401C39
:102CA0005B46B0F5F47FE5DD00221046774653F829
:102CB0002010002900DC4942B846401C0A44404527
:102CC000F5DD40F2EF1392FBF3F00822CDE90002AC
:102CD00005210291974A35A912A8FFF759FF359AA5
:102CE00000210DF1480C022A1CDB012008E00CEB4E
:102CF00080075CF8203057F8047CDB1B1944401C2B
:102D00009042F4DB521E91FBF2F041F2707191FBA4
:102D1000F0F0C9F800000120287000200DF1980E95
:102D2000359B0AE08548C9F800000020F4E75CF80C
:102D30002010891C4EF82010401C9842F7DB002020
:102D4000DFF8EC9109E056F820207D4949F8202071
:102D50005AF8202041F82020401CA042F3DB002636
:102D600031461DE05EF821000122170600F1050C36
:102D7000C44514DC441F002C11DD0DF10C0B401F69
:102D800009E059F82040BC4204DA02B1002227468B
:102D90004BF82100401C6045F3DB02B9761C491C4E
:102DA0009942DFDB022E04DA39996448086000207A
:102DB000B9E000204FF4F87C09EB800159F820407D
:102DC0004F685F4A3C44D1E9027139442144CC1731
:102DD00001EB9471891049F8201002EB800152F840
:102DE00020304C68CB462344D1E9024121441944A8
:102DF000CB1701EB9371891042F82010401C6045FD
:102E0000DADB0024204621AA002142F82010401CD1
:102E10000528F8DB00204FF4FA7205E003A951F809
:102E200020109142C0DC401CB042F7DB0021761E2E
:102E3000009654E003A800EB81024FF07F465768EC
:102E400050F821203346A7EB0208B8F10A0F45DD00
:102E50001046DFF8EC900CE05BF820C09C4501DDEB
:102E60006346824659F820C0B44501DD66460546F2
:102E7000401C8742F0DC59F827C059F822E05BF883
:102E80002770ACEB0E00A5EB020C00FB0CF090FBE6
:102E9000F8FCE6445BF8220059F825C08146381A50
:102EA000AAEB0202504390FBF8F202EB09005BF838
:102EB0002520ACEB0E0E121A0EFB03F07243C0116C
:102EC000D211002A0ADD052C08DA38B164235843F0
:102ED00090FBF2F221A840F82420641C491C0098C1
:102EE0008142A7DB214621A800F09EF904EBD470B3
:102EF0004010012821A90ADD01EB800251F82000D1
:102F000052F8042C104400EBD070401001E051F84E
:102F10002000C11EB529BFF447AF07493E31085C08
:102F2000399908600120439908703AB0BDE8F08FE4
:102F300070110020B0090020A874000819FCFFFFE0
:102F4000401900202D4800B5026887B0002142F0EA
:102F500002020260006800F0020005904FF4007069
:102F600000900120CDE9011069462548FDF7E4FCF9
:102F7000C021022000F0D3F800283CD0002103201B
:102F800000F0CDF8002836D00021042000F0C7F86A
:102F9000002830D00021052000F0C1F800282AD0F8
:102FA0000021062000F0BBF8002824D06F21082063
:102FB00000F0B5F800281ED00321092000F0AFF87A
:102FC000002818D02F210A2000F0A9F8002812D0DC
:102FD00017210C2000F0A3F800280CD017210D2099
:102FE00000F09DF8002806D07F21102000F097F80F
:102FF000002800D0012007B000BD0000303802409A
:1030000000040240F8B50546002008600C466946F9
:10301000286000F05EF86946012000F05AF8FFF7DA
:103020008FFBAE20FFF766FBFFF7B4FB68B9072004
:10303000FFF760FBFFF7AEFB38B9FFF781FBAF206E
:10304000FFF758FBFFF7A6FB18B1FFF78FFB002037
:10305000F8BDFFF711FB0646FFF7E0FA296801EB20
:1030600006402860FFF708FB0646FFF7D7FA2968F5
:1030700001EB06202860FFF7FFFA0646FFF7CEFABD
:10308000286830442860FFF7F7FA0646FFF7C6FACB
:10309000216801EB06402060FFF7EEFA0646FFF7D5
:1030A000BDFA216801EB06202060FFF7E5FA06462D
:1030B000FFF7B4FA2068304420602868C0F311009C
:1030C00028602068C0F311002060FFF74FFB01204B
:1030D000F8BD70B50C460546FFF732FBAE20FFF792
:1030E00009FBFFF757FB68B92846FFF703FBFFF71B
:1030F00051FB38B9FFF724FBAF20FFF7FBFAFFF7CE
:1031000049FB18B1FFF732FB002070BDFFF7B4FA9E
:103110002070FFF79DFAFFF729FB012070BD70B505
:103120000C460546FFF70CFBAE20FFF7E3FAFFF76E
:1031300031FB58B92846FFF7DDFAFFF72BFB28B91A
:103140002046FFF7D7FAFFF725FB18B1FFF70EFB74
:10315000002070BDFFF70AFB012070BD2DE9F04390
:1031600001240025DDF81C90A3F1010C0D6024E082
:1031700052F824704F451FDD02EB840555F8045CBE
:10318000AF4219DD012500E06D1C66199E4203DA8D
:1031900052F826804745F7D0254452F82550AF42D3
:1031A00008DD0D680F2D05DAAF006D1C0D60C451F0
:1031B000741C02E0344600E0641C6445D8DBBDE8C2
:1031C000F0832DE9F0431E4613460C460A68054677
:1031D0000146184600F040F84FF0FF39484619E024
:1031E0008C46411CC6F10008216010E055F82130E2
:1031F000421C17D055F820209A1AB24201DC4245F1
:1032000004DA22689700521C2260EB51491C614588
:10321000ECDB401C21688142E2DC2846BDE8F0433B
:1032200000F002B84A46E7E730B5012311E050F854
:1032300023501A4602E040F82240521E002A05DDC3
:1032400000EB820454F8044CAC42F4DC40F8225009
:103250005B1C8B42EBDB30BDF0B5012415E051F86F
:103260002460234602E041F823505B1E002B09DD59
:1032700001EB830550F8267055F8045C50F825C022
:103280006745F0DC41F82360641C9442E7DBF0BD45
:103290002DE9F041184E0F460446F5683068001DD0
:1032A00000F090FC38B9306890F82C10012088406C
:1032B000316981433161601C07D137B13168BDE8A4
:1032C000F0410E48091D00F00BBD30682C44AC42A3
:1032D0004460316805D2B06BBDE8F041091D00F0D3
:1032E000E7BC706B091D00F0E3FCB06A844200D2B9
:1032F000B462BDE8F08100004001002020240020DD
:103300002DE9F041054600F0F7FC2D4EB068401C59
:10331000B06030682B4F10B1706930B32BE035606E
:10332000B068012827D1002404EB840007EB80005B
:1033300000F0B0FC641C202CF6D3234800F0AAFC5B
:103340002148143000F0A6FC1F48283000F0A2FCF1
:103350001D483C3000F09EFC1B48503000F09AFCA9
:10336000194870631430B06305E03068E96AC06AD8
:10337000884200D83560706A0121401C7062A864E0
:10338000E86A326981401143316100EB800007EB4C
:103390008000291D00F0A4FC00F0CEFC706900281C
:1033A0000CD03068E96AC06A884207D207494FF0FA
:1033B00080500860BFF34F8FBFF36F8FBDE8F0817F
:1033C0004001002050210020D023002004ED00E027
:1033D00010B500F091FC0E4C2068A0B90D4800F02B
:1033E00059FC0C48143000F055FC0A48E0601430D9
:1033F000206100221021052001F048FB206010B15F
:1034000005A100F015FDBDE8104000F095BC0000DE
:103410007C01002034240020546D72510000000013
:1034200070B5124E124D1CE001F0CEF9306820B19B
:10343000002401F081FFA4B901E00124F9E700F0C4
:103440005BFCF068C468201D00F0BCFBA868401E4F
:10345000A8606868401E686000F06EFC204600F0BE
:1034600052F868680028DFD170BD00000C240020ED
:103470004001002030B4026C0B46002A0BD0C1681A
:103480001144C1604468A14201D30168C16030BCED
:103490001846FDF772B830BC70472DE9F041856BD6
:1034A000174604460026026C82B1C7B1E068FDF7FA
:1034B00064F8E168206C091AE1602268914202D246
:1034C0006168081AE060022F16D017E02068A8B9DA
:1034D000606801F0A9FE0646002060600EE0A0686A
:1034E000FDF74BF8216CA0680844A0606168884231
:1034F00004D32068A06001E005B16D1E6D1CA563BA
:103500003046BDE8F08110B50446006B00F028FCA1
:103510002046BDE8104000F023BC000010484FF4E6
:10352000A041420706D0C01D0D4920F00700411AF6
:10353000C1F5A0410B4A00230144C2E90003083948
:10354000103A21F0070111604B600B600B1AC0E9C3
:10355000001393604FF000405360D060704700004C
:103560005C240020A0010020074E4FF08054074D3E
:10357000FFF756FF30680128FAD92C60BFF34F8F50
:10358000BFF36F8FF4E700005021002004ED00E04E
:103590002DE9F0470E46DDE9098417468246910081
:1035A0009946089DA522206BFDF72CF86FF00301CA
:1035B000206B01EB8701084420F00707780707D04C
:1035C000502080F31188BFF34F8FBFF36F8FFEE75A
:1035D0002218315C82F83410315C11B1401C14287F
:1035E000F6D3002684F84760202D00D31F25E5621E
:1035F000C4E91456201D00F058FB04F1180000F037
:1036000054FB2461C5F120006462A061A66584F8C2
:103610005C604A465146384600F0ACFA2060B8F18A
:10362000000F01D0C8F80040BDE8F08730B511495F
:1036300000E011460A688242FBD34B685C18844262
:1036400003D1406818444860084643681C189442F7
:1036500009D1084C103C2468A24209D052681A448F
:1036600042600A6812680260814200D0086030BD82
:103670000460F9E7A001002070B5002441600B4D03
:103680000061914206D8D11A8269914206D2011D89
:10369000286907E09A4203D2994201D3012403E04A
:1036A000011DE86800F004FB204670BD7C0100208D
:1036B00010B5044600F020FBA06B20B1002400F000
:1036C0003BFB204610BD0124F9E72DE9F047814678
:1036D000086892460C460025F8B1486801F10806D2
:1036E00040684860B04201D140684860D0F80C8022
:1036F000606842686260B24201D15168616060688E
:1037000005EBC50109EB8101C76853460122384624
:1037100000F0F2FC6D1C4745EAD12846BDE8F08771
:1037200073B500260098846C5CB1A26BE06B82429A
:103730000FD3502080F31188BFF34F8FBFF36F8FEB
:10374000FEE7502080F31188BFF34F8FBFF36F8FD8
:10375000FEE7A26B82420CD294F945500A466946B4
:103760002046FFF79AFE0646681C04D06D1C84F8BC
:10377000455030467CBD606A0028FAD004F1240030
:1037800001F09EFD0028F4D00126F2E730B587B0A5
:103790002F4D52E00198002806DADDE90301029A74
:1037A00090470198002848DB039C606910B1201DF8
:1037B00000F008FA05A800F0B7F8024601980A28B8
:1037C0003BD2DFE800F00505053A263705053A2625
:1037D0000298A169034601442046FFF74DFF00B35C
:1037E000616A20468847E069012826D100200090C0
:1037F0000298A169002342181946204601F04CFEA8
:1038000078B9502080F31188BFF34F8FBFF36F8FCB
:10381000FEE70298A06128B1811813462046FFF701
:103820002BFF0AE0502080F31188BFF34F8FBFF3C6
:103830006F8FFEE7204600F093FA00231A4601A995
:10384000286801F04FF90028A4D107B030BD00006E
:103850007C0100202DE9FC410E46054600F0B4FF36
:1038600001A800F061F80446019818B101F064FD68
:10387000BDE8FC81224FAEB138690068A8B30026CC
:10388000291B3246386800F0E5FA01F055FD0028A2
:10389000EED11C494FF080500860BFF34F8FBFF34B
:1038A0006F8FE5E7A542EBD801F046FDF8682646A4
:1038B000C068C468201D00F085F9E069012810D1B6
:1038C000A0692B46411932462046FFF7D5FE40B18C
:1038D00000200346014600902A46204601F0DCFD08
:1038E00020B1616A20468847C2E707E0502080F394
:1038F0001188BFF34F8FBFF36F8FFEE70126BFE73D
:103900007C01002004ED00E00648416B096829B104
:10391000416BC968C9684968816270474FF0FF31DF
:10392000FAE700004001002070B5054601F0CCFB2D
:10393000064E0446B068844203D200F009F8012024
:1039400000E0002028602046B46070BD7C010020AB
:10395000F8B5194E1FE0C068C4680568201D00F066
:1039600031F9616A20468847E069012813D1A069CE
:103970002844A84206D924616060211DF06800F047
:1039800097F908E000200346014600902A462046A9
:1039900001F082FD38B1F06801680029DBD131699E
:1039A000C6E90310F8BD502080F31188BFF34F8F94
:1039B000BFF36F8FFEE700007C01002008484068DD
:1039C000401C4FF0500080F3118804D0BFF34F8F9C
:1039D000BFF36F8FFEE7BFF34F8FBFF36F8FFEE72D
:1039E000A8010020084CE068016839B1002139B114
:1039F0000020FFF72FFFFFF7C9FEF4E70121F6E7EC
:103A0000C0680068F5E700007C0100202DE9F04166
:103A1000044600F071F994F9455004F1240610E0D1
:103A2000A06C20B100212046FFF77AFE04E0606A16
:103A300048B1304601F044FC08B100F065FC6D1E51
:103A40006DB2002DECDC4FF0FF3684F8456000F0DD
:103A500073F900F051F994F9445004F1100709E0AA
:103A6000206948B1384601F02BFC08B100F04CFC4D
:103A70006D1E6DB2002DF3DC84F84460BDE8F041AA
:103A800000F05AB92DE9F0410546002600F09CFEF1
:103A9000314F386808B9FFF741FDF86805424BD14E
:103AA000C5B3083568070ED005F00700C0F108005F
:103AB0000544680707D0502080F31188BFF34F8F6B
:103AC000BFF36F8FFEE72DB37868854234D8224963
:103AD00010310846046801E0214604466068A842A7
:103AE00002D220680028F7D13868844224D00E68BA
:103AF0002068086060680836411B10290FD96019DA
:103B0000420708D0502080F31188BFF34F8FBFF3D6
:103B10006F8FFEE710E041606560FFF787FD616829
:103B20007868401A7860BA68904200D2B860F86845
:103B300001430020C4E9000101F0FEFB700707D03B
:103B4000502080F31188BFF34F8FBFF36F8FFEE7D4
:103B50003046BDE8F081000090010020044908686B
:103B600018B10868426D521C426508687047000031
:103B70004001002010B5031F4FF080741C601B1F14
:103B800021F001011960191F044B0B6014390A6000
:103B9000091F6FF0020244380A6010BDBD390008E9
:103BA0000749064AC1E9002000208860C860086112
:103BB00088610C2048610846FDF74CBD00100140AB
:103BC00050090020D0E9013201699A60D0E901234F
:103BD0005A604A68824201D182684A6000220261CA
:103BE0000868401E086070472DE9F04717460A46EE
:103BF00006460024202500F0E7FDDFF88C80D8F889
:103C0000080082423AD3DFF884906D1E05EB8501EF
:103C100004EBC40009EB810106EB80000122FFF7F1
:103C200054FD0444002DF0D104EBC40006EB8000E9
:103C300002224546D8F83410FFF747FD044404EB50
:103C4000C40006EB80000222A96BFFF73EFD04448E
:103C500004EBC40006EB800004220D49FFF735FD9C
:103C600004440B4904EBC40006EB8000032214312A
:103C7000FFF72BFD04440FB10020386001F05CFB1E
:103C80002046BDE8F08700004001002050210020C0
:103C90000C24002000F108014FF0FF32C0E90112AE
:103CA000C16001610021016070470021016170471E
:103CB00030B50C68621C02D000F1080202E0026913
:103CC00004E01A4653681D68A542FAD953684B6050
:103CD00099608A60516008610168491C016030BDCB
:103CE00042684A6093688B6093685960916008618C
:103CF0000168491C01607047502080F31188BFF3B0
:103D00004F8FBFF36F8F0A494868401C48600128F5
:103D10000CD10848006810F0FF0F07D0502080F346
:103D20001188BFF34F8FBFF36F8FFEE7704700001E
:103D3000A801002004ED00E00849486828B1401EB1
:103D4000486001D180F311887047502080F31188BA
:103D5000BFF34F8FBFF36F8FFEE70000A801002075
:103D600070B5002827D0144DA0F108046068E968F8
:103D7000084207D1502080F31188BFF34F8FBFF363
:103D80006F8FFEE722683AB1502080F31188BFF3AD
:103D90004F8FBFF36F8FFEE78843606000F014FD24
:103DA00060686968084468602046FFF73FFCBDE82A
:103DB000704001F0C1BA70BD9001002006484FF478
:103DC0007A710068B0FBF1F14FF0E020491E4161CB
:103DD00007210161704700006800002010B5FCF762
:103DE000A9FA114910280ED300F1E02090F8F00351
:103DF0000A78904207D2502080F31188BFF34F8F8A
:103E0000BFF36F8FFEE709480068896800F4E0603F
:103E1000884207D9502080F31188BFF34F8FBFF33A
:103E20006F8FFEE710BD0000A80100200CED00E040
:103E300010B5074B002253F832401CB1521C082A1F
:103E4000F9D310BD43F8321003EBC201486010BD36
:103E50001021002070B515460E460446FFF74CFFB2
:103E600094F944100020491C01D184F8440094F9CD
:103E70004510491C01D184F84500FFF75DFFA06B98
:103E800028B92A46314604F1240000F0F5FB20460B
:103E9000BDE87040FFF7BABD10B5020014D00F485E
:103EA000006B38B1502080F31188BFF34F8FBFF300
:103EB0006F8FFEE700F088FC00211046FFF7E8F95D
:103EC00001F03AFA002807D105494FF08050086008
:103ED000BFF34F8FBFF36F8F10BD00004001002074
:103EE00004ED00E070B50446FFF706FF244D04B969
:103EF0002C68201DFFF766FE58B9E06A214A00EBE6
:103F0000800152F8211021B901218140286988439C
:103F10002861A06A18B104F11800FFF753FE686A1F
:103F2000401C68622868844207D1211D1648FFF7AB
:103F3000D7FE6868401C686007E0A868401EA8605B
:103F40002046FFF7E0FAFFF7DFFCFFF7F5FE6869B0
:103F5000002814D02868844211D1286B38B1502031
:103F600080F31188BFF34F8FBFF36F8FFEE70749D0
:103F70004FF080500860BFF34F8FBFF36F8F70BD5D
:103F800040010020502100200C24002004ED00E01E
:103F90001CB5494C00250195606A42F2107828B1A1
:103FA000002342460421009501F076FA4FF0FF37D6
:103FB00001263B46384601AA194601F0EFF801995F
:103FC000012903D1012801D160782070480701D56B
:103FD000257001960198010702D52670019604E02C
:103FE000022800D12078012860D12078052861D2EC
:103FF000DFE800F00308193A4E0000230122667042
:10400000114650E002206070606A40B101990229B7
:1040100005D0002342460421009501F03DFA00231B
:10402000012202213FE00320607000230146009539
:104030001A46606A01F030FA002301220421206947
:1040400000F0CEFF012200231146E06900F0C8FF16
:10405000206A58B301F038F8024600950023012188
:10406000206A01F019FA21E000950023424604215C
:10407000606A01F011FA04206070002300951A466E
:104080000321206A01F008FA0023012208210AE036
:104090000095002342460421606A01F0FDF90023E7
:1040A000012266701021206900F09AFF6420FFF75A
:1040B000F3FE7EE76670B2E7000000200B4C41F291
:1040C000883500220A490B48FDF77CF80749002291
:1040D00018310848FDF754F8002301220221E06856
:1040E00000F07EFF2846FFF7D7FEEAE70000002039
:1040F00044030020900900202DE9F0471E46914618
:104100000C4607000ED0054605F13400C4E9005006
:10411000E86A2061286BE061A86CA060207B03281E
:1041200003D00AE014480568EEE700F04DFBA86AEA
:1041300008B10220207301F0FFF84FF00008286D4D
:10414000C4E90508052E01D0267303E03846FEF7C2
:10415000DBF92073B9F1000F0BD00021286B01E0CF
:10416000401C491C0278A52AFAD088082084BDE8A2
:10417000F087A4F82080FAE7400100200024114DC8
:10418000114E641CE4B2192C05D1D5F8B4020024F8
:10419000C043C5F8B4020120FCF794FB01280CD100
:1041A0000A4800F017F8094909A0FCF7E9F80122CC
:1041B00000231146F06800F013FF1420FFF76CFE97
:1041C000DFE700000000414200000020B4010020B1
:1041D000257300002DE9FF410027054607702C4894
:1041E00081680291806800EBC0008000FFF74AFC04
:1041F00006004BD000220299FFF7F6FCCDE902073A
:1042000038463AE000EBC00006EB8001087B01284D
:104210000FD002280FD003280FD004280FD000247D
:1042200049682846FCF766F92846FCF787F92021FB
:1042300009E05224F4E74224F2E75324F0E744244F
:10424000EEE72954401C1328FBD32F540544039850
:1042500000EBC00006EB80008268018CCDE9001203
:10426000036922460BA12846FCF796F82846FCF77E
:1042700065F905440398401C039002998842C1D314
:1042800004B03046BDE8F041FFF76ABDBDE8FF81EC
:104290004001002009256309257509257509257543
:1042A0000D0A00001CB50025164C6E1E4FF48079D7
:1042B00042F210774FF4FA7801953346304601AA5E
:1042C000194600F06BFFFEF795FAA07000230095E9
:1042D0001A460321206A01F0DFF82078022805D170
:1042E000002301224946206900F07AFE0095002350
:1042F0003A460421606A01F0CFF84046FFF7CCFD52
:10430000DBE700000000002001490120C861704780
:10431000400100201CB500206427B94E4FF0FF3843
:104320000A2401904346404601AA194600F036FF90
:10433000012818D1019810287ED008DC012810D05F
:10434000022811D0042878D00828F2D197E020283C
:1043500074D0402873D0802872D0B0F5807FE8D127
:1043600008E1FDF7BBFA46E1A648002100900123D1
:1043700080220846FDF7CFFAA34D02212878B0FB32
:10438000F4F03030C2B21820FDF738FC2878B0FBCA
:10439000F4F104FB1102022128203032FDF72EFC3B
:1043A0003A2202213820FDF729FC68780221B0FB6F
:1043B000F4F03030C2B24820FDF720FC6878B0FB42
:1043C000F4F104FB1102022158203032FDF716FCF3
:1043D0008B4D102318350621E878B0FBF4F030300F
:1043E000C2B22020FDF7AAFBE8781023B0FBF4F15D
:1043F00004FB1102062128203032FDF79FFB102319
:104400002D2206213020FDF799FB68781023B0FBA0
:10441000F4F03030C2B206213820FDF78FFB687807
:104420001023B0FBF4F104FB1102062140203032CE
:10443000FDF784FB102304E052E01BE081E088E0FC
:1044400090E02D2206214820FDF778FBA878102364
:10445000B0FBF4F03030C2B206215020FDF76EFB05
:10446000A8781023B0FBF4F104FB110206215820B8
:10447000303263E007210220FDF704FBBBE0072197
:104480000220FDF7FFFA1023312206212020FDF73C
:1044900055FB1023312206212820FDF74FFB102366
:1044A0002D2206213020FDF749FB10233122062161
:1044B0003820FDF743FB1023312206214020FDF771
:1044C0003DFB10232D2206214820FDF737FB10234A
:1044D000312206215020FDF731FB102331222BE041
:1044E0001023322206212020FDF728FB1023322240
:1044F00006212820FDF722FB10232D220621302043
:10450000FDF71CFB1023322206213820FDF716FB95
:104510001023322206214020FDF710FB10232D220C
:1045200006214820FDF70AFB1023322206215020E5
:10453000FDF704FB1023322206215820FDF7FEFA76
:1045400059E0324A02213020FDF7B2FB102330A29D
:104550004DE02E4A022180323020FDF7A9FB1023C6
:104560002EA244E0304A02213020FDF7A1FB1023A7
:104570002EA23CE005210220FDF784FA0022022150
:104580001046FDF7B3FA012202211020FDF7AEFA22
:10459000022211462020FDF7A9FA10233A22022117
:1045A0003020FDF7CBFAB078B0FBF7F028B130300F
:1045B000C2B203213820FDF721FBB078B0FBF7F140
:1045C00007FB1100B0FBF4F028B13030C2B2032178
:1045D0004820FDF713FBB078B0FBF4F104FB1102A7
:1045E000032158203032FDF709FB102312A20621C7
:1045F0001820FDF7E7FA6420FFF74EFC92E6000072
:10460000000000200655000844030020065600085C
:104610002E2E2E2020202020200000002E2E2E2E98
:104620002E2E202020000000065700082E2E2E2EB1
:104630002E2E2E2E2E000000202020202020202094
:10464000202062706D00000010B50C4650B1094981
:1046500009681831FFF72CFB2046BDE81040012106
:10466000FEF716BE502080F31188BFF34F8FBFF3C3
:104670006F8FFEE74001002070B514460D4668B10B
:104680000A4909681831FFF72BFB0CB14FF0FF35D1
:1046900021462846BDE87040FEF7FABD502080F361
:1046A0001188BFF34F8FBFF36F8FFEE740010020EB
:1046B00070B5040039D01D4DE06A2968C96A884286
:1046C00033D2A069002804DB2868C06AC0F120004A
:1046D000A061E06A164E00EB8000616906EB800085
:1046E00081421FD1201DFFF76DFA012150B9E06A08
:1046F00000EB800256F8222022B92A6901FA00F064
:1047000082432A612868C06AE0622A6981401143B5
:10471000296100EB800006EB8000211DBDE87040A0
:10472000FFF7DEBA2868C06AE06270BD4001002071
:104730005021002028B107490A6A0260C968416017
:104740007047502080F31188BFF34F8FBFF36F8FF6
:10475000FEE70000400100201CB517480024CDE909
:1047600000402346822215A1164800F00DFC0128C6
:1047700003D100F06BFE012809D0401C1AD1502053
:1047800080F31188BFF34F8FBFF36F8FFEE7502088
:1047900080F31188BFF34F8FBFF36F8F06484FF040
:1047A000FF312C38816201214161C460BDE81C40A9
:1047B00000F0E4B81CBD00006C01002049444C45E9
:1047C00000000000693500080248016B491C0163C4
:1047D0007047000040010020144A106B10B1012006
:1047E000D06170470020D06110691149B0FA80F0A3
:1047F000C0F11F0000EB800051F820306BB101EBDD
:10480000800000F10803416849684160994201D184
:1048100049684160C86810607047502080F3118873
:10482000BFF34F8FBFF36F8FFEE700004001002002
:10483000502100207CB52B490020C1F8B402FFF7BD
:104840005BFA2948012300901A46C82127A000F0EE
:10485000D5FD2B4C0223002220622A4800904FF401
:10486000FA7129A000F0CAFD606204F10801042079
:10487000CDE900010023402227A12A4800F084FB53
:1048800004F110010320CDE900010023402226A1FC
:104890002A4800F079FB04F10C010120CDE9000168
:1048A0000023402226A12B4800F06EFB04F11400E7
:1048B0000225CDE900500023402227A1294800F01D
:1048C00063FB04F11C00CDE900500023EA0126A19E
:1048D000294800F059FB6068FFF704FBBDE87C4005
:1048E000FFF72ABA00004142D91E000868656172CC
:1048F000745F726174655F646973706C61790000E4
:1049000000000020251F00086F6E655F73686F74DC
:104910005F74696D657200005461736B5F4C656410
:10492000000000007D4100085461736B5F4F6C65AF
:1049300064446973706C61790000000015430008DD
:104940005461736B5F446973706C61795F617373F9
:1049500069737400913F00085461736B5F52544354
:1049600000000000BD4000085461736B5F4D41586A
:104970003330313032000000A54200081CB5334806
:104980000168334A914207D1502080F31188BFF368
:104990004F8FBFF36F8FFEE700682D49491E884295
:1049A00007D1502080F31188BFF34F8FBFF36F8F73
:1049B000FEE7284908780190FF20087008788DF8F4
:1049C00000009DF800009DF8002000F0F0009042EB
:1049D00007D0502080F31188BFF34F8FBFF36F8F44
:1049E000FEE79DF800001C4A00F050001070072000
:1049F000906007E09068401E90609DF800004000C5
:104A00008DF800009DF800000006F3D4107A000233
:104A100000F4E0609060019808700C482030016854
:104A200041F470010160016841F070410160FFF7DD
:104A3000C5F900205060FBF745FC0848016841F0CB
:104A400040410160FBF72EFC00201CBD00ED00E0A2
:104A500071C20F4100E400E0A801002034EF00E043
:104A600010B5502080F31188BFF34F8FBFF36F8FC5
:104A700000F030FB18B104494FF08050086000206E
:104A800080F3118810BD000004ED00E02DE9F04135
:104A900017460E46050018D0FEB105FB06F054304F
:104AA000FEF7F0FF04000ED004F15400BEB1206008
:104AB000C4E90F562046012100F0CCF884F850706C
:104AC00000212046A164BDE8F081502080F31188C8
:104AD000BFF34F8FBFF36F8FFEE70020DFE7246047
:104AE000E6E700002DE9FF4F83B09B468A460400AD
:104AF0004FF0000603D0BAF1000F08D011E05020AB
:104B000080F31188BFF34F8FBFF36F8FFEE7206CE8
:104B100038B1502080F31188BFF34F8FBFF36F8FF0
:104B2000FEE700F0C3FADFF828814FF000094FF0EC
:104B3000805748B9059838B1502080F31188BFF3E9
:104B40004F8FBFF36F8FFEE7FFF7D6F8A56B45B326
:104B500051462046E668FEF78DFCBBF1000F13D0EE
:104B6000E660606A50B104F1240000F0A9FB28B1AE
:104B7000C8F80070BFF34F8FBFF36F8FFFF7DCF8FB
:104B8000012007B0BDE8F08F6D1EA563206810B945
:104B9000FEF7E4FF606020690028EFD004F1100008
:104BA000E3E7059808B11EB106E0FFF7C5F827E076
:104BB0006846FFF7BFFD0126FFF7BEF8FFF704FECA
:104BC000FFF79AF894F94400401C01D184F844900E
:104BD00094F94500401C01D184F84590FFF7ACF8EA
:104BE00005A9684600F09AF9002820460AD0FEF789
:104BF0000DFF00F0A1FB2046FEF75AFD0028A3D0D0
:104C00000020BEE7FEF754FDD8B1206830B9FFF7A9
:104C100073F86068FFF74CFDFFF78EF804F124008D
:104C20000599FFF711FD2046FEF7F0FE00F084FB2A
:104C3000002889D1C8F80070BFF34F8FBFF36F8F82
:104C400082E72046FEF7E2FE00F076FB7CE70000FC
:104C500004ED00E070B50D46040025D0FFF74CF8D8
:104C6000D4E90F20216802FB001161600021A163DB
:104C70002168A1600A46D4E90F01401E00FB012112
:104C8000E16021464FF0FF3001F8440F487004F115
:104C900010008DB1FEF7FEFF04F12400FEF7FAFFCD
:104CA000FFF74AF8012070BD502080F31188BFF350
:104CB0004F8FBFF36F8FFEE721690029F0D000F01E
:104CC000FFFA0028ECD004494FF080500860BFF391
:104CD0004F8FBFF36F8FE3E704ED00E02DE9FF4F47
:104CE00083B099468B4604004FF0000603D0BBF119
:104CF000000F08D011E0502080F31188BFF34F8FD0
:104D0000BFF36F8FFEE7206C38B1502080F311881D
:104D1000BFF34F8FBFF36F8FFEE7B9F1020F0AD1D8
:104D2000E06B012807D0502080F31188BFF34F8F2C
:104D3000BFF36F8FFEE700F0B9F9DFF810814FF095
:104D4000000A4FF0805748B9059838B1502080F3D9
:104D50001188BFF34F8FBFF36F8FFEE7FEF7CCFFD5
:104D6000A06BE16B884206D3B9F1020F03D005981E
:104D700000B316B325E04A4659462046FEF78DFBA0
:104D8000A16C21B149462046FEF7CAFC05E0616AE4
:104D900019B104F1240000F093FA28B1C8F80070AA
:104DA000BFF34F8FBFF36F8FFEF7C6FF012007B031
:104DB000BDE8F08FFEF7C0FF21E06846FFF7BAFCC0
:104DC0000126FEF7B9FFFFF7FFFCFEF795FF94F908
:104DD0004400401C01D184F844A094F94500401CD3
:104DE00001D184F845A0FEF7A7FF05A9684600F0A9
:104DF00095F830B12046FEF709FE00F09DFA00203C
:104E0000D5E7FEF779FFA06BE16B884201D1012560
:104E100000E00025FEF790FF95B104F11000059920
:104E2000FFF712FC2046FEF7F1FD00F085FA00289E
:104E300094D1C8F80070BFF34F8FBFF36F8F8DE729
:104E40002046FEF7E3FD00F077FA87E704ED00E087
:104E50002DE9F047984615468946040003D0B9F17C
:104E6000000F08D011E0502080F31188BFF34F8F5E
:104E7000BFF36F8FFEE7206C38B1502080F31188AC
:104E8000BFF34F8FBFF36F8FFEE7B8F1020F0AD168
:104E9000E06B012807D0502080F31188BFF34F8FBB
:104EA000BFF36F8FFEE7FEF799FF5020EFF31187F6
:104EB00080F31188BFF34F8FBFF36F8FA06BE16B4F
:104EC000884207D3B8F1020F04D0002087F311887D
:104ED000BDE8F08794F94560424649462046FEF712
:104EE000DCFA701C04D0761C84F845600120EDE7E4
:104EF000A06C012620B141462046FEF711FC06E0D9
:104F0000606A0028F2D004F1240000F0D9F90028EA
:104F1000ECD0002DEAD02E60E8E7000070B50D4619
:104F2000040019D005B3FEF7E7FE164AD0682968D9
:104F30004B1C0FD02368126A934202D062688242EF
:104F40001AD96268801A884216D2081A2860204648
:104F5000FFF7F0FB002410E0502080F31188BFF32E
:104F60004F8FBFF36F8FFEE7502080F31188BFF3A0
:104F70004F8FBFF36F8FFEE70124FEF7DDFE204663
:104F800070BD0000400100202DE9FF5F8346DDE990
:104F90000E87994616468A469000FEF773FD050077
:104FA0001AD06020FEF76EFD040012D025630021A8
:104FB000CDE90241CDE900874B463246514658467D
:104FC000FEF7E6FA2046FEF79BF9012004B0BDE8A3
:104FD000F09F2846FEF7C4FE4FF0FF30F6E70000D2
:104FE0002DE9F0411F4690460D46012690B104463A
:104FF000FEF782FE0FB1A06D386094F85C000221CC
:1050000084F85C10B8F1050F16D2DFE808F0150B34
:105010000E141200502080F31188BFF34F8FBFF39E
:105020006F8FFEE7A16D294301E0A16D491CA165C9
:1050300002E0022803D0A565012802D02AE000265C
:1050400028E0201DFEF7BEFD154DE06A01212A690A
:10505000814011432961134900EB800001EB80007E
:10506000211DFEF73DFEA06A38B1502080F3118863
:10507000BFF34F8FBFF36F8FFEE7E06A2968C96AFD
:10508000884207D908494FF080500860BFF34F8F1E
:10509000BFF36F8FFEF750FE3046BDE8F081000091
:1050A000400100205021002004ED00E00548416946
:1050B00019B1006B18B10020704701207047022021
:1050C00070470000400100200148C06870470000A0
:1050D000400100202DE9F0412E4F0026386B40B1F1
:1050E000B869401CB861F86900B101263046BDE8D6
:1050F000F081FD686D1CFD6013D1786B006838B1DC
:10510000502080F31188BFF34F8FBFF36F8FFEE7FE
:10511000786BB96B7963B863386A401C3862FEF704
:10512000F3FBB86ADFF87080854209D3786B0068BA
:1051300080B1786BC068C468606885420DD2B8627F
:105140003868C06A00EB800158F821000128CAD9EC
:105150000126C8E74FF0FF30F1E7201DFEF732FDD2
:10516000A06A18B104F11800FEF72CFDE06A0121D5
:105170003A6981401143396100EB800108EB8100FD
:10518000211DFEF7ADFDE06A3968C96A8842CDD3BA
:105190000126CBE740010020502100202DE9F041FD
:1051A0001E46154688460746FEF7A6FD1C4C20689D
:1051B00090F85C00022814D02068816DB9438165A5
:1051C0002168012081F85C005EB101213046FEF7C4
:1051D0005FF814494FF080500860BFF34F8FBFF362
:1051E0006F8FFEF7A9FDFEF787FD15B12068806D72
:1051F0002860206890F85C0001280ED02068816D3E
:1052000021EA0801816501252168002081F85C0000
:10521000FEF792FD2846BDE8F0810025F4E7000086
:105220004001002004ED00E070B504004FF00000E4
:1052300041D0214D29688C4207D0502080F311883D
:10524000BFF34F8FBFF36F8FFEE7616D71B1491EE2
:105250006165236DE26A9A422DD000292BD1201D71
:10526000FEF7B0FC1549012240B112E0502080F356
:105270001188BFF34F8FBFF36F8FFEE7E06A00EB3B
:10528000800351F8233023B92B6902FA00F08343DD
:105290002B61206DE062C0F12000A061E06A2B6903
:1052A00082401A432A6100EB800001EB8000211D3F
:1052B000FEF716FD012070BD4001002050210020A6
:1052C0002DE9F041C068C468ACB104F1180007468C
:1052D000FEF778FC154D286B0126A0B1394614481D
:1052E000FEF7FEFCE06A2968C96A88421BD90120E2
:1052F000EE61BDE8F081502080F31188BFF34F8F3D
:10530000BFF36F8FFEE7201DFEF75CFCE06A2A69A1
:1053100006FA00F111432961064900EB800001EB18
:105320008000211DDCE70020E3E7000040010020B1
:10533000F8230020502100202DE9F0472C4D0024B7
:105340002746286B38B1FEF7D7FC286B401E286330
:10535000286B40B146E0502080F31188BFF34F8F97
:10536000BFF36F8FFEE7A86822490126D0B3A1F5ED
:105370002A798846D8F80010E9B1D8F80C00C4683A
:1053800004F11800FEF71EFC201DFEF71BFCE06A6E
:105390002A6906FA00F11143296100EB800109EB4B
:1053A0008100211DFEF79CFCE06A2968C96A8842D9
:1053B000E0D3EE61DEE70CB1FEF7A6FAAC693CB1D2
:1053C000FFF788FE00B1EE61641EF9D10020A861EC
:1053D000E86938B10849012738070860BFF34F8FE3
:1053E000BFF36F8FFEF7A8FC3846BDE8F0870000DA
:1053F00040010020F823002004ED00E02DE9F047F3
:105400000746994616460D462C20DDF820A0FEF7EB
:1054100039FB04000ED0B8464F46D1466DB1FDF7BA
:10542000D7FF04F11801C4F8008081E8E002201DD4
:10543000FEF73BFC2046BDE8F087502080F3118842
:10544000BFF34F8FBFF36F8FFEE700001CB5FDF772
:10545000BFFF0D48006868B10B491F20091DCDE949
:10546000000100234FF4827208A10A48FFF78CFD67
:10547000002807D1502080F31188BFF34F8FBFF36E
:105480006F8FFEE71CBD00007C010020546D722070
:1054900053766300E53900082DE9FF411F460300FC
:1054A0000A9E4FF0000015D0134D2C68002C0ED032
:1054B0008DE80E00062917DAFFF7F8FD02284FF0F5
:1054C00000030FD0002269462868FFF707FC04B0EC
:1054D000BDE8F081502080F31188BFF34F8FBFF3F8
:1054E0006F8FFEE73246EEE700233A4669462046D4
:1054F000FFF7AEFCEBE700007C0100204FF04070AE
:10550000E1EE100A704700060AFE0AC600E000F04D
:1055100000F8000000000000FE7DBBC7EFEFEFEFDA
:10552000EFEFEFC7BB7DFE000000000000000000B1
:10553000000000000000000000000000000000006B
:10554000000000000000000000000000000000005B
:10555000000000000000000000000000000000004B
:105560000000000000080CFEFE0C082060FEFE603B
:10557000200000007848FE82BABA82BABA82BABA6B
:1055800082BABA82FE0000000000000000000000A5
:105590000000000000000000000101010101010104
:1055A00001010101010100000000000000000000F5
:1055B00000000000000000000000000000000000EB
:1055C00000000000000000000000000000000000DB
:1055D00000000000000000000000000000000000CB
:1055E00000000000000000000000000000000000BB
:1055F00000000000000000000000000000000000AB
:10560000000000000000000000000000000000009A
:10561000000000000000000000000000000000008A
:105620000000000000000000000000000000FEFF7D
:10563000FFFFFFFFFFFEFEFFFFFFFFFFFFFE00007B
:105640000000000000000000000000000000010356
:10565000070F1F3F7FFFFF7F3F1F0F070301000062
:10566000000000000000000000000000000000003A
:10567000000000000000000000000000000000002A
:1056800000000000000000000080E0F0F8F8F8F8EA
:10569000F8F8F8F0E0C0C0E0F0F8F8F8F8F8F8F83A
:1056A000F0E080000000000000FFFFFFFFFFFFFFB1
:1056B000FFFFFFFFFFFFFFFFFFFFFFFFFFFFFFFFFA
:1056C000FFFFFF0000000000000103070F1F3F3F26
:1056D0007FFFFFFFFFFFFFFFFFFFFF7F3F3F1F0F2A
:1056E00007030100000000000000000000000000AF
:1056F00000000103071F1F0F03010000000000004E
:10570000000000000000C0F0F8FCFEFEFEFEFEFE01
:10571000FEFEFCF8F0E0E0F0F8FCFEFEFEFEFEFE11
:10572000FEFEFCF8F0C0FFFFFFFFFFFFFFFFFFFFE3
:10573000FFFFFFFFFFFFFFFFFFFFFFFFFFFFFFFF79
:10574000FFFFFFFFFFFF01070F1F3F3F7FFFFFFF2F
:10575000FFFFFFFFFFFFFFFFFFFFFFFFFFFFFF7FD9
:105760003F1F1F0F030100000000000000000001A8
:1057700003070F1F3FFFFF7F1F0F070301000000FC
:10578000000000000000000000000102030400000F
:105790000000000000000000002F000000000700D3
:1057A000070000147F147F1400242A7F2A1200624D
:1057B00064081323003649552250000005030000F9
:1057C00000001C224100000041221C000014083E81
:1057D00008140008083E0808000000A06000000847
:1057E000080808080000606000000020100804029B
:1057F000003E5149453E0000427F40000042615159
:105800004946002141454B31001814127F100027F2
:1058100045454539003C4A494930000171090503B5
:1058200000364949493600064949291E00003636E6
:105830000000000056360000000814224100001449
:105840001414141400004122140800020151090626
:1058500000324959513E007C1211127C007F4949A7
:105860004936003E41414122007F4141221C007FD8
:1058700049494941007F09090901003E4149497AE6
:10588000007F0808087F0000417F41000020404160
:105890003F01007F08142241007F40404040007FCC
:1058A000020C027F007F0408107F003E4141413E10
:1058B000007F09090906003E4151215E007F091958
:1058C00029460046494949310001017F0101003F55
:1058D0004040403F001F2040201F003F4038403FD5
:1058E0000063140814630007087008070061514939
:1058F000454300007F41410000552A552A550000CC
:1059000041417F0000040201020400404040404049
:10591000000001020400002054545478007F4844E1
:10592000443800384444442000384444487F003818
:105930005454541800087E0901020018A4A4A47C41
:10594000007F080404780000447D4000004080840B
:105950007D00007F102844000000417F4000007C53
:1059600004180478007C080404780038444444385F
:1059700000FC242424180018242418FC007C0804AB
:10598000040800485454542000043F444020003C84
:105990004040207C001C2040201C003C4030403C0B
:1059A000004428102844001CA0A0A07C004464549B
:1059B0004C441414141414140000000000000000DF
:1059C0000000000000000000000000F800000000DF
:1059D000000000333000000000100C06100C060020
:1059E000000000000000000040C07840C078400087
:1059F000043F04043F040400007088FC08300000E9
:105A0000001820FF211E0000F008F000E018000040
:105A100000211C031E211E0000F0088870000000F9
:105A20001E2123241927211010160E00000000004B
:105A30000000000000000000000000E01804020068
:105A4000000000071820400000020418E0000000D9
:105A50000040201807000000404080F080404000D7
:105A60000202010F01020200000000F0000000002D
:105A70000101011F01010100000000000000000001
:105A800080B0700000000000000000000000000076
:105A900000010101010101010000000000000000FF
:105AA000003030000000000000000000806018049A
:105AB000006018060100000000E010080810E00077
:105AC000000F102020100F00001010F80000000040
:105AD0000020203F20200000007008080888700087
