:0201310080FE4E
:0300000002000EED
:0C000E00787FE4F6D8FD758120020055D3
:0101350022A7
:1000E600538E7F5389F0438901758AF0758CD8C287
:0700F6008DD28C43A8822289
:03000B0002012AC5
:07012A00758AF0758CD832D4
:08012100010D00C100010C00FA
:10011000439850438920758BFD758DFDD28ED2AFEB
:0101200022BC
:080003008F993099FDC299228A
:1000FD001200CDFF600C120003740129F9E43AFAE5
:03010D0080EE225F
:08009A008B088A09890A8D0B0D
:1000A200E4FDFCC3ED950B7480F86C98501CAB0812
:1000B200050AE50AAA097002050914F91200CDFF22
:0A00C2001200030DBD00010C80D9EF
:0100CC002211
:0201330080FE4C
:10001A00020131E493A3F8E493A34003F68001F2CA
:10002A0008DFF48029E493A3F85407240CC8C333E7
:10003A00C4540F4420C8834004F456800146F6DFB6
:10004A00E4800B0102040810204080900121E47E24
:10005A00019360BCA3FF543F30E509541FFEE493AB
:10006A00A360010ECF54C025E060A840B8E493A372
:10007A00FAE493A3F8E493A3C8C582C8CAC583CA9D
:10008A00F0A3C8C582C8CAC583CADFE9DEE780BE55
:0101290000D5
:1000CD00BB010689828A83E0225002E722BBFE0231
:0900DD00E32289828A83E4932264
:00000001FF
