:0300000002074DA7
:0C074D00787FE4F6D8FD75817D020794EA
:10080100010A0005343030302E30052D30303030C3
:0108110030B6
:1008A4001208BA7D2E7F0B1208767F0C1208437D46
:0608B400207F0A02087615
:0A08CD0000007F6C7E90DEFEDFFC71
:0108D70022FE
:10000300E4FD20A10A1208CD20A1040D30A1FD209A
:0F001300A20B1208CD20A2057D0230A2FDAF0581
:0100220022BB
:10050200E4F550F5511208A4E4FF1208438F4F7F1F
:10051200021208438F4E7F041208438F4DE54D753A
:10052200F00A84FD7C007F087E0012029FE54D7573
:10053200F00A84E5F0FD7C007F077E0012029FE551
:100542004E75F00A84FD7C007F057E0012029FE555
:100552004E75F00A84E5F0FD7C007F047E001202F5
:100562009FE54F75F00A84FD7C007F027E00120237
:100572009FE54F75F00A84E5F0FD7C007F017E0067
:1005820012029FE54DB40C18E54EB40113E551B4C7
:10059200010E900012E0FFA3E0FDA3E0FB12085D54
:1005A200E50A7004F5518079E50A44016073E54675
:1005B200700C0550E55064FA7064F5518060E4F502
:1005C20050E54724D075F00AA4FFE54824D02F90C7
:1005D2000012F0E54924D075F00AA4FFE54A24D0C0
:1005E2002FA3F0E54B24D075F00AA4FFE54C24D0EC
:1005F2002FA3F0900012E02408F0E075F01884AF09
:10060200F0EFF0C394185013A3E0C3943C500CA332
:10061200E0C3943C50057551018003E4F551530A3F
:10062200FE120003EF24FE602004600302050AE5C7
:10063200516401600302050A900012E0FFA3E0FD8D
:10064200A3E0FB12085D02050A7B32E4FD7F0C1277
:05065200085D02050A2D
:03002300020026B2
:10002600C0E0C0F0C083C082C0D075D000C000C0A0
:0100360007C2
:1000370020980302028EAF99EF24D6601824FE6041
:100047000C24087030754500750B01800205397561
:100057000C0002028EE54524FE600C14600E24029B
:10006700700D430A818008430A828003430A84751E
:100077000B0002028EE50B6401600302011974177D
:10008700250CF8A607E50C6404600302028CE5174B
:10009700B44720E518B4501BE519B44716E51AB460
:1000A7004711E51BB4410C754501750B0275390005
:1000B700750C00E517B44720E518B4501BE519B4D3
:1000C7004716E51AB45311E51BB4560C754502756E
:1000D7000B02753900750C00E517644760030202CF
:1000E7008CE5186450600302028CE51964526003C2
:1000F70002028CE51A644D600302028CE51B64431F
:10010700600302028C754503750B02F539F50C0285
:10011700028CE50B6402600302028CE54524FE7045
:10012700030201CF1470030201E7240260030202F5
:100137008CE53924FEB40800400302028C9001527A
:1001470075F003A4C58325F0C5837302016A020114
:10015700770201860201930201A20201B102028C19
:100167000201C0E50CC39409400302028C0202435A
:10017700E50CC39401400302028C8F3302028CE525
:100187000CC3940A400302028C020259E50CC39483
:1001970001400302028C8F3202028CE50CC39401EA
:1001A700400302028C8F4602028CE50CC394024086
:1001B7000302028C7408020287E50CC3940640030D
:1001C70002028C741E020287E53924FD60030202D5
:1001D7008CE50CC39402400302028C741C02028754
:1001E700E53914B40900400302028C90020075F04F
:1001F70003A4C58325F0C5837302021B02022602EE
:10020700023C02024702025202025D020268020237
:100217007302027EE50CC39406506A74478061E559
:100227000CC39401505FBF4103754601EF645670DC
:1002370054F5468050E50CC3940950497424804016
:10024700E50CC39401503E8F33803AE50CC3940A02
:100257005033740D802AE50CC3940150288F3280E7
:1002670024E50CC39405501D74348014E50CC39425
:10027700055012742D8009E50CC394065007743A93
:09028700250CF8A607050CC2982D
:0F029000D007D000D0D0D082D083D0F0D0E032D1
:1007D9000000000000000000000000000000000010
:1007E9000000000000000000000000000000000000
:0807F9000000000000000000F8
:100812005200000003000E0004000F00110010003F
:050822001300120005A7
:08029F008E528F538C548D55D3
:1002A70078567C007D007BFF7A0779D97E007F280E
:1002B700120727D295C294E55325E0FFE55233FE96
:1002C70074FE2FF58274FF3EF583A3E025E02456E4
:1002D700F87600087601E55460030204D8E555B4C2
:1002E700170040030204D89002F5F8282873020388
:1002F7003A02033D02033F02034E0203560203592B
:1003070002035C02036A0203790203930203A80251
:1003170003C90203DE0203FF02041A0204280204CF
:10032700420204500204700203590204AA0204CADA
:100337000204D20203DE80317562007563017566BF
:100347000075670102040B7562007563018049023D
:100357000476020490756200756301756400756523
:10036700018021756200756301756600756701027A
:1003770004887562007563017564007565017566AB
:1003870000756701756800756901805D75620075A4
:100397006301756400756501756600756701020480
:1003A7009C7562007563017564007565017566006B
:1003B700756701756800756901756A00756B0102DB
:1003C7000488756200756301756400756501756859
:1003D700007569010204C2756200756301756400E6
:1003E700756501756600756701756A00756B01753E
:1003F7006C00756D010204C2756200756301756456
:1004070000756501756800756901756A00756B018E
:100417000204C27562007563017564007565018029
:100427003A75640075650175660075670175680042
:10043700756901756A00756B01804675640075659D
:1004470001756A00756B01807275620075630175CD
:1004570064007565017566007567017568007569E3
:1004670001756A00756B01806875620075630175B7
:1004770064007565017566007567017568007569C3
:1004870001756C00756D01804875620075630175B3
:100497006400756501756800756901756C00756D97
:1004A70001801875640075650175660075670175CB
:1004B7006A00756B01756C00756D01756E00756F5F
:1004C70001800E7570007571018006756800756989
:1004D70001E4FFFEC29300EF25E02456F8E6FC088E
:1004E700E64C24FF929200D293000FBF00010EEF5B
:0A04F70064144E70DFD294C2950029
:0105010022D7
:10087600C2A4D2A5D2A7D2A68F80C2A5C2A68D80B9
:07088600D2A6D2A5D2A422E4
:10084300D2A5D2A7D2A6C2A48F80C2A5C2A7758003
:09085300FFAF80D2A7D2A5D2A408
:01085C002279
:10082800AE07AF03AC05AD077F01120876AD047FB4
:0B08380003120876AD067F050208766B
:10085D00AE03AC05AD077F04120876AD047F02121E
:09086D000876AD06E4FF020876EE
:10088D00AE03AC05AD077F09120876AD041F120843
:07089D0076AD061F0208768C
:0708E000AD077F0602087658
:1008BA00759850758920758BFD758DFDD28ED2ACD9
:0308CA00D2AF2288
:0808D8008F993099FDC29922AD
:10075900020502E493A3F8E493A34003F68001F2AF
:1007690008DFF48029E493A3F85407240CC8C333A1
:10077900C4540F4420C8834004F456800146F6DF70
:10078900E4800B0102040810204080900801E47EF7
:10079900019360BCA3FF543F30E509541FFEE49365
:1007A900A360010ECF54C025E060A840B8E493A32C
:1007B900FAE493A3F8E493A3C8C582C8CAC583CA57
:1007C900F0A3C8C582C8CAC583CADFE9DEE780BE0F
:0108270000D0
:10065700E709F608DFFA8046E709F208DFFA803E85
:1006670088828C83E709F0A3DFFA8032E309F60872
:10067700DFFA8078E309F208DFFA807088828C83DA
:10068700E309F0A3DFFA806489828A83E0A3F6088E
:10069700DFFA805889828A83E0A3F208DFFA804C68
:1006A70080D280FA80C680D4806980F2803380103F
:1006B70080A680EA809A80A880DA80E280CA8033A8
:1006C70089828A83ECFAE493A3C8C582C8CCC58320
:1006D700CCF0A3C8C582C8CCC583CCDFE9DEE780F0
:1006E7000D89828A83E493A3F608DFF9ECFAA9F06F
:1006F700EDFB2289828A83ECFAE0A3C8C582C8CCC5
:10070700C583CCF0A3C8C582C8CCC583CCDFEADEDD
:10071700E880DB89828A83E493A3F208DFF980CC3F
:1007270088F0EF60010E4E60C388F0ED2402B40438
:100737000050B9F582EB2402B4040050AF232345DF
:0607470082239006A77357
:00000001FF
