:100000000C943E000C94E7000C945B000C945B0095
:100010000C945B000C945B000C945B000C945B00F4
:100020000C945B000C945B000C945B000C945B00E4
:100030000C945B000C945B000C945B000C945B00D4
:100040000C945B000C945B000C949A000C945B0085
:100050000C945B000C945B000C945B000C945B00B4
:100060000C945B000C945B000C945B000C945B00A4
:100070000C945B000C945B000C945B0011241FBE7D
:10008000CFEFD8E0DEBFCDBF11E0A0E0B1E0E2EA03
:10009000F7E002C005900D92A630B107D9F711E044
:1000A000A6E0B1E001C01D92A930B107E1F70E94BE
:1000B0002F010C94CF030C94000080EF81B99FEFC7
:1000C00092B98FEB84B995B997B998B982E08AB99A
:1000D0009BB9229A2A98219A29980895813049F447
:1000E00015BC14BC80936E008BE886BD85E085BD91
:1000F0000895882309F415BC0895982F813079F468
:100100001CBA109268001BBA1092730010926D0016
:1001100010926C0082E0809369009DBB0895882353
:1001200009F41DBA0895FC0102C041936150662391
:10013000E1F708951F920F920FB60F9211242F939B
:100140005F936F937F938F939F93AF93BF9386B586
:10015000855786BDF894809106019091070101961C
:10016000909307018093060180910001813019F07E
:100170008230F9F410C0809106019091070164E685
:1001800070E00E94BB03892BA1F4229A85B194E010
:10019000892785B90EC08091060190910701895881
:1001A000934138F081E080930001229A2A98219AA5
:1001B00029987894BF91AF919F918F917F916F9182
:1001C0005F912F910F900FBE0F901F9018951F9267
:1001D0000F920FB60F9211248F93F89481E08093C1
:1001E000080178948F910F900FBE0F901F90189573
:1001F000FF920F931F938C01F62E0E94A0022B9862
:10020000C8016F2D0E9474022B9A80E58A95F1F740
:100210002B981F910F91FF9008951F930E945D00EE
:100220001CBA109268001BBA1092730010926D00F5
:1002300010926C0082E08093690011E01DBB81E0A8
:100240000E94960115BC14BC10936E008BE886BD0D
:1002500085E085BD0E94640378941F910895CF9234
:10026000DF92EF92FF920F931F93DF93CF9300D013
:1002700000D00F92CDB7DEB77E010894E11CF11CCF
:10028000CE01069603C0F70111927F01E816F90628
:10029000D1F70E940D016E010894C11CD11C02E02F
:1002A00080910001813019F08230D1F714C0809123
:1002B00008018130A9F70E94010386FF34C086E05F
:1002C0000E941D030E94A50200930001219A299A11
:1002D000229A2A9A28C080910801813009F70E9449
:1002E000010386FF20C0109207011092060110E062
:1002F00011C01192EE15FF05E1F7C6010E9405033A
:10030000C60165E00E94CF011F5F163019F40E94FC
:10031000A50206C00E94F50280FD02C0F601EACFE8
:1003200086E00E941D0310920801BACF813079F453
:100330001092C0001092C1001092C5008DE0809311
:10034000C40086E08093C20088E98093C1000895CC
:10035000982F8091C00085FFFCCF9093C6008091BC
:10036000C00086FFFCCF8091C00080648093C000F5
:100370000895FC0110C08091C00085FFFCCF9093D0
:10038000C6008091C00086FFFCCF31968091C000EE
:1003900080648093C0009081992369F70895FC01DF
:1003A00012C090818091C00085FFFCCF9093C60061
:1003B0008091C00086FFFCCF31968091C0008064A0
:1003C0008093C0006150662361F70895813019F46D
:1003D00080E58CBD0895882319F48CB58F7B8CBD86
:1003E00008958EBD80E090E038E205C0019731F0BD
:1003F000232F2A95F1F70DB407FEF8CF8EB5089597
:10040000FC018FEF38E20EC09EBD80E090E005C099
:10041000019731F0232F2A95F1F70DB407FEF8CF9D
:1004200031968EB59081992379F70895FC018FEF6D
:1004300038E210C080818EBD80E090E005C0019759
:1004400031F0232F2A95F1F70DB407FEF8CF31963E
:100450008EB56150662371F708951EBC80E090E070
:1004600038E205C0019731F0232F2A95F1F70DB43A
:1004700007FEF8CF8EB50895FC0138E20FC01EBC10
:1004800080E090E005C0019731F0232F2A95F1F725
:100490000DB407FEF8CF8EB581936150662379F7CE
:1004A00008951F93CF93DF93EB01142F2C9A2C9870
:1004B0000E94F10104C089910E94F10111501123A1
:1004C000D1F72C9ADF91CF911F9108959C01462F6F
:1004D00080EBB9010E94510208959C01462F88EAE1
:1004E000B9010E94510208959C01462F80EAB9018A
:1004F0000E94510208959C01462F80E3B9010E9499
:1005000051020895863018F4865D0E9451020895C4
:100510001F93982F162F2C9A2C98815E833010F001
:100520009F3F29F4892F0E94F1018FEF06C0892F88
:100530000E94F101812F0E94F1012C9A1F910895D0
:1005400081EE60E00E948802089582EE60E00E94E1
:1005500088020895863018F48F5C0E9488020895FE
:10056000880F880F880F842B660F682B86E20E9405
:1005700088020895682F85E20E9488020895629596
:10058000607F682B84E20E9488020895682F625081
:1005900083E20E9488020895FF920F931F938B01BC
:1005A000F42E2C9A2C980E94F101C8016F2D0E9404
:1005B0003C022C9A1F910F91FF9008952C9A2C9831
:1005C0000E94F1010E942D022C9A08958CE10E9454
:1005D000DE02882349F48DE10E94DE02882321F4A3
:1005E00080E563E70E948802089587E10E94DE02A9
:1005F0000895863010F08FEF08958F5E0E94DE021E
:10060000089587E00E94DE020895FF920F931F93E2
:100610008C010E94010390E08E70907095958795F3
:100620000E94F902F82E81E6B8014F2D0E94CC02FB
:100630008F2D1F910F91FF9008951F93182F8730D2
:1006400028F00E940103682F60670DC0843070F0AD
:100650000E94010321E030E002C0220F331F1A95EF
:10066000E2F7682F622B87E20E9488021F910895AB
:10067000882341F40E94DE02682F6E7F80E20E9490
:1006800088020895813041F480E00E94DE02682FE4
:10069000616080E20E9488020895813049F480E020
:1006A0000E94DE02682F626080E20E948802089544
:1006B000882339F40E94DE02682F6D7F80E20E9459
:1006C00088020895089508950F931F93DF93CF93A1
:1006D00000D000D00F92CDB7DEB7DE011196E1E079
:1006E000F1E085E001900D928150E1F78AB18066DA
:1006F0008AB98BB180668BB981E00E94E6012B98A4
:1007000080E26FE00E94880281E261E00E9488023C
:1007100082E261E00E94880283E263E00E94880234
:1007200084E26AE30E94880285E268E20E9488020D
:1007300086E266E20E94880287E00E941D038AE248
:100740008E010F5F1F4FB80145E00E94510280E308
:10075000B80145E00E94510281E365E00E948802F1
:100760002B9A0F900F900F900F900F90CF91DF91D9
:100770001F910F910895AA1BBB1B51E107C0AA1F2F
:10078000BB1FA617B70710F0A61BB70B881F991F32
:100790005A95A9F780959095BC01CD010895F894DC
:0207A000FFCF89
:0607A20001B2B3B4B5037F
:00000001FF
