:100000000C943E000C948B000C945B000C945B00F1
:100010000C945B000C945B000C945B000C945B00F4
:100020000C945B000C945B000C945B000C945B00E4
:100030000C945B000C945B000C945B000C945B00D4
:100040000C945B000C945B000C945B000C945B00C4
:100050000C945B000C945B000C945B000C945B00B4
:100060000C945B000C945B000C945B000C945B00A4
:100070000C945B000C945B000C945B0011241FBE7D
:10008000CFEFD8E0DEBFCDBF11E0A0E0B1E0EEEEF3
:10009000F4E002C005900D92A630B107D9F711E047
:1000A000A6E0B1E001C01D92AF30B107E1F70E94B8
:1000B000C6000C9475020C94000080EF81B99FEF8C
:1000C00092B98FEB84B995B997B998B982E08AB99A
:1000D0009BB9229A2A98219A29980895982F8130BD
:1000E00079F41CBA109268001BBA10927300109237
:1000F0006D0010926C0082E0809369009DBB0895B2
:10010000882309F41DBA0895FC0102C0419361508F
:100110006623E1F708951F920F920FB60F921124F4
:100120008F93F89481E08093080178948F910F90D9
:100130000FBE0F901F901895FF920F931F938C0185
:10014000F62E0E949E012B98C8016F2D0E947F0100
:100150002B9A80E58A95F1F72B981F910F91FF90CC
:1001600008950E945D001CBA109268001BBA10929C
:10017000730010926D0010926C0082E08093690011
:1001800081E08DBB0E94E101789408950F931F9345
:10019000DF93CF9300D000D00F92CDB7DEB7FE0132
:1001A0003196CE01069601C01192E817F907E1F7E2
:1001B0000E94B1008AE091E065E00E949C0080917D
:1001C00008018130B9F4109208010E94C201082F81
:1001D00085FF07C0219A299A229A2A9A85E00E94CF
:1001E000C60104FF07C0219A2998229A2A9884E020
:1001F0000E94C6010E946002882309F3DBCF813090
:1002000019F480E58CBD0895882319F48CB58F7B93
:100210008CBD08958EBD80E090E038E205C0019766
:1002200031F0232F2A95F1F70DB407FEF8CF8EB5E4
:100230000895FC018FEF38E20EC09EBD80E090E093
:1002400005C0019731F0232F2A95F1F70DB407FE71
:10025000F8CF31968EB59081992379F70895FC01F6
:100260008FEF38E210C080818EBD80E090E005C045
:10027000019731F0232F2A95F1F70DB407FEF8CF3F
:1002800031968EB56150662371F708951EBC80E0EB
:1002900090E038E205C0019731F0232F2A95F1F75D
:1002A0000DB407FEF8CF8EB50895FC0138E20FC0FB
:1002B0001EBC80E090E005C0019731F0232F2A9505
:1002C000F1F70DB407FEF8CF8EB581936150662328
:1002D00079F708951F93CF93DF93EB01142F2C9A96
:1002E0002C980E940A0104C089910E940A011150B1
:1002F0001123D1F72C9ADF91CF911F9108959C0182
:10030000462F80EAB9010E946A0108951F93982F31
:10031000162F2C9A2C98815E833010F09F3F29F481
:10032000892F0E940A018FEF06C0892F0E940A01BF
:10033000812F0E940A012C9A1F91089581EE60E09E
:100340000E948601089582EE60E00E948601089571
:10035000FF920F931F938B01F42E2C9A2C980E94DE
:100360000A01C8016F2D0E9455012C9A1F910F910F
:10037000FF9008952C9A2C980E940A010E94460131
:100380002C9A089587E00E94BA0108951F93182FB0
:10039000873028F00E94C201682F60670DC084304A
:1003A00070F00E94C20121E030E002C0220F331F32
:1003B0001A95E2F7682F622B87E20E9486011F914F
:1003C00008950F931F93DF93CF9300D000D00F9227
:1003D000CDB7DEB7DE011196E1E0F1E085E00190F6
:1003E0000D928150E1F78AB180668AB98BB180663F
:1003F0008BB981E00E94FF002B9880E26EE00E94A2
:10040000860181E261E00E94860182E261E00E9451
:10041000860183E263E00E94860184E26AE30E942F
:10042000860185E268E20E94860186E266E20E9419
:10043000860187E00E94C6018AE28E010F5F1F4F8E
:10044000B80145E00E946A0180E3B80145E00E94DE
:100450006A0181E365E00E9486010F900F900F9082
:100460000F900F90CF91DF911F910F9108955B9A9C
:100470005C9A5D9A5E9A5F9A029A4B9B0CC04C9B69
:100480000AC04D9B08C04E9B06C04F9B04C0029BF8
:1004900002C080E0089588E99AE30197F1F789B1F5
:1004A000869586958695809581704C9B82604D9B44
:1004B00084604E9B88604F9B8061029B80620895A0
:1004C0008AE091E065E040E00E9484000E943702EB
:1004D000982F80910901981711F480E00895909366
:0E04E000090190930B0181E00895F894FFCF7D
:0604EE0001B2B3B4B50336
:00000001FF
